{"abi":[{"type":"constructor","inputs":[],"stateMutability":"nonpayable"},{"type":"function","name":"onApprovalReceived","inputs":[{"name":"owner","type":"address","internalType":"address"},{"name":"value","type":"uint256","internalType":"uint256"},{"name":"data","type":"bytes","internalType":"bytes"}],"outputs":[{"name":"","type":"bytes4","internalType":"bytes4"}],"stateMutability":"nonpayable"},{"type":"function","name":"setUp","inputs":[{"name":"retval","type":"bytes4","internalType":"bytes4"},{"name":"error","type":"uint8","internalType":"enum ERC1363SpenderMock.RevertType"}],"outputs":[],"stateMutability":"nonpayable"},{"type":"event","name":"Approved","inputs":[{"name":"owner","type":"address","indexed":false,"internalType":"address"},{"name":"value","type":"uint256","indexed":false,"internalType":"uint256"},{"name":"data","type":"bytes","indexed":false,"internalType":"bytes"}],"anonymous":false},{"type":"error","name":"CustomError","inputs":[{"name":"","type":"bytes4","internalType":"bytes4"}]}],"bytecode":{"object":"0x6080604052348015600e575f5ffd5b505f805464ffffffffff1916637b04a2d01790556103b28061002f5f395ff3fe608060405234801561000f575f5ffd5b5060043610610034575f3560e01c806379317985146100385780637b04a2d01461004d575b5f5ffd5b61004b61004636600461022c565b61007d565b005b61006061005b366004610272565b6100be565b6040516001600160e01b0319909116815260200160405180910390f35b5f805460e084901c63ffffffff1982168117835583929164ffffffffff1916176401000000008360048111156100b5576100b5610302565b02179055505050565b5f60015f54640100000000900460ff1660048111156100df576100df610302565b036100e8575f5ffd5b60025f54640100000000900460ff16600481111561010857610108610302565b0361015a5760405162461bcd60e51b815260206004820152601d60248201527f455243313336335370656e6465724d6f636b3a20726576657274696e6700000060448201526064015b60405180910390fd5b60035f54640100000000900460ff16600481111561017a5761017a610302565b036101ae575f546040516301990d6f60e61b81526101519160e01b906004016001600160e01b031991909116815260200190565b60045f54640100000000900460ff1660048111156101ce576101ce610302565b036101e1575f6101de8180610316565b50505b7f1fa7af237aead0c77cd0a035a35b79014351b77f7edcf8d0d003cf14d90fc631858585856040516102169493929190610335565b60405180910390a1505f5460e01b949350505050565b5f5f6040838503121561023d575f5ffd5b82356001600160e01b031981168114610254575f5ffd5b9150602083013560058110610267575f5ffd5b809150509250929050565b5f5f5f5f60608587031215610285575f5ffd5b84356001600160a01b038116811461029b575f5ffd5b935060208501359250604085013567ffffffffffffffff8111156102bd575f5ffd5b8501601f810187136102cd575f5ffd5b803567ffffffffffffffff8111156102e3575f5ffd5b8760208284010111156102f4575f5ffd5b949793965060200194505050565b634e487b7160e01b5f52602160045260245ffd5b5f8261033057634e487b7160e01b5f52601260045260245ffd5b500490565b6001600160a01b0385168152602081018490526060604082018190528101829052818360808301375f818301608090810191909152601f909201601f19160101939250505056fea2646970667358221220cb80cc0a9f5009d0a4b5d5200db91cc3051f0f69923b432a1ed29d4fd3cff55064736f6c63430008210033","linkReferences":{}},"methodIdentifiers":{"onApprovalReceived(address,uint256,bytes)":"7b04a2d0","setUp(bytes4,uint8)":"79317985"},"id":233}