{"abi":[{"type":"function","name":"fail","inputs":[],"outputs":[],"stateMutability":"pure"},{"type":"function","name":"initialize","inputs":[],"outputs":[],"stateMutability":"nonpayable"},{"type":"function","name":"initializeOnlyInitializing","inputs":[],"outputs":[],"stateMutability":"nonpayable"},{"type":"function","name":"initializeWithX","inputs":[{"name":"_x","type":"uint256","internalType":"uint256"}],"outputs":[],"stateMutability":"payable"},{"type":"function","name":"initializerNested","inputs":[],"outputs":[],"stateMutability":"nonpayable"},{"type":"function","name":"initializerRan","inputs":[],"outputs":[{"name":"","type":"bool","internalType":"bool"}],"stateMutability":"view"},{"type":"function","name":"isInitializing","inputs":[],"outputs":[{"name":"","type":"bool","internalType":"bool"}],"stateMutability":"view"},{"type":"function","name":"nonInitializable","inputs":[{"name":"_x","type":"uint256","internalType":"uint256"}],"outputs":[],"stateMutability":"payable"},{"type":"function","name":"onlyInitializingNested","inputs":[],"outputs":[],"stateMutability":"nonpayable"},{"type":"function","name":"onlyInitializingRan","inputs":[],"outputs":[{"name":"","type":"bool","internalType":"bool"}],"stateMutability":"view"},{"type":"function","name":"x","inputs":[],"outputs":[{"name":"","type":"uint256","internalType":"uint256"}],"stateMutability":"view"},{"type":"event","name":"Initialized","inputs":[{"name":"version","type":"uint64","indexed":false,"internalType":"uint64"}],"anonymous":false},{"type":"error","name":"InvalidInitialization","inputs":[]},{"type":"error","name":"NotInitializing","inputs":[]}],"bytecode":{"object":"0x6080604052348015600e575f5ffd5b506106508061001c5f395ff3fe608060405260043610610099575f3560e01c806376268ae81161006257806376268ae8146101385780637cffe97a1461014c5780638129fc1c14610169578063a9cc47181461017d578063c3b8ef2a14610191578063e955c9ec146101a9575f5ffd5b806218eaa81461009d5780630c55699c146100b257806310065ed2146100da5780633ec91f05146100ee57806368449d1b14610124575b5f5ffd5b6100b06100ab3660046105e3565b6101bc565b005b3480156100bd575f5ffd5b506100c760015481565b6040519081526020015b60405180910390f35b3480156100e5575f5ffd5b506100b06102b3565b3480156100f9575f5ffd5b505f5160206105fb5f395f51905f5254600160401b900460ff165b60405190151581526020016100d1565b34801561012f575f5ffd5b506100b06102cb565b348015610143575f5ffd5b506100b06103c5565b348015610157575f5ffd5b505f5461011490610100900460ff1681565b348015610174575f5ffd5b506100b061046d565b348015610188575f5ffd5b506100b061055f565b34801561019c575f5ffd5b505f546101149060ff1681565b6100b06101b73660046105e3565b600155565b5f5160206105fb5f395f51905f528054600160401b810460ff16159067ffffffffffffffff165f811580156101ee5750825b90505f8267ffffffffffffffff16600114801561020a5750303b155b905081158015610218575080155b156102365760405163f92ee8a960e01b815260040160405180910390fd5b845467ffffffffffffffff19166001178555831561026057845460ff60401b1916600160401b1785555b600186905583156102ab57845460ff60401b19168555604051600181527fc7f505b2f371ae2175ee4913f4499e1f2633a7b5936321eed1cdaeb6115181d29060200160405180910390a15b505050505050565b6102bb6105ad565b5f805461ff001916610100179055565b5f5160206105fb5f395f51905f528054600160401b810460ff16159067ffffffffffffffff165f811580156102fd5750825b90505f8267ffffffffffffffff1660011480156103195750303b155b905081158015610327575080155b156103455760405163f92ee8a960e01b815260040160405180910390fd5b845467ffffffffffffffff19166001178555831561036f57845460ff60401b1916600160401b1785555b6103776102b3565b83156103be57845460ff60401b19168555604051600181527fc7f505b2f371ae2175ee4913f4499e1f2633a7b5936321eed1cdaeb6115181d2906020015b60405180910390a15b5050505050565b5f5160206105fb5f395f51905f528054600160401b810460ff16159067ffffffffffffffff165f811580156103f75750825b90505f8267ffffffffffffffff1660011480156104135750303b155b905081158015610421575080155b1561043f5760405163f92ee8a960e01b815260040160405180910390fd5b845467ffffffffffffffff19166001178555831561046957845460ff60401b1916600160401b1785555b6103775b5f5160206105fb5f395f51905f528054600160401b810460ff16159067ffffffffffffffff165f8115801561049f5750825b90505f8267ffffffffffffffff1660011480156104bb5750303b155b9050811580156104c9575080155b156104e75760405163f92ee8a960e01b815260040160405180910390fd5b845467ffffffffffffffff19166001178555831561051157845460ff60401b1916600160401b1785555b5f805460ff1916600117905583156103be57845460ff60401b19168555604051600181527fc7f505b2f371ae2175ee4913f4499e1f2633a7b5936321eed1cdaeb6115181d2906020016103b5565b60405162461bcd60e51b815260206004820181905260248201527f496e697469616c697a61626c654d6f636b20666f72636564206661696c757265604482015260640160405180910390fd5b565b5f5160206105fb5f395f51905f5254600160401b900460ff166105ab57604051631afcd79f60e31b815260040160405180910390fd5b5f602082840312156105f3575f5ffd5b503591905056fef0c57e16840df040f15088dc2f81fe391c3923bec73e23a9662efc9c229c6a00a2646970667358221220f081afca697a57602a58817895c7a9e8eac972b83081dcad2fb119fbd8434fab64736f6c63430008210033","linkReferences":{}},"methodIdentifiers":{"fail()":"a9cc4718","initialize()":"8129fc1c","initializeOnlyInitializing()":"10065ed2","initializeWithX(uint256)":"0018eaa8","initializerNested()":"76268ae8","initializerRan()":"c3b8ef2a","isInitializing()":"3ec91f05","nonInitializable(uint256)":"e955c9ec","onlyInitializingNested()":"68449d1b","onlyInitializingRan()":"7cffe97a","x()":"0c55699c"},"id":162}