{"abi":[{"type":"function","name":"chainReinitialize","inputs":[{"name":"i","type":"uint64","internalType":"uint64"},{"name":"j","type":"uint64","internalType":"uint64"}],"outputs":[],"stateMutability":"nonpayable"},{"type":"function","name":"counter","inputs":[],"outputs":[{"name":"","type":"uint256","internalType":"uint256"}],"stateMutability":"view"},{"type":"function","name":"disableInitializers","inputs":[],"outputs":[],"stateMutability":"nonpayable"},{"type":"function","name":"doStuff","inputs":[],"outputs":[],"stateMutability":"nonpayable"},{"type":"function","name":"getInitializedVersion","inputs":[],"outputs":[{"name":"","type":"uint64","internalType":"uint64"}],"stateMutability":"view"},{"type":"function","name":"initialize","inputs":[],"outputs":[],"stateMutability":"nonpayable"},{"type":"function","name":"nestedReinitialize","inputs":[{"name":"i","type":"uint64","internalType":"uint64"},{"name":"j","type":"uint64","internalType":"uint64"}],"outputs":[],"stateMutability":"nonpayable"},{"type":"function","name":"reinitialize","inputs":[{"name":"i","type":"uint64","internalType":"uint64"}],"outputs":[],"stateMutability":"nonpayable"},{"type":"event","name":"Initialized","inputs":[{"name":"version","type":"uint64","indexed":false,"internalType":"uint64"}],"anonymous":false},{"type":"error","name":"InvalidInitialization","inputs":[]},{"type":"error","name":"NotInitializing","inputs":[]}],"bytecode":{"object":"0x6080604052348015600e575f5ffd5b5061058c8061001c5f395ff3fe608060405234801561000f575f5ffd5b5060043610610085575f3560e01c80639a1b97df116100585780639a1b97df146100be578063b3c65015146100d1578063b5f214c0146100f1578063ff57ab7414610104575f5ffd5b806331f449001461008957806361bc221a146100935780638129fc1c146100ae578063874f33a1146100b6575b5f5ffd5b610091610117565b005b61009b5f5481565b6040519081526020015b60405180910390f35b610091610121565b610091610205565b6100916100cc3660046104a1565b610222565b6100d96102d7565b6040516001600160401b0390911681526020016100a5565b6100916100ff3660046104c1565b6102fb565b6100916101123660046104c1565b610311565b61011f6103c8565b565b5f5160206105375f395f51905f528054600160401b810460ff1615906001600160401b03165f811580156101525750825b90505f826001600160401b0316600114801561016d5750303b155b90508115801561017b575080155b156101995760405163f92ee8a960e01b815260040160405180910390fd5b845467ffffffffffffffff1916600117855583156101c357845460ff60401b1916600160401b1785555b6101cb610205565b83156101fe57845460ff60401b19168555604051600181525f5160206105175f395f51905f529060200160405180910390a15b5050505050565b61020d610450565b5f8054908061021b836104f2565b9190505550565b5f5160206105375f395f51905f528054829190600160401b900460ff1680610257575080546001600160401b03808416911610155b156102755760405163f92ee8a960e01b815260040160405180910390fd5b805468ffffffffffffffffff19166001600160401b03831617600160401b17815561029e610205565b805460ff60401b191681556040516001600160401b03831681525f5160206105175f395f51905f529060200160405180910390a1505050565b5f6102f65f5160206105375f395f51905f52546001600160401b031690565b905090565b61030482610222565b61030d81610222565b5050565b5f5160206105375f395f51905f528054839190600160401b900460ff1680610346575080546001600160401b03808416911610155b156103645760405163f92ee8a960e01b815260040160405180910390fd5b805468ffffffffffffffffff19166001600160401b03831617600160401b17815561038e83610222565b805460ff60401b191681556040516001600160401b03831681525f5160206105175f395f51905f529060200160405180910390a150505050565b5f5160206105375f395f51905f528054600160401b900460ff16156104005760405163f92ee8a960e01b815260040160405180910390fd5b80546001600160401b039081161461044d57805467ffffffffffffffff19166001600160401b0390811782556040519081525f5160206105175f395f51905f529060200160405180910390a15b50565b5f5160206105375f395f51905f5254600160401b900460ff1661011f57604051631afcd79f60e31b815260040160405180910390fd5b80356001600160401b038116811461049c575f5ffd5b919050565b5f602082840312156104b1575f5ffd5b6104ba82610486565b9392505050565b5f5f604083850312156104d2575f5ffd5b6104db83610486565b91506104e960208401610486565b90509250929050565b5f6001820161050f57634e487b7160e01b5f52601160045260245ffd5b506001019056fec7f505b2f371ae2175ee4913f4499e1f2633a7b5936321eed1cdaeb6115181d2f0c57e16840df040f15088dc2f81fe391c3923bec73e23a9662efc9c229c6a00a2646970667358221220bc754ca47d2fb28d41efc4cea3596d7ed1e30fed2a51a1622137c0ed3927258964736f6c63430008210033","linkReferences":{}},"methodIdentifiers":{"chainReinitialize(uint64,uint64)":"b5f214c0","counter()":"61bc221a","disableInitializers()":"31f44900","doStuff()":"874f33a1","getInitializedVersion()":"b3c65015","initialize()":"8129fc1c","nestedReinitialize(uint64,uint64)":"ff57ab74","reinitialize(uint64)":"9a1b97df"},"id":162}