{"abi":[{"type":"constructor","inputs":[],"stateMutability":"nonpayable"},{"type":"function","name":"callback","inputs":[],"outputs":[],"stateMutability":"nonpayable"},{"type":"function","name":"countAndCall","inputs":[{"name":"attacker","type":"address","internalType":"contract ReentrancyAttack"}],"outputs":[],"stateMutability":"nonpayable"},{"type":"function","name":"countAndCallView","inputs":[{"name":"attacker","type":"address","internalType":"contract ReentrancyAttack"}],"outputs":[],"stateMutability":"nonpayable"},{"type":"function","name":"countLocalRecursive","inputs":[{"name":"n","type":"uint256","internalType":"uint256"}],"outputs":[],"stateMutability":"nonpayable"},{"type":"function","name":"countThisRecursive","inputs":[{"name":"n","type":"uint256","internalType":"uint256"}],"outputs":[],"stateMutability":"nonpayable"},{"type":"function","name":"counter","inputs":[],"outputs":[{"name":"","type":"uint256","internalType":"uint256"}],"stateMutability":"view"},{"type":"function","name":"guardedCheckEntered","inputs":[],"outputs":[],"stateMutability":"nonpayable"},{"type":"function","name":"unguardedCheckNotEntered","inputs":[],"outputs":[],"stateMutability":"view"},{"type":"function","name":"viewCallback","inputs":[],"outputs":[{"name":"","type":"uint256","internalType":"uint256"}],"stateMutability":"view"},{"type":"error","name":"ReentrancyGuardReentrantCall","inputs":[]}],"bytecode":{"object":"0x6080604052348015600e575f5ffd5b5060017f9b779b17422d0df92223018b32b4d1fa46e071723d6817e2486d003becc55f00555f805561058a806100435f395ff3fe608060405234801561000f575f5ffd5b5060043610610090575f3560e01c806396ffa6901161006357806396ffa690146100d3578063a408f312146100e6578063b672ad8b146100ee578063cb52417614610101578063cecc95a714610114575f5ffd5b8063083b27321461009457806332e2a0411461009e57806361bc221a146100b85780638c5344fa146100c0575b5f5ffd5b61009c61011c565b005b6100a6610144565b60405190815260200160405180910390f35b6100a65f5481565b61009c6100ce366004610465565b610153565b61009c6100e1366004610465565b610274565b61009c610298565b61009c6100fc36600461047c565b6102ba565b61009c61010f36600461047c565b61035f565b61009c6103e9565b610124610403565b61012c61041e565b61014260015f5160206105355f395f51905f5255565b565b5f61014d610436565b505f5490565b61015b610403565b801561025b5761016961041e565b5f3080638c5344fa61017c6001866104bd565b60405160240161018e91815260200190565b60408051601f198184030181529181526020820180516001600160e01b031660e09490941b9390931790925290516101c692506104d6565b5f604051808303815f865af19150503d805f81146101ff576040519150601f19603f3d011682016040523d82523d5f602084013e610204565b606091505b50509050806102595760405162461bcd60e51b815260206004820152601b60248201527f5265656e7472616e63794d6f636b3a206661696c65642063616c6c0000000000604482015260640160405180910390fd5b505b61027160015f5160206105355f395f51905f5255565b50565b61027c610403565b801561025b5761028a61041e565b61025b6100e16001836104bd565b6102a0610403565b5f5160206105355f395f51905f525460021461012c575f5ffd5b6102c2610403565b6102ca61041e565b6040805160048082526024820183526020820180516001600160e01b031663041d939960e11b179052915163f8123dd560e01b81526001600160a01b0384169263f8123dd59261031c929091016104ec565b5f604051808303815f87803b158015610333575f5ffd5b505af1158015610345573d5f5f3e3d5ffd5b5050505061027160015f5160206105355f395f51905f5255565b610367610403565b61036f61041e565b6040805160048082526024820183526020820180516001600160e01b03166332e2a04160e01b1790529151631d62478560e11b81526001600160a01b03841692633ac48f0a926103c1929091016104ec565b5f6040518083038186803b1580156103d7575f5ffd5b505afa158015610345573d5f5f3e3d5ffd5b5f5160206105355f395f51905f5254600203610142575f5ffd5b61040b610436565b60025f5160206105355f395f51905f5255565b60015f5f82825461042f9190610521565b9091555050565b5f5160206105355f395f51905f525460020361014257604051633ee5aeb560e01b815260040160405180910390fd5b5f60208284031215610475575f5ffd5b5035919050565b5f6020828403121561048c575f5ffd5b81356001600160a01b03811681146104a2575f5ffd5b9392505050565b634e487b7160e01b5f52601160045260245ffd5b818103818111156104d0576104d06104a9565b92915050565b5f82518060208501845e5f920191825250919050565b602081525f82518060208401528060208501604085015e5f604082850101526040601f19601f83011684010191505092915050565b808201808211156104d0576104d06104a956fe9b779b17422d0df92223018b32b4d1fa46e071723d6817e2486d003becc55f00a2646970667358221220f285137ea1648846e0b1720402b6c54b43ae94bc7aa8b72f23f1837d37b2a97b64736f6c63430008210033","linkReferences":{}},"methodIdentifiers":{"callback()":"083b2732","countAndCall(address)":"b672ad8b","countAndCallView(address)":"cb524176","countLocalRecursive(uint256)":"96ffa690","countThisRecursive(uint256)":"8c5344fa","counter()":"61bc221a","guardedCheckEntered()":"a408f312","unguardedCheckNotEntered()":"cecc95a7","viewCallback()":"32e2a041"},"id":169}