{"abi":[{"type":"function","name":"canCall","inputs":[{"name":"","type":"address","internalType":"address"},{"name":"","type":"address","internalType":"address"},{"name":"","type":"bytes4","internalType":"bytes4"}],"outputs":[{"name":"immediate","type":"bool","internalType":"bool"},{"name":"delay","type":"uint32","internalType":"uint32"}],"stateMutability":"pure"},{"type":"function","name":"consumeScheduledOp","inputs":[{"name":"caller","type":"address","internalType":"address"},{"name":"data","type":"bytes","internalType":"bytes"}],"outputs":[],"stateMutability":"nonpayable"},{"type":"event","name":"ConsumeScheduledOpCalled","inputs":[{"name":"caller","type":"address","indexed":false,"internalType":"address"},{"name":"data","type":"bytes","indexed":false,"internalType":"bytes"},{"name":"isConsuming","type":"bytes4","indexed":false,"internalType":"bytes4"}],"anonymous":false}],"bytecode":{"object":"0x6080604052348015600e575f5ffd5b5061031f8061001c5f395ff3fe608060405234801561000f575f5ffd5b5060043610610034575f3560e01c806394c7d7ee14610038578063b70096131461004d575b5f5ffd5b61004b610046366004610153565b610086565b005b61006661005b36600461022f565b5f6001935093915050565b60408051921515835263ffffffff90911660208301520160405180910390f35b7f6be74e75ed90ba015d494c939c763657508b563a99197bf1323feb9e8f08b4018282336001600160a01b0316638fb360376040518163ffffffff1660e01b8152600401602060405180830381865afa1580156100e5573d5f5f3e3d5ffd5b505050506040513d601f19601f820116820180604052508101906101099190610273565b60405161011893929190610295565b60405180910390a15050565b80356001600160a01b038116811461013a575f5ffd5b919050565b634e487b7160e01b5f52604160045260245ffd5b5f5f60408385031215610164575f5ffd5b61016d83610124565b9150602083013567ffffffffffffffff811115610188575f5ffd5b8301601f81018513610198575f5ffd5b803567ffffffffffffffff8111156101b2576101b261013f565b604051601f8201601f19908116603f0116810167ffffffffffffffff811182821017156101e1576101e161013f565b6040528181528282016020018710156101f8575f5ffd5b816020840160208301375f602083830101528093505050509250929050565b6001600160e01b03198116811461022c575f5ffd5b50565b5f5f5f60608486031215610241575f5ffd5b61024a84610124565b925061025860208501610124565b9150604084013561026881610217565b809150509250925092565b5f60208284031215610283575f5ffd5b815161028e81610217565b9392505050565b60018060a01b0384168152606060208201525f83518060608401528060208601608085015e5f608082850101526080601f19601f83011684010191505063ffffffff60e01b8316604083015294935050505056fea2646970667358221220776e8fbef7227bcb5ef2571e7e16b7ca7585ba63a63609d62bc59dd01fdefa2164736f6c63430008210033","linkReferences":{}},"methodIdentifiers":{"canCall(address,address,bytes4)":"b7009613","consumeScheduledOp(address,bytes)":"94c7d7ee"},"id":149}