{"abi":[{"type":"function","name":"canCall","inputs":[{"name":"","type":"address","internalType":"address"},{"name":"","type":"address","internalType":"address"},{"name":"","type":"bytes4","internalType":"bytes4"}],"outputs":[],"stateMutability":"view"}],"bytecode":{"object":"0x6080604052348015600e575f5ffd5b5060d680601a5f395ff3fe6080604052348015600e575f5ffd5b50600436106026575f3560e01c8063b700961314602a575b5f5ffd5b603a60353660046056565b505050565b005b80356001600160a01b03811681146051575f5ffd5b919050565b5f5f5f606084860312156067575f5ffd5b606e84603c565b9250607a60208501603c565b915060408401356001600160e01b0319811681146095575f5ffd5b80915050925092509256fea2646970667358221220340a445471a7a9099b0379f8828f5ad229db2914a5c96f87949ace7351e98a4364736f6c63430008210033","linkReferences":{}},"methodIdentifiers":{"canCall(address,address,bytes4)":"b7009613"},"id":149}