{"abi":[{"type":"function","name":"_setDelay","inputs":[{"name":"delay","type":"uint256","internalType":"uint256"}],"outputs":[],"stateMutability":"nonpayable"},{"type":"function","name":"_setImmediate","inputs":[{"name":"immediate","type":"bool","internalType":"bool"}],"outputs":[],"stateMutability":"nonpayable"},{"type":"function","name":"canCall","inputs":[{"name":"","type":"address","internalType":"address"},{"name":"","type":"address","internalType":"address"},{"name":"","type":"bytes4","internalType":"bytes4"}],"outputs":[{"name":"immediate","type":"bool","internalType":"bool"},{"name":"delay","type":"uint256","internalType":"uint256"}],"stateMutability":"view"}],"bytecode":{"object":"0x6080604052348015600e575f5ffd5b506101918061001c5f395ff3fe608060405234801561000f575f5ffd5b506004361061003f575f3560e01c80633e5047b214610043578063b700961314610065578063fc176c04146100a0575b5f5ffd5b6100636100513660046100b3565b5f805460ff1916911515919091179055565b005b6100856100733660046100f4565b50505f5460015460ff90911692909150565b60408051921515835260208301919091520160405180910390f35b6100636100ae366004610144565b600155565b5f602082840312156100c3575f5ffd5b813580151581146100d2575f5ffd5b9392505050565b80356001600160a01b03811681146100ef575f5ffd5b919050565b5f5f5f60608486031215610106575f5ffd5b61010f846100d9565b925061011d602085016100d9565b915060408401356001600160e01b031981168114610139575f5ffd5b809150509250925092565b5f60208284031215610154575f5ffd5b503591905056fea2646970667358221220637394b4354a7df15713385efefc0a3e7b363b90ebf48d1042500901c44cfc8e64736f6c63430008210033","linkReferences":{}},"methodIdentifiers":{"_setDelay(uint256)":"fc176c04","_setImmediate(bool)":"3e5047b2","canCall(address,address,bytes4)":"b7009613"},"id":149}