{"abi":[{"type":"function","name":"canCall","inputs":[{"name":"","type":"address","internalType":"address"},{"name":"","type":"address","internalType":"address"},{"name":"","type":"bytes4","internalType":"bytes4"}],"outputs":[{"name":"","type":"bool","internalType":"bool"}],"stateMutability":"pure"}],"bytecode":{"object":"0x6080604052348015600e575f5ffd5b5061014d8061001c5f395ff3fe608060405234801561000f575f5ffd5b5060043610610029575f3560e01c8063b70096131461002d575b5f5ffd5b61004061003b3660046100c7565b610054565b604051901515815260200160405180910390f35b60405162461bcd60e51b815260206004820152602160248201527f4e6f74417574686f726974794d6f636b3a206e6f7420696d706c656d656e74656044820152601960fa1b60648201525f9060840160405180910390fd5b80356001600160a01b03811681146100c2575f5ffd5b919050565b5f5f5f606084860312156100d9575f5ffd5b6100e2846100ac565b92506100f0602085016100ac565b915060408401356001600160e01b03198116811461010c575f5ffd5b80915050925092509256fea26469706673582212209b332b19c75878032107986c1798ac3fb2466f04de7fdc5da533d4083d99f5ea64736f6c63430008210033","linkReferences":{}},"methodIdentifiers":{"canCall(address,address,bytes4)":"b7009613"},"id":149}