{"abi":[{"type":"receive","stateMutability":"payable"},{"type":"function","name":"entryPoint","inputs":[],"outputs":[{"name":"","type":"address","internalType":"contract IEntryPoint"}],"stateMutability":"view"},{"type":"function","name":"execute","inputs":[{"name":"mode","type":"bytes32","internalType":"bytes32"},{"name":"executionData","type":"bytes","internalType":"bytes"}],"outputs":[],"stateMutability":"payable"},{"type":"function","name":"getNonce","inputs":[{"name":"key","type":"uint192","internalType":"uint192"}],"outputs":[{"name":"","type":"uint256","internalType":"uint256"}],"stateMutability":"view"},{"type":"function","name":"getNonce","inputs":[],"outputs":[{"name":"","type":"uint256","internalType":"uint256"}],"stateMutability":"view"},{"type":"function","name":"onERC1155BatchReceived","inputs":[{"name":"","type":"address","internalType":"address"},{"name":"","type":"address","internalType":"address"},{"name":"","type":"uint256[]","internalType":"uint256[]"},{"name":"","type":"uint256[]","internalType":"uint256[]"},{"name":"","type":"bytes","internalType":"bytes"}],"outputs":[{"name":"","type":"bytes4","internalType":"bytes4"}],"stateMutability":"nonpayable"},{"type":"function","name":"onERC1155Received","inputs":[{"name":"","type":"address","internalType":"address"},{"name":"","type":"address","internalType":"address"},{"name":"","type":"uint256","internalType":"uint256"},{"name":"","type":"uint256","internalType":"uint256"},{"name":"","type":"bytes","internalType":"bytes"}],"outputs":[{"name":"","type":"bytes4","internalType":"bytes4"}],"stateMutability":"nonpayable"},{"type":"function","name":"onERC721Received","inputs":[{"name":"","type":"address","internalType":"address"},{"name":"","type":"address","internalType":"address"},{"name":"","type":"uint256","internalType":"uint256"},{"name":"","type":"bytes","internalType":"bytes"}],"outputs":[{"name":"","type":"bytes4","internalType":"bytes4"}],"stateMutability":"nonpayable"},{"type":"function","name":"supportsExecutionMode","inputs":[{"name":"mode","type":"bytes32","internalType":"bytes32"}],"outputs":[{"name":"result","type":"bool","internalType":"bool"}],"stateMutability":"view"},{"type":"function","name":"supportsInterface","inputs":[{"name":"interfaceId","type":"bytes4","internalType":"bytes4"}],"outputs":[{"name":"","type":"bool","internalType":"bool"}],"stateMutability":"view"},{"type":"function","name":"validateUserOp","inputs":[{"name":"userOp","type":"tuple","internalType":"struct PackedUserOperation","components":[{"name":"sender","type":"address","internalType":"address"},{"name":"nonce","type":"uint256","internalType":"uint256"},{"name":"initCode","type":"bytes","internalType":"bytes"},{"name":"callData","type":"bytes","internalType":"bytes"},{"name":"accountGasLimits","type":"bytes32","internalType":"bytes32"},{"name":"preVerificationGas","type":"uint256","internalType":"uint256"},{"name":"gasFees","type":"bytes32","internalType":"bytes32"},{"name":"paymasterAndData","type":"bytes","internalType":"bytes"},{"name":"signature","type":"bytes","internalType":"bytes"}]},{"name":"userOpHash","type":"bytes32","internalType":"bytes32"},{"name":"missingAccountFunds","type":"uint256","internalType":"uint256"}],"outputs":[{"name":"","type":"uint256","internalType":"uint256"}],"stateMutability":"nonpayable"},{"type":"event","name":"ERC7579TryExecuteFail","inputs":[{"name":"batchExecutionIndex","type":"uint256","indexed":false,"internalType":"uint256"},{"name":"returndata","type":"bytes","indexed":false,"internalType":"bytes"}],"anonymous":false},{"type":"error","name":"AccountUnauthorized","inputs":[{"name":"sender","type":"address","internalType":"address"}]},{"type":"error","name":"ERC7579DecodingError","inputs":[]},{"type":"error","name":"ERC7579UnsupportedExecType","inputs":[{"name":"execType","type":"bytes1","internalType":"ExecType"}]},{"type":"error","name":"FailedCall","inputs":[]},{"type":"error","name":"OutOfRangeAccess","inputs":[]},{"type":"error","name":"UnsupportedExecutionMode","inputs":[]}],"bytecode":{"object":"0x6080604052348015600e575f5ffd5b50610fc98061001c5f395ff3fe608060405260043610610092575f3560e01c8063bc197c8111610057578063bc197c811461018e578063d03c7914146101b9578063d087d288146101d8578063e9ae5c53146101ec578063f23a6e6114610201575f5ffd5b806301ffc9a71461009d578063150b7a02146100d157806319822f7c146101145780633e1b081214610141578063b0d691fe14610160575f5ffd5b3661009957005b5f5ffd5b3480156100a8575f5ffd5b506100bc6100b7366004610a76565b61022c565b60405190151581526020015b60405180910390f35b3480156100dc575f5ffd5b506100fb6100eb366004610b6e565b630a85bd0160e11b949350505050565b6040516001600160e01b031990911681526020016100c8565b34801561011f575f5ffd5b5061013361012e366004610bd1565b610262565b6040519081526020016100c8565b34801561014c575f5ffd5b5061013361015b366004610c1f565b610297565b34801561016b575f5ffd5b5060405173433709009b8330fda32311df1c2afa402ed8d00981526020016100c8565b348015610199575f5ffd5b506100fb6101a8366004610cba565b63bc197c8160e01b95945050505050565b3480156101c4575f5ffd5b506100bc6101d3366004610d66565b610324565b3480156101e3575f5ffd5b5061013361037b565b6101ff6101fa366004610d7d565b61038a565b005b34801561020c575f5ffd5b506100fb61021b366004610df2565b63f23a6e6160e01b95945050505050565b5f6001600160e01b03198216630271189760e51b148061025c57506301ffc9a760e01b6001600160e01b03198316145b92915050565b5f61026b6103f1565b5f610284858561027f610100830183610e45565b610434565b905061028f83610455565b949350505050565b5f73433709009b8330fda32311df1c2afa402ed8d009604051631aab3f0d60e11b81523060048201526001600160c01b03841660248201526001600160a01b0391909116906335567e1a90604401602060405180830381865afa158015610300573d5f5f3e3d5ffd5b505050506040513d601f19601f8201168201806040525081019061025c9190610e8e565b5f5f5f5f61033185610478565b50919450925090506001600160f81b03198316600160f81b14801561035e57506001600160f81b03198216155b801561037257506001600160e01b03198116155b95945050505050565b5f6103855f610297565b905090565b610396338484846104b6565b6103ba57604051637cf8632b60e01b81523360048201526024015b60405180910390fd5b6103c383610324565b6103e057604051637f18127560e01b815260040160405180910390fd5b6103eb82825f6104ee565b50505050565b3373433709009b8330fda32311df1c2afa402ed8d009811461043157604051637cf8632b60e01b81526001600160a01b03821660048201526024016103b1565b50565b5f61044084848461061e565b61044b576001610372565b5f95945050505050565b801561043157610474338260405180602001604052805f815250610664565b5050565b5f5f5f5f610486855f610679565b610491866001610679565b61049c8760066106b1565b6104a788600a6106e9565b93509350935093509193509193565b5f6001600160a01b03851673433709009b8330fda32311df1c2afa402ed8d00914806103725750306001600160a01b03861614610372565b6060365f6104fc8686610724565b9092509050806001600160401b0381111561051957610519610abf565b60405190808252806020026020018201604052801561054c57816020015b60608152602001906001900390816105375790505b5092505f5b81811015610614576105ef818685858581811061057057610570610ea5565b90506020028101906105829190610eb9565b610590906020810190610ed7565b8686868181106105a2576105a2610ea5565b90506020028101906105b49190610eb9565b602001358787878181106105ca576105ca610ea5565b90506020028101906105dc9190610eb9565b6105ea906040810190610e45565b6107e9565b84828151811061060157610601610ea5565b6020908102919091010152600101610551565b5050509392505050565b5f5f5f61062c86868661087b565b509092509050306001600160a01b03831614801561065a57505f81600381111561065857610658610ef0565b145b9695505050505050565b5f5f5f83516020850186885af1949350505050565b5f601f8260ff16111561069f57604051631dd4bb1b60e11b815260040160405180910390fd5b506008021b6001600160f81b03191690565b5f601c8260ff1611156106d757604051631dd4bb1b60e11b815260040160405180910390fd5b506008021b6001600160e01b03191690565b5f600a8260ff16111561070f57604051631dd4bb1b60e11b815260040160405180910390fd5b506008021b69ffffffffffffffffffff191690565b365f8260208110156107495760405163eb0bcc5d60e01b815260040160405180910390fd5b5f6107576020828789610f04565b61076091610f2b565b9050601f1982018111156107875760405163eb0bcc5d60e01b815260040160405180910390fd5b5f6107976020830183888a610f04565b6107a091610f2b565b90506001600160401b038111806107be575080602002602083850303105b156107dc5760405163eb0bcc5d60e01b815260040160405180910390fd5b9501602001959350505050565b60605f806001600160a01b038716156108025786610804565b305b6001600160a01b031686868660405161081e929190610f48565b5f6040518083038185875af1925050503d805f8114610858576040519150601f19603f3d011682016040523d82523d5f602084013e61085d565b606091505b509150915061086e898984846108c2565b9998505050505050505050565b5f808060418490036108af578435602086013560408701355f1a6108a189828585610969565b9550955095505050506108b9565b505f915060029050825b93509350939050565b60606001600160f81b031984166108e3576108dd8383610a31565b50610961565b6001600160f81b03198416600160f81b0361093c5782610937577f2eea2f51f83910481f4b5ba28b7003a6e045d4b59f67dfff8d4c901194050089858360405161092e929190610f57565b60405180910390a15b610961565b6040516323a2408560e01b81526001600160f81b0319851660048201526024016103b1565b509392505050565b5f80807f7fffffffffffffffffffffffffffffff5d576e7357a4501ddfe92f46681b20a08411156109a257505f91506003905082610a27565b604080515f808252602082018084528a905260ff891692820192909252606081018790526080810186905260019060a0016020604051602081039080840390855afa1580156109f3573d5f5f3e3d5ffd5b5050604051601f1901519150506001600160a01b038116610a1e57505f925060019150829050610a27565b92505f91508190505b9450945094915050565b60608215610a4057508061025c565b815115610a5557610a5082610a6e565b61025c565b60405163d6bda27560e01b815260040160405180910390fd5b805160208201fd5b5f60208284031215610a86575f5ffd5b81356001600160e01b031981168114610a9d575f5ffd5b9392505050565b80356001600160a01b0381168114610aba575f5ffd5b919050565b634e487b7160e01b5f52604160045260245ffd5b604051601f8201601f191681016001600160401b0381118282101715610afb57610afb610abf565b604052919050565b5f82601f830112610b12575f5ffd5b81356001600160401b03811115610b2b57610b2b610abf565b610b3e601f8201601f1916602001610ad3565b818152846020838601011115610b52575f5ffd5b816020850160208301375f918101602001919091529392505050565b5f5f5f5f60808587031215610b81575f5ffd5b610b8a85610aa4565b9350610b9860208601610aa4565b92506040850135915060608501356001600160401b03811115610bb9575f5ffd5b610bc587828801610b03565b91505092959194509250565b5f5f5f60608486031215610be3575f5ffd5b83356001600160401b03811115610bf8575f5ffd5b84016101208187031215610c0a575f5ffd5b95602085013595506040909401359392505050565b5f60208284031215610c2f575f5ffd5b81356001600160c01b0381168114610a9d575f5ffd5b5f82601f830112610c54575f5ffd5b81356001600160401b03811115610c6d57610c6d610abf565b8060051b610c7d60208201610ad3565b91825260208185018101929081019086841115610c98575f5ffd5b6020860192505b8383101561065a578235825260209283019290910190610c9f565b5f5f5f5f5f60a08688031215610cce575f5ffd5b610cd786610aa4565b9450610ce560208701610aa4565b935060408601356001600160401b03811115610cff575f5ffd5b610d0b88828901610c45565b93505060608601356001600160401b03811115610d26575f5ffd5b610d3288828901610c45565b92505060808601356001600160401b03811115610d4d575f5ffd5b610d5988828901610b03565b9150509295509295909350565b5f60208284031215610d76575f5ffd5b5035919050565b5f5f5f60408486031215610d8f575f5ffd5b8335925060208401356001600160401b03811115610dab575f5ffd5b8401601f81018613610dbb575f5ffd5b80356001600160401b03811115610dd0575f5ffd5b866020828401011115610de1575f5ffd5b939660209190910195509293505050565b5f5f5f5f5f60a08688031215610e06575f5ffd5b610e0f86610aa4565b9450610e1d60208701610aa4565b9350604086013592506060860135915060808601356001600160401b03811115610d4d575f5ffd5b5f5f8335601e19843603018112610e5a575f5ffd5b8301803591506001600160401b03821115610e73575f5ffd5b602001915036819003821315610e87575f5ffd5b9250929050565b5f60208284031215610e9e575f5ffd5b5051919050565b634e487b7160e01b5f52603260045260245ffd5b5f8235605e19833603018112610ecd575f5ffd5b9190910192915050565b5f60208284031215610ee7575f5ffd5b610a9d82610aa4565b634e487b7160e01b5f52602160045260245ffd5b5f5f85851115610f12575f5ffd5b83861115610f1e575f5ffd5b5050820193919092039150565b8035602083101561025c575f19602084900360031b1b1692915050565b818382375f9101908152919050565b828152604060208201525f82518060408401528060208501606085015e5f606082850101526060601f19601f830116840101915050939250505056fea264697066735822122003846b9708b35a69fc01cf08a28bce2c3ec6759400526bcd75b7279e89b274a764736f6c63430008210033","linkReferences":{}},"methodIdentifiers":{"entryPoint()":"b0d691fe","execute(bytes32,bytes)":"e9ae5c53","getNonce()":"d087d288","getNonce(uint192)":"3e1b0812","onERC1155BatchReceived(address,address,uint256[],uint256[],bytes)":"bc197c81","onERC1155Received(address,address,uint256,uint256,bytes)":"f23a6e61","onERC721Received(address,address,uint256,bytes)":"150b7a02","supportsExecutionMode(bytes32)":"d03c7914","supportsInterface(bytes4)":"01ffc9a7","validateUserOp((address,uint256,bytes,bytes,bytes32,uint256,bytes32,bytes,bytes),bytes32,uint256)":"19822f7c"},"id":196}