{"abi":[{"type":"function","name":"get","inputs":[],"outputs":[{"name":"","type":"bool","internalType":"bool"}],"stateMutability":"pure"},{"type":"function","name":"initialize","inputs":[{"name":"_value","type":"uint256","internalType":"uint256"},{"name":"_text","type":"string","internalType":"string"},{"name":"_values","type":"uint256[]","internalType":"uint256[]"}],"outputs":[],"stateMutability":"nonpayable"},{"type":"function","name":"initializeNonPayable","inputs":[],"outputs":[],"stateMutability":"nonpayable"},{"type":"function","name":"initializeNonPayableWithValue","inputs":[{"name":"_value","type":"uint256","internalType":"uint256"}],"outputs":[],"stateMutability":"nonpayable"},{"type":"function","name":"initializePayable","inputs":[],"outputs":[],"stateMutability":"payable"},{"type":"function","name":"initializePayableWithValue","inputs":[{"name":"_value","type":"uint256","internalType":"uint256"}],"outputs":[],"stateMutability":"payable"},{"type":"function","name":"migrate","inputs":[{"name":"newVal","type":"uint256","internalType":"uint256"}],"outputs":[],"stateMutability":"payable"},{"type":"function","name":"reverts","inputs":[],"outputs":[],"stateMutability":"pure"},{"type":"function","name":"text","inputs":[],"outputs":[{"name":"","type":"string","internalType":"string"}],"stateMutability":"view"},{"type":"function","name":"unsafeOverrideAdmin","inputs":[{"name":"newAdmin","type":"address","internalType":"address"}],"outputs":[],"stateMutability":"nonpayable"},{"type":"function","name":"value","inputs":[],"outputs":[{"name":"","type":"uint256","internalType":"uint256"}],"stateMutability":"view"},{"type":"function","name":"values","inputs":[{"name":"","type":"uint256","internalType":"uint256"}],"outputs":[{"name":"","type":"uint256","internalType":"uint256"}],"stateMutability":"view"},{"type":"function","name":"version","inputs":[],"outputs":[{"name":"","type":"string","internalType":"string"}],"stateMutability":"pure"}],"bytecode":{"object":"0x6080604052348015600e575f5ffd5b506107808061001c5f395ff3fe6080604052600436106100bf575f3560e01c806354fd4d501161007c578063763e283111610057578063763e28311461020b5780639fba1f9a14610225578063d31f8b6b1461022e578063e79f5bee14610195575f5ffd5b806354fd4d50146101a75780635e383d21146101d15780636d4ce63c146101f0575f5ffd5b806319af86e7146100c35780631f1bd69214610120578063227367d51461014a5780633bccbbc91461015f5780633fa4f24514610173578063454b060814610195575b5f5ffd5b3480156100ce575f5ffd5b5061011e6100dd366004610367565b7fb53127684a568b3173ae13b9f8a6016e243e63b6e8ee1178d6a717850b5d610380546001600160a01b0319166001600160a01b0392909216919091179055565b005b34801561012b575f5ffd5b5061013461024d565b6040516101419190610394565b60405180910390f35b348015610155575f5ffd5b5061011e600a5f55565b34801561016a575f5ffd5b5061011e6102d9565b34801561017e575f5ffd5b506101875f5481565b604051908152602001610141565b61011e6101a33660046103c9565b5f55565b3480156101b2575f5ffd5b506040805180820190915260028152612b1960f11b6020820152610134565b3480156101dc575f5ffd5b506101876101eb3660046103c9565b610325565b3480156101fb575f5ffd5b5060405160018152602001610141565b348015610216575f5ffd5b5061011e6101a33660046103c9565b61011e60645f55565b348015610239575f5ffd5b5061011e6102483660046104a5565b610344565b6001805461025a9061056c565b80601f01602080910402602001604051908101604052809291908181526020018280546102869061056c565b80156102d15780601f106102a8576101008083540402835291602001916102d1565b820191905f5260205f20905b8154815290600101906020018083116102b457829003601f168201915b505050505081565b60405162461bcd60e51b815260206004820152601c60248201527f44756d6d79496d706c656d656e746174696f6e20726576657274656400000000604482015260640160405180910390fd5b60028181548110610334575f80fd5b5f91825260209091200154905081565b5f83905560016103548382610606565b50600261036182826106c1565b50505050565b5f60208284031215610377575f5ffd5b81356001600160a01b038116811461038d575f5ffd5b9392505050565b602081525f82518060208401528060208501604085015e5f604082850101526040601f19601f83011684010191505092915050565b5f602082840312156103d9575f5ffd5b5035919050565b634e487b7160e01b5f52604160045260245ffd5b604051601f8201601f1916810167ffffffffffffffff8111828210171561041d5761041d6103e0565b604052919050565b5f82601f830112610434575f5ffd5b813567ffffffffffffffff81111561044e5761044e6103e0565b8060051b61045e602082016103f4565b91825260208185018101929081019086841115610479575f5ffd5b6020860192505b8383101561049b578235825260209283019290910190610480565b9695505050505050565b5f5f5f606084860312156104b7575f5ffd5b83359250602084013567ffffffffffffffff8111156104d4575f5ffd5b8401601f810186136104e4575f5ffd5b803567ffffffffffffffff8111156104fe576104fe6103e0565b610511601f8201601f19166020016103f4565b818152876020838501011115610525575f5ffd5b816020840160208301375f60208383010152809450505050604084013567ffffffffffffffff811115610556575f5ffd5b61056286828701610425565b9150509250925092565b600181811c9082168061058057607f821691505b60208210810361059e57634e487b7160e01b5f52602260045260245ffd5b50919050565b5f5b828110156105bb575f828201556001016105a6565b505050565b601f8211156105bb57828211156105bb57805f5260205f20601f840160051c60208510156105eb57505f5b6105ff81601f860160051c038284016105a4565b5050505050565b815167ffffffffffffffff811115610620576106206103e0565b6106348161062e845461056c565b846105c0565b6020601f821160018114610666575f831561064f5750848201515b5f19600385901b1c1916600184901b1784556105ff565b5f84815260208120601f198516915b828110156106955787850151825560209485019460019092019101610675565b50848210156106b257868401515f19600387901b60f8161c191681555b50505050600190811b01905550565b815167ffffffffffffffff8111156106db576106db6103e0565b680100000000000000008111156106f4576106f46103e0565b81548183558082101561071857825f528160205f2001610716838303826105a4565b505b5060208301825f5260205f205f5b8381101561074257825182820155602090920191600101610726565b50505050505056fea264697066735822122054ed6a9b24240ad867650efa74a4f1f129b160e0d3f8ec72da28504509ec061d64736f6c63430008210033","linkReferences":{}},"methodIdentifiers":{"get()":"6d4ce63c","initialize(uint256,string,uint256[])":"d31f8b6b","initializeNonPayable()":"227367d5","initializeNonPayableWithValue(uint256)":"763e2831","initializePayable()":"9fba1f9a","initializePayableWithValue(uint256)":"e79f5bee","migrate(uint256)":"454b0608","reverts()":"3bccbbc9","text()":"1f1bd692","unsafeOverrideAdmin(address)":"19af86e7","value()":"3fa4f245","values(uint256)":"5e383d21","version()":"54fd4d50"},"id":155}