{"abi":[{"type":"function","name":"depth","inputs":[],"outputs":[{"name":"","type":"uint256","internalType":"uint256"}],"stateMutability":"view"},{"type":"function","name":"nextLeafIndex","inputs":[],"outputs":[{"name":"","type":"uint256","internalType":"uint256"}],"stateMutability":"view"},{"type":"function","name":"push","inputs":[{"name":"leaf","type":"bytes32","internalType":"bytes32"}],"outputs":[],"stateMutability":"nonpayable"},{"type":"function","name":"root","inputs":[],"outputs":[{"name":"","type":"bytes32","internalType":"bytes32"}],"stateMutability":"view"},{"type":"function","name":"setup","inputs":[{"name":"_depth","type":"uint8","internalType":"uint8"},{"name":"_zero","type":"bytes32","internalType":"bytes32"}],"outputs":[],"stateMutability":"nonpayable"},{"type":"function","name":"sides","inputs":[{"name":"i","type":"uint256","internalType":"uint256"}],"outputs":[{"name":"","type":"bytes32","internalType":"bytes32"}],"stateMutability":"view"},{"type":"function","name":"update","inputs":[{"name":"index","type":"uint256","internalType":"uint256"},{"name":"oldValue","type":"bytes32","internalType":"bytes32"},{"name":"newValue","type":"bytes32","internalType":"bytes32"},{"name":"proof","type":"bytes32[]","internalType":"bytes32[]"}],"outputs":[],"stateMutability":"nonpayable"},{"type":"function","name":"zeros","inputs":[{"name":"i","type":"uint256","internalType":"uint256"}],"outputs":[{"name":"","type":"bytes32","internalType":"bytes32"}],"stateMutability":"view"},{"type":"event","name":"LeafInserted","inputs":[{"name":"leaf","type":"bytes32","indexed":false,"internalType":"bytes32"},{"name":"index","type":"uint256","indexed":false,"internalType":"uint256"},{"name":"root","type":"bytes32","indexed":false,"internalType":"bytes32"}],"anonymous":false},{"type":"event","name":"LeafUpdated","inputs":[{"name":"oldLeaf","type":"bytes32","indexed":false,"internalType":"bytes32"},{"name":"newLeaf","type":"bytes32","indexed":false,"internalType":"bytes32"},{"name":"index","type":"uint256","indexed":false,"internalType":"uint256"},{"name":"root","type":"bytes32","indexed":false,"internalType":"bytes32"}],"anonymous":false},{"type":"error","name":"MerkleTreeUpdateInvalidIndex","inputs":[{"name":"index","type":"uint256","internalType":"uint256"},{"name":"length","type":"uint256","internalType":"uint256"}]},{"type":"error","name":"MerkleTreeUpdateInvalidProof","inputs":[]}],"bytecode":{"object":"0x6080604052348015600e575f5ffd5b506107118061001c5f395ff3fe608060405234801561000f575f5ffd5b5060043610610085575f3560e01c8063b3eb738a11610058578063b3eb738a146100ce578063b66987b6146100e1578063e8295588146100f4578063ebf0c71714610107575f5ffd5b80630be4f422146100895780631935699e1461009e578063631c56ef146100b3578063b298e36b146100bb575b5f5ffd5b5f545b60405190815260200160405180910390f35b6100b16100ac36600461055a565b610110565b005b60025461008c565b6100b16100c936600461063e565b610197565b61008c6100dc36600461063e565b6101f0565b6100b16100ef366004610655565b610216565b61008c61010236600461063e565b610228565b61008c60035481565b5f8061011f818787878761023e565b91509150600354821461014557604051636ea6c9a760e11b815260040160405180910390fd5b6040805186815260208101869052908101879052606081018290527fe03551f7503c4040ae401d457f073dc1e751b1e9f8ccc5627854fa7a7f3977769060800160405180910390a16003555050505050565b5f806101a3818461025e565b604080518681526020810184905290810182905291935091507fd50e83984b64a106ac2ee6314d689ec4d2a656d5ece6d94c585796944b52240c9060600160405180910390a16003555050565b5f5f600101828154811061020657610206610684565b905f5260205f2001549050919050565b6102215f8383610278565b6003555050565b5f5f600201828154811061020657610206610684565b5f5f610250878787878761028f6102be565b915091509550959350505050565b5f5f61026d848461028f6103f8565b915091509250929050565b5f61028784848461028f6104c2565b949350505050565b5f8183106102a9575f8281526020849052604090206102b7565b5f8381526020839052604090205b9392505050565b85545f9081908088106102f257604051637ab6866560e11b8152600481018990526024810182905260440160405180910390fd5b5f6102fe8a6002015490565b905060018a015f1983018a8a8a5f5b868163ffffffff1610156103e357600194851c9484811c94161580801561033357508585145b15610371575f610349888463ffffffff16610516565b8054909150851461036d57604051636ea6c9a760e11b815260040160405180910390fd5b8390555b5f8d8363ffffffff168151811061038a5761038a610684565b602002602001015190506103ba826103a257816103a4565b855b836103af57866103b1565b825b8f63ffffffff16565b94506103d7826103ca57816103cc565b845b836103af57856103b1565b9350505060010161030d565b50909e909d509b505050505050505050505050565b5f5f5f610406866002015490565b8654909150865f61041683610698565b9091555092506001811b8310610430576104306041610535565b82855f5b838110156104b5575f6104486002856106bc565b1590508015610461578261045f8b60010184610516565b555b6104a18161047c576104768b60010184610516565b5461047e565b835b826104895784610498565b6104968c60020185610516565b545b8a63ffffffff16565b600194851c94909350919091019050610434565b5092505050935093915050565b60ff83166001850181905560028501555f82815b8560ff1681101561050857816104ef8860020183610516565b556104fe828063ffffffff8716565b91506001016104d6565b505f86559050949350505050565b5f826102876105328461052e845f9081526020902090565b0190565b90565b634e487b715f52806020526024601cfd5b634e487b7160e01b5f52604160045260245ffd5b5f5f5f5f6080858703121561056d575f5ffd5b843593506020850135925060408501359150606085013567ffffffffffffffff811115610598575f5ffd5b8501601f810187136105a8575f5ffd5b803567ffffffffffffffff8111156105c2576105c2610546565b8060051b604051601f19603f830116810181811067ffffffffffffffff821117156105ef576105ef610546565b60405291825260208184018101929081018a84111561060c575f5ffd5b6020850194505b8385101561062f57843580825260209586019590935001610613565b50969995985093965050505050565b5f6020828403121561064e575f5ffd5b5035919050565b5f5f60408385031215610666575f5ffd5b823560ff81168114610676575f5ffd5b946020939093013593505050565b634e487b7160e01b5f52603260045260245ffd5b5f600182016106b557634e487b7160e01b5f52601160045260245ffd5b5060010190565b5f826106d657634e487b7160e01b5f52601260045260245ffd5b50069056fea2646970667358221220b7ce6f59e446708af573ab478f5d42e852b4e68a0d8c46fa51166246db97840164736f6c63430008210033","linkReferences":{}},"methodIdentifiers":{"depth()":"631c56ef","nextLeafIndex()":"0be4f422","push(bytes32)":"b298e36b","root()":"ebf0c717","setup(uint8,bytes32)":"b66987b6","sides(uint256)":"b3eb738a","update(uint256,bytes32,bytes32,bytes32[])":"1935699e","zeros(uint256)":"e8295588"},"id":164}