{"abi":[{"type":"function","name":"current","inputs":[],"outputs":[{"name":"","type":"uint256","internalType":"uint256"}],"stateMutability":"view"},{"type":"function","name":"increment","inputs":[],"outputs":[],"stateMutability":"nonpayable"},{"type":"function","name":"proxiableUUID","inputs":[],"outputs":[{"name":"","type":"bytes32","internalType":"bytes32"}],"stateMutability":"pure"}],"bytecode":{"object":"0x6080604052348015600e575f5ffd5b5060ea8061001b5f395ff3fe6080604052348015600e575f5ffd5b5060043610603a575f3560e01c806352d1902d14603e5780639fa6a6e3146072578063d09de08a146078575b5f5ffd5b7fc7bdf275ab48e354dbabdecbbb74bbfdd6e318310cd733f757b9d79846c9a09a5b60405190815260200160405180910390f35b5f546060565b607e6080565b005b5f5f8154608b906091565b90915550565b5f6001820160ad57634e487b7160e01b5f52601160045260245ffd5b506001019056fea2646970667358221220176686b5e99502df243a7f72135f4de2cd49cc65cf851f07e233c3fbd896833b64736f6c63430008210033","linkReferences":{}},"methodIdentifiers":{"current()":"9fa6a6e3","increment()":"d09de08a","proxiableUUID()":"52d1902d"},"id":227}