{"abi":[{"type":"function","name":"UPGRADE_INTERFACE_VERSION","inputs":[],"outputs":[{"name":"","type":"string","internalType":"string"}],"stateMutability":"view"},{"type":"function","name":"current","inputs":[],"outputs":[{"name":"","type":"uint256","internalType":"uint256"}],"stateMutability":"view"},{"type":"function","name":"increment","inputs":[],"outputs":[],"stateMutability":"nonpayable"},{"type":"function","name":"proxiableUUID","inputs":[],"outputs":[{"name":"","type":"bytes32","internalType":"bytes32"}],"stateMutability":"view"},{"type":"function","name":"upgradeToAndCall","inputs":[{"name":"newImplementation","type":"address","internalType":"address"},{"name":"data","type":"bytes","internalType":"bytes"}],"outputs":[],"stateMutability":"payable"},{"type":"event","name":"Upgraded","inputs":[{"name":"implementation","type":"address","indexed":true,"internalType":"address"}],"anonymous":false},{"type":"error","name":"AddressEmptyCode","inputs":[{"name":"target","type":"address","internalType":"address"}]},{"type":"error","name":"ERC1967InvalidImplementation","inputs":[{"name":"implementation","type":"address","internalType":"address"}]},{"type":"error","name":"ERC1967NonPayable","inputs":[]},{"type":"error","name":"FailedCall","inputs":[]},{"type":"error","name":"UUPSUnauthorizedCallContext","inputs":[]},{"type":"error","name":"UUPSUnsupportedProxiableUUID","inputs":[{"name":"slot","type":"bytes32","internalType":"bytes32"}]}],"bytecode":{"object":"0x60a0604052306080523480156012575f5ffd5b506080516104c761002b5f395f6101a101526104c75ff3fe608060405260043610610049575f3560e01c80634f1ef2861461004d57806352d1902d146100625780639fa6a6e314610089578063ad3cb1cc1461009c578063d09de08a146100d9575b5f5ffd5b61006061005b366004610367565b6100ed565b005b34801561006d575f5ffd5b506100766100fb565b6040519081526020015b60405180910390f35b348015610094575f5ffd5b505f54610076565b3480156100a7575f5ffd5b506100cc604051806040016040528060058152602001640352e302e360dc1b81525081565b6040516100809190610438565b3480156100e4575f5ffd5b50610060610129565b6100f7828261013c565b5050565b5f610104610196565b507f360894a13ba1a3210667c828492db98dca3e2076cc3735a920a3ca505d382bbc90565b5f5f81546101369061046d565b90915550565b610145826101e1565b6040516001600160a01b038316907fbc7cd75a20ee27fd9adebab32041f755214dbc6bffa90cc0225b39da2e5c2d3b905f90a280511561018e57610189828261025c565b505050565b6100f76102fd565b306001600160a01b037f000000000000000000000000000000000000000000000000000000000000000016146101df5760405163703e46dd60e11b815260040160405180910390fd5b565b806001600160a01b03163b5f0361021b57604051634c9c8ce360e01b81526001600160a01b03821660048201526024015b60405180910390fd5b7f360894a13ba1a3210667c828492db98dca3e2076cc3735a920a3ca505d382bbc80546001600160a01b0319166001600160a01b0392909216919091179055565b60605f610269848461031c565b905080801561028a57505f3d118061028a57505f846001600160a01b03163b115b1561029f5761029761032f565b9150506102f7565b80156102c957604051639996b31560e01b81526001600160a01b0385166004820152602401610212565b3d156102dc576102d7610348565b6102f5565b60405163d6bda27560e01b815260040160405180910390fd5b505b92915050565b34156101df5760405163b398979f60e01b815260040160405180910390fd5b5f5f5f835160208501865af49392505050565b6040513d81523d5f602083013e3d602001810160405290565b6040513d5f823e3d81fd5b634e487b7160e01b5f52604160045260245ffd5b5f5f60408385031215610378575f5ffd5b82356001600160a01b038116811461038e575f5ffd5b9150602083013567ffffffffffffffff8111156103a9575f5ffd5b8301601f810185136103b9575f5ffd5b803567ffffffffffffffff8111156103d3576103d3610353565b604051601f8201601f19908116603f0116810167ffffffffffffffff8111828210171561040257610402610353565b604052818152828201602001871015610419575f5ffd5b816020840160208301375f602083830101528093505050509250929050565b602081525f82518060208401528060208501604085015e5f604082850101526040601f19601f83011684010191505092915050565b5f6001820161048a57634e487b7160e01b5f52601160045260245ffd5b506001019056fea26469706673582212201985cd4d8d1722ee1b4423b6b4134af377f31ae31ca7a47072153ea7e9a0987064736f6c63430008210033","linkReferences":{}},"methodIdentifiers":{"UPGRADE_INTERFACE_VERSION()":"ad3cb1cc","current()":"9fa6a6e3","increment()":"d09de08a","proxiableUUID()":"52d1902d","upgradeToAndCall(address,bytes)":"4f1ef286"},"id":227}