{"abi":[{"type":"constructor","inputs":[],"stateMutability":"nonpayable"},{"type":"function","name":"callback","inputs":[],"outputs":[],"stateMutability":"nonpayable"},{"type":"function","name":"countAndCall","inputs":[{"name":"attacker","type":"address","internalType":"contract ReentrancyAttack"}],"outputs":[],"stateMutability":"nonpayable"},{"type":"function","name":"countAndCallView","inputs":[{"name":"attacker","type":"address","internalType":"contract ReentrancyAttack"}],"outputs":[],"stateMutability":"nonpayable"},{"type":"function","name":"countLocalRecursive","inputs":[{"name":"n","type":"uint256","internalType":"uint256"}],"outputs":[],"stateMutability":"nonpayable"},{"type":"function","name":"countThisRecursive","inputs":[{"name":"n","type":"uint256","internalType":"uint256"}],"outputs":[],"stateMutability":"nonpayable"},{"type":"function","name":"counter","inputs":[],"outputs":[{"name":"","type":"uint256","internalType":"uint256"}],"stateMutability":"view"},{"type":"function","name":"guardedCheckEntered","inputs":[],"outputs":[],"stateMutability":"nonpayable"},{"type":"function","name":"unguardedCheckNotEntered","inputs":[],"outputs":[],"stateMutability":"view"},{"type":"function","name":"viewCallback","inputs":[],"outputs":[{"name":"","type":"uint256","internalType":"uint256"}],"stateMutability":"view"},{"type":"error","name":"ReentrancyGuardReentrantCall","inputs":[]}],"bytecode":{"object":"0x6080604052348015600e575f5ffd5b505f805561058a8061001f5f395ff3fe608060405234801561000f575f5ffd5b5060043610610090575f3560e01c806396ffa6901161006357806396ffa690146100d3578063a408f312146100e6578063b672ad8b146100ee578063cb52417614610101578063cecc95a714610114575f5ffd5b8063083b27321461009457806332e2a0411461009e57806361bc221a146100b85780638c5344fa146100c0575b5f5ffd5b61009c61011c565b005b6100a6610136565b60405190815260200160405180910390f35b6100a65f5481565b61009c6100ce366004610465565b610145565b61009c6100e1366004610465565b610264565b61009c610288565b61009c6100fc36600461047c565b6102a7565b61009c61010f36600461047c565b61033e565b61009c6103c8565b6101246103e0565b61012c610402565b61013461041a565b565b5f61013f610431565b505f5490565b61014d6103e0565b80156102595761015b610402565b5f3080638c5344fa61016e6001866104bd565b60405160240161018091815260200190565b60408051601f198184030181529181526020820180516001600160e01b031660e09490941b9390931790925290516101b892506104d6565b5f604051808303815f865af19150503d805f81146101f1576040519150601f19603f3d011682016040523d82523d5f602084013e6101f6565b606091505b50509050806102575760405162461bcd60e51b8152602060048201526024808201527f5265656e7472616e63795472616e7369656e744d6f636b3a206661696c65642060448201526318d85b1b60e21b606482015260840160405180910390fd5b505b61026161041a565b50565b61026c6103e0565b80156102595761027a610402565b6102596100e16001836104bd565b6102906103e0565b5f5160206105355f395f51905f525c61012c575f5ffd5b6102af6103e0565b6102b7610402565b6040805160048082526024820183526020820180516001600160e01b031663041d939960e11b179052915163f8123dd560e01b81526001600160a01b0384169263f8123dd592610309929091016104ec565b5f604051808303815f87803b158015610320575f5ffd5b505af1158015610332573d5f5f3e3d5ffd5b5050505061026161041a565b6103466103e0565b61034e610402565b6040805160048082526024820183526020820180516001600160e01b03166332e2a04160e01b1790529151631d62478560e11b81526001600160a01b03841692633ac48f0a926103a0929091016104ec565b5f6040518083038186803b1580156103b6575f5ffd5b505afa158015610332573d5f5f3e3d5ffd5b5f5160206105355f395f51905f525c15610134575f5ffd5b6103e8610431565b61013460015f5160206105355f395f51905f525b9061045e565b60015f5f8282546104139190610521565b9091555050565b6101345f5f5160206105355f395f51905f526103fc565b5f5160206105355f395f51905f525c1561013457604051633ee5aeb560e01b815260040160405180910390fd5b80825d5050565b5f60208284031215610475575f5ffd5b5035919050565b5f6020828403121561048c575f5ffd5b81356001600160a01b03811681146104a2575f5ffd5b9392505050565b634e487b7160e01b5f52601160045260245ffd5b818103818111156104d0576104d06104a9565b92915050565b5f82518060208501845e5f920191825250919050565b602081525f82518060208401528060208501604085015e5f604082850101526040601f19601f83011684010191505092915050565b808201808211156104d0576104d06104a956fe9b779b17422d0df92223018b32b4d1fa46e071723d6817e2486d003becc55f00a264697066735822122070c31da70f0c73f414bcda60265ff4e1cad35e980ad0fe6fb50f7644d92fe39964736f6c63430008210033","linkReferences":{}},"methodIdentifiers":{"callback()":"083b2732","countAndCall(address)":"b672ad8b","countAndCallView(address)":"cb524176","countLocalRecursive(uint256)":"96ffa690","countThisRecursive(uint256)":"8c5344fa","counter()":"61bc221a","guardedCheckEntered()":"a408f312","unguardedCheckNotEntered()":"cecc95a7","viewCallback()":"32e2a041"},"id":170}