{"abi":[{"type":"function","name":"encode","inputs":[{"name":"input","type":"bytes","internalType":"bytes"}],"outputs":[{"name":"","type":"string","internalType":"string"}],"stateMutability":"pure"}],"bytecode":{"object":"0x6080604052348015600e575f5ffd5b506103988061001c5f395ff3fe608060405234801561000f575f5ffd5b5060043610610029575f3560e01c806312496a1b1461002d575b5f5ffd5b61004061003b36600461021d565b610056565b60405161004d91906102d0565b60405180910390f35b60408051602081019091525f19815260609061007183610078565b9392505050565b6060610084825f61008a565b92915050565b606082515f036100a8575060408051602081019091525f8152610084565b5f826100d8576003845160026100be9190610319565b6100c8919061032c565b6100d390600461034b565b6100fd565b6003845160046100e8919061034b565b6100f3906002610319565b6100fd919061032c565b905060405191507f4142434445464748494a4b4c4d4e4f505152535455565758595a616263646566601f5261067083027f6768696a6b6c6d6e6f707172737475767778797a303132333435363738392b2f18603f526020820181810185865187016020810180515f82525b828410156101bb576003840193508351603f8160121c16518753600187019650603f81600c1c16518753600187019650603f8160061c16518753600187019650603f811651875350600186019550610168565b9052508590506101fc576003865106600181146101df57600281146101f2576101fa565b603d6001840353603d60028403536101fa565b603d60018403535b505b9183525060405292915050565b634e487b7160e01b5f52604160045260245ffd5b5f6020828403121561022d575f5ffd5b813567ffffffffffffffff811115610243575f5ffd5b8201601f81018413610253575f5ffd5b803567ffffffffffffffff81111561026d5761026d610209565b604051601f8201601f19908116603f0116810167ffffffffffffffff8111828210171561029c5761029c610209565b6040528181528282016020018610156102b3575f5ffd5b816020840160208301375f91810160200191909152949350505050565b602081525f82518060208401528060208501604085015e5f604082850101526040601f19601f83011684010191505092915050565b634e487b7160e01b5f52601160045260245ffd5b8082018082111561008457610084610305565b5f8261034657634e487b7160e01b5f52601260045260245ffd5b500490565b80820281158282048414176100845761008461030556fea26469706673582212200f42cbbdcd54f199b6216841eba93eb33e1dd9f5694853594a05dba877786fa464736f6c63430008210033","linkReferences":{}},"methodIdentifiers":{"encode(bytes)":"12496a1b"},"id":150}