{"abi":[{"type":"function","name":"bar","inputs":[],"outputs":[],"stateMutability":"nonpayable"},{"type":"function","name":"foo","inputs":[],"outputs":[],"stateMutability":"nonpayable"},{"type":"function","name":"multicall","inputs":[{"name":"data","type":"bytes[]","internalType":"bytes[]"}],"outputs":[{"name":"results","type":"bytes[]","internalType":"bytes[]"}],"stateMutability":"nonpayable"},{"type":"error","name":"AddressEmptyCode","inputs":[{"name":"target","type":"address","internalType":"address"}]},{"type":"error","name":"FailedCall","inputs":[]}],"bytecode":{"object":"0x6080604052348015600e575f5ffd5b506103f08061001c5f395ff3fe608060405234801561000f575f5ffd5b506004361061003f575f3560e01c8063ac9650d814610043578063c29855781461006c578063febb0f7e1461006c575b5f5ffd5b610056610051366004610230565b61006e565b60405161006391906102a1565b60405180910390f35b005b604080515f8152602081019091526060908267ffffffffffffffff81111561009857610098610325565b6040519080825280602002602001820160405280156100cb57816020015b60608152602001906001900390816100b65790505b5091505f5b8381101561014c57610127308686848181106100ee576100ee610339565b9050602002810190610100919061034d565b8560405160200161011393929190610397565b604051602081830303815290604052610155565b83828151811061013957610139610339565b60209081029190910101526001016100d0565b50505b92915050565b60605f61016284846101f9565b905080801561018357505f3d118061018357505f846001600160a01b03163b115b156101985761019061020c565b91505061014f565b80156101c657604051639996b31560e01b81526001600160a01b038516600482015260240160405180910390fd5b3d156101d9576101d4610225565b6101f2565b60405163d6bda27560e01b815260040160405180910390fd5b5092915050565b5f5f5f835160208501865af49392505050565b6040513d81523d5f602083013e3d602001810160405290565b6040513d5f823e3d81fd5b5f5f60208385031215610241575f5ffd5b823567ffffffffffffffff811115610257575f5ffd5b8301601f81018513610267575f5ffd5b803567ffffffffffffffff81111561027d575f5ffd5b8560208260051b8401011115610291575f5ffd5b6020919091019590945092505050565b5f602082016020835280845180835260408501915060408160051b8601019250602086015f5b8281101561031957603f19878603018452815180518087528060208301602089015e5f602082890101526020601f19601f830116880101965050506020820191506020840193506001810190506102c7565b50929695505050505050565b634e487b7160e01b5f52604160045260245ffd5b634e487b7160e01b5f52603260045260245ffd5b5f5f8335601e19843603018112610362575f5ffd5b83018035915067ffffffffffffffff82111561037c575f5ffd5b602001915036819003821315610390575f5ffd5b9250929050565b828482375f8382015f815283518060208601835e5f91019081529594505050505056fea26469706673582212202a0212d4ac7e4f33d38bb405f3988169a01c2cb1244130feef412e6a67c6280664736f6c63430008210033","linkReferences":{}},"methodIdentifiers":{"bar()":"febb0f7e","foo()":"c2985578","multicall(bytes[])":"ac9650d8"},"id":208}