{"abi":[{"type":"function","name":"callSender","inputs":[{"name":"data","type":"bytes","internalType":"bytes"}],"outputs":[],"stateMutability":"nonpayable"},{"type":"function","name":"staticcallSender","inputs":[{"name":"data","type":"bytes","internalType":"bytes"}],"outputs":[],"stateMutability":"view"}],"bytecode":{"object":"0x6080604052348015600e575f5ffd5b506102198061001c5f395ff3fe608060405234801561000f575f5ffd5b5060043610610034575f3560e01c80633ac48f0a14610038578063f8123dd51461004d575b5f5ffd5b61004b610046366004610166565b610060565b005b61004b61005b366004610166565b610112565b5f336001600160a01b0316838360405161007b9291906101d4565b5f60405180830381855afa9150503d805f81146100b3576040519150601f19603f3d011682016040523d82523d5f602084013e6100b8565b606091505b505090508061010d5760405162461bcd60e51b815260206004820152601d60248201527f5265656e7472616e637941747461636b3a206661696c65642063616c6c000000604482015260640160405180910390fd5b505050565b5f336001600160a01b0316838360405161012d9291906101d4565b5f604051808303815f865af19150503d805f81146100b3576040519150601f19603f3d011682016040523d82523d5f602084013e6100b8565b5f5f60208385031215610177575f5ffd5b823567ffffffffffffffff81111561018d575f5ffd5b8301601f8101851361019d575f5ffd5b803567ffffffffffffffff8111156101b3575f5ffd5b8560208284010111156101c4575f5ffd5b6020919091019590945092505050565b818382375f910190815291905056fea2646970667358221220a53d6cc487b7168ad7c23370a4494b720cafc695cde8d6c275669dbd5e497dc964736f6c63430008210033","linkReferences":{}},"methodIdentifiers":{"callSender(bytes)":"f8123dd5","staticcallSender(bytes)":"3ac48f0a"},"id":168}