{"abi":[{"type":"constructor","inputs":[],"stateMutability":"nonpayable"},{"type":"function","name":"count","inputs":[],"outputs":[{"name":"","type":"uint256","internalType":"uint256"}],"stateMutability":"view"},{"type":"function","name":"drasticMeasure","inputs":[],"outputs":[],"stateMutability":"nonpayable"},{"type":"function","name":"drasticMeasureTaken","inputs":[],"outputs":[{"name":"","type":"bool","internalType":"bool"}],"stateMutability":"view"},{"type":"function","name":"normalProcess","inputs":[],"outputs":[],"stateMutability":"nonpayable"},{"type":"function","name":"pause","inputs":[],"outputs":[],"stateMutability":"nonpayable"},{"type":"function","name":"paused","inputs":[],"outputs":[{"name":"","type":"bool","internalType":"bool"}],"stateMutability":"view"},{"type":"function","name":"unpause","inputs":[],"outputs":[],"stateMutability":"nonpayable"},{"type":"event","name":"Paused","inputs":[{"name":"account","type":"address","indexed":false,"internalType":"address"}],"anonymous":false},{"type":"event","name":"Unpaused","inputs":[{"name":"account","type":"address","indexed":false,"internalType":"address"}],"anonymous":false},{"type":"error","name":"EnforcedPause","inputs":[]},{"type":"error","name":"ExpectedPause","inputs":[]}],"bytecode":{"object":"0x6080604052348015600e575f5ffd5b505f805461ff0019168155600155610257806100295f395ff3fe608060405234801561000f575f5ffd5b506004361061007a575f3560e01c806376657b8e1161005857806376657b8e146100ba5780638456cb59146100cb5780639958f045146100d3578063e7651d7a146100db575f5ffd5b806306661abd1461007e5780633f4ba83a1461009a5780635c975abb146100a4575b5f5ffd5b61008760015481565b6040519081526020015b60405180910390f35b6100a26100e3565b005b5f5460ff165b6040519015158152602001610091565b5f546100aa90610100900460ff1681565b6100a26100ed565b6100a26100f5565b6100a261010d565b6100eb61012b565b565b6100eb61017c565b6100fd6101b8565b5f805461ff001916610100179055565b6101156101da565b60018054905f610124836101fd565b9190505550565b6101336101b8565b5f805460ff191690557f5db9ee0a495bf2e6ff9c91a7834c1ba4fdd244a5e8aa4e537bd38aeae4b073aa335b6040516001600160a01b03909116815260200160405180910390a1565b6101846101da565b5f805460ff191660011790557f62e78cea01bee320cd4e420270b5ea74000d11b0c9f74754ebdbfc544b05a25861015f3390565b5f5460ff166100eb57604051638dfc202b60e01b815260040160405180910390fd5b5f5460ff16156100eb5760405163d93c066560e01b815260040160405180910390fd5b5f6001820161021a57634e487b7160e01b5f52601160045260245ffd5b506001019056fea26469706673582212200c1bc7c31adb1423f958f93e87d0cfc5644fcca638cc6db2ba67aa0abb0bd34964736f6c63430008210033","linkReferences":{}},"methodIdentifiers":{"count()":"06661abd","drasticMeasure()":"9958f045","drasticMeasureTaken()":"76657b8e","normalProcess()":"e7651d7a","pause()":"8456cb59","paused()":"5c975abb","unpause()":"3f4ba83a"},"id":167}