{"abi":[{"type":"constructor","inputs":[{"name":"initialAdmin","type":"address","internalType":"address"}],"stateMutability":"nonpayable"},{"type":"function","name":"ADMIN_ROLE","inputs":[],"outputs":[{"name":"","type":"uint64","internalType":"uint64"}],"stateMutability":"view"},{"type":"function","name":"PUBLIC_ROLE","inputs":[],"outputs":[{"name":"","type":"uint64","internalType":"uint64"}],"stateMutability":"view"},{"type":"function","name":"canCall","inputs":[{"name":"caller","type":"address","internalType":"address"},{"name":"target","type":"address","internalType":"address"},{"name":"selector","type":"bytes4","internalType":"bytes4"}],"outputs":[{"name":"immediate","type":"bool","internalType":"bool"},{"name":"delay","type":"uint32","internalType":"uint32"}],"stateMutability":"view"},{"type":"function","name":"cancel","inputs":[{"name":"caller","type":"address","internalType":"address"},{"name":"target","type":"address","internalType":"address"},{"name":"data","type":"bytes","internalType":"bytes"}],"outputs":[{"name":"","type":"uint32","internalType":"uint32"}],"stateMutability":"nonpayable"},{"type":"function","name":"consumeScheduledOp","inputs":[{"name":"caller","type":"address","internalType":"address"},{"name":"data","type":"bytes","internalType":"bytes"}],"outputs":[],"stateMutability":"nonpayable"},{"type":"function","name":"execute","inputs":[{"name":"target","type":"address","internalType":"address"},{"name":"data","type":"bytes","internalType":"bytes"}],"outputs":[{"name":"","type":"uint32","internalType":"uint32"}],"stateMutability":"payable"},{"type":"function","name":"expiration","inputs":[],"outputs":[{"name":"","type":"uint32","internalType":"uint32"}],"stateMutability":"view"},{"type":"function","name":"fnRestricted","inputs":[],"outputs":[],"stateMutability":"nonpayable"},{"type":"function","name":"fnUnrestricted","inputs":[],"outputs":[],"stateMutability":"nonpayable"},{"type":"function","name":"getAccess","inputs":[{"name":"roleId","type":"uint64","internalType":"uint64"},{"name":"account","type":"address","internalType":"address"}],"outputs":[{"name":"since","type":"uint48","internalType":"uint48"},{"name":"currentDelay","type":"uint32","internalType":"uint32"},{"name":"pendingDelay","type":"uint32","internalType":"uint32"},{"name":"effect","type":"uint48","internalType":"uint48"}],"stateMutability":"view"},{"type":"function","name":"getNonce","inputs":[{"name":"id","type":"bytes32","internalType":"bytes32"}],"outputs":[{"name":"","type":"uint32","internalType":"uint32"}],"stateMutability":"view"},{"type":"function","name":"getRoleAdmin","inputs":[{"name":"roleId","type":"uint64","internalType":"uint64"}],"outputs":[{"name":"","type":"uint64","internalType":"uint64"}],"stateMutability":"view"},{"type":"function","name":"getRoleGrantDelay","inputs":[{"name":"roleId","type":"uint64","internalType":"uint64"}],"outputs":[{"name":"","type":"uint32","internalType":"uint32"}],"stateMutability":"view"},{"type":"function","name":"getRoleGuardian","inputs":[{"name":"roleId","type":"uint64","internalType":"uint64"}],"outputs":[{"name":"","type":"uint64","internalType":"uint64"}],"stateMutability":"view"},{"type":"function","name":"getSchedule","inputs":[{"name":"id","type":"bytes32","internalType":"bytes32"}],"outputs":[{"name":"","type":"uint48","internalType":"uint48"}],"stateMutability":"view"},{"type":"function","name":"getTargetAdminDelay","inputs":[{"name":"target","type":"address","internalType":"address"}],"outputs":[{"name":"","type":"uint32","internalType":"uint32"}],"stateMutability":"view"},{"type":"function","name":"getTargetFunctionRole","inputs":[{"name":"target","type":"address","internalType":"address"},{"name":"selector","type":"bytes4","internalType":"bytes4"}],"outputs":[{"name":"","type":"uint64","internalType":"uint64"}],"stateMutability":"view"},{"type":"function","name":"grantRole","inputs":[{"name":"roleId","type":"uint64","internalType":"uint64"},{"name":"account","type":"address","internalType":"address"},{"name":"executionDelay","type":"uint32","internalType":"uint32"}],"outputs":[],"stateMutability":"nonpayable"},{"type":"function","name":"hasRole","inputs":[{"name":"roleId","type":"uint64","internalType":"uint64"},{"name":"account","type":"address","internalType":"address"}],"outputs":[{"name":"isMember","type":"bool","internalType":"bool"},{"name":"executionDelay","type":"uint32","internalType":"uint32"}],"stateMutability":"view"},{"type":"function","name":"hashOperation","inputs":[{"name":"caller","type":"address","internalType":"address"},{"name":"target","type":"address","internalType":"address"},{"name":"data","type":"bytes","internalType":"bytes"}],"outputs":[{"name":"","type":"bytes32","internalType":"bytes32"}],"stateMutability":"view"},{"type":"function","name":"isTargetClosed","inputs":[{"name":"target","type":"address","internalType":"address"}],"outputs":[{"name":"","type":"bool","internalType":"bool"}],"stateMutability":"view"},{"type":"function","name":"labelRole","inputs":[{"name":"roleId","type":"uint64","internalType":"uint64"},{"name":"label","type":"string","internalType":"string"}],"outputs":[],"stateMutability":"nonpayable"},{"type":"function","name":"minSetback","inputs":[],"outputs":[{"name":"","type":"uint32","internalType":"uint32"}],"stateMutability":"view"},{"type":"function","name":"multicall","inputs":[{"name":"data","type":"bytes[]","internalType":"bytes[]"}],"outputs":[{"name":"results","type":"bytes[]","internalType":"bytes[]"}],"stateMutability":"nonpayable"},{"type":"function","name":"renounceRole","inputs":[{"name":"roleId","type":"uint64","internalType":"uint64"},{"name":"callerConfirmation","type":"address","internalType":"address"}],"outputs":[],"stateMutability":"nonpayable"},{"type":"function","name":"revokeRole","inputs":[{"name":"roleId","type":"uint64","internalType":"uint64"},{"name":"account","type":"address","internalType":"address"}],"outputs":[],"stateMutability":"nonpayable"},{"type":"function","name":"schedule","inputs":[{"name":"target","type":"address","internalType":"address"},{"name":"data","type":"bytes","internalType":"bytes"},{"name":"when","type":"uint48","internalType":"uint48"}],"outputs":[{"name":"operationId","type":"bytes32","internalType":"bytes32"},{"name":"nonce","type":"uint32","internalType":"uint32"}],"stateMutability":"nonpayable"},{"type":"function","name":"setGrantDelay","inputs":[{"name":"roleId","type":"uint64","internalType":"uint64"},{"name":"newDelay","type":"uint32","internalType":"uint32"}],"outputs":[],"stateMutability":"nonpayable"},{"type":"function","name":"setRoleAdmin","inputs":[{"name":"roleId","type":"uint64","internalType":"uint64"},{"name":"admin","type":"uint64","internalType":"uint64"}],"outputs":[],"stateMutability":"nonpayable"},{"type":"function","name":"setRoleGuardian","inputs":[{"name":"roleId","type":"uint64","internalType":"uint64"},{"name":"guardian","type":"uint64","internalType":"uint64"}],"outputs":[],"stateMutability":"nonpayable"},{"type":"function","name":"setTargetAdminDelay","inputs":[{"name":"target","type":"address","internalType":"address"},{"name":"newDelay","type":"uint32","internalType":"uint32"}],"outputs":[],"stateMutability":"nonpayable"},{"type":"function","name":"setTargetClosed","inputs":[{"name":"target","type":"address","internalType":"address"},{"name":"closed","type":"bool","internalType":"bool"}],"outputs":[],"stateMutability":"nonpayable"},{"type":"function","name":"setTargetFunctionRole","inputs":[{"name":"target","type":"address","internalType":"address"},{"name":"selectors","type":"bytes4[]","internalType":"bytes4[]"},{"name":"roleId","type":"uint64","internalType":"uint64"}],"outputs":[],"stateMutability":"nonpayable"},{"type":"function","name":"updateAuthority","inputs":[{"name":"target","type":"address","internalType":"address"},{"name":"newAuthority","type":"address","internalType":"address"}],"outputs":[],"stateMutability":"nonpayable"},{"type":"event","name":"CalledRestricted","inputs":[{"name":"caller","type":"address","indexed":false,"internalType":"address"}],"anonymous":false},{"type":"event","name":"CalledUnrestricted","inputs":[{"name":"caller","type":"address","indexed":false,"internalType":"address"}],"anonymous":false},{"type":"event","name":"OperationCanceled","inputs":[{"name":"operationId","type":"bytes32","indexed":true,"internalType":"bytes32"},{"name":"nonce","type":"uint32","indexed":true,"internalType":"uint32"}],"anonymous":false},{"type":"event","name":"OperationExecuted","inputs":[{"name":"operationId","type":"bytes32","indexed":true,"internalType":"bytes32"},{"name":"nonce","type":"uint32","indexed":true,"internalType":"uint32"}],"anonymous":false},{"type":"event","name":"OperationScheduled","inputs":[{"name":"operationId","type":"bytes32","indexed":true,"internalType":"bytes32"},{"name":"nonce","type":"uint32","indexed":true,"internalType":"uint32"},{"name":"schedule","type":"uint48","indexed":false,"internalType":"uint48"},{"name":"caller","type":"address","indexed":false,"internalType":"address"},{"name":"target","type":"address","indexed":false,"internalType":"address"},{"name":"data","type":"bytes","indexed":false,"internalType":"bytes"}],"anonymous":false},{"type":"event","name":"RoleAdminChanged","inputs":[{"name":"roleId","type":"uint64","indexed":true,"internalType":"uint64"},{"name":"admin","type":"uint64","indexed":true,"internalType":"uint64"}],"anonymous":false},{"type":"event","name":"RoleGrantDelayChanged","inputs":[{"name":"roleId","type":"uint64","indexed":true,"internalType":"uint64"},{"name":"delay","type":"uint32","indexed":false,"internalType":"uint32"},{"name":"since","type":"uint48","indexed":false,"internalType":"uint48"}],"anonymous":false},{"type":"event","name":"RoleGranted","inputs":[{"name":"roleId","type":"uint64","indexed":true,"internalType":"uint64"},{"name":"account","type":"address","indexed":true,"internalType":"address"},{"name":"delay","type":"uint32","indexed":false,"internalType":"uint32"},{"name":"since","type":"uint48","indexed":false,"internalType":"uint48"},{"name":"newMember","type":"bool","indexed":false,"internalType":"bool"}],"anonymous":false},{"type":"event","name":"RoleGuardianChanged","inputs":[{"name":"roleId","type":"uint64","indexed":true,"internalType":"uint64"},{"name":"guardian","type":"uint64","indexed":true,"internalType":"uint64"}],"anonymous":false},{"type":"event","name":"RoleLabel","inputs":[{"name":"roleId","type":"uint64","indexed":true,"internalType":"uint64"},{"name":"label","type":"string","indexed":false,"internalType":"string"}],"anonymous":false},{"type":"event","name":"RoleRevoked","inputs":[{"name":"roleId","type":"uint64","indexed":true,"internalType":"uint64"},{"name":"account","type":"address","indexed":true,"internalType":"address"}],"anonymous":false},{"type":"event","name":"TargetAdminDelayUpdated","inputs":[{"name":"target","type":"address","indexed":true,"internalType":"address"},{"name":"delay","type":"uint32","indexed":false,"internalType":"uint32"},{"name":"since","type":"uint48","indexed":false,"internalType":"uint48"}],"anonymous":false},{"type":"event","name":"TargetClosed","inputs":[{"name":"target","type":"address","indexed":true,"internalType":"address"},{"name":"closed","type":"bool","indexed":false,"internalType":"bool"}],"anonymous":false},{"type":"event","name":"TargetFunctionRoleUpdated","inputs":[{"name":"target","type":"address","indexed":true,"internalType":"address"},{"name":"selector","type":"bytes4","indexed":false,"internalType":"bytes4"},{"name":"roleId","type":"uint64","indexed":true,"internalType":"uint64"}],"anonymous":false},{"type":"error","name":"AccessManagerAlreadyScheduled","inputs":[{"name":"operationId","type":"bytes32","internalType":"bytes32"}]},{"type":"error","name":"AccessManagerBadConfirmation","inputs":[]},{"type":"error","name":"AccessManagerExpired","inputs":[{"name":"operationId","type":"bytes32","internalType":"bytes32"}]},{"type":"error","name":"AccessManagerInvalidInitialAdmin","inputs":[{"name":"initialAdmin","type":"address","internalType":"address"}]},{"type":"error","name":"AccessManagerLockedRole","inputs":[{"name":"roleId","type":"uint64","internalType":"uint64"}]},{"type":"error","name":"AccessManagerNotReady","inputs":[{"name":"operationId","type":"bytes32","internalType":"bytes32"}]},{"type":"error","name":"AccessManagerNotScheduled","inputs":[{"name":"operationId","type":"bytes32","internalType":"bytes32"}]},{"type":"error","name":"AccessManagerUnauthorizedAccount","inputs":[{"name":"msgsender","type":"address","internalType":"address"},{"name":"roleId","type":"uint64","internalType":"uint64"}]},{"type":"error","name":"AccessManagerUnauthorizedCall","inputs":[{"name":"caller","type":"address","internalType":"address"},{"name":"target","type":"address","internalType":"address"},{"name":"selector","type":"bytes4","internalType":"bytes4"}]},{"type":"error","name":"AccessManagerUnauthorizedCancel","inputs":[{"name":"msgsender","type":"address","internalType":"address"},{"name":"caller","type":"address","internalType":"address"},{"name":"target","type":"address","internalType":"address"},{"name":"selector","type":"bytes4","internalType":"bytes4"}]},{"type":"error","name":"AccessManagerUnauthorizedConsume","inputs":[{"name":"target","type":"address","internalType":"address"}]},{"type":"error","name":"AddressEmptyCode","inputs":[{"name":"target","type":"address","internalType":"address"}]},{"type":"error","name":"FailedCall","inputs":[]},{"type":"error","name":"InsufficientBalance","inputs":[{"name":"balance","type":"uint256","internalType":"uint256"},{"name":"needed","type":"uint256","internalType":"uint256"}]},{"type":"error","name":"SafeCastOverflowedUintDowncast","inputs":[{"name":"bits","type":"uint8","internalType":"uint8"},{"name":"value","type":"uint256","internalType":"uint256"}]}],"bytecode":{"object":"0x608060405234801561000f575f5ffd5b50604051612d51380380612d5183398101604081905261002e91610443565b806001600160a01b03811661005d57604051630409d6d160e11b81525f60048201526024015b60405180910390fd5b6100695f828180610071565b5050506104be565b5f6002600160401b03196001600160401b038616016100ae5760405163061c6a4360e21b81526001600160401b0386166004820152602401610054565b6001600160401b0385165f9081526001602090815260408083206001600160a01b038816845290915281205465ffffffffffff16159081156101a35763ffffffff85166100f96102b7565b6101039190610484565b905060405180604001604052808265ffffffffffff1681526020016101338663ffffffff166102c660201b60201c565b6001600160701b039081169091526001600160401b0389165f9081526001602090815260408083206001600160a01b038c16845282529091208351815494909201519092166601000000000000026001600160a01b031990931665ffffffffffff90911617919091179055610249565b6001600160401b0387165f9081526001602090815260408083206001600160a01b038a1684529091528120546101ef9166010000000000009091046001600160701b03169086906102cf565b6001600160401b0389165f9081526001602090815260408083206001600160a01b038c168452909152902080546001600160701b03909316660100000000000002600160301b600160a01b03199093169290921790915590505b6040805163ffffffff8616815265ffffffffffff831660208201528315158183015290516001600160a01b038816916001600160401b038a16917ff98448b987f1428e0e230e1f3c6e2ce15b5693eaf31827fbd0b1ec4b424ae7cf9181900360600190a35095945050505050565b5f6102c142610375565b905090565b63ffffffff1690565b5f80806102e46001600160701b0387166103ab565b90505f61031f8563ffffffff168763ffffffff168463ffffffff161161030a575f610314565b61031488856104a2565b63ffffffff166103c9565b905063ffffffff81166103306102b7565b61033a9190610484565b925063ffffffff8616602083901b67ffffffff0000000016604085901b6dffffffffffff000000000000000016171793505050935093915050565b5f65ffffffffffff8211156103a7576040516306dfcc6560e41b81526030600482015260248101839052604401610054565b5090565b5f806103bf6001600160701b0384166103d9565b5090949350505050565b8082118183180281185b92915050565b5f80806103ed846103e86102b7565b6103fa565b9250925092509193909250565b6001600160501b03602083901c166001600160701b03831665ffffffffffff604085901c811690841681111561043257828282610436565b815f5f5b9250925092509250925092565b5f60208284031215610453575f5ffd5b81516001600160a01b0381168114610469575f5ffd5b9392505050565b634e487b7160e01b5f52601160045260245ffd5b65ffffffffffff81811683821601908111156103d3576103d3610470565b63ffffffff82811682821603908111156103d3576103d3610470565b612886806104cb5f395ff3fe6080604052600436106101f1575f3560e01c80636d5115bd11610108578063ac9650d81161009d578063d1f856ee1161006d578063d1f856ee14610655578063d22b598914610674578063d6bb62c614610693578063f801a698146106b2578063fe0776f5146106eb575f5ffd5b8063ac9650d8146105ba578063b7009613146105e6578063b7d2b16214610621578063cc1b6c8114610640575f5ffd5b806394c7d7ee116100d857806394c7d7ee14610520578063a166aa891461053f578063a64d95ce1461056e578063abd9bd2a1461058d575f5ffd5b80636d5115bd146104bb5780636f154d2d146104da57806375b238fc146104ee578063853551b814610501575f5ffd5b806330cae187116101895780634665096d116101595780634665096d146104195780634c1da1e21461042e578063529629521461044d578063530dd4561461046c57806357a22111146104a7575f5ffd5b806330cae187146103725780633adc277a146103915780633ca7c02a146103c75780634136a33c146103e1575f5ffd5b806318ff183c116101c457806318ff183c146102c85780631cff79cd146102e757806325c471a0146102fa5780633078f11414610319575f5ffd5b806308d6122d146101f55780630b0a93ba1461021657806312be872714610275578063167bd395146102a9575b5f5ffd5b348015610200575f5ffd5b5061021461020f36600461216c565b61070a565b005b348015610221575f5ffd5b506102586102303660046121ce565b6001600160401b039081165f9081526001602081905260409091200154600160401b90041690565b6040516001600160401b0390911681526020015b60405180910390f35b348015610280575f5ffd5b5061029461028f3660046121ce565b61075c565b60405163ffffffff909116815260200161026c565b3480156102b4575f5ffd5b506102146102c33660046121e7565b610796565b3480156102d3575f5ffd5b506102146102e2366004612222565b6107ac565b6102946102f536600461228b565b61080e565b348015610305575f5ffd5b506102146103143660046122ee565b61093a565b348015610324575f5ffd5b50610338610333366004612330565b61095c565b60405161026c949392919065ffffffffffff948516815263ffffffff93841660208201529190921660408201529116606082015260800190565b34801561037d575f5ffd5b5061021461038c36600461234a565b6109c0565b34801561039c575f5ffd5b506103b06103ab36600461237b565b6109d2565b60405165ffffffffffff909116815260200161026c565b3480156103d2575f5ffd5b506102586001600160401b0381565b3480156103ec575f5ffd5b506102946103fb36600461237b565b5f90815260026020526040902054600160301b900463ffffffff1690565b348015610424575f5ffd5b5062093a80610294565b348015610439575f5ffd5b50610294610448366004612392565b610a03565b348015610458575f5ffd5b5061021461046736600461234a565b610a30565b348015610477575f5ffd5b506102586104863660046121ce565b6001600160401b039081165f90815260016020819052604090912001541690565b3480156104b2575f5ffd5b50610214610a42565b3480156104c6575f5ffd5b506102586104d53660046123c2565b610a80565b3480156104e5575f5ffd5b50610214610aba565b3480156104f9575f5ffd5b506102585f81565b34801561050c575f5ffd5b5061021461051b3660046123ee565b610aea565b34801561052b575f5ffd5b5061021461053a36600461228b565b610b81565b34801561054a575f5ffd5b5061055e610559366004612392565b610c2b565b604051901515815260200161026c565b348015610579575f5ffd5b50610214610588366004612409565b610c52565b348015610598575f5ffd5b506105ac6105a7366004612431565b610c64565b60405190815260200161026c565b3480156105c5575f5ffd5b506105d96105d4366004612491565b610c9c565b60405161026c91906124cf565b3480156105f1575f5ffd5b50610605610600366004612553565b610d81565b60408051921515835263ffffffff90911660208301520161026c565b34801561062c575f5ffd5b5061021461063b366004612330565b610e02565b34801561064b575f5ffd5b5062069780610294565b348015610660575f5ffd5b5061060561066f366004612330565b610e19565b34801561067f575f5ffd5b5061021461068e36600461259b565b610e92565b34801561069e575f5ffd5b506102946106ad366004612431565b610ea4565b3480156106bd575f5ffd5b506106d16106cc3660046125b7565b610ff7565b6040805192835263ffffffff90911660208301520161026c565b3480156106f6575f5ffd5b50610214610705366004612330565b611138565b610712611161565b5f5b828110156107555761074d8585858481811061073257610732612624565b90506020020160208101906107479190612638565b846111d8565b600101610714565b5050505050565b6001600160401b0381165f9081526001602081905260408220015461079090600160801b90046001600160701b0316611259565b92915050565b61079e611161565b6107a88282611277565b5050565b6107b4611161565b604051637a9e5e4b60e01b81526001600160a01b038281166004830152831690637a9e5e4b906024015f604051808303815f87803b1580156107f4575f5ffd5b505af1158015610806573d5f5f3e3d5ffd5b505050505050565b5f33818061081e838888886112e8565b9150915081158015610834575063ffffffff8116155b156108875782876108458888611339565b6040516381c6f24b60e01b81526001600160a01b0393841660048201529290911660248301526001600160e01b03191660448201526064015b60405180910390fd5b5f61089484898989610c64565b90505f63ffffffff83161515806108ba57506108af826109d2565b65ffffffffffff1615155b156108cb576108c882611350565b90505b6003546108e18a6108dc8b8b611339565b61144e565b6003819055506109288a8a8a8080601f0160208091040260200160405190810160405280939291908181526020018383808284375f92019190915250349250611473915050565b506003559450505050505b9392505050565b610942611161565b61095683836109508661075c565b8461153f565b50505050565b6001600160401b0382165f9081526001602090815260408083206001600160a01b03851684529091528120805465ffffffffffff8116929182918291906109b290600160301b90046001600160701b0316611785565b969991985096509350505050565b6109c8611161565b6107a882826117a6565b5f8181526002602052604081205465ffffffffffff166109f181611849565b6109fb5780610933565b5f9392505050565b6001600160a01b0381165f90815260208190526040812060010154610790906001600160701b0316611259565b610a38611161565b6107a88282611877565b610a4a611161565b6040513381527f736614e0596fd68e76f34c74b62efa34b16c2a960f58ae22d1ec8fe770c1961a906020015b60405180910390a1565b6001600160a01b0382165f908152602081815260408083206001600160e01b0319851684529091529020546001600160401b031692915050565b6040513381527f723e9347c9cee19522d182a3a0d8287ce6ba225b534114cb124b76e1523bfb7e90602001610a76565b610af2611161565b6001600160401b0383161580610b1057506001600160401b03838116145b15610b395760405163061c6a4360e21b81526001600160401b038416600482015260240161087e565b826001600160401b03167f1256f5b5ecb89caec12db449738f2fbcd1ba5806cf38f35413f4e5c15bf6a4508383604051610b7492919061267b565b60405180910390a2505050565b60408051638fb3603760e01b80825291513392918391638fb36037916004808201926020929091908290030181865afa158015610bc0573d5f5f3e3d5ffd5b505050506040513d601f19601f82011682018060405250810190610be49190612696565b6001600160e01b03191614610c1757604051630641fee960e31b81526001600160a01b038216600482015260240161087e565b610755610c2685838686610c64565b611350565b6001600160a01b03165f90815260208190526040902060010154600160701b900460ff1690565b610c5a611161565b6107a88282611928565b5f84848484604051602001610c7c94939291906126b1565b604051602081830303815290604052805190602001209050949350505050565b604080515f815260208101909152606090826001600160401b03811115610cc557610cc5612722565b604051908082528060200260200182016040528015610cf857816020015b6060815260200190600190039081610ce35790505b5091505f5b83811015610d7957610d5430868684818110610d1b57610d1b612624565b9050602002810190610d2d9190612736565b85604051602001610d4093929190612778565b604051602081830303815290604052611a37565b838281518110610d6657610d66612624565b6020908102919091010152600101610cfd565b505092915050565b5f5f610d8c84610c2b565b15610d9b57505f905080610dfa565b306001600160a01b03861603610dbf57610db58484611ab9565b5f91509150610dfa565b5f610dca8585610a80565b90505f5f610dd88389610e19565b9150915081610de8575f5f610df2565b63ffffffff811615815b945094505050505b935093915050565b610e0a611161565b610e148282611acf565b505050565b5f8067fffffffffffffffe196001600160401b03851601610e3f5750600190505f610e8b565b5f5f610e4b868661095c565b5050915091508165ffffffffffff165f14158015610e805750610e6c611bb8565b65ffffffffffff168265ffffffffffff1611155b93509150610e8b9050565b9250929050565b610e9a611161565b6107a88282611bc7565b5f3381610eb18585611339565b90505f610ec088888888610c64565b5f8181526002602052604081205491925065ffffffffffff9091169003610efd5760405163060a299b60e41b81526004810182905260240161087e565b826001600160a01b0316886001600160a01b031614610f96575f610f215f85610e19565b5090505f610f3b610f356102308b87610a80565b86610e19565b50905081158015610f4a575080155b15610f9357604051630ff89d4760e21b81526001600160a01b038087166004830152808c1660248301528a1660448201526001600160e01b03198516606482015260840161087e565b50505b5f81815260026020526040808220805465ffffffffffff1916908190559051600160301b90910463ffffffff1691829184917fbd9ac67a6e2f6463b80927326310338bcbb4bdb7936ce1365ea3e01067e7b9f791a398975050505050505050565b5f803381611007828989896112e8565b9150505f8163ffffffff1661101a611bb8565b611024919061279b565b905063ffffffff8216158061105a57505f8665ffffffffffff1611801561105a57508065ffffffffffff168665ffffffffffff16105b1561106b5782896108458a8a611339565b6110858665ffffffffffff168265ffffffffffff16611c82565b9550611093838a8a8a610c64565b945061109e85611c91565b5f8581526002602052604090819020805465ffffffffffff891669ffffffffffffffffffff19821617600160301b9182900463ffffffff90811660010190811692830291909117909255915190955086907f82a2da5dee54ea8021c6545b4444620291e07ee83be6dd57edb175062715f3b490611124908a9088908f908f908f906127b9565b60405180910390a350505094509492505050565b6001600160a01b0381163314610e0a57604051635f159e6360e01b815260040160405180910390fd5b335f8061116f838236611cdd565b9150915081610e14578063ffffffff165f036111c9575f6111908136611da0565b5060405163f07e038f60e01b81526001600160a01b03871660048201526001600160401b0382166024820152909250604401905061087e565b610956610c2684305f36610c64565b6001600160a01b0383165f818152602081815260408083206001600160e01b0319871680855290835292819020805467ffffffffffffffff19166001600160401b038716908117909155905192835292917f9ea6790c7dadfd01c9f8b9762b3682607af2c7e79e05a9f9fdf5580dde949151910160405180910390a3505050565b5f5f61126d836001600160701b0316611785565b5090949350505050565b6001600160a01b0382165f81815260208190526040908190206001018054841515600160701b0260ff60701b19909116179055517f90d4e7bb7e5d933792b3562e1741306f8be94837e1348dacef9b6f1df56eb138906112dc90841515815260200190565b60405180910390a25050565b5f80306001600160a01b0386160361130e57611305868585611cdd565b91509150611330565b6004831061132a5761132586866106008787611339565b611305565b505f9050805b94509492505050565b5f61134760048284866126fb565b610933916127fe565b5f8181526002602052604081205465ffffffffffff811690600160301b900463ffffffff168183036113985760405163060a299b60e41b81526004810185905260240161087e565b6113a0611bb8565b65ffffffffffff168265ffffffffffff1611156113d357604051630c65b5bd60e11b81526004810185905260240161087e565b6113dc82611849565b156113fd57604051631e2975b960e21b81526004810185905260240161087e565b5f84815260026020526040808220805465ffffffffffff191690555163ffffffff83169186917f76a2a46953689d4861a5d3f6ed883ad7e6af674a21f8e162707159fc9dde614d9190a39392505050565b6001600160a01b0382165f9081526001600160e01b0319821660205260408120610933565b60608147101561149f5760405163cf47918160e01b81524760048201526024810183905260440161087e565b5f6114ab858486611f86565b90508080156114cc57505f3d11806114cc57505f856001600160a01b03163b115b156114e1576114d9611f9b565b915050610933565b801561150b57604051639996b31560e01b81526001600160a01b038616600482015260240161087e565b3d1561151e57611519611fb4565b611537565b60405163d6bda27560e01b815260040160405180910390fd5b509392505050565b5f67fffffffffffffffe196001600160401b0386160161157d5760405163061c6a4360e21b81526001600160401b038616600482015260240161087e565b6001600160401b0385165f9081526001602090815260408083206001600160a01b038816845290915281205465ffffffffffff161590811561166d578463ffffffff166115c8611bb8565b6115d2919061279b565b905060405180604001604052808265ffffffffffff1681526020016116008663ffffffff1663ffffffff1690565b6001600160701b039081169091526001600160401b0389165f9081526001602090815260408083206001600160a01b038c1684528252909120835181549490920151909216600160301b026001600160a01b031990931665ffffffffffff90911617919091179055611717565b6001600160401b0387165f9081526001602090815260408083206001600160a01b038a1684529091528120546116b691600160301b9091046001600160701b0316908690611fbf565b6001600160401b0389165f9081526001602090815260408083206001600160a01b038c168452909152902080546001600160701b03909316600160301b0273ffffffffffffffffffffffffffff000000000000199093169290921790915590505b6040805163ffffffff8616815265ffffffffffff831660208201528315158183015290516001600160a01b038816916001600160401b038a16917ff98448b987f1428e0e230e1f3c6e2ce15b5693eaf31827fbd0b1ec4b424ae7cf9181900360600190a35095945050505050565b5f5f5f61179984611794611bb8565b612065565b9250925092509193909250565b6001600160401b03821615806117c457506001600160401b03828116145b156117ed5760405163061c6a4360e21b81526001600160401b038316600482015260240161087e565b6001600160401b038281165f818152600160208190526040808320909101805467ffffffffffffffff19169486169485179055517f1fd6dd7631312dfac2205b52913f99de03b4d7e381d5d27d3dbfe0713e6e63409190a35050565b5f611852611bb8565b65ffffffffffff1661186762093a808461279b565b65ffffffffffff16111592915050565b6001600160401b038216158061189557506001600160401b03828116145b156118be5760405163061c6a4360e21b81526001600160401b038316600482015260240161087e565b6001600160401b038281165f81815260016020819052604080832090910180546fffffffffffffffff00000000000000001916600160401b958716958602179055517f7a8059630b897b5de4c08ade69f8b90c3ead1f8596d62d10b6c4d14a0afb4ae29190a35050565b67fffffffffffffffe196001600160401b038316016119655760405163061c6a4360e21b81526001600160401b038316600482015260240161087e565b6001600160401b0382165f9081526001602081905260408220015461199e90600160801b90046001600160701b03168362069780611fbf565b6001600160401b0385165f818152600160208190526040918290200180546001600160701b03909516600160801b026dffffffffffffffffffffffffffff60801b199095169490941790935591519092507ffeb69018ee8b8fd50ea86348f1267d07673379f72cffdeccec63853ee8ce8b4890610b74908590859063ffffffff92909216825265ffffffffffff16602082015260400190565b60605f611a4484846120b1565b9050808015611a6557505f3d1180611a6557505f846001600160a01b03163b115b15611a7a57611a72611f9b565b915050610790565b8015611aa457604051639996b31560e01b81526001600160a01b038516600482015260240161087e565b3d1561151e57611ab2611fb4565b5092915050565b5f611ac4838361144e565b600354149392505050565b5f67fffffffffffffffe196001600160401b03841601611b0d5760405163061c6a4360e21b81526001600160401b038416600482015260240161087e565b6001600160401b0383165f9081526001602090815260408083206001600160a01b038616845290915281205465ffffffffffff169003611b4e57505f610790565b6001600160401b0383165f8181526001602090815260408083206001600160a01b038716808552925280832080546001600160a01b0319169055519092917ff229baa593af28c41b1d16b748cd7688f0c83aaf92d4be41c44005defe84c16691a350600192915050565b5f611bc2426120c4565b905090565b6001600160a01b0382165f90815260208190526040812060010154611bf9906001600160701b03168362069780611fbf565b6001600160a01b0385165f818152602081815260409182902060010180546dffffffffffffffffffffffffffff19166001600160701b039690961695909517909455805163ffffffff8716815265ffffffffffff841694810194909452919350917fa56b76017453f399ec2327ba00375dbfb1fd070ff854341ad6191e6a2e2de19c9101610b74565b5f828218828411028218610933565b5f8181526002602052604090205465ffffffffffff168015801590611cbc5750611cba81611849565b155b156107a85760405163813e945960e01b81526004810183905260240161087e565b5f806004831015611cf257505f905080610dfa565b306001600160a01b03861603611d1557610db530611d108686611339565b611ab9565b5f5f5f611d228787611da0565b92509250925082158015611d3a5750611d3a30610c2b565b15611d4d575f5f94509450505050610dfa565b5f5f611d59848b610e19565b9150915081611d72575f5f965096505050505050610dfa565b611d888363ffffffff168263ffffffff16611c82565b63ffffffff8116159b909a5098505050505050505050565b5f80806004841015611db957505f915081905080611f7f565b5f611dc48686611339565b90506001600160e01b031981166310a6aa3760e31b1480611df557506001600160e01b031981166330cae18760e01b145b80611e1057506001600160e01b0319811663294b14a960e11b145b80611e2b57506001600160e01b03198116635326cae760e11b145b80611e4657506001600160e01b0319811663d22b598960e01b145b15611e5b5760015f5f93509350935050611f7f565b6001600160e01b0319811663063fc60f60e21b1480611e8a57506001600160e01b0319811663167bd39560e01b145b80611ea557506001600160e01b031981166308d6122d60e01b145b15611ee4575f611eb960246004888a6126fb565b810190611ec69190612392565b90505f611ed282610a03565b600196505f95509350611f7f92505050565b6001600160e01b0319811663012e238d60e51b1480611f1357506001600160e01b03198116635be958b160e11b145b15611f6b575f611f2760246004888a6126fb565b810190611f3491906121ce565b90506001611f5d826001600160401b039081165f90815260016020819052604090912001541690565b5f9450945094505050611f7f565b5f611f763083610a80565b5f935093509350505b9250925092565b5f5f5f83516020850186885af1949350505050565b6040513d81523d5f602083013e3d602001810160405290565b6040513d5f823e3d81fd5b5f5f5f611fd4866001600160701b0316611259565b90505f61200f8563ffffffff168763ffffffff168463ffffffff1611611ffa575f612004565b6120048885612834565b63ffffffff16611c82565b90508063ffffffff16612020611bb8565b61202a919061279b565b925063ffffffff8616602083901b67ffffffff0000000016604085901b6dffffffffffff000000000000000016171793505050935093915050565b69ffffffffffffffffffff602083901c166001600160701b03831665ffffffffffff604085901c81169084168111156120a0578282826120a4565b815f5f5b9250925092509250925092565b5f5f5f835160208501865af49392505050565b5f65ffffffffffff8211156120f6576040516306dfcc6560e41b8152603060048201526024810183905260440161087e565b5090565b6001600160a01b038116811461210e575f5ffd5b50565b5f5f83601f840112612121575f5ffd5b5081356001600160401b03811115612137575f5ffd5b6020830191508360208260051b8501011115610e8b575f5ffd5b80356001600160401b0381168114612167575f5ffd5b919050565b5f5f5f5f6060858703121561217f575f5ffd5b843561218a816120fa565b935060208501356001600160401b038111156121a4575f5ffd5b6121b087828801612111565b90945092506121c3905060408601612151565b905092959194509250565b5f602082840312156121de575f5ffd5b61093382612151565b5f5f604083850312156121f8575f5ffd5b8235612203816120fa565b915060208301358015158114612217575f5ffd5b809150509250929050565b5f5f60408385031215612233575f5ffd5b823561223e816120fa565b91506020830135612217816120fa565b5f5f83601f84011261225e575f5ffd5b5081356001600160401b03811115612274575f5ffd5b602083019150836020828501011115610e8b575f5ffd5b5f5f5f6040848603121561229d575f5ffd5b83356122a8816120fa565b925060208401356001600160401b038111156122c2575f5ffd5b6122ce8682870161224e565b9497909650939450505050565b803563ffffffff81168114612167575f5ffd5b5f5f5f60608486031215612300575f5ffd5b61230984612151565b92506020840135612319816120fa565b9150612327604085016122db565b90509250925092565b5f5f60408385031215612341575f5ffd5b61223e83612151565b5f5f6040838503121561235b575f5ffd5b61236483612151565b915061237260208401612151565b90509250929050565b5f6020828403121561238b575f5ffd5b5035919050565b5f602082840312156123a2575f5ffd5b8135610933816120fa565b6001600160e01b03198116811461210e575f5ffd5b5f5f604083850312156123d3575f5ffd5b82356123de816120fa565b91506020830135612217816123ad565b5f5f5f60408486031215612400575f5ffd5b6122a884612151565b5f5f6040838503121561241a575f5ffd5b61242383612151565b9150612372602084016122db565b5f5f5f5f60608587031215612444575f5ffd5b843561244f816120fa565b9350602085013561245f816120fa565b925060408501356001600160401b03811115612479575f5ffd5b6124858782880161224e565b95989497509550505050565b5f5f602083850312156124a2575f5ffd5b82356001600160401b038111156124b7575f5ffd5b6124c385828601612111565b90969095509350505050565b5f602082016020835280845180835260408501915060408160051b8601019250602086015f5b8281101561254757603f19878603018452815180518087528060208301602089015e5f602082890101526020601f19601f830116880101965050506020820191506020840193506001810190506124f5565b50929695505050505050565b5f5f5f60608486031215612565575f5ffd5b8335612570816120fa565b92506020840135612580816120fa565b91506040840135612590816123ad565b809150509250925092565b5f5f604083850312156125ac575f5ffd5b8235612423816120fa565b5f5f5f5f606085870312156125ca575f5ffd5b84356125d5816120fa565b935060208501356001600160401b038111156125ef575f5ffd5b6125fb8782880161224e565b909450925050604085013565ffffffffffff81168114612619575f5ffd5b939692955090935050565b634e487b7160e01b5f52603260045260245ffd5b5f60208284031215612648575f5ffd5b8135610933816123ad565b81835281816020850137505f828201602090810191909152601f909101601f19169091010190565b602081525f61268e602083018486612653565b949350505050565b5f602082840312156126a6575f5ffd5b8151610933816123ad565b6001600160a01b038581168252841660208201526060604082018190525f906126dd9083018486612653565b9695505050505050565b634e487b7160e01b5f52601160045260245ffd5b5f5f85851115612709575f5ffd5b83861115612715575f5ffd5b5050820193919092039150565b634e487b7160e01b5f52604160045260245ffd5b5f5f8335601e1984360301811261274b575f5ffd5b8301803591506001600160401b03821115612764575f5ffd5b602001915036819003821315610e8b575f5ffd5b828482375f8382015f815283518060208601835e5f910190815295945050505050565b65ffffffffffff8181168382160190811115610790576107906126e7565b65ffffffffffff861681526001600160a01b038581166020830152841660408201526080606082018190525f906127f39083018486612653565b979650505050505050565b80356001600160e01b03198116906004841015611ab2576001600160e01b031960049490940360031b84901b1690921692915050565b63ffffffff8281168282160390811115610790576107906126e756fea2646970667358221220e79a5df5565bd596126d68c1cf11b5bafc8385d2f72f85df42e8afc31966ad8b64736f6c63430008210033","linkReferences":{}},"methodIdentifiers":{"ADMIN_ROLE()":"75b238fc","PUBLIC_ROLE()":"3ca7c02a","canCall(address,address,bytes4)":"b7009613","cancel(address,address,bytes)":"d6bb62c6","consumeScheduledOp(address,bytes)":"94c7d7ee","execute(address,bytes)":"1cff79cd","expiration()":"4665096d","fnRestricted()":"57a22111","fnUnrestricted()":"6f154d2d","getAccess(uint64,address)":"3078f114","getNonce(bytes32)":"4136a33c","getRoleAdmin(uint64)":"530dd456","getRoleGrantDelay(uint64)":"12be8727","getRoleGuardian(uint64)":"0b0a93ba","getSchedule(bytes32)":"3adc277a","getTargetAdminDelay(address)":"4c1da1e2","getTargetFunctionRole(address,bytes4)":"6d5115bd","grantRole(uint64,address,uint32)":"25c471a0","hasRole(uint64,address)":"d1f856ee","hashOperation(address,address,bytes)":"abd9bd2a","isTargetClosed(address)":"a166aa89","labelRole(uint64,string)":"853551b8","minSetback()":"cc1b6c81","multicall(bytes[])":"ac9650d8","renounceRole(uint64,address)":"fe0776f5","revokeRole(uint64,address)":"b7d2b162","schedule(address,bytes,uint48)":"f801a698","setGrantDelay(uint64,uint32)":"a64d95ce","setRoleAdmin(uint64,uint64)":"30cae187","setRoleGuardian(uint64,uint64)":"52962952","setTargetAdminDelay(address,uint32)":"d22b5989","setTargetClosed(address,bool)":"167bd395","setTargetFunctionRole(address,bytes4[],uint64)":"08d6122d","updateAuthority(address,address)":"18ff183c"},"id":147}