{"abi":[{"type":"constructor","inputs":[{"name":"wrappedToken","type":"address","internalType":"contract IERC20"}],"stateMutability":"nonpayable"},{"type":"function","name":"CLOCK_MODE","inputs":[],"outputs":[{"name":"","type":"string","internalType":"string"}],"stateMutability":"view"},{"type":"function","name":"DOMAIN_SEPARATOR","inputs":[],"outputs":[{"name":"","type":"bytes32","internalType":"bytes32"}],"stateMutability":"view"},{"type":"function","name":"allowance","inputs":[{"name":"owner","type":"address","internalType":"address"},{"name":"spender","type":"address","internalType":"address"}],"outputs":[{"name":"","type":"uint256","internalType":"uint256"}],"stateMutability":"view"},{"type":"function","name":"approve","inputs":[{"name":"spender","type":"address","internalType":"address"},{"name":"value","type":"uint256","internalType":"uint256"}],"outputs":[{"name":"","type":"bool","internalType":"bool"}],"stateMutability":"nonpayable"},{"type":"function","name":"balanceOf","inputs":[{"name":"account","type":"address","internalType":"address"}],"outputs":[{"name":"","type":"uint256","internalType":"uint256"}],"stateMutability":"view"},{"type":"function","name":"checkpoints","inputs":[{"name":"account","type":"address","internalType":"address"},{"name":"pos","type":"uint32","internalType":"uint32"}],"outputs":[{"name":"","type":"tuple","internalType":"struct Checkpoints.Checkpoint208","components":[{"name":"_key","type":"uint48","internalType":"uint48"},{"name":"_value","type":"uint208","internalType":"uint208"}]}],"stateMutability":"view"},{"type":"function","name":"clock","inputs":[],"outputs":[{"name":"","type":"uint48","internalType":"uint48"}],"stateMutability":"view"},{"type":"function","name":"decimals","inputs":[],"outputs":[{"name":"","type":"uint8","internalType":"uint8"}],"stateMutability":"view"},{"type":"function","name":"delegate","inputs":[{"name":"delegatee","type":"address","internalType":"address"}],"outputs":[],"stateMutability":"nonpayable"},{"type":"function","name":"delegateBySig","inputs":[{"name":"delegatee","type":"address","internalType":"address"},{"name":"nonce","type":"uint256","internalType":"uint256"},{"name":"expiry","type":"uint256","internalType":"uint256"},{"name":"v","type":"uint8","internalType":"uint8"},{"name":"r","type":"bytes32","internalType":"bytes32"},{"name":"s","type":"bytes32","internalType":"bytes32"}],"outputs":[],"stateMutability":"nonpayable"},{"type":"function","name":"delegates","inputs":[{"name":"account","type":"address","internalType":"address"}],"outputs":[{"name":"","type":"address","internalType":"address"}],"stateMutability":"view"},{"type":"function","name":"depositFor","inputs":[{"name":"account","type":"address","internalType":"address"},{"name":"value","type":"uint256","internalType":"uint256"}],"outputs":[{"name":"","type":"bool","internalType":"bool"}],"stateMutability":"nonpayable"},{"type":"function","name":"eip712Domain","inputs":[],"outputs":[{"name":"fields","type":"bytes1","internalType":"bytes1"},{"name":"name","type":"string","internalType":"string"},{"name":"version","type":"string","internalType":"string"},{"name":"chainId","type":"uint256","internalType":"uint256"},{"name":"verifyingContract","type":"address","internalType":"address"},{"name":"salt","type":"bytes32","internalType":"bytes32"},{"name":"extensions","type":"uint256[]","internalType":"uint256[]"}],"stateMutability":"view"},{"type":"function","name":"getPastTotalSupply","inputs":[{"name":"timepoint","type":"uint256","internalType":"uint256"}],"outputs":[{"name":"","type":"uint256","internalType":"uint256"}],"stateMutability":"view"},{"type":"function","name":"getPastVotes","inputs":[{"name":"account","type":"address","internalType":"address"},{"name":"timepoint","type":"uint256","internalType":"uint256"}],"outputs":[{"name":"","type":"uint256","internalType":"uint256"}],"stateMutability":"view"},{"type":"function","name":"getVotes","inputs":[{"name":"account","type":"address","internalType":"address"}],"outputs":[{"name":"","type":"uint256","internalType":"uint256"}],"stateMutability":"view"},{"type":"function","name":"name","inputs":[],"outputs":[{"name":"","type":"string","internalType":"string"}],"stateMutability":"view"},{"type":"function","name":"nonces","inputs":[{"name":"owner","type":"address","internalType":"address"}],"outputs":[{"name":"","type":"uint256","internalType":"uint256"}],"stateMutability":"view"},{"type":"function","name":"numCheckpoints","inputs":[{"name":"account","type":"address","internalType":"address"}],"outputs":[{"name":"","type":"uint32","internalType":"uint32"}],"stateMutability":"view"},{"type":"function","name":"permit","inputs":[{"name":"owner","type":"address","internalType":"address"},{"name":"spender","type":"address","internalType":"address"},{"name":"value","type":"uint256","internalType":"uint256"},{"name":"deadline","type":"uint256","internalType":"uint256"},{"name":"v","type":"uint8","internalType":"uint8"},{"name":"r","type":"bytes32","internalType":"bytes32"},{"name":"s","type":"bytes32","internalType":"bytes32"}],"outputs":[],"stateMutability":"nonpayable"},{"type":"function","name":"symbol","inputs":[],"outputs":[{"name":"","type":"string","internalType":"string"}],"stateMutability":"view"},{"type":"function","name":"totalSupply","inputs":[],"outputs":[{"name":"","type":"uint256","internalType":"uint256"}],"stateMutability":"view"},{"type":"function","name":"transfer","inputs":[{"name":"to","type":"address","internalType":"address"},{"name":"value","type":"uint256","internalType":"uint256"}],"outputs":[{"name":"","type":"bool","internalType":"bool"}],"stateMutability":"nonpayable"},{"type":"function","name":"transferFrom","inputs":[{"name":"from","type":"address","internalType":"address"},{"name":"to","type":"address","internalType":"address"},{"name":"value","type":"uint256","internalType":"uint256"}],"outputs":[{"name":"","type":"bool","internalType":"bool"}],"stateMutability":"nonpayable"},{"type":"function","name":"underlying","inputs":[],"outputs":[{"name":"","type":"address","internalType":"contract IERC20"}],"stateMutability":"view"},{"type":"function","name":"withdrawTo","inputs":[{"name":"account","type":"address","internalType":"address"},{"name":"value","type":"uint256","internalType":"uint256"}],"outputs":[{"name":"","type":"bool","internalType":"bool"}],"stateMutability":"nonpayable"},{"type":"event","name":"Approval","inputs":[{"name":"owner","type":"address","indexed":true,"internalType":"address"},{"name":"spender","type":"address","indexed":true,"internalType":"address"},{"name":"value","type":"uint256","indexed":false,"internalType":"uint256"}],"anonymous":false},{"type":"event","name":"DelegateChanged","inputs":[{"name":"delegator","type":"address","indexed":true,"internalType":"address"},{"name":"fromDelegate","type":"address","indexed":true,"internalType":"address"},{"name":"toDelegate","type":"address","indexed":true,"internalType":"address"}],"anonymous":false},{"type":"event","name":"DelegateVotesChanged","inputs":[{"name":"delegate","type":"address","indexed":true,"internalType":"address"},{"name":"previousVotes","type":"uint256","indexed":false,"internalType":"uint256"},{"name":"newVotes","type":"uint256","indexed":false,"internalType":"uint256"}],"anonymous":false},{"type":"event","name":"EIP712DomainChanged","inputs":[],"anonymous":false},{"type":"event","name":"Transfer","inputs":[{"name":"from","type":"address","indexed":true,"internalType":"address"},{"name":"to","type":"address","indexed":true,"internalType":"address"},{"name":"value","type":"uint256","indexed":false,"internalType":"uint256"}],"anonymous":false},{"type":"error","name":"CheckpointUnorderedInsertion","inputs":[]},{"type":"error","name":"ECDSAInvalidSignature","inputs":[]},{"type":"error","name":"ECDSAInvalidSignatureLength","inputs":[{"name":"length","type":"uint256","internalType":"uint256"}]},{"type":"error","name":"ECDSAInvalidSignatureS","inputs":[{"name":"s","type":"bytes32","internalType":"bytes32"}]},{"type":"error","name":"ERC20ExceededSafeSupply","inputs":[{"name":"increasedSupply","type":"uint256","internalType":"uint256"},{"name":"cap","type":"uint256","internalType":"uint256"}]},{"type":"error","name":"ERC20InsufficientAllowance","inputs":[{"name":"spender","type":"address","internalType":"address"},{"name":"allowance","type":"uint256","internalType":"uint256"},{"name":"needed","type":"uint256","internalType":"uint256"}]},{"type":"error","name":"ERC20InsufficientBalance","inputs":[{"name":"sender","type":"address","internalType":"address"},{"name":"balance","type":"uint256","internalType":"uint256"},{"name":"needed","type":"uint256","internalType":"uint256"}]},{"type":"error","name":"ERC20InvalidApprover","inputs":[{"name":"approver","type":"address","internalType":"address"}]},{"type":"error","name":"ERC20InvalidReceiver","inputs":[{"name":"receiver","type":"address","internalType":"address"}]},{"type":"error","name":"ERC20InvalidSender","inputs":[{"name":"sender","type":"address","internalType":"address"}]},{"type":"error","name":"ERC20InvalidSpender","inputs":[{"name":"spender","type":"address","internalType":"address"}]},{"type":"error","name":"ERC20InvalidUnderlying","inputs":[{"name":"token","type":"address","internalType":"address"}]},{"type":"error","name":"ERC2612ExpiredSignature","inputs":[{"name":"deadline","type":"uint256","internalType":"uint256"}]},{"type":"error","name":"ERC2612InvalidSigner","inputs":[{"name":"signer","type":"address","internalType":"address"},{"name":"owner","type":"address","internalType":"address"}]},{"type":"error","name":"ERC5805FutureLookup","inputs":[{"name":"timepoint","type":"uint256","internalType":"uint256"},{"name":"clock","type":"uint48","internalType":"uint48"}]},{"type":"error","name":"ERC6372InconsistentClock","inputs":[]},{"type":"error","name":"InvalidAccountNonce","inputs":[{"name":"account","type":"address","internalType":"address"},{"name":"currentNonce","type":"uint256","internalType":"uint256"}]},{"type":"error","name":"InvalidShortString","inputs":[]},{"type":"error","name":"SafeCastOverflowedUintDowncast","inputs":[{"name":"bits","type":"uint8","internalType":"uint8"},{"name":"value","type":"uint256","internalType":"uint256"}]},{"type":"error","name":"SafeERC20FailedOperation","inputs":[{"name":"token","type":"address","internalType":"address"}]},{"type":"error","name":"StringTooLong","inputs":[{"name":"str","type":"string","internalType":"string"}]},{"type":"error","name":"VotesExpiredSignature","inputs":[{"name":"expiry","type":"uint256","internalType":"uint256"}]}],"bytecode":{"object":"0x610180604052348015610010575f5ffd5b5060405161250a38038061250a83398101604081905261002f9161023a565b806040518060400160405280600e81526020016d135e551bdad95b95dc985c1c195960921b81525080604051806040016040528060018152602001603160f81b8152506040518060400160405280600e81526020016d135e551bdad95b95dc985c1c195960921b815250604051806040016040528060038152602001624d544b60e81b81525081600390816100c4919061030a565b5060046100d1828261030a565b506100e1915083905060056101cb565b610120526100f08160066101cb565b61014052815160208084019190912060e052815190820120610100524660a05261017c60e05161010051604080517f8b73c3c69bb8fe3d512ecc4cf759cc79239f7b179b0ffacaa9a75d522b39400f60208201529081019290925260608201524660808201523060a08201525f9060c00160405160208183030381529060405280519060200120905090565b60805250503060c08190526001600160a01b0383160390506101b85760405163438d6fe360e01b81523060048201526024015b60405180910390fd5b6001600160a01b03166101605250610420565b5f6020835110156101e6576101df836101fd565b90506101f7565b816101f1848261030a565b5060ff90505b92915050565b5f5f829050601f81511115610227578260405163305a27a960e01b81526004016101af91906103c8565b8051610232826103fd565b179392505050565b5f6020828403121561024a575f5ffd5b81516001600160a01b0381168114610260575f5ffd5b9392505050565b634e487b7160e01b5f52604160045260245ffd5b600181811c9082168061028f57607f821691505b6020821081036102ad57634e487b7160e01b5f52602260045260245ffd5b50919050565b601f821115610305578282111561030557805f5260205f20601f840160051c60208510156102de57505f5b90810190601f840160051c035f5b81811015610301575f838201556001016102ec565b5050505b505050565b81516001600160401b0381111561032357610323610267565b61033781610331845461027b565b846102b3565b6020601f821160018114610369575f83156103525750848201515b5f19600385901b1c1916600184901b1784556103c1565b5f84815260208120601f198516915b828110156103985787850151825560209485019460019092019101610378565b50848210156103b557868401515f19600387901b60f8161c191681555b505060018360011b0184555b5050505050565b602081525f82518060208401528060208501604085015e5f604082850101526040601f19601f83011684010191505092915050565b805160208083015191908110156102ad575f1960209190910360031b1b16919050565b60805160a05160c05160e0516101005161012051610140516101605161207a6104905f395f81816102ae0152818161053f015281816105ee0152610b8d01525f610f2801525f610efb01525f610ced01525f610cc501525f610c2001525f610c4a01525f610c74015261207a5ff3fe608060405234801561000f575f5ffd5b5060043610610187575f3560e01c80636fcfff45116100d957806395d89b4111610093578063c3cda5201161006e578063c3cda520146103b0578063d505accf146103c3578063dd62ed3e146103d6578063f1127ed81461040e575f5ffd5b806395d89b41146103825780639ab24eb01461038a578063a9059cbb1461039d575f5ffd5b80636fcfff45146102d257806370a08231146102fa5780637ecebe001461032257806384b0196e146103355780638e539e8c1461035057806391ddadf414610363575f5ffd5b8063313ce567116101445780634bf5d7e91161011f5780634bf5d7e91461024c578063587cde1e146102545780635c19a95c146102975780636f307dc3146102ac575f5ffd5b8063313ce567146102175780633644e515146102315780633a46b1a814610239575f5ffd5b806306fdde031461018b578063095ea7b3146101a957806318160ddd146101cc578063205c2878146101de57806323b872dd146101f15780632f4f21e214610204575b5f5ffd5b61019361044d565b6040516101a09190611cb0565b60405180910390f35b6101bc6101b7366004611cd8565b6104dd565b60405190151581526020016101a0565b6002545b6040519081526020016101a0565b6101bc6101ec366004611cd8565b6104f6565b6101bc6101ff366004611d00565b61056e565b6101bc610212366004611cd8565b610591565b61021f61061f565b60405160ff90911681526020016101a0565b6101d061062d565b6101d0610247366004611cd8565b610636565b610193610670565b61027f610262366004611d3a565b6001600160a01b039081165f908152600860205260409020541690565b6040516001600160a01b0390911681526020016101a0565b6102aa6102a5366004611d3a565b6106e8565b005b7f000000000000000000000000000000000000000000000000000000000000000061027f565b6102e56102e0366004611d3a565b6106f7565b60405163ffffffff90911681526020016101a0565b6101d0610308366004611d3a565b6001600160a01b03165f9081526020819052604090205490565b6101d0610330366004611d3a565b610701565b61033d61070b565b6040516101a09796959493929190611d53565b6101d061035e366004611de9565b61074d565b61036b610771565b60405165ffffffffffff90911681526020016101a0565b61019361077a565b6101d0610398366004611d3a565b610789565b6101bc6103ab366004611cd8565b6107a9565b6102aa6103be366004611e11565b6107b6565b6102aa6103d1366004611e67565b610872565b6101d06103e4366004611ecf565b6001600160a01b039182165f90815260016020908152604080832093909416825291909152205490565b61042161041c366004611f00565b6109a8565b60408051825165ffffffffffff1681526020928301516001600160d01b031692810192909252016101a0565b60606003805461045c90611f3d565b80601f016020809104026020016040519081016040528092919081815260200182805461048890611f3d565b80156104d35780601f106104aa576101008083540402835291602001916104d3565b820191905f5260205f20905b8154815290600101906020018083116104b657829003601f168201915b5050505050905090565b5f336104ea8185856109cc565b60019150505b92915050565b5f306001600160a01b038416036105305760405163ec442f0560e01b81526001600160a01b03841660048201526024015b60405180910390fd5b61053a33836109de565b6105657f00000000000000000000000000000000000000000000000000000000000000008484610a12565b50600192915050565b5f3361057b858285610a47565b610586858585610ac3565b506001949350505050565b5f333081036105b557604051634b637e8f60e11b8152306004820152602401610527565b306001600160a01b038516036105e95760405163ec442f0560e01b81526001600160a01b0385166004820152602401610527565b6106157f0000000000000000000000000000000000000000000000000000000000000000823086610b20565b6104ea8484610b56565b5f610628610b8a565b905090565b5f610628610c14565b5f61066061064383610d3d565b6001600160a01b0385165f90815260096020526040902090610d8b565b6001600160d01b03169392505050565b606061067a610e3b565b65ffffffffffff1661068a610771565b65ffffffffffff16146106b0576040516301bfc1c560e61b815260040160405180910390fd5b5060408051808201909152601d81527f6d6f64653d626c6f636b6e756d6265722666726f6d3d64656661756c74000000602082015290565b336106f38183610e45565b5050565b5f6104f082610eb6565b5f6104f082610ed7565b5f6060805f5f5f606061071c610ef4565b610724610f21565b604080515f80825260208201909252600f60f81b9b939a50919850469750309650945092509050565b5f61076261075a83610d3d565b600a90610d8b565b6001600160d01b031692915050565b5f610628610e3b565b60606004805461045c90611f3d565b6001600160a01b0381165f90815260096020526040812061076290610f4e565b5f336104ea818585610ac3565b834211156107da57604051632341d78760e11b815260048101859052602401610527565b604080517fe48329057bfd03d55e49b547132e39cffd9c1820ad7b9d4c5307691425d15adf60208201526001600160a01b0388169181019190915260608101869052608081018590525f906108539061084b9060a00160405160208183030381529060405280519060200120610f85565b858585610fb1565b905061085f8187610fdd565b6108698188610e45565b50505050505050565b834211156108965760405163313c898160e11b815260048101859052602401610527565b5f7f6e71edae12b1b97f4d1f60370fef10105fa2faae0126114a169c64845d6126c98888886108e18c6001600160a01b03165f90815260076020526040902080546001810190915590565b6040805160208101969096526001600160a01b0394851690860152929091166060840152608083015260a082015260c0810186905260e0016040516020818303038152906040528051906020012090505f61093b82610f85565b90505f61094a82878787610fb1565b9050896001600160a01b0316816001600160a01b031614610991576040516325c0072360e11b81526001600160a01b0380831660048301528b166024820152604401610527565b61099c8a8a8a6109cc565b50505050505050505050565b604080518082019091525f80825260208201526109c5838361102f565b9392505050565b6109d98383836001611063565b505050565b6001600160a01b038216610a0757604051634b637e8f60e11b81525f6004820152602401610527565b6106f3825f83611135565b610a1f8383836001611140565b6109d957604051635274afe760e01b81526001600160a01b0384166004820152602401610527565b6001600160a01b038381165f908152600160209081526040808320938616835292905220545f19811015610abd5781811015610aaf57604051637dc7a0d960e11b81526001600160a01b03841660048201526024810182905260448101839052606401610527565b610abd84848484035f611063565b50505050565b6001600160a01b038316610aec57604051634b637e8f60e11b81525f6004820152602401610527565b6001600160a01b038216610b155760405163ec442f0560e01b81525f6004820152602401610527565b6109d9838383611135565b610b2e8484848460016111a2565b610abd57604051635274afe760e01b81526001600160a01b0385166004820152602401610527565b6001600160a01b038216610b7f5760405163ec442f0560e01b81525f6004820152602401610527565b6106f35f8383611135565b5f7f00000000000000000000000000000000000000000000000000000000000000006001600160a01b031663313ce5676040518163ffffffff1660e01b8152600401602060405180830381865afa925050508015610c05575060408051601f3d908101601f19168201909252610c0291810190611f75565b60015b610c0f5750601290565b919050565b5f306001600160a01b037f000000000000000000000000000000000000000000000000000000000000000016148015610c6c57507f000000000000000000000000000000000000000000000000000000000000000046145b15610c9657507f000000000000000000000000000000000000000000000000000000000000000090565b610628604080517f8b73c3c69bb8fe3d512ecc4cf759cc79239f7b179b0ffacaa9a75d522b39400f60208201527f0000000000000000000000000000000000000000000000000000000000000000918101919091527f000000000000000000000000000000000000000000000000000000000000000060608201524660808201523060a08201525f9060c00160405160208183030381529060405280519060200120905090565b5f5f610d47610771565b90508065ffffffffffff168310610d8257604051637669fc0f60e11b81526004810184905265ffffffffffff82166024820152604401610527565b6109c58361120f565b81545f9081816005811115610de7575f610da484611245565b610dae9085611fa4565b5f8881526020902090915081015465ffffffffffff9081169087161015610dd757809150610de5565b610de2816001611fb7565b92505b505b5f610df48787858561139d565b90508015610e2e57610e1887610e0b600184611fa4565b5f91825260209091200190565b54600160301b90046001600160d01b0316610e30565b5f5b979650505050505050565b5f6106284361120f565b6001600160a01b038281165f8181526008602052604080822080548686166001600160a01b0319821681179092559151919094169392849290917f3134e8a2e6d97e929a7e54011ea5485d7d196dd5f0ba4d4ef95803e8e3fc257f9190a46109d98183610eb1866113f3565b611410565b6001600160a01b0381165f908152600960205260408120546104f090611579565b6001600160a01b0381165f908152600760205260408120546104f0565b60606106287f000000000000000000000000000000000000000000000000000000000000000060056115a9565b60606106287f000000000000000000000000000000000000000000000000000000000000000060066115a9565b80545f908015610f7d57610f6783610e0b600184611fa4565b54600160301b90046001600160d01b03166109c5565b5f9392505050565b5f6104f0610f91610c14565b8360405161190160f01b8152600281019290925260228201526042902090565b5f5f5f5f610fc188888888611652565b925092509250610fd1828261171a565b50909695505050505050565b6001600160a01b0382165f9081526007602052604090208054600181019091558181146109d9576040516301d4b62360e61b81526001600160a01b038416600482015260248101829052604401610527565b604080518082019091525f80825260208201526001600160a01b0383165f9081526009602052604090206109c590836117d2565b6001600160a01b03841661108c5760405163e602df0560e01b81525f6004820152602401610527565b6001600160a01b0383166110b557604051634a1406b160e11b81525f6004820152602401610527565b6001600160a01b038085165f9081526001602090815260408083209387168352929052208290558015610abd57826001600160a01b0316846001600160a01b03167f8c5be1e5ebec7d5bd14f71427d1e84f3dd0314c0f7b2291e5b200ac8c7c3b9258460405161112791815260200190565b60405180910390a350505050565b6109d983838361183f565b60405163a9059cbb60e01b5f8181526001600160a01b038616600452602485905291602083604481808b5af1925060015f5114831661119657838315161561118a573d5f823e3d81fd5b5f873b113d1516831692505b60405250949350505050565b6040516323b872dd60e01b5f8181526001600160a01b038781166004528616602452604485905291602083606481808c5af1925060015f511483166111fe5783831516156111f2573d5f823e3d81fd5b5f883b113d1516831692505b604052505f60605295945050505050565b5f65ffffffffffff821115611241576040516306dfcc6560e41b81526030600482015260248101839052604401610527565b5090565b5f60018211611252575090565b816001600160801b821061126b5760809190911c9060401b5b6801000000000000000082106112865760409190911c9060201b5b640100000000821061129d5760209190911c9060101b5b6201000082106112b25760109190911c9060081b5b61010082106112c65760089190911c9060041b5b601082106112d95760049190911c9060021b5b600482106112e55760011b5b600302600190811c908185816112fd576112fd611fca565b048201901c9050600181858161131557611315611fca565b048201901c9050600181858161132d5761132d611fca565b048201901c9050600181858161134557611345611fca565b048201901c9050600181858161135d5761135d611fca565b048201901c9050600181858161137557611375611fca565b048201901c905061139481858161138e5761138e611fca565b04821190565b90039392505050565b5f5b818310156113eb575f85815260209020838316600285851804019081015465ffffffffffff868116911611156113d7578092506113e5565b6113e2816001611fb7565b93505b5061139f565b509392505050565b6001600160a01b0381165f908152602081905260408120546104f0565b816001600160a01b0316836001600160a01b03161415801561143157505f81115b156109d9576001600160a01b038316156114d8576001600160a01b0383165f9081526009602052604081208190611473906118a561146e866118b0565b6118e3565b6001600160d01b031691506001600160d01b03169150846001600160a01b03167fdec2bacdd2f05b59de34da9b523dff8be42e5e38e818c82fdb0bae774387a72483836040516114cd929190918252602082015260400190565b60405180910390a250505b6001600160a01b038216156109d9576001600160a01b0382165f90815260096020526040812081906115109061191b61146e866118b0565b6001600160d01b031691506001600160d01b03169150836001600160a01b03167fdec2bacdd2f05b59de34da9b523dff8be42e5e38e818c82fdb0bae774387a724838360405161156a929190918252602082015260400190565b60405180910390a25050505050565b5f63ffffffff821115611241576040516306dfcc6560e41b81526020600482015260248101839052604401610527565b606060ff83146115c3576115bc83611926565b90506104f0565b8180546115cf90611f3d565b80601f01602080910402602001604051908101604052809291908181526020018280546115fb90611f3d565b80156116465780601f1061161d57610100808354040283529160200191611646565b820191905f5260205f20905b81548152906001019060200180831161162957829003601f168201915b505050505090506104f0565b5f80807f7fffffffffffffffffffffffffffffff5d576e7357a4501ddfe92f46681b20a084111561168b57505f91506003905082611710565b604080515f808252602082018084528a905260ff891692820192909252606081018790526080810186905260019060a0016020604051602081039080840390855afa1580156116dc573d5f5f3e3d5ffd5b5050604051601f1901519150506001600160a01b03811661170757505f925060019150829050611710565b92505f91508190505b9450945094915050565b5f82600381111561172d5761172d611fde565b03611736575050565b600182600381111561174a5761174a611fde565b036117685760405163f645eedf60e01b815260040160405180910390fd5b600282600381111561177c5761177c611fde565b0361179d5760405163fce698f760e01b815260048101829052602401610527565b60038260038111156117b1576117b1611fde565b036106f3576040516335e2f38360e21b815260048101829052602401610527565b604080518082019091525f8082526020820152825f018263ffffffff16815481106117ff576117ff611ff2565b5f9182526020918290206040805180820190915291015465ffffffffffff81168252600160301b90046001600160d01b0316918101919091529392505050565b61184a838383611963565b6001600160a01b03831661189a575f61186260025490565b90506001600160d01b038082111561189757604051630e58ae9360e11b81526004810183905260248101829052604401610527565b50505b6109d9838383611a89565b5f6109c58284612006565b5f6001600160d01b03821115611241576040516306dfcc6560e41b815260d0600482015260248101839052604401610527565b5f5f61190e6118f0610771565b6119066118fc88610f4e565b868863ffffffff16565b879190611afe565b915091505b935093915050565b5f6109c58284612025565b60605f61193283611b0b565b6040805160208082528183019092529192505f91906020820181803683375050509182525060208101929092525090565b6001600160a01b03831661198d578060025f8282546119829190611fb7565b909155506119fd9050565b6001600160a01b0383165f90815260208190526040902054818110156119df5760405163391434e360e21b81526001600160a01b03851660048201526024810182905260448101839052606401610527565b6001600160a01b0384165f9081526020819052604090209082900390555b6001600160a01b038216611a1957600280548290039055611a37565b6001600160a01b0382165f9081526020819052604090208054820190555b816001600160a01b0316836001600160a01b03167fddf252ad1be2c89b69c2b068fc378daa952ba7f163c4a11628f55a4df523b3ef83604051611a7c91815260200190565b60405180910390a3505050565b6001600160a01b038316611aab57611aa8600a61191b61146e846118b0565b50505b6001600160a01b038216611acd57611aca600a6118a561146e846118b0565b50505b6001600160a01b038381165f908152600860205260408082205485841683529120546109d992918216911683611410565b5f8061190e858585611b32565b5f60ff8216601f8111156104f057604051632cd44ac360e21b815260040160405180910390fd5b82545f9081908015611c28575f611b4e87610e0b600185611fa4565b805490915065ffffffffffff80821691600160301b90046001600160d01b0316908816821115611b9157604051632520601d60e01b815260040160405180910390fd5b8765ffffffffffff168265ffffffffffff1603611bca57825465ffffffffffff16600160301b6001600160d01b03891602178355611c1a565b6040805180820190915265ffffffffffff808a1682526001600160d01b03808a1660208085019182528d54600181018f555f8f81529190912094519151909216600160301b029216919091179101555b945085935061191392505050565b50506040805180820190915265ffffffffffff80851682526001600160d01b0380851660208085019182528854600181018a555f8a815291822095519251909316600160301b029190931617920191909155905081611913565b5f81518084528060208401602086015e5f602082860101526020601f19601f83011685010191505092915050565b602081525f6109c56020830184611c82565b80356001600160a01b0381168114610c0f575f5ffd5b5f5f60408385031215611ce9575f5ffd5b611cf283611cc2565b946020939093013593505050565b5f5f5f60608486031215611d12575f5ffd5b611d1b84611cc2565b9250611d2960208501611cc2565b929592945050506040919091013590565b5f60208284031215611d4a575f5ffd5b6109c582611cc2565b60ff60f81b8816815260e060208201525f611d7160e0830189611c82565b8281036040840152611d838189611c82565b606084018890526001600160a01b038716608085015260a0840186905283810360c0850152845180825260208087019350909101905f5b81811015611dd8578351835260209384019390920191600101611dba565b50909b9a5050505050505050505050565b5f60208284031215611df9575f5ffd5b5035919050565b60ff81168114611e0e575f5ffd5b50565b5f5f5f5f5f5f60c08789031215611e26575f5ffd5b611e2f87611cc2565b955060208701359450604087013593506060870135611e4d81611e00565b9598949750929560808101359460a0909101359350915050565b5f5f5f5f5f5f5f60e0888a031215611e7d575f5ffd5b611e8688611cc2565b9650611e9460208901611cc2565b955060408801359450606088013593506080880135611eb281611e00565b9699959850939692959460a0840135945060c09093013592915050565b5f5f60408385031215611ee0575f5ffd5b611ee983611cc2565b9150611ef760208401611cc2565b90509250929050565b5f5f60408385031215611f11575f5ffd5b611f1a83611cc2565b9150602083013563ffffffff81168114611f32575f5ffd5b809150509250929050565b600181811c90821680611f5157607f821691505b602082108103611f6f57634e487b7160e01b5f52602260045260245ffd5b50919050565b5f60208284031215611f85575f5ffd5b81516109c581611e00565b634e487b7160e01b5f52601160045260245ffd5b818103818111156104f0576104f0611f90565b808201808211156104f0576104f0611f90565b634e487b7160e01b5f52601260045260245ffd5b634e487b7160e01b5f52602160045260245ffd5b634e487b7160e01b5f52603260045260245ffd5b6001600160d01b0382811682821603908111156104f0576104f0611f90565b6001600160d01b0381811683821601908111156104f0576104f0611f9056fea2646970667358221220ff2e77cda3090eb71ea5fbeeaf354cab7fd1c3763973b50434a598729229c41964736f6c63430008210033","linkReferences":{}},"methodIdentifiers":{"CLOCK_MODE()":"4bf5d7e9","DOMAIN_SEPARATOR()":"3644e515","allowance(address,address)":"dd62ed3e","approve(address,uint256)":"095ea7b3","balanceOf(address)":"70a08231","checkpoints(address,uint32)":"f1127ed8","clock()":"91ddadf4","decimals()":"313ce567","delegate(address)":"5c19a95c","delegateBySig(address,uint256,uint256,uint8,bytes32,bytes32)":"c3cda520","delegates(address)":"587cde1e","depositFor(address,uint256)":"2f4f21e2","eip712Domain()":"84b0196e","getPastTotalSupply(uint256)":"8e539e8c","getPastVotes(address,uint256)":"3a46b1a8","getVotes(address)":"9ab24eb0","name()":"06fdde03","nonces(address)":"7ecebe00","numCheckpoints(address)":"6fcfff45","permit(address,address,uint256,uint256,uint8,bytes32,bytes32)":"d505accf","symbol()":"95d89b41","totalSupply()":"18160ddd","transfer(address,uint256)":"a9059cbb","transferFrom(address,address,uint256)":"23b872dd","underlying()":"6f307dc3","withdrawTo(address,uint256)":"205c2878"},"id":201}