{"abi":[{"type":"constructor","inputs":[{"name":"underlying","type":"address","internalType":"address"}],"stateMutability":"nonpayable"},{"type":"function","name":"allowance","inputs":[{"name":"owner","type":"address","internalType":"address"},{"name":"spender","type":"address","internalType":"address"}],"outputs":[{"name":"","type":"uint256","internalType":"uint256"}],"stateMutability":"view"},{"type":"function","name":"approve","inputs":[{"name":"spender","type":"address","internalType":"address"},{"name":"value","type":"uint256","internalType":"uint256"}],"outputs":[{"name":"","type":"bool","internalType":"bool"}],"stateMutability":"nonpayable"},{"type":"function","name":"asset","inputs":[],"outputs":[{"name":"","type":"address","internalType":"address"}],"stateMutability":"view"},{"type":"function","name":"balanceOf","inputs":[{"name":"account","type":"address","internalType":"address"}],"outputs":[{"name":"","type":"uint256","internalType":"uint256"}],"stateMutability":"view"},{"type":"function","name":"burn","inputs":[{"name":"account","type":"address","internalType":"address"},{"name":"amount","type":"uint256","internalType":"uint256"}],"outputs":[],"stateMutability":"nonpayable"},{"type":"function","name":"convertToAssets","inputs":[{"name":"shares","type":"uint256","internalType":"uint256"}],"outputs":[{"name":"","type":"uint256","internalType":"uint256"}],"stateMutability":"view"},{"type":"function","name":"convertToShares","inputs":[{"name":"assets","type":"uint256","internalType":"uint256"}],"outputs":[{"name":"","type":"uint256","internalType":"uint256"}],"stateMutability":"view"},{"type":"function","name":"decimals","inputs":[],"outputs":[{"name":"","type":"uint8","internalType":"uint8"}],"stateMutability":"view"},{"type":"function","name":"deposit","inputs":[{"name":"assets","type":"uint256","internalType":"uint256"},{"name":"receiver","type":"address","internalType":"address"}],"outputs":[{"name":"","type":"uint256","internalType":"uint256"}],"stateMutability":"nonpayable"},{"type":"function","name":"maxDeposit","inputs":[{"name":"","type":"address","internalType":"address"}],"outputs":[{"name":"","type":"uint256","internalType":"uint256"}],"stateMutability":"view"},{"type":"function","name":"maxMint","inputs":[{"name":"","type":"address","internalType":"address"}],"outputs":[{"name":"","type":"uint256","internalType":"uint256"}],"stateMutability":"view"},{"type":"function","name":"maxRedeem","inputs":[{"name":"owner","type":"address","internalType":"address"}],"outputs":[{"name":"","type":"uint256","internalType":"uint256"}],"stateMutability":"view"},{"type":"function","name":"maxWithdraw","inputs":[{"name":"owner","type":"address","internalType":"address"}],"outputs":[{"name":"","type":"uint256","internalType":"uint256"}],"stateMutability":"view"},{"type":"function","name":"mint","inputs":[{"name":"account","type":"address","internalType":"address"},{"name":"amount","type":"uint256","internalType":"uint256"}],"outputs":[],"stateMutability":"nonpayable"},{"type":"function","name":"mint","inputs":[{"name":"shares","type":"uint256","internalType":"uint256"},{"name":"receiver","type":"address","internalType":"address"}],"outputs":[{"name":"","type":"uint256","internalType":"uint256"}],"stateMutability":"nonpayable"},{"type":"function","name":"name","inputs":[],"outputs":[{"name":"","type":"string","internalType":"string"}],"stateMutability":"view"},{"type":"function","name":"previewDeposit","inputs":[{"name":"assets","type":"uint256","internalType":"uint256"}],"outputs":[{"name":"","type":"uint256","internalType":"uint256"}],"stateMutability":"view"},{"type":"function","name":"previewMint","inputs":[{"name":"shares","type":"uint256","internalType":"uint256"}],"outputs":[{"name":"","type":"uint256","internalType":"uint256"}],"stateMutability":"view"},{"type":"function","name":"previewRedeem","inputs":[{"name":"shares","type":"uint256","internalType":"uint256"}],"outputs":[{"name":"","type":"uint256","internalType":"uint256"}],"stateMutability":"view"},{"type":"function","name":"previewWithdraw","inputs":[{"name":"assets","type":"uint256","internalType":"uint256"}],"outputs":[{"name":"","type":"uint256","internalType":"uint256"}],"stateMutability":"view"},{"type":"function","name":"redeem","inputs":[{"name":"shares","type":"uint256","internalType":"uint256"},{"name":"receiver","type":"address","internalType":"address"},{"name":"owner","type":"address","internalType":"address"}],"outputs":[{"name":"","type":"uint256","internalType":"uint256"}],"stateMutability":"nonpayable"},{"type":"function","name":"symbol","inputs":[],"outputs":[{"name":"","type":"string","internalType":"string"}],"stateMutability":"view"},{"type":"function","name":"totalAssets","inputs":[],"outputs":[{"name":"","type":"uint256","internalType":"uint256"}],"stateMutability":"view"},{"type":"function","name":"totalSupply","inputs":[],"outputs":[{"name":"","type":"uint256","internalType":"uint256"}],"stateMutability":"view"},{"type":"function","name":"transfer","inputs":[{"name":"to","type":"address","internalType":"address"},{"name":"value","type":"uint256","internalType":"uint256"}],"outputs":[{"name":"","type":"bool","internalType":"bool"}],"stateMutability":"nonpayable"},{"type":"function","name":"transferFrom","inputs":[{"name":"from","type":"address","internalType":"address"},{"name":"to","type":"address","internalType":"address"},{"name":"value","type":"uint256","internalType":"uint256"}],"outputs":[{"name":"","type":"bool","internalType":"bool"}],"stateMutability":"nonpayable"},{"type":"function","name":"withdraw","inputs":[{"name":"assets","type":"uint256","internalType":"uint256"},{"name":"receiver","type":"address","internalType":"address"},{"name":"owner","type":"address","internalType":"address"}],"outputs":[{"name":"","type":"uint256","internalType":"uint256"}],"stateMutability":"nonpayable"},{"type":"event","name":"Approval","inputs":[{"name":"owner","type":"address","indexed":true,"internalType":"address"},{"name":"spender","type":"address","indexed":true,"internalType":"address"},{"name":"value","type":"uint256","indexed":false,"internalType":"uint256"}],"anonymous":false},{"type":"event","name":"Deposit","inputs":[{"name":"sender","type":"address","indexed":true,"internalType":"address"},{"name":"owner","type":"address","indexed":true,"internalType":"address"},{"name":"assets","type":"uint256","indexed":false,"internalType":"uint256"},{"name":"shares","type":"uint256","indexed":false,"internalType":"uint256"}],"anonymous":false},{"type":"event","name":"Transfer","inputs":[{"name":"from","type":"address","indexed":true,"internalType":"address"},{"name":"to","type":"address","indexed":true,"internalType":"address"},{"name":"value","type":"uint256","indexed":false,"internalType":"uint256"}],"anonymous":false},{"type":"event","name":"Withdraw","inputs":[{"name":"sender","type":"address","indexed":true,"internalType":"address"},{"name":"receiver","type":"address","indexed":true,"internalType":"address"},{"name":"owner","type":"address","indexed":true,"internalType":"address"},{"name":"assets","type":"uint256","indexed":false,"internalType":"uint256"},{"name":"shares","type":"uint256","indexed":false,"internalType":"uint256"}],"anonymous":false},{"type":"error","name":"ERC20InsufficientAllowance","inputs":[{"name":"spender","type":"address","internalType":"address"},{"name":"allowance","type":"uint256","internalType":"uint256"},{"name":"needed","type":"uint256","internalType":"uint256"}]},{"type":"error","name":"ERC20InsufficientBalance","inputs":[{"name":"sender","type":"address","internalType":"address"},{"name":"balance","type":"uint256","internalType":"uint256"},{"name":"needed","type":"uint256","internalType":"uint256"}]},{"type":"error","name":"ERC20InvalidApprover","inputs":[{"name":"approver","type":"address","internalType":"address"}]},{"type":"error","name":"ERC20InvalidReceiver","inputs":[{"name":"receiver","type":"address","internalType":"address"}]},{"type":"error","name":"ERC20InvalidSender","inputs":[{"name":"sender","type":"address","internalType":"address"}]},{"type":"error","name":"ERC20InvalidSpender","inputs":[{"name":"spender","type":"address","internalType":"address"}]},{"type":"error","name":"ERC4626ExceededMaxDeposit","inputs":[{"name":"receiver","type":"address","internalType":"address"},{"name":"assets","type":"uint256","internalType":"uint256"},{"name":"max","type":"uint256","internalType":"uint256"}]},{"type":"error","name":"ERC4626ExceededMaxMint","inputs":[{"name":"receiver","type":"address","internalType":"address"},{"name":"shares","type":"uint256","internalType":"uint256"},{"name":"max","type":"uint256","internalType":"uint256"}]},{"type":"error","name":"ERC4626ExceededMaxRedeem","inputs":[{"name":"owner","type":"address","internalType":"address"},{"name":"shares","type":"uint256","internalType":"uint256"},{"name":"max","type":"uint256","internalType":"uint256"}]},{"type":"error","name":"ERC4626ExceededMaxWithdraw","inputs":[{"name":"owner","type":"address","internalType":"address"},{"name":"assets","type":"uint256","internalType":"uint256"},{"name":"max","type":"uint256","internalType":"uint256"}]},{"type":"error","name":"SafeERC20FailedOperation","inputs":[{"name":"token","type":"address","internalType":"address"}]}],"bytecode":{"object":"0x60c060405234801561000f575f5ffd5b5060405161152238038061152283398101604081905261002e91610180565b806040518060400160405280600b81526020016a455243343632364d6f636b60a81b8152506040518060400160405280600681526020016545343632364d60d01b81525081600390816100819190610250565b50600461008e8282610250565b5050505f5f6100a2836100ce60201b60201c565b91509150816100b25760126100b4565b805b60ff1660a05250506001600160a01b03166080525061030e565b5f80806100da60405190565b6040805160048152602481019091526020810180516001600160e01b0390811663313ce56760e01b179091529192505f91829161011a9188919061015f16565b50909250905061012983604052565b818015610137575060203d10155b8015610144575060ff8111155b61014f575f5f610153565b6001815b94509450505050915091565b5f5f5f60405f855160208701885afa92505f51915060205190509250925092565b5f60208284031215610190575f5ffd5b81516001600160a01b03811681146101a6575f5ffd5b9392505050565b634e487b7160e01b5f52604160045260245ffd5b600181811c908216806101d557607f821691505b6020821081036101f357634e487b7160e01b5f52602260045260245ffd5b50919050565b601f82111561024b578282111561024b57805f5260205f20601f840160051c602085101561022457505f5b90810190601f840160051c035f5b81811015610247575f83820155600101610232565b5050505b505050565b81516001600160401b03811115610269576102696101ad565b61027d8161027784546101c1565b846101f9565b6020601f8211600181146102af575f83156102985750848201515b5f19600385901b1c1916600184901b178455610307565b5f84815260208120601f198516915b828110156102de57878501518255602094850194600190920191016102be565b50848210156102fb57868401515f19600387901b60f8161c191681555b505060018360011b0184555b5050505050565b60805160a0516111de6103445f395f61055801525f8181610260015281816103dc01528181610bb00152610bdc01526111de5ff3fe608060405234801561000f575f5ffd5b50600436106101a1575f3560e01c806370a08231116100f3578063ba08765211610093578063ce96cb771161006e578063ce96cb771461037b578063d905777e1461038e578063dd62ed3e146103a1578063ef8b30f714610368575f5ffd5b8063ba08765214610355578063c63d75b61461028a578063c6e6f59214610368575f5ffd5b80639dc29fac116100ce5780639dc29fac14610309578063a9059cbb1461031c578063b3d7f6b91461032f578063b460af9414610342575f5ffd5b806370a08231146102c657806394bf804d146102ee57806395d89b4114610301575f5ffd5b806323b872dd1161015e578063402d267d11610139578063402d267d1461028a57806340c10f191461029e5780634cdad506146101d55780636e553f65146102b3575f5ffd5b806323b872dd14610226578063313ce5671461023957806338d52e0f14610253575f5ffd5b806301e1d114146101a557806306fdde03146101c057806307a2d13a146101d5578063095ea7b3146101e85780630a28a4771461020b57806318160ddd1461021e575b5f5ffd5b6101ad6103d9565b6040519081526020015b60405180910390f35b6101c8610468565b6040516101b79190610e45565b6101ad6101e3366004610e7a565b6104f8565b6101fb6101f6366004610eac565b610509565b60405190151581526020016101b7565b6101ad610219366004610e7a565b610520565b6002546101ad565b6101fb610234366004610ed4565b61052c565b610241610551565b60405160ff90911681526020016101b7565b6040516001600160a01b037f00000000000000000000000000000000000000000000000000000000000000001681526020016101b7565b6101ad610298366004610f0e565b505f1990565b6102b16102ac366004610eac565b61057c565b005b6101ad6102c1366004610f27565b61058a565b6101ad6102d4366004610f0e565b6001600160a01b03165f9081526020819052604090205490565b6101ad6102fc366004610f27565b6105bb565b6101c86105d6565b6102b1610317366004610eac565b6105e5565b6101fb61032a366004610eac565b6105ef565b6101ad61033d366004610e7a565b6105fc565b6101ad610350366004610f51565b610608565b6101ad610363366004610f51565b61065e565b6101ad610376366004610e7a565b6106ab565b6101ad610389366004610f0e565b6106b6565b6101ad61039c366004610f0e565b6106bf565b6101ad6103af366004610f8a565b6001600160a01b039182165f90815260016020908152604080832093909416825291909152205490565b5f7f00000000000000000000000000000000000000000000000000000000000000006040516370a0823160e01b81523060048201526001600160a01b0391909116906370a0823190602401602060405180830381865afa15801561043f573d5f5f3e3d5ffd5b505050506040513d601f19601f820116820180604052508101906104639190610fb2565b905090565b60606003805461047790610fc9565b80601f01602080910402602001604051908101604052809291908181526020018280546104a390610fc9565b80156104ee5780601f106104c5576101008083540402835291602001916104ee565b820191905f5260205f20905b8154815290600101906020018083116104d157829003601f168201915b5050505050905090565b5f610503825f6106dc565b92915050565b5f33610516818585610714565b5060019392505050565b5f610503826001610726565b5f33610539858285610755565b6105448585856107be565b60019150505b9392505050565b5f610463817f0000000000000000000000000000000000000000000000000000000000000000611015565b610586828261081b565b5050565b5f5f1961059b565b60405180910390fd5b5f6105a5856106ab565b90506105b33385878461084f565b949350505050565b5f5f195f6105c8856105fc565b90506105b33385838861084f565b60606004805461047790610fc9565b61058682826108bf565b5f336105168185856107be565b5f6105038260016106dc565b5f5f610613836106b6565b90508085111561063c57828582604051633fa733bb60e21b81526004016105929392919061102e565b5f61064686610520565b905061065533868689856108f3565b95945050505050565b5f5f610669836106bf565b90508085111561069257828582604051632e52afbb60e21b81526004016105929392919061102e565b5f61069c866104f8565b9050610655338686848a6108f3565b5f610503825f610726565b5f6105036101e3835b6001600160a01b0381165f90815260208190526040812054610503565b5f61054a6106e86103d9565b6106f390600161104f565b6106fe5f600a611145565b60025461070b919061104f565b85919085610992565b61072183838360016109d4565b505050565b5f61054a61073582600a611145565b600254610742919061104f565b61074a6103d9565b61070b90600161104f565b6001600160a01b038381165f908152600160209081526040808320938616835292905220545f198110156107b857818110156107aa57828183604051637dc7a0d960e11b81526004016105929392919061102e565b6107b884848484035f6109d4565b50505050565b6001600160a01b0383166107e757604051634b637e8f60e11b81525f6004820152602401610592565b6001600160a01b0382166108105760405163ec442f0560e01b81525f6004820152602401610592565b610721838383610a98565b6001600160a01b0382166108445760405163ec442f0560e01b81525f6004820152602401610592565b6105865f8383610a98565b6108598483610bab565b610863838261081b565b826001600160a01b0316846001600160a01b03167fdcbc1c05240f31ff3ad067ef1ee35ce4997762752e3a095284754544f4c709d784846040516108b1929190918252602082015260400190565b60405180910390a350505050565b6001600160a01b0382166108e857604051634b637e8f60e11b81525f6004820152602401610592565b610586825f83610a98565b826001600160a01b0316856001600160a01b03161461091757610917838683610755565b61092183826108bf565b61092b8483610bd7565b826001600160a01b0316846001600160a01b0316866001600160a01b03167ffbde797d201c681b91056529119e0b02407c7bb96a4a2c75c01fc9667232c8db8585604051610983929190918252602082015260400190565b60405180910390a45050505050565b5f6109bf61099f83610c02565b80156109ba57505f84806109b5576109b5611153565b868809115b151590565b6109ca868686610c2e565b610655919061104f565b6001600160a01b0384166109fd5760405163e602df0560e01b81525f6004820152602401610592565b6001600160a01b038316610a2657604051634a1406b160e11b81525f6004820152602401610592565b6001600160a01b038085165f90815260016020908152604080832093871683529290522082905580156107b857826001600160a01b0316846001600160a01b03167f8c5be1e5ebec7d5bd14f71427d1e84f3dd0314c0f7b2291e5b200ac8c7c3b925846040516108b191815260200190565b6001600160a01b038316610ac2578060025f828254610ab7919061104f565b90915550610b1f9050565b6001600160a01b0383165f9081526020819052604090205481811015610b015783818360405163391434e360e21b81526004016105929392919061102e565b6001600160a01b0384165f9081526020819052604090209082900390555b6001600160a01b038216610b3b57600280548290039055610b59565b6001600160a01b0382165f9081526020819052604090208054820190555b816001600160a01b0316836001600160a01b03167fddf252ad1be2c89b69c2b068fc378daa952ba7f163c4a11628f55a4df523b3ef83604051610b9e91815260200190565b60405180910390a3505050565b6105867f0000000000000000000000000000000000000000000000000000000000000000833084610cde565b6105867f00000000000000000000000000000000000000000000000000000000000000008383610d14565b5f6002826003811115610c1757610c17611167565b610c21919061117b565b60ff166001149050919050565b5f5f5f610c3b8686610d49565b91509150815f03610c5f57838181610c5557610c55611153565b049250505061054a565b818411610c7657610c766003851502601118610d65565b5f848688095f868103871696879004966002600389028118808a02820302808a02820302808a02820302808a02820302808a02820302808a02909103029181900381900460010185841190960395909502919093039390930492909217029150509392505050565b610cec848484846001610d76565b6107b857604051635274afe760e01b81526001600160a01b0385166004820152602401610592565b610d218383836001610de3565b61072157604051635274afe760e01b81526001600160a01b0384166004820152602401610592565b5f805f1983850993909202808410938190039390930393915050565b634e487b715f52806020526024601cfd5b6040516323b872dd60e01b5f8181526001600160a01b038781166004528616602452604485905291602083606481808c5af1925060015f51148316610dd2578383151615610dc6573d5f823e3d81fd5b5f883b113d1516831692505b604052505f60605295945050505050565b60405163a9059cbb60e01b5f8181526001600160a01b038616600452602485905291602083604481808b5af1925060015f51148316610e39578383151615610e2d573d5f823e3d81fd5b5f873b113d1516831692505b60405250949350505050565b602081525f82518060208401528060208501604085015e5f604082850101526040601f19601f83011684010191505092915050565b5f60208284031215610e8a575f5ffd5b5035919050565b80356001600160a01b0381168114610ea7575f5ffd5b919050565b5f5f60408385031215610ebd575f5ffd5b610ec683610e91565b946020939093013593505050565b5f5f5f60608486031215610ee6575f5ffd5b610eef84610e91565b9250610efd60208501610e91565b929592945050506040919091013590565b5f60208284031215610f1e575f5ffd5b61054a82610e91565b5f5f60408385031215610f38575f5ffd5b82359150610f4860208401610e91565b90509250929050565b5f5f5f60608486031215610f63575f5ffd5b83359250610f7360208501610e91565b9150610f8160408501610e91565b90509250925092565b5f5f60408385031215610f9b575f5ffd5b610fa483610e91565b9150610f4860208401610e91565b5f60208284031215610fc2575f5ffd5b5051919050565b600181811c90821680610fdd57607f821691505b602082108103610ffb57634e487b7160e01b5f52602260045260245ffd5b50919050565b634e487b7160e01b5f52601160045260245ffd5b60ff818116838216019081111561050357610503611001565b6001600160a01b039390931683526020830191909152604082015260600190565b8082018082111561050357610503611001565b6001815b600184111561109d5780850481111561108157611081611001565b600184161561108f57908102905b60019390931c928002611066565b935093915050565b5f826110b357506001610503565b816110bf57505f610503565b81600181146110d557600281146110df576110fb565b6001915050610503565b60ff8411156110f0576110f0611001565b50506001821b610503565b5060208310610133831016604e8410600b841016171561111e575081810a610503565b61112a5f198484611062565b805f190482111561113d5761113d611001565b029392505050565b5f61054a60ff8416836110a5565b634e487b7160e01b5f52601260045260245ffd5b634e487b7160e01b5f52602160045260245ffd5b5f60ff83168061119957634e487b7160e01b5f52601260045260245ffd5b8060ff8416069150509291505056fea264697066735822122038859d4b77c5f4541de9f9873c42af972975c1e75cb1fe0200103a6129bf50ab64736f6c63430008210033","linkReferences":{}},"methodIdentifiers":{"allowance(address,address)":"dd62ed3e","approve(address,uint256)":"095ea7b3","asset()":"38d52e0f","balanceOf(address)":"70a08231","burn(address,uint256)":"9dc29fac","convertToAssets(uint256)":"07a2d13a","convertToShares(uint256)":"c6e6f592","decimals()":"313ce567","deposit(uint256,address)":"6e553f65","maxDeposit(address)":"402d267d","maxMint(address)":"c63d75b6","maxRedeem(address)":"d905777e","maxWithdraw(address)":"ce96cb77","mint(address,uint256)":"40c10f19","mint(uint256,address)":"94bf804d","name()":"06fdde03","previewDeposit(uint256)":"ef8b30f7","previewMint(uint256)":"b3d7f6b9","previewRedeem(uint256)":"4cdad506","previewWithdraw(uint256)":"0a28a477","redeem(uint256,address,address)":"ba087652","symbol()":"95d89b41","totalAssets()":"01e1d114","totalSupply()":"18160ddd","transfer(address,uint256)":"a9059cbb","transferFrom(address,address,uint256)":"23b872dd","withdraw(uint256,address,address)":"b460af94"},"id":250}