{"abi":[{"type":"function","name":"disableReentrancy","inputs":[],"outputs":[],"stateMutability":"nonpayable"},{"type":"function","name":"enableReentrancy","inputs":[{"name":"target","type":"address","internalType":"address"},{"name":"data","type":"bytes","internalType":"bytes"}],"outputs":[],"stateMutability":"nonpayable"},{"type":"function","name":"reenter","inputs":[],"outputs":[],"stateMutability":"nonpayable"},{"type":"error","name":"AddressEmptyCode","inputs":[{"name":"target","type":"address","internalType":"address"}]},{"type":"error","name":"FailedCall","inputs":[]},{"type":"error","name":"InsufficientBalance","inputs":[{"name":"balance","type":"uint256","internalType":"uint256"},{"name":"needed","type":"uint256","internalType":"uint256"}]}],"bytecode":{"object":"0x6080604052348015600e575f5ffd5b506104998061001c5f395ff3fe608060405234801561000f575f5ffd5b506004361061003f575f3560e01c806316b3283714610043578063a0fe97e314610058578063cc23fb1c14610060575b5f5ffd5b61005661005136600461027a565b610072565b005b61005661009f565b6100566002805460ff19166001179055565b5f80546001600160a01b0319166001600160a01b03851617905560016100998284836103a8565b50505050565b60025460ff1661015a576002805460ff191660019081179091555f548154610158926001600160a01b0390921691906100d790610319565b80601f016020809104026020016040519081016040528092919081815260200182805461010390610319565b801561014e5780601f106101255761010080835404028352916020019161014e565b820191905f5260205f20905b81548152906001019060200180831161013157829003601f168201915b505050505061015c565b505b565b606061016983835f610170565b9392505050565b6060814710156101a15760405163cf47918160e01b8152476004820152602481018390526044015b60405180910390fd5b5f6101ad858486610241565b90508080156101ce57505f3d11806101ce57505f856001600160a01b03163b115b156101e3576101db610256565b915050610169565b801561020d57604051639996b31560e01b81526001600160a01b0386166004820152602401610198565b3d156102205761021b61026f565b610239565b60405163d6bda27560e01b815260040160405180910390fd5b509392505050565b5f5f5f83516020850186885af1949350505050565b6040513d81523d5f602083013e3d602001810160405290565b6040513d5f823e3d81fd5b5f5f5f6040848603121561028c575f5ffd5b83356001600160a01b03811681146102a2575f5ffd5b9250602084013567ffffffffffffffff8111156102bd575f5ffd5b8401601f810186136102cd575f5ffd5b803567ffffffffffffffff8111156102e3575f5ffd5b8660208284010111156102f4575f5ffd5b939660209190910195509293505050565b634e487b7160e01b5f52604160045260245ffd5b600181811c9082168061032d57607f821691505b60208210810361034b57634e487b7160e01b5f52602260045260245ffd5b50919050565b601f8211156103a357828211156103a357805f5260205f20601f840160051c602085101561037c57505f5b90810190601f840160051c035f5b8181101561039f575f8382015560010161038a565b5050505b505050565b67ffffffffffffffff8311156103c0576103c0610305565b6103d4836103ce8354610319565b83610351565b5f601f841160018114610405575f85156103ee5750838201355b5f19600387901b1c1916600186901b17835561045c565b5f83815260208120601f198716915b828110156104345786850135825560209485019460019092019101610414565b5086821015610450575f1960f88860031b161c19848701351681555b505060018560011b0183555b505050505056fea26469706673582212203473f005caa3d34315b4b0a787d02b017d676dc35b6c1de2a35af707621f740664736f6c63430008210033","linkReferences":{}},"methodIdentifiers":{"disableReentrancy()":"cc23fb1c","enableReentrancy(address,bytes)":"16b32837","reenter()":"a0fe97e3"},"id":175}