{"abi":[{"type":"constructor","inputs":[{"name":"manager","type":"address","internalType":"address"}],"stateMutability":"nonpayable"},{"type":"function","name":"allowance","inputs":[{"name":"owner","type":"address","internalType":"address"},{"name":"spender","type":"address","internalType":"address"}],"outputs":[{"name":"","type":"uint256","internalType":"uint256"}],"stateMutability":"view"},{"type":"function","name":"approve","inputs":[{"name":"spender","type":"address","internalType":"address"},{"name":"value","type":"uint256","internalType":"uint256"}],"outputs":[{"name":"","type":"bool","internalType":"bool"}],"stateMutability":"nonpayable"},{"type":"function","name":"authority","inputs":[],"outputs":[{"name":"","type":"address","internalType":"address"}],"stateMutability":"view"},{"type":"function","name":"balanceOf","inputs":[{"name":"account","type":"address","internalType":"address"}],"outputs":[{"name":"","type":"uint256","internalType":"uint256"}],"stateMutability":"view"},{"type":"function","name":"decimals","inputs":[],"outputs":[{"name":"","type":"uint8","internalType":"uint8"}],"stateMutability":"view"},{"type":"function","name":"isConsumingScheduledOp","inputs":[],"outputs":[{"name":"","type":"bytes4","internalType":"bytes4"}],"stateMutability":"view"},{"type":"function","name":"mint","inputs":[{"name":"to","type":"address","internalType":"address"},{"name":"amount","type":"uint256","internalType":"uint256"}],"outputs":[],"stateMutability":"nonpayable"},{"type":"function","name":"name","inputs":[],"outputs":[{"name":"","type":"string","internalType":"string"}],"stateMutability":"view"},{"type":"function","name":"setAuthority","inputs":[{"name":"newAuthority","type":"address","internalType":"address"}],"outputs":[],"stateMutability":"nonpayable"},{"type":"function","name":"symbol","inputs":[],"outputs":[{"name":"","type":"string","internalType":"string"}],"stateMutability":"view"},{"type":"function","name":"totalSupply","inputs":[],"outputs":[{"name":"","type":"uint256","internalType":"uint256"}],"stateMutability":"view"},{"type":"function","name":"transfer","inputs":[{"name":"to","type":"address","internalType":"address"},{"name":"value","type":"uint256","internalType":"uint256"}],"outputs":[{"name":"","type":"bool","internalType":"bool"}],"stateMutability":"nonpayable"},{"type":"function","name":"transferFrom","inputs":[{"name":"from","type":"address","internalType":"address"},{"name":"to","type":"address","internalType":"address"},{"name":"value","type":"uint256","internalType":"uint256"}],"outputs":[{"name":"","type":"bool","internalType":"bool"}],"stateMutability":"nonpayable"},{"type":"event","name":"Approval","inputs":[{"name":"owner","type":"address","indexed":true,"internalType":"address"},{"name":"spender","type":"address","indexed":true,"internalType":"address"},{"name":"value","type":"uint256","indexed":false,"internalType":"uint256"}],"anonymous":false},{"type":"event","name":"AuthorityUpdated","inputs":[{"name":"authority","type":"address","indexed":false,"internalType":"address"}],"anonymous":false},{"type":"event","name":"Transfer","inputs":[{"name":"from","type":"address","indexed":true,"internalType":"address"},{"name":"to","type":"address","indexed":true,"internalType":"address"},{"name":"value","type":"uint256","indexed":false,"internalType":"uint256"}],"anonymous":false},{"type":"error","name":"AccessManagedInvalidAuthority","inputs":[{"name":"authority","type":"address","internalType":"address"}]},{"type":"error","name":"AccessManagedRequiredDelay","inputs":[{"name":"caller","type":"address","internalType":"address"},{"name":"delay","type":"uint32","internalType":"uint32"}]},{"type":"error","name":"AccessManagedUnauthorized","inputs":[{"name":"caller","type":"address","internalType":"address"}]},{"type":"error","name":"ERC20InsufficientAllowance","inputs":[{"name":"spender","type":"address","internalType":"address"},{"name":"allowance","type":"uint256","internalType":"uint256"},{"name":"needed","type":"uint256","internalType":"uint256"}]},{"type":"error","name":"ERC20InsufficientBalance","inputs":[{"name":"sender","type":"address","internalType":"address"},{"name":"balance","type":"uint256","internalType":"uint256"},{"name":"needed","type":"uint256","internalType":"uint256"}]},{"type":"error","name":"ERC20InvalidApprover","inputs":[{"name":"approver","type":"address","internalType":"address"}]},{"type":"error","name":"ERC20InvalidReceiver","inputs":[{"name":"receiver","type":"address","internalType":"address"}]},{"type":"error","name":"ERC20InvalidSender","inputs":[{"name":"sender","type":"address","internalType":"address"}]},{"type":"error","name":"ERC20InvalidSpender","inputs":[{"name":"spender","type":"address","internalType":"address"}]}],"bytecode":{"object":"0x608060405234801561000f575f5ffd5b50604051610d75380380610d7583398101604081905261002e916100f4565b806040518060400160405280600781526020016626bcaa37b5b2b760c91b815250604051806040016040528060038152602001622a25a760e91b815250816003908161007a91906101c4565b50600461008782826101c4565b505050610099816100a060201b60201c565b5050610282565b600580546001600160a01b0319166001600160a01b0383169081179091556040519081527f2f658b440c35314f52658ea8a740e05b284cdc84dc9ae01e891f21b8933e7cad9060200160405180910390a150565b5f60208284031215610104575f5ffd5b81516001600160a01b038116811461011a575f5ffd5b9392505050565b634e487b7160e01b5f52604160045260245ffd5b600181811c9082168061014957607f821691505b60208210810361016757634e487b7160e01b5f52602260045260245ffd5b50919050565b601f8211156101bf57828211156101bf57805f5260205f20601f840160051c602085101561019857505f5b90810190601f840160051c035f5b818110156101bb575f838201556001016101a6565b5050505b505050565b81516001600160401b038111156101dd576101dd610121565b6101f1816101eb8454610135565b8461016d565b6020601f821160018114610223575f831561020c5750848201515b5f19600385901b1c1916600184901b17845561027b565b5f84815260208120601f198516915b828110156102525787850151825560209485019460019092019101610232565b508482101561026f57868401515f19600387901b60f8161c191681555b505060018360011b0184555b5050505050565b610ae68061028f5f395ff3fe608060405234801561000f575f5ffd5b50600436106100cb575f3560e01c806370a082311161008857806395d89b411161006357806395d89b41146101b5578063a9059cbb146101bd578063bf7e214f146101d0578063dd62ed3e146101eb575f5ffd5b806370a08231146101595780637a9e5e4b146101815780638fb3603714610194575f5ffd5b806306fdde03146100cf578063095ea7b3146100ed57806318160ddd1461011057806323b872dd14610122578063313ce5671461013557806340c10f1914610144575b5f5ffd5b6100d7610223565b6040516100e491906108b8565b60405180910390f35b6101006100fb366004610908565b6102b3565b60405190151581526020016100e4565b6002545b6040519081526020016100e4565b610100610130366004610930565b6102cc565b604051601281526020016100e4565b610157610152366004610908565b6102ef565b005b61011461016736600461096a565b6001600160a01b03165f9081526020819052604090205490565b61015761018f36600461096a565b610308565b61019c610382565b6040516001600160e01b031990911681526020016100e4565b6100d76103a6565b6101006101cb366004610908565b6103b5565b6005546040516001600160a01b0390911681526020016100e4565b6101146101f936600461098a565b6001600160a01b039182165f90815260016020908152604080832093909416825291909152205490565b606060038054610232906109bb565b80601f016020809104026020016040519081016040528092919081815260200182805461025e906109bb565b80156102a95780601f10610280576101008083540402835291602001916102a9565b820191905f5260205f20905b81548152906001019060200180831161028c57829003601f168201915b5050505050905090565b5f336102c08185856103c2565b60019150505b92915050565b5f336102d98582856103d4565b6102e4858585610450565b506001949350505050565b6102fa335f366104ad565b61030482826105a6565b5050565b60055433906001600160a01b031681146103445760405162d1953b60e31b81526001600160a01b03821660048201526024015b60405180910390fd5b816001600160a01b03163b5f03610379576040516361798f2f60e11b81526001600160a01b038316600482015260240161033b565b610304826105da565b6005545f90600160a01b900460ff1661039a57505f90565b50638fb3603760e01b90565b606060048054610232906109bb565b5f336102c0818585610450565b6103cf838383600161062e565b505050565b6001600160a01b038381165f908152600160209081526040808320938616835292905220545f1981101561044a578181101561043c57604051637dc7a0d960e11b81526001600160a01b0384166004820152602481018290526044810183905260640161033b565b61044a84848484035f61062e565b50505050565b6001600160a01b03831661047957604051634b637e8f60e11b81525f600482015260240161033b565b6001600160a01b0382166104a25760405163ec442f0560e01b81525f600482015260240161033b565b6103cf838383610700565b5f5f6104e16104c46005546001600160a01b031690565b86306104d360045f898b6109f3565b6104dc91610a1a565b610826565b915091508161059f5763ffffffff81161561057c576005805460ff60a01b198116600160a01b17909155604051634a63ebf760e11b81526001600160a01b03909116906394c7d7ee9061053c90889088908890600401610a52565b5f604051808303815f87803b158015610553575f5ffd5b505af1158015610565573d5f5f3e3d5ffd5b50506005805460ff60a01b191690555061059f9050565b60405162d1953b60e31b81526001600160a01b038616600482015260240161033b565b5050505050565b6001600160a01b0382166105cf5760405163ec442f0560e01b81525f600482015260240161033b565b6103045f8383610700565b600580546001600160a01b0319166001600160a01b0383169081179091556040519081527f2f658b440c35314f52658ea8a740e05b284cdc84dc9ae01e891f21b8933e7cad9060200160405180910390a150565b6001600160a01b0384166106575760405163e602df0560e01b81525f600482015260240161033b565b6001600160a01b03831661068057604051634a1406b160e11b81525f600482015260240161033b565b6001600160a01b038085165f908152600160209081526040808320938716835292905220829055801561044a57826001600160a01b0316846001600160a01b03167f8c5be1e5ebec7d5bd14f71427d1e84f3dd0314c0f7b2291e5b200ac8c7c3b925846040516106f291815260200190565b60405180910390a350505050565b6001600160a01b03831661072a578060025f82825461071f9190610a91565b9091555061079a9050565b6001600160a01b0383165f908152602081905260409020548181101561077c5760405163391434e360e21b81526001600160a01b0385166004820152602481018290526044810183905260640161033b565b6001600160a01b0384165f9081526020819052604090209082900390555b6001600160a01b0382166107b6576002805482900390556107d4565b6001600160a01b0382165f9081526020819052604090208054820190555b816001600160a01b0316836001600160a01b03167fddf252ad1be2c89b69c2b068fc378daa952ba7f163c4a11628f55a4df523b3ef8360405161081991815260200190565b60405180910390a3505050565b6040516001600160a01b038085166024830152831660448201526001600160e01b0319821660648201525f908190819060840160408051601f19818403018152918152602080830180516001600160e01b031663b700961360e01b1781525f808052918290528351939450919290918a5afa156108ae575f516020805191945081901c150291505b5094509492505050565b602081525f82518060208401528060208501604085015e5f604082850101526040601f19601f83011684010191505092915050565b80356001600160a01b0381168114610903575f5ffd5b919050565b5f5f60408385031215610919575f5ffd5b610922836108ed565b946020939093013593505050565b5f5f5f60608486031215610942575f5ffd5b61094b846108ed565b9250610959602085016108ed565b929592945050506040919091013590565b5f6020828403121561097a575f5ffd5b610983826108ed565b9392505050565b5f5f6040838503121561099b575f5ffd5b6109a4836108ed565b91506109b2602084016108ed565b90509250929050565b600181811c908216806109cf57607f821691505b6020821081036109ed57634e487b7160e01b5f52602260045260245ffd5b50919050565b5f5f85851115610a01575f5ffd5b83861115610a0d575f5ffd5b5050820193919092039150565b80356001600160e01b03198116906004841015610a4b576001600160e01b0319600485900360031b81901b82161691505b5092915050565b6001600160a01b03841681526040602082018190528101829052818360608301375f818301606090810191909152601f909201601f1916010192915050565b808201808211156102c657634e487b7160e01b5f52601160045260245ffdfea2646970667358221220f6b4eb8080e967dade2c331d1d9786a069150ba05e0844f1a319fef6592c331464736f6c63430008210033","linkReferences":{}},"methodIdentifiers":{"allowance(address,address)":"dd62ed3e","approve(address,uint256)":"095ea7b3","authority()":"bf7e214f","balanceOf(address)":"70a08231","decimals()":"313ce567","isConsumingScheduledOp()":"8fb36037","mint(address,uint256)":"40c10f19","name()":"06fdde03","setAuthority(address)":"7a9e5e4b","symbol()":"95d89b41","totalSupply()":"18160ddd","transfer(address,uint256)":"a9059cbb","transferFrom(address,address,uint256)":"23b872dd"},"id":194}