{"abi":[{"type":"function","name":"execute","inputs":[{"name":"calls","type":"tuple[]","internalType":"struct BatchCaller.Call[]","components":[{"name":"target","type":"address","internalType":"address"},{"name":"value","type":"uint256","internalType":"uint256"},{"name":"data","type":"bytes","internalType":"bytes"}]}],"outputs":[{"name":"","type":"bytes[]","internalType":"bytes[]"}],"stateMutability":"nonpayable"},{"type":"error","name":"AddressEmptyCode","inputs":[{"name":"target","type":"address","internalType":"address"}]},{"type":"error","name":"FailedCall","inputs":[]},{"type":"error","name":"InsufficientBalance","inputs":[{"name":"balance","type":"uint256","internalType":"uint256"},{"name":"needed","type":"uint256","internalType":"uint256"}]}],"bytecode":{"object":"0x6080604052348015600e575f5ffd5b506104938061001c5f395ff3fe608060405234801561000f575f5ffd5b5060043610610029575f3560e01c80633f707e6b1461002d575b5f5ffd5b61004061003b3660046102b2565b610056565b60405161004d9190610323565b60405180910390f35b60605f8267ffffffffffffffff811115610072576100726103a7565b6040519080825280602002602001820160405280156100a557816020015b60608152602001906001900390816100905790505b5090505f5b838110156101a15761017c8585838181106100c7576100c76103bb565b90506020028101906100d991906103cf565b6100e79060208101906103ed565b8686848181106100f9576100f96103bb565b905060200281019061010b91906103cf565b610119906040810190610413565b8080601f0160208091040260200160405190810160405280939291908181526020018383808284375f920191909152508a9250899150869050818110610161576101616103bb565b905060200281019061017391906103cf565b602001356101a9565b82828151811061018e5761018e6103bb565b60209081029190910101526001016100aa565b509392505050565b6060814710156101da5760405163cf47918160e01b8152476004820152602481018390526044015b60405180910390fd5b5f6101e6858486610279565b905080801561020757505f3d118061020757505f856001600160a01b03163b115b1561021c5761021461028e565b915050610272565b801561024657604051639996b31560e01b81526001600160a01b03861660048201526024016101d1565b3d15610259576102546102a7565b6101a1565b60405163d6bda27560e01b815260040160405180910390fd5b9392505050565b5f5f5f83516020850186885af1949350505050565b6040513d81523d5f602083013e3d602001810160405290565b6040513d5f823e3d81fd5b5f5f602083850312156102c3575f5ffd5b823567ffffffffffffffff8111156102d9575f5ffd5b8301601f810185136102e9575f5ffd5b803567ffffffffffffffff8111156102ff575f5ffd5b8560208260051b8401011115610313575f5ffd5b6020919091019590945092505050565b5f602082016020835280845180835260408501915060408160051b8601019250602086015f5b8281101561039b57603f19878603018452815180518087528060208301602089015e5f602082890101526020601f19601f83011688010196505050602082019150602084019350600181019050610349565b50929695505050505050565b634e487b7160e01b5f52604160045260245ffd5b634e487b7160e01b5f52603260045260245ffd5b5f8235605e198336030181126103e3575f5ffd5b9190910192915050565b5f602082840312156103fd575f5ffd5b81356001600160a01b0381168114610272575f5ffd5b5f5f8335601e19843603018112610428575f5ffd5b83018035915067ffffffffffffffff821115610442575f5ffd5b602001915036819003821315610456575f5ffd5b925092905056fea2646970667358221220e43f87af872784e7aa62f4d1cb979c7d675a0541c88851d918e983b108f387fb64736f6c63430008210033","linkReferences":{}},"methodIdentifiers":{"execute((address,uint256,bytes)[])":"3f707e6b"},"id":151}