{"abi":[{"type":"function","name":"initialize","inputs":[],"outputs":[],"stateMutability":"nonpayable"},{"type":"function","name":"setValue","inputs":[{"name":"_number","type":"uint256","internalType":"uint256"}],"outputs":[],"stateMutability":"nonpayable"},{"type":"event","name":"Initialized","inputs":[{"name":"version","type":"uint64","indexed":false,"internalType":"uint64"}],"anonymous":false},{"type":"error","name":"InvalidInitialization","inputs":[]},{"type":"error","name":"NotInitializing","inputs":[]}],"bytecode":{"object":"0x6080604052348015600e575f5ffd5b506101a28061001c5f395ff3fe608060405234801561000f575f5ffd5b5060043610610034575f3560e01c806355241077146100385780638129fc1c1461004c575b5f5ffd5b61004a610046366004610155565b5f55565b005b7ff0c57e16840df040f15088dc2f81fe391c3923bec73e23a9662efc9c229c6a00805461004a9190600160401b810460ff16159067ffffffffffffffff165f811580156100965750825b90505f8267ffffffffffffffff1660011480156100b25750303b155b9050811580156100c0575080155b156100de5760405163f92ee8a960e01b815260040160405180910390fd5b845467ffffffffffffffff19166001178555831561010857845460ff60401b1916600160401b1785555b831561014e57845460ff60401b19168555604051600181527fc7f505b2f371ae2175ee4913f4499e1f2633a7b5936321eed1cdaeb6115181d29060200160405180910390a15b5050505050565b5f60208284031215610165575f5ffd5b503591905056fea2646970667358221220e87489477d1a63f4cf3bea334ae8f0a85e66afcda795dc649950e80221825f8c64736f6c63430008210033","linkReferences":{}},"methodIdentifiers":{"initialize()":"8129fc1c","setValue(uint256)":"55241077"},"id":171}