{"abi":[{"type":"function","name":"allowance","inputs":[{"name":"owner","type":"address","internalType":"address"},{"name":"spender","type":"address","internalType":"address"},{"name":"id","type":"uint256","internalType":"uint256"}],"outputs":[{"name":"","type":"uint256","internalType":"uint256"}],"stateMutability":"view"},{"type":"function","name":"approve","inputs":[{"name":"spender","type":"address","internalType":"address"},{"name":"id","type":"uint256","internalType":"uint256"},{"name":"amount","type":"uint256","internalType":"uint256"}],"outputs":[{"name":"","type":"bool","internalType":"bool"}],"stateMutability":"nonpayable"},{"type":"function","name":"balanceOf","inputs":[{"name":"owner","type":"address","internalType":"address"},{"name":"id","type":"uint256","internalType":"uint256"}],"outputs":[{"name":"","type":"uint256","internalType":"uint256"}],"stateMutability":"view"},{"type":"function","name":"contractURI","inputs":[],"outputs":[{"name":"","type":"string","internalType":"string"}],"stateMutability":"view"},{"type":"function","name":"isOperator","inputs":[{"name":"owner","type":"address","internalType":"address"},{"name":"spender","type":"address","internalType":"address"}],"outputs":[{"name":"","type":"bool","internalType":"bool"}],"stateMutability":"view"},{"type":"function","name":"setOperator","inputs":[{"name":"spender","type":"address","internalType":"address"},{"name":"approved","type":"bool","internalType":"bool"}],"outputs":[{"name":"","type":"bool","internalType":"bool"}],"stateMutability":"nonpayable"},{"type":"function","name":"supportsInterface","inputs":[{"name":"interfaceId","type":"bytes4","internalType":"bytes4"}],"outputs":[{"name":"","type":"bool","internalType":"bool"}],"stateMutability":"view"},{"type":"function","name":"tokenURI","inputs":[{"name":"id","type":"uint256","internalType":"uint256"}],"outputs":[{"name":"","type":"string","internalType":"string"}],"stateMutability":"view"},{"type":"function","name":"transfer","inputs":[{"name":"receiver","type":"address","internalType":"address"},{"name":"id","type":"uint256","internalType":"uint256"},{"name":"amount","type":"uint256","internalType":"uint256"}],"outputs":[{"name":"","type":"bool","internalType":"bool"}],"stateMutability":"nonpayable"},{"type":"function","name":"transferFrom","inputs":[{"name":"sender","type":"address","internalType":"address"},{"name":"receiver","type":"address","internalType":"address"},{"name":"id","type":"uint256","internalType":"uint256"},{"name":"amount","type":"uint256","internalType":"uint256"}],"outputs":[{"name":"","type":"bool","internalType":"bool"}],"stateMutability":"nonpayable"},{"type":"event","name":"Approval","inputs":[{"name":"owner","type":"address","indexed":true,"internalType":"address"},{"name":"spender","type":"address","indexed":true,"internalType":"address"},{"name":"id","type":"uint256","indexed":true,"internalType":"uint256"},{"name":"amount","type":"uint256","indexed":false,"internalType":"uint256"}],"anonymous":false},{"type":"event","name":"ContractURIUpdated","inputs":[],"anonymous":false},{"type":"event","name":"OperatorSet","inputs":[{"name":"owner","type":"address","indexed":true,"internalType":"address"},{"name":"spender","type":"address","indexed":true,"internalType":"address"},{"name":"approved","type":"bool","indexed":false,"internalType":"bool"}],"anonymous":false},{"type":"event","name":"Transfer","inputs":[{"name":"caller","type":"address","indexed":false,"internalType":"address"},{"name":"sender","type":"address","indexed":true,"internalType":"address"},{"name":"receiver","type":"address","indexed":true,"internalType":"address"},{"name":"id","type":"uint256","indexed":true,"internalType":"uint256"},{"name":"amount","type":"uint256","indexed":false,"internalType":"uint256"}],"anonymous":false},{"type":"event","name":"URI","inputs":[{"name":"value","type":"string","indexed":false,"internalType":"string"},{"name":"id","type":"uint256","indexed":true,"internalType":"uint256"}],"anonymous":false},{"type":"error","name":"ERC6909InsufficientAllowance","inputs":[{"name":"spender","type":"address","internalType":"address"},{"name":"allowance","type":"uint256","internalType":"uint256"},{"name":"needed","type":"uint256","internalType":"uint256"},{"name":"id","type":"uint256","internalType":"uint256"}]},{"type":"error","name":"ERC6909InsufficientBalance","inputs":[{"name":"sender","type":"address","internalType":"address"},{"name":"balance","type":"uint256","internalType":"uint256"},{"name":"needed","type":"uint256","internalType":"uint256"},{"name":"id","type":"uint256","internalType":"uint256"}]},{"type":"error","name":"ERC6909InvalidApprover","inputs":[{"name":"approver","type":"address","internalType":"address"}]},{"type":"error","name":"ERC6909InvalidReceiver","inputs":[{"name":"receiver","type":"address","internalType":"address"}]},{"type":"error","name":"ERC6909InvalidSender","inputs":[{"name":"sender","type":"address","internalType":"address"}]},{"type":"error","name":"ERC6909InvalidSpender","inputs":[{"name":"spender","type":"address","internalType":"address"}]}],"bytecode":{"object":"0x6080604052348015600e575f5ffd5b50610a4b8061001c5f395ff3fe608060405234801561000f575f5ffd5b506004361061009a575f3560e01c8063598af9e711610063578063598af9e714610120578063b6363cf21461015f578063c87b56dd1461019a578063e8a3d485146101ba578063fe99049a146101c2575f5ffd5b8062fdd58e1461009e57806301ffc9a7146100c4578063095bcdb6146100e7578063426a8493146100fa578063558a72971461010d575b5f5ffd5b6100b16100ac366004610809565b6101d5565b6040519081526020015b60405180910390f35b6100d76100d2366004610831565b6101fd565b60405190151581526020016100bb565b6100d76100f536600461085f565b610221565b6100d761010836600461085f565b610238565b6100d761011b36600461088f565b610245565b6100b161012e3660046108c8565b6001600160a01b039283165f9081526002602090815260408083209490951682529283528381209181529152205490565b6100d761016d366004610902565b6001600160a01b039182165f90815260016020908152604080832093909416825291909152205460ff1690565b6101ad6101a8366004610933565b61025a565b6040516100bb919061094a565b6101ad6102f9565b6100d76101d036600461097f565b610389565b6001600160a01b0382165f908152602081815260408083208484529091529020545b92915050565b5f6001600160e01b0319821663041b104b60e31b14806101f757506101f7826103f2565b5f61022e33858585610426565b5060019392505050565b5f61022e3385858561048f565b5f61025133848461054e565b50600192915050565b5f818152600460205260409020805460609190610276906109be565b80601f01602080910402602001604051908101604052809291908181526020018280546102a2906109be565b80156102ed5780601f106102c4576101008083540402835291602001916102ed565b820191905f5260205f20905b8154815290600101906020018083116102d057829003601f168201915b50505050509050919050565b606060038054610308906109be565b80601f0160208091040260200160405190810160405280929190818152602001828054610334906109be565b801561037f5780601f106103565761010080835404028352916020019161037f565b820191905f5260205f20905b81548152906001019060200180831161036257829003601f168201915b5050505050905090565b5f336001600160a01b03861681148015906103c957506001600160a01b038087165f9081526001602090815260408083209385168352929052205460ff16155b156103da576103da8682868661060c565b6103e686868686610426565b50600195945050505050565b5f6001600160e01b03198216630f632fb360e01b14806101f757506301ffc9a760e01b6001600160e01b03198316146101f7565b6001600160a01b038416610454576040516301486a4160e71b81525f60048201526024015b60405180910390fd5b6001600160a01b03831661047d57604051630b8bbd6160e41b81525f600482015260240161044b565b610489848484846106bc565b50505050565b6001600160a01b0384166104b85760405163198ecd5360e31b81525f600482015260240161044b565b6001600160a01b0383166104e157604051636f65f46560e01b81525f600482015260240161044b565b6001600160a01b038481165f8181526002602090815260408083209488168084529482528083208784528252918290208590559051848152859392917fb3fd5071835887567a0671151121894ddccc2842f1d10bedad13e0d17cace9a7910160405180910390a450505050565b6001600160a01b0383166105775760405163198ecd5360e31b81525f600482015260240161044b565b6001600160a01b0382166105a057604051636f65f46560e01b81525f600482015260240161044b565b6001600160a01b038381165f81815260016020908152604080832094871680845294825291829020805460ff191686151590811790915591519182527fceb576d9f15e4e200fdb5096d64d5dfd667e16def20c1eefd14256d8e3faa267910160405180910390a3505050565b6001600160a01b038481165f9081526002602090815260408083209387168352928152828220858352905220545f198110156106b5578181101561068357604051632c51fead60e11b81526001600160a01b038516600482015260248101829052604481018390526064810184905260840161044b565b6001600160a01b038086165f908152600260209081526040808320938816835292815282822086835290522082820390555b5050505050565b336001600160a01b03851615610755576001600160a01b0385165f908152602081815260408083208684529091529020548281101561072e576040516302c6d3fb60e61b81526001600160a01b038716600482015260248101829052604481018490526064810185905260840161044b565b6001600160a01b0386165f9081526020818152604080832087845290915290209083900390555b6001600160a01b0384161561079a576001600160a01b0384165f90815260208181526040808320868452909152812080548492906107949084906109f6565b90915550505b604080516001600160a01b03838116825260208201859052859281881692918916917f1b3d7edb2e9c0b0e7c525b20aaaef0f5940d2ed71663c7d39266ecafac728859910160405180910390a45050505050565b80356001600160a01b0381168114610804575f5ffd5b919050565b5f5f6040838503121561081a575f5ffd5b610823836107ee565b946020939093013593505050565b5f60208284031215610841575f5ffd5b81356001600160e01b031981168114610858575f5ffd5b9392505050565b5f5f5f60608486031215610871575f5ffd5b61087a846107ee565b95602085013595506040909401359392505050565b5f5f604083850312156108a0575f5ffd5b6108a9836107ee565b9150602083013580151581146108bd575f5ffd5b809150509250929050565b5f5f5f606084860312156108da575f5ffd5b6108e3846107ee565b92506108f1602085016107ee565b929592945050506040919091013590565b5f5f60408385031215610913575f5ffd5b61091c836107ee565b915061092a602084016107ee565b90509250929050565b5f60208284031215610943575f5ffd5b5035919050565b602081525f82518060208401528060208501604085015e5f604082850101526040601f19601f83011684010191505092915050565b5f5f5f5f60808587031215610992575f5ffd5b61099b856107ee565b93506109a9602086016107ee565b93969395505050506040820135916060013590565b600181811c908216806109d257607f821691505b6020821081036109f057634e487b7160e01b5f52602260045260245ffd5b50919050565b808201808211156101f757634e487b7160e01b5f52601160045260245ffdfea2646970667358221220ddd279b346499367337d77f054d5136d7d007a5d6edd79dcd02868a954e2005964736f6c63430008210033","linkReferences":{}},"methodIdentifiers":{"allowance(address,address,uint256)":"598af9e7","approve(address,uint256,uint256)":"426a8493","balanceOf(address,uint256)":"00fdd58e","contractURI()":"e8a3d485","isOperator(address,address)":"b6363cf2","setOperator(address,bool)":"558a7297","supportsInterface(bytes4)":"01ffc9a7","tokenURI(uint256)":"c87b56dd","transfer(address,uint256,uint256)":"095bcdb6","transferFrom(address,address,uint256,uint256)":"fe99049a"},"id":298}