{"abi":[{"type":"function","name":"msgData","inputs":[{"name":"integerValue","type":"uint256","internalType":"uint256"},{"name":"stringValue","type":"string","internalType":"string"}],"outputs":[],"stateMutability":"nonpayable"},{"type":"function","name":"msgDataShort","inputs":[],"outputs":[],"stateMutability":"nonpayable"},{"type":"function","name":"msgSender","inputs":[],"outputs":[],"stateMutability":"nonpayable"},{"type":"event","name":"Data","inputs":[{"name":"data","type":"bytes","indexed":false,"internalType":"bytes"},{"name":"integerValue","type":"uint256","indexed":false,"internalType":"uint256"},{"name":"stringValue","type":"string","indexed":false,"internalType":"string"}],"anonymous":false},{"type":"event","name":"DataShort","inputs":[{"name":"data","type":"bytes","indexed":false,"internalType":"bytes"}],"anonymous":false},{"type":"event","name":"Sender","inputs":[{"name":"sender","type":"address","indexed":false,"internalType":"address"}],"anonymous":false}],"bytecode":{"object":"0x6080604052348015600e575f5ffd5b506102ac8061001c5f395ff3fe608060405234801561000f575f5ffd5b506004361061003f575f3560e01c8063376bf26214610043578063d737d0c714610058578063ff5f6b5914610060575b5f5ffd5b610056610051366004610124565b610068565b005b6100566100a9565b6100566100df565b7faf235354a0a47c91ee171961326335cb2d1a8e55b8a89859b0e61eb049e50ea05f36848460405161009d9493929190610209565b60405180910390a15050565b6040513381527fd6558c3ed910d959271054471fd1c326679d9fece99c5091b00ed89627cf2bfc906020015b60405180910390a1565b7f6d7cec71eba467294d92341ddc4e8634eb4d742a90e16f408f06e4b70bc4cd665f366040516100d592919061025b565b634e487b7160e01b5f52604160045260245ffd5b5f5f60408385031215610135575f5ffd5b82359150602083013567ffffffffffffffff811115610152575f5ffd5b8301601f81018513610162575f5ffd5b803567ffffffffffffffff81111561017c5761017c610110565b604051601f8201601f19908116603f0116810167ffffffffffffffff811182821017156101ab576101ab610110565b6040528181528282016020018710156101c2575f5ffd5b816020840160208301375f602083830101528093505050509250929050565b81835281816020850137505f828201602090810191909152601f909101601f19169091010190565b606081525f61021c6060830186886101e1565b846020840152828103604084015283518082528060208601602084015e5f602082840101526020601f19601f8301168301019250505095945050505050565b602081525f61026e6020830184866101e1565b94935050505056fea2646970667358221220db01cfe15e52798a4b659e5b6c290ea67e4439e46f3d068b308c030e01336ef364736f6c63430008210033","linkReferences":{}},"methodIdentifiers":{"msgData(uint256,string)":"376bf262","msgDataShort()":"ff5f6b59","msgSender()":"d737d0c7"},"id":154}