{"abi":[{"type":"constructor","inputs":[],"stateMutability":"nonpayable"},{"type":"function","name":"onTransferReceived","inputs":[{"name":"operator","type":"address","internalType":"address"},{"name":"from","type":"address","internalType":"address"},{"name":"value","type":"uint256","internalType":"uint256"},{"name":"data","type":"bytes","internalType":"bytes"}],"outputs":[{"name":"","type":"bytes4","internalType":"bytes4"}],"stateMutability":"nonpayable"},{"type":"function","name":"setUp","inputs":[{"name":"retval","type":"bytes4","internalType":"bytes4"},{"name":"error","type":"uint8","internalType":"enum ERC1363ReceiverMock.RevertType"}],"outputs":[],"stateMutability":"nonpayable"},{"type":"event","name":"Received","inputs":[{"name":"operator","type":"address","indexed":false,"internalType":"address"},{"name":"from","type":"address","indexed":false,"internalType":"address"},{"name":"value","type":"uint256","indexed":false,"internalType":"uint256"},{"name":"data","type":"bytes","indexed":false,"internalType":"bytes"}],"anonymous":false},{"type":"error","name":"CustomError","inputs":[{"name":"","type":"bytes4","internalType":"bytes4"}]}],"bytecode":{"object":"0x6080604052348015600e575f5ffd5b505f805464ffffffffff19166388a7ca5c1790556103dd8061002f5f395ff3fe608060405234801561000f575f5ffd5b5060043610610034575f3560e01c8063793179851461003857806388a7ca5c1461004d575b5f5ffd5b61004b61004636600461022e565b61007d565b005b61006061005b36600461028f565b6100be565b6040516001600160e01b0319909116815260200160405180910390f35b5f805460e084901c63ffffffff1982168117835583929164ffffffffff1916176401000000008360048111156100b5576100b5610324565b02179055505050565b5f60015f54640100000000900460ff1660048111156100df576100df610324565b036100e8575f5ffd5b60025f54640100000000900460ff16600481111561010857610108610324565b0361015a5760405162461bcd60e51b815260206004820152601e60248201527f4552433133363352656365697665724d6f636b3a20726576657274696e67000060448201526064015b60405180910390fd5b60035f54640100000000900460ff16600481111561017a5761017a610324565b036101ae575f546040516301990d6f60e61b81526101519160e01b906004016001600160e01b031991909116815260200190565b60045f54640100000000900460ff1660048111156101ce576101ce610324565b036101e1575f6101de8180610338565b50505b7ed9411ae77b2bacabe5cbe62a2abdbeb78992a0182c6f3c83e0029c7615d6b68686868686604051610217959493929190610357565b60405180910390a1505f5460e01b95945050505050565b5f5f6040838503121561023f575f5ffd5b82356001600160e01b031981168114610256575f5ffd5b9150602083013560058110610269575f5ffd5b809150509250929050565b80356001600160a01b038116811461028a575f5ffd5b919050565b5f5f5f5f5f608086880312156102a3575f5ffd5b6102ac86610274565b94506102ba60208701610274565b935060408601359250606086013567ffffffffffffffff8111156102dc575f5ffd5b8601601f810188136102ec575f5ffd5b803567ffffffffffffffff811115610302575f5ffd5b886020828401011115610313575f5ffd5b959894975092955050506020019190565b634e487b7160e01b5f52602160045260245ffd5b5f8261035257634e487b7160e01b5f52601260045260245ffd5b500490565b6001600160a01b03868116825285166020820152604081018490526080606082018190528101829052818360a08301375f81830160a090810191909152601f909201601f1916010194935050505056fea264697066735822122018b69783060a9d38ea0ea7964a32c15967f9dd38ceb53e1f7114bf1d0157015a64736f6c63430008210033","linkReferences":{}},"methodIdentifiers":{"onTransferReceived(address,address,uint256,bytes)":"88a7ca5c","setUp(bytes4,uint8)":"79317985"},"id":231}