{"abi":[{"type":"constructor","inputs":[{"name":"array","type":"address[]","internalType":"address[]"}],"stateMutability":"nonpayable"},{"type":"function","name":"length","inputs":[],"outputs":[{"name":"","type":"uint256","internalType":"uint256"}],"stateMutability":"view"},{"type":"function","name":"sort","inputs":[{"name":"array","type":"address[]","internalType":"address[]"}],"outputs":[{"name":"","type":"address[]","internalType":"address[]"}],"stateMutability":"pure"},{"type":"function","name":"sortReverse","inputs":[{"name":"array","type":"address[]","internalType":"address[]"}],"outputs":[{"name":"","type":"address[]","internalType":"address[]"}],"stateMutability":"pure"},{"type":"function","name":"unsafeAccess","inputs":[{"name":"pos","type":"uint256","internalType":"uint256"}],"outputs":[{"name":"","type":"address","internalType":"address"}],"stateMutability":"view"},{"type":"function","name":"unsafeSetLength","inputs":[{"name":"newLength","type":"uint256","internalType":"uint256"}],"outputs":[],"stateMutability":"nonpayable"}],"bytecode":{"object":"0x608060405234801561000f575f5ffd5b506040516105c43803806105c483398101604081905261002e9161006f565b5f6100398282610139565b50506101e2565b634e487b7160e01b5f52604160045260245ffd5b80516001600160a01b038116811461006a575f5ffd5b919050565b5f6020828403121561007f575f5ffd5b81516001600160401b03811115610094575f5ffd5b8201601f810184136100a4575f5ffd5b80516001600160401b038111156100bd576100bd610040565b604051600582901b90603f8201601f191681016001600160401b03811182821017156100eb576100eb610040565b604052918252602081840181019290810187841115610108575f5ffd5b6020850194505b8385101561012e5761012085610054565b81526020948501940161010f565b509695505050505050565b81516001600160401b0381111561015257610152610040565b6801000000000000000081111561016b5761016b610040565b81548183558082101561019f57825f528160205f20018282035f5b8181101561019b575f83820155600101610186565b5050505b50602083016101b3835f9081526020902090565b5f5b838110156101da5782516001600160a01b0316818301556020909201916001016101b5565b505050505050565b6103d5806101ef5f395ff3fe608060405234801561000f575f5ffd5b5060043610610055575f3560e01c8063128424a7146100595780631f7b6d321461008257806340aa934d1461009257806346d1dbac146100bd578063e9fdbeba146100d0575b5f5ffd5b61006c610067366004610272565b6100e5565b604051610079919061033d565b60405180910390f35b5f54604051908152602001610079565b6100a56100a0366004610388565b6100f6565b6040516001600160a01b039091168152602001610079565b61006c6100cb366004610272565b610111565b6100e36100de366004610388565b61011f565b005b60606100f08261012b565b92915050565b5f6101018183610140565b546001600160a01b031692915050565b60606100f082610167610178565b6101285f829055565b50565b60606101398261018c610190565b5090919050565b5f8261015f61015c84610158845f9081526020902090565b0190565b90565b949350505050565b6001600160a01b0390811691161190565b60606101848383610190565b509192915050565b1190565b6060610139602084016101a2856101a8565b846101bf565b5f81516020026101b88360200190565b0192915050565b604083830310156101cf57505050565b5f6101d8845190565b905083602081015b8481101561021a576101fd6101f3825190565b848663ffffffff16565b15610212576020919091018051825182528252905b6020016101e0565b50845181518652815261022e8582856101bf565b61023c8160200185856101bf565b5050505050565b634e487b7160e01b5f52604160045260245ffd5b80356001600160a01b038116811461026d575f5ffd5b919050565b5f60208284031215610282575f5ffd5b813567ffffffffffffffff811115610298575f5ffd5b8201601f810184136102a8575f5ffd5b803567ffffffffffffffff8111156102c2576102c2610243565b8060051b604051601f19603f830116810181811067ffffffffffffffff821117156102ef576102ef610243565b60405291825260208184018101929081018784111561030c575f5ffd5b6020850194505b838510156103325761032485610257565b815260209485019401610313565b509695505050505050565b602080825282518282018190525f918401906040840190835b8181101561037d5783516001600160a01b0316835260209384019390920191600101610356565b509095945050505050565b5f60208284031215610398575f5ffd5b503591905056fea264697066735822122071d35fd8f9c30711bbf04daee11012cd561022d92e43aae8c43348781a607d2264736f6c63430008210033","linkReferences":{}},"methodIdentifiers":{"length()":"1f7b6d32","sort(address[])":"128424a7","sortReverse(address[])":"46d1dbac","unsafeAccess(uint256)":"40aa934d","unsafeSetLength(uint256)":"e9fdbeba"},"id":148}