{"abi":[{"type":"constructor","inputs":[{"name":"array","type":"string[]","internalType":"string[]"}],"stateMutability":"nonpayable"},{"type":"function","name":"length","inputs":[],"outputs":[{"name":"","type":"uint256","internalType":"uint256"}],"stateMutability":"view"},{"type":"function","name":"unsafeAccess","inputs":[{"name":"pos","type":"uint256","internalType":"uint256"}],"outputs":[{"name":"","type":"string","internalType":"string"}],"stateMutability":"view"},{"type":"function","name":"unsafeSetLength","inputs":[{"name":"newLength","type":"uint256","internalType":"uint256"}],"outputs":[],"stateMutability":"nonpayable"}],"bytecode":{"object":"0x608060405234801561000f575f5ffd5b5060405161060238038061060283398101604081905261002e91610084565b5f61003982826102fc565b50506103e1565b634e487b7160e01b5f52604160045260245ffd5b604051601f8201601f191681016001600160401b038111828210171561007c5761007c610040565b604052919050565b5f60208284031215610094575f5ffd5b81516001600160401b038111156100a9575f5ffd5b8201601f810184136100b9575f5ffd5b80516001600160401b038111156100d2576100d2610040565b8060051b6100e260208201610054565b918252602081840181019290810190878411156100fd575f5ffd5b6020850192505b8383101561019d5782516001600160401b03811115610121575f5ffd5b8501603f81018913610131575f5ffd5b60208101516001600160401b0381111561014d5761014d610040565b610160601f8201601f1916602001610054565b8181526040838301018b1015610174575f5ffd5b8160408401602083015e5f60208383010152808552505050602082019150602083019250610104565b979650505050505050565b600181811c908216806101bc57607f821691505b6020821081036101da57634e487b7160e01b5f52602260045260245ffd5b50919050565b5f5b828110156101f7575f828201556001016101e2565b505050565b601f8211156101f757828211156101f757805f5260205f20601f840160051c602085101561022757505f5b61023b81601f860160051c038284016101e0565b5050505050565b81516001600160401b0381111561025b5761025b610040565b61026f8161026984546101a8565b846101fc565b6020601f8211600181146102a1575f831561028a5750848201515b5f19600385901b1c1916600184901b17845561023b565b5f84815260208120601f198516915b828110156102d057878501518255602094850194600190920191016102b0565b50848210156102ed57868401515f19600387901b60f8161c191681555b50505050600190811b01905550565b81516801000000000000000081111561031757610317610040565b81548183558082101561039d57825f528160205f20018282035f5b818110156103995780830161034781546101a8565b801561038f57601f811160018114610361575f835561038d565b5f8381526020902061037f601f840160051c5f1901600183016101e0565b505f83815260208120818555555b505b5050600101610332565b5050505b50602083016103b1835f9081526020902090565b5f5b838110156103d9576103c6835183610242565b60209290920191600191820191016103b3565b505050505050565b610214806103ee5f395ff3fe608060405234801561000f575f5ffd5b506004361061003f575f3560e01c80631f7b6d321461004357806340aa934d14610058578063e9fdbeba14610078575b5f5ffd5b5f546040519081526020015b60405180910390f35b61006b61006636600461015a565b61008d565b60405161004f9190610171565b61008b61008636600461015a565b610127565b005b60606100995f83610133565b80546100a4906101a6565b80601f01602080910402602001604051908101604052809291908181526020018280546100d0906101a6565b801561011b5780601f106100f25761010080835404028352916020019161011b565b820191905f5260205f20905b8154815290600101906020018083116100fe57829003601f168201915b50505050509050919050565b6101305f829055565b50565b5f8261015261014f8461014b845f9081526020902090565b0190565b90565b949350505050565b5f6020828403121561016a575f5ffd5b5035919050565b602081525f82518060208401528060208501604085015e5f604082850101526040601f19601f83011684010191505092915050565b600181811c908216806101ba57607f821691505b6020821081036101d857634e487b7160e01b5f52602260045260245ffd5b5091905056fea26469706673582212202e6065ccaf40f63a177b449627f6b395046ccda294eab3ae6dbcc05ab0fbb1b664736f6c63430008210033","linkReferences":{}},"methodIdentifiers":{"length()":"1f7b6d32","unsafeAccess(uint256)":"40aa934d","unsafeSetLength(uint256)":"e9fdbeba"},"id":148}