{"abi":[{"type":"constructor","inputs":[{"name":"array","type":"uint256[]","internalType":"uint256[]"}],"stateMutability":"nonpayable"},{"type":"function","name":"findUpperBound","inputs":[{"name":"value","type":"uint256","internalType":"uint256"}],"outputs":[{"name":"","type":"uint256","internalType":"uint256"}],"stateMutability":"view"},{"type":"function","name":"length","inputs":[],"outputs":[{"name":"","type":"uint256","internalType":"uint256"}],"stateMutability":"view"},{"type":"function","name":"lowerBound","inputs":[{"name":"value","type":"uint256","internalType":"uint256"}],"outputs":[{"name":"","type":"uint256","internalType":"uint256"}],"stateMutability":"view"},{"type":"function","name":"lowerBoundMemory","inputs":[{"name":"array","type":"uint256[]","internalType":"uint256[]"},{"name":"value","type":"uint256","internalType":"uint256"}],"outputs":[{"name":"","type":"uint256","internalType":"uint256"}],"stateMutability":"pure"},{"type":"function","name":"sort","inputs":[{"name":"array","type":"uint256[]","internalType":"uint256[]"}],"outputs":[{"name":"","type":"uint256[]","internalType":"uint256[]"}],"stateMutability":"pure"},{"type":"function","name":"sortReverse","inputs":[{"name":"array","type":"uint256[]","internalType":"uint256[]"}],"outputs":[{"name":"","type":"uint256[]","internalType":"uint256[]"}],"stateMutability":"pure"},{"type":"function","name":"unsafeAccess","inputs":[{"name":"pos","type":"uint256","internalType":"uint256"}],"outputs":[{"name":"","type":"uint256","internalType":"uint256"}],"stateMutability":"view"},{"type":"function","name":"unsafeSetLength","inputs":[{"name":"newLength","type":"uint256","internalType":"uint256"}],"outputs":[],"stateMutability":"nonpayable"},{"type":"function","name":"upperBound","inputs":[{"name":"value","type":"uint256","internalType":"uint256"}],"outputs":[{"name":"","type":"uint256","internalType":"uint256"}],"stateMutability":"view"},{"type":"function","name":"upperBoundMemory","inputs":[{"name":"array","type":"uint256[]","internalType":"uint256[]"},{"name":"value","type":"uint256","internalType":"uint256"}],"outputs":[{"name":"","type":"uint256","internalType":"uint256"}],"stateMutability":"pure"}],"bytecode":{"object":"0x608060405234801561000f575f5ffd5b5060405161087438038061087483398101604081905261002e91610054565b5f610039828261011b565b50506101bb565b634e487b7160e01b5f52604160045260245ffd5b5f60208284031215610064575f5ffd5b81516001600160401b03811115610079575f5ffd5b8201601f81018413610089575f5ffd5b80516001600160401b038111156100a2576100a2610040565b604051600582901b90603f8201601f191681016001600160401b03811182821017156100d0576100d0610040565b6040529182526020818401810192908101878411156100ed575f5ffd5b6020850194505b83851015610110578451808252602095860195909350016100f4565b509695505050505050565b81516001600160401b0381111561013457610134610040565b6801000000000000000081111561014d5761014d610040565b81548183558082101561018157825f528160205f20018282035f5b8181101561017d575f83820155600101610168565b5050505b5060208301610195835f9081526020902090565b5f5b838110156101b357825182820155602090920191600101610197565b505050505050565b6106ac806101c85f395ff3fe608060405234801561000f575f5ffd5b506004361061009b575f3560e01c806340aa934d1161006357806340aa934d1461011257806374380a78146101255780639ec8b02614610138578063e9fdbeba1461014b578063ed44001714610160575f5ffd5b8063054615f61461009f5780631f7b6d32146100c5578063206ce879146100cc578063233c1d6a146100ec57806333e3a58a146100ff575b5f5ffd5b6100b26100ad36600461056f565b610173565b6040519081526020015b60405180910390f35b5f546100b2565b6100df6100da3660046105b1565b610187565b6040516100bc91906105e3565b6100b26100fa366004610625565b610195565b6100b261010d366004610625565b6101a0565b6100b2610120366004610625565b6101ab565b6100b2610133366004610625565b6101bd565b6100df6101463660046105b1565b6101c8565b61015e610159366004610625565b6101d3565b005b6100b261016e36600461056f565b6101df565b5f61017e83836101ea565b90505b92915050565b606061018182610240610244565b5f6101818183610263565b5f61018181836102b3565b5f6101b6818361034d565b5492915050565b5f6101818183610374565b6060610181826103c4565b6101dc5f829055565b50565b5f61017e83836103d2565b81515f908190808203610201575f92505050610181565b80821015610238576002818318048183160160208181028701015185111561022e57806001019250610232565b8091505b50610201565b509392505050565b1090565b606061025c6020840161025685610420565b84610437565b5090919050565b81545f90819080820361027a575f92505050610181565b80821015610238578181166002838318040184610297878361034d565b5411156102a6578091506102ad565b8060010192505b5061027a565b81545f9081908082036102ca575f92505050610181565b8082101561030a5781811660028383180401846102e7878361034d565b5411156102f657809150610304565b610301816001610650565b92505b506102ca565b5f8211801561032c57508361032986610324600186610663565b61034d565b54145b156103455761033c600183610663565b92505050610181565b509050610181565b5f8261036c61036984610365845f9081526020902090565b0190565b90565b949350505050565b81545f90819080820361038b575f92505050610181565b808210156102385781811660028383180401846103a8878361034d565b5410156103ba578060010192506103be565b8091505b5061038b565b606061025c826104bb610244565b81515f9081908082036103e9575f92505050610181565b8082101561023857600281831804818316016020818102870101518510156104135780915061041a565b8060010192505b506103e9565b5f81516020026104308360200190565b0192915050565b6040838303101561044757505050565b5f610450845190565b905083602081015b848110156104925761047561046b825190565b848663ffffffff16565b1561048a576020919091018051825182528252905b602001610458565b5084518151865281526104a6858285610437565b6104b4816020018585610437565b5050505050565b1190565b634e487b7160e01b5f52604160045260245ffd5b5f82601f8301126104e2575f5ffd5b813567ffffffffffffffff8111156104fc576104fc6104bf565b8060051b604051601f19603f830116810181811067ffffffffffffffff82111715610529576105296104bf565b604052918252602081850181019290810186841115610546575f5ffd5b6020860192505b8383101561056557823581526020928301920161054d565b5095945050505050565b5f5f60408385031215610580575f5ffd5b823567ffffffffffffffff811115610596575f5ffd5b6105a2858286016104d3565b95602094909401359450505050565b5f602082840312156105c1575f5ffd5b813567ffffffffffffffff8111156105d7575f5ffd5b61036c848285016104d3565b602080825282518282018190525f918401906040840190835b8181101561061a5783518352602093840193909201916001016105fc565b509095945050505050565b5f60208284031215610635575f5ffd5b5035919050565b634e487b7160e01b5f52601160045260245ffd5b808201808211156101815761018161063c565b818103818111156101815761018161063c56fea2646970667358221220f24783037abafbdd85bbb29539f69c3ede5362ea969b8e0c9195e5a24c8d3ee064736f6c63430008210033","linkReferences":{}},"methodIdentifiers":{"findUpperBound(uint256)":"33e3a58a","length()":"1f7b6d32","lowerBound(uint256)":"74380a78","lowerBoundMemory(uint256[],uint256)":"054615f6","sort(uint256[])":"9ec8b026","sortReverse(uint256[])":"206ce879","unsafeAccess(uint256)":"40aa934d","unsafeSetLength(uint256)":"e9fdbeba","upperBound(uint256)":"233c1d6a","upperBoundMemory(uint256[],uint256)":"ed440017"},"id":148}