{"abi":[{"type":"constructor","inputs":[{"name":"trustedForwarder_","type":"address","internalType":"address"}],"stateMutability":"nonpayable"},{"type":"function","name":"isTrustedForwarder","inputs":[{"name":"forwarder","type":"address","internalType":"address"}],"outputs":[{"name":"","type":"bool","internalType":"bool"}],"stateMutability":"view"},{"type":"function","name":"mockFunction","inputs":[],"outputs":[{"name":"","type":"string","internalType":"string"}],"stateMutability":"payable"},{"type":"function","name":"mockFunctionEmptyReturn","inputs":[],"outputs":[],"stateMutability":"payable"},{"type":"function","name":"mockFunctionEmptyReturnWritesStorage","inputs":[{"name":"slot","type":"bytes32","internalType":"bytes32"},{"name":"value","type":"bytes32","internalType":"bytes32"}],"outputs":[],"stateMutability":"payable"},{"type":"function","name":"mockFunctionExtra","inputs":[],"outputs":[],"stateMutability":"payable"},{"type":"function","name":"mockFunctionNonPayable","inputs":[],"outputs":[{"name":"","type":"string","internalType":"string"}],"stateMutability":"nonpayable"},{"type":"function","name":"mockFunctionOutOfGas","inputs":[],"outputs":[],"stateMutability":"payable"},{"type":"function","name":"mockFunctionRevertsNoReason","inputs":[],"outputs":[],"stateMutability":"payable"},{"type":"function","name":"mockFunctionRevertsReason","inputs":[],"outputs":[],"stateMutability":"payable"},{"type":"function","name":"mockFunctionThrows","inputs":[],"outputs":[],"stateMutability":"payable"},{"type":"function","name":"mockFunctionWithArgs","inputs":[{"name":"a","type":"uint256","internalType":"uint256"},{"name":"b","type":"uint256","internalType":"uint256"}],"outputs":[{"name":"","type":"string","internalType":"string"}],"stateMutability":"payable"},{"type":"function","name":"mockFunctionWithArgsReturn","inputs":[{"name":"a","type":"uint256","internalType":"uint256"},{"name":"b","type":"uint256","internalType":"uint256"}],"outputs":[{"name":"","type":"uint256","internalType":"uint256"},{"name":"","type":"uint256","internalType":"uint256"}],"stateMutability":"payable"},{"type":"function","name":"mockFunctionWithArgsReturnWritesStorage","inputs":[{"name":"slot","type":"bytes32","internalType":"bytes32"},{"name":"value","type":"bytes32","internalType":"bytes32"},{"name":"a","type":"uint256","internalType":"uint256"},{"name":"b","type":"uint256","internalType":"uint256"}],"outputs":[{"name":"","type":"uint256","internalType":"uint256"},{"name":"","type":"uint256","internalType":"uint256"}],"stateMutability":"payable"},{"type":"function","name":"mockFunctionWritesStorage","inputs":[{"name":"slot","type":"bytes32","internalType":"bytes32"},{"name":"value","type":"bytes32","internalType":"bytes32"}],"outputs":[{"name":"","type":"string","internalType":"string"}],"stateMutability":"nonpayable"},{"type":"function","name":"mockStaticFunction","inputs":[],"outputs":[{"name":"","type":"string","internalType":"string"}],"stateMutability":"pure"},{"type":"function","name":"mockStaticFunctionWithArgsReturn","inputs":[{"name":"a","type":"uint256","internalType":"uint256"},{"name":"b","type":"uint256","internalType":"uint256"}],"outputs":[{"name":"","type":"uint256","internalType":"uint256"},{"name":"","type":"uint256","internalType":"uint256"}],"stateMutability":"pure"},{"type":"event","name":"MockFunctionCalled","inputs":[],"anonymous":false},{"type":"event","name":"MockFunctionCalledExtra","inputs":[{"name":"caller","type":"address","indexed":false,"internalType":"address"},{"name":"value","type":"uint256","indexed":false,"internalType":"uint256"}],"anonymous":false},{"type":"event","name":"MockFunctionCalledWithArgs","inputs":[{"name":"a","type":"uint256","indexed":false,"internalType":"uint256"},{"name":"b","type":"uint256","indexed":false,"internalType":"uint256"}],"anonymous":false}],"bytecode":{"object":"0x6080604052348015600e575f5ffd5b5060405161068b38038061068b833981016040819052602b91604f565b600180546001600160a01b0319166001600160a01b0392909216919091179055607a565b5f60208284031215605e575f5ffd5b81516001600160a01b03811681146073575f5ffd5b9392505050565b610604806100875f395ff3fe6080604052600436106100ef575f3560e01c80634f1d61d211610087578063c292d81c11610057578063c292d81c14610221578063c8fc769614610229578063f4c6005f14610257578063fdb273251461026a575f5ffd5b80634f1d61d2146101b5578063572b6c05146101c8578063a09a84bb14610206578063a793ab4714610219575f5ffd5b80633bcfaa14116100c25780633bcfaa14146101615780633e6fec0414610169578063425397a21461017157806343c8d218146101ad575f5ffd5b80630c034968146100f35780630f63e42c146100fd5780632c81d6381461012757806334edaa6d1461012e575b5f5ffd5b6100fb61027d565b005b348015610108575f5ffd5b506101116102c9565b60405161011e91906104e5565b60405180910390f35b6100fb5f5ffd5b348015610139575f5ffd5b5061014c61014836600461051a565b9091565b6040805192835260208301919091520161011e565b6100fb610315565b6101116102c9565b34801561017c575f5ffd5b5061011161018b36600461051a565b90556040805180820190915260068152650c1e0c4c8ccd60d21b602082015290565b6100fb61031f565b61014c6101c336600461051a565b610359565b3480156101d3575f5ffd5b506101f66101e236600461053a565b6001546001600160a01b0391821691161490565b604051901515815260200161011e565b61014c610214366004610567565b61039e565b6100fb6103e9565b6100fb61042c565b348015610234575f5ffd5b506040805180820190915260068152650c1e0c4c8ccd60d21b6020820152610111565b6100fb61026536600461051a565b610456565b61011161027836600461051a565b610485565b60405162461bcd60e51b815260206004820152601b60248201527f43616c6c52656365697665724d6f636b3a20726576657274696e670000000000604482015260640160405180910390fd5b6040516060907f52c66ed6ec9ca819cba26fe2b2650059270d8981b295af300187a964f54a8c23905f90a1506040805180820190915260068152650c1e0c4c8ccd60d21b602082015290565b61031d610596565b565b604080513381523460208201527fffa33d28bf6be9e1816e7ffd5fd5a09754144c76f7c08b5325dd3f6ef2c288f6910160405180910390a1565b60408051838152602081018390525f9182917f2b42b3c9af4187c86225f201736204c7597312c830cb5c2537dff6ef24b946ae910160405180910390a1509192909150565b82845560408051838152602081018390525f9182917f2b42b3c9af4187c86225f201736204c7597312c830cb5c2537dff6ef24b946ae910160405180910390a1509194909350915050565b5f5b5f80546001810182559080527f290decd9548b62a8d60345a988386fc84ba6bc95484008f6362f93160ef3e56301819055610425816105aa565b90506103eb565b6040517f52c66ed6ec9ca819cba26fe2b2650059270d8981b295af300187a964f54a8c23905f90a1565b8082556040517f52c66ed6ec9ca819cba26fe2b2650059270d8981b295af300187a964f54a8c23905f90a15050565b60408051838152602081018390526060917f2b42b3c9af4187c86225f201736204c7597312c830cb5c2537dff6ef24b946ae910160405180910390a1506040805180820190915260068152650c1e0c4c8ccd60d21b602082015292915050565b602081525f82518060208401528060208501604085015e5f604082850101526040601f19601f83011684010191505092915050565b5f5f6040838503121561052b575f5ffd5b50508035926020909101359150565b5f6020828403121561054a575f5ffd5b81356001600160a01b0381168114610560575f5ffd5b9392505050565b5f5f5f5f6080858703121561057a575f5ffd5b5050823594602084013594506040840135936060013592509050565b634e487b7160e01b5f52600160045260245ffd5b5f600182016105c757634e487b7160e01b5f52601160045260245ffd5b506001019056fea264697066735822122032fd706d30c4cec499619fd0c8e4447826d4ce61c95e2d127d6b91e4dd0857c664736f6c63430008210033","linkReferences":{}},"methodIdentifiers":{"isTrustedForwarder(address)":"572b6c05","mockFunction()":"3e6fec04","mockFunctionEmptyReturn()":"c292d81c","mockFunctionEmptyReturnWritesStorage(bytes32,bytes32)":"f4c6005f","mockFunctionExtra()":"43c8d218","mockFunctionNonPayable()":"0f63e42c","mockFunctionOutOfGas()":"a793ab47","mockFunctionRevertsNoReason()":"2c81d638","mockFunctionRevertsReason()":"0c034968","mockFunctionThrows()":"3bcfaa14","mockFunctionWithArgs(uint256,uint256)":"fdb27325","mockFunctionWithArgsReturn(uint256,uint256)":"4f1d61d2","mockFunctionWithArgsReturnWritesStorage(bytes32,bytes32,uint256,uint256)":"a09a84bb","mockFunctionWritesStorage(bytes32,bytes32)":"425397a2","mockStaticFunction()":"c8fc7696","mockStaticFunctionWithArgsReturn(uint256,uint256)":"34edaa6d"},"id":152}