{"abi":[{"type":"function","name":"mockFunction","inputs":[],"outputs":[{"name":"","type":"string","internalType":"string"}],"stateMutability":"payable"},{"type":"function","name":"mockFunctionEmptyReturn","inputs":[],"outputs":[],"stateMutability":"payable"},{"type":"function","name":"mockFunctionEmptyReturnWritesStorage","inputs":[{"name":"slot","type":"bytes32","internalType":"bytes32"},{"name":"value","type":"bytes32","internalType":"bytes32"}],"outputs":[],"stateMutability":"payable"},{"type":"function","name":"mockFunctionExtra","inputs":[],"outputs":[],"stateMutability":"payable"},{"type":"function","name":"mockFunctionNonPayable","inputs":[],"outputs":[{"name":"","type":"string","internalType":"string"}],"stateMutability":"nonpayable"},{"type":"function","name":"mockFunctionOutOfGas","inputs":[],"outputs":[],"stateMutability":"payable"},{"type":"function","name":"mockFunctionRevertsNoReason","inputs":[],"outputs":[],"stateMutability":"payable"},{"type":"function","name":"mockFunctionRevertsReason","inputs":[],"outputs":[],"stateMutability":"payable"},{"type":"function","name":"mockFunctionThrows","inputs":[],"outputs":[],"stateMutability":"payable"},{"type":"function","name":"mockFunctionWithArgs","inputs":[{"name":"a","type":"uint256","internalType":"uint256"},{"name":"b","type":"uint256","internalType":"uint256"}],"outputs":[{"name":"","type":"string","internalType":"string"}],"stateMutability":"payable"},{"type":"function","name":"mockFunctionWithArgsReturn","inputs":[{"name":"a","type":"uint256","internalType":"uint256"},{"name":"b","type":"uint256","internalType":"uint256"}],"outputs":[{"name":"","type":"uint256","internalType":"uint256"},{"name":"","type":"uint256","internalType":"uint256"}],"stateMutability":"payable"},{"type":"function","name":"mockFunctionWithArgsReturnWritesStorage","inputs":[{"name":"slot","type":"bytes32","internalType":"bytes32"},{"name":"value","type":"bytes32","internalType":"bytes32"},{"name":"a","type":"uint256","internalType":"uint256"},{"name":"b","type":"uint256","internalType":"uint256"}],"outputs":[{"name":"","type":"uint256","internalType":"uint256"},{"name":"","type":"uint256","internalType":"uint256"}],"stateMutability":"payable"},{"type":"function","name":"mockFunctionWritesStorage","inputs":[{"name":"slot","type":"bytes32","internalType":"bytes32"},{"name":"value","type":"bytes32","internalType":"bytes32"}],"outputs":[{"name":"","type":"string","internalType":"string"}],"stateMutability":"nonpayable"},{"type":"function","name":"mockStaticFunction","inputs":[],"outputs":[{"name":"","type":"string","internalType":"string"}],"stateMutability":"pure"},{"type":"function","name":"mockStaticFunctionWithArgsReturn","inputs":[{"name":"a","type":"uint256","internalType":"uint256"},{"name":"b","type":"uint256","internalType":"uint256"}],"outputs":[{"name":"","type":"uint256","internalType":"uint256"},{"name":"","type":"uint256","internalType":"uint256"}],"stateMutability":"pure"},{"type":"event","name":"MockFunctionCalled","inputs":[],"anonymous":false},{"type":"event","name":"MockFunctionCalledExtra","inputs":[{"name":"caller","type":"address","indexed":false,"internalType":"address"},{"name":"value","type":"uint256","indexed":false,"internalType":"uint256"}],"anonymous":false},{"type":"event","name":"MockFunctionCalledWithArgs","inputs":[{"name":"a","type":"uint256","indexed":false,"internalType":"uint256"},{"name":"b","type":"uint256","indexed":false,"internalType":"uint256"}],"anonymous":false}],"bytecode":{"object":"0x6080604052348015600e575f5ffd5b5061058e8061001c5f395ff3fe6080604052600436106100e4575f3560e01c806343c8d21811610087578063c292d81c11610057578063c292d81c146101d8578063c8fc7696146101e0578063f4c6005f1461020e578063fdb2732514610221575f5ffd5b806343c8d218146101a25780634f1d61d2146101aa578063a09a84bb146101bd578063a793ab47146101d0575f5ffd5b806334edaa6d116100c257806334edaa6d146101235780633bcfaa14146101565780633e6fec041461015e578063425397a214610166575f5ffd5b80630c034968146100e85780630f63e42c146100f25780632c81d6381461011c575b5f5ffd5b6100f0610234565b005b3480156100fd575f5ffd5b50610106610280565b604051610113919061049c565b60405180910390f35b6100f05f5ffd5b34801561012e575f5ffd5b5061014161013d3660046104d1565b9091565b60408051928352602083019190915201610113565b6100f06102cc565b610106610280565b348015610171575f5ffd5b506101066101803660046104d1565b90556040805180820190915260068152650c1e0c4c8ccd60d21b602082015290565b6100f06102d6565b6101416101b83660046104d1565b610310565b6101416101cb3660046104f1565b610355565b6100f06103a0565b6100f06103e3565b3480156101eb575f5ffd5b506040805180820190915260068152650c1e0c4c8ccd60d21b6020820152610106565b6100f061021c3660046104d1565b61040d565b61010661022f3660046104d1565b61043c565b60405162461bcd60e51b815260206004820152601b60248201527f43616c6c52656365697665724d6f636b3a20726576657274696e670000000000604482015260640160405180910390fd5b6040516060907f52c66ed6ec9ca819cba26fe2b2650059270d8981b295af300187a964f54a8c23905f90a1506040805180820190915260068152650c1e0c4c8ccd60d21b602082015290565b6102d4610520565b565b604080513381523460208201527fffa33d28bf6be9e1816e7ffd5fd5a09754144c76f7c08b5325dd3f6ef2c288f6910160405180910390a1565b60408051838152602081018390525f9182917f2b42b3c9af4187c86225f201736204c7597312c830cb5c2537dff6ef24b946ae910160405180910390a1509192909150565b82845560408051838152602081018390525f9182917f2b42b3c9af4187c86225f201736204c7597312c830cb5c2537dff6ef24b946ae910160405180910390a1509194909350915050565b5f5b5f80546001810182559080527f290decd9548b62a8d60345a988386fc84ba6bc95484008f6362f93160ef3e563018190556103dc81610534565b90506103a2565b6040517f52c66ed6ec9ca819cba26fe2b2650059270d8981b295af300187a964f54a8c23905f90a1565b8082556040517f52c66ed6ec9ca819cba26fe2b2650059270d8981b295af300187a964f54a8c23905f90a15050565b60408051838152602081018390526060917f2b42b3c9af4187c86225f201736204c7597312c830cb5c2537dff6ef24b946ae910160405180910390a1506040805180820190915260068152650c1e0c4c8ccd60d21b602082015292915050565b602081525f82518060208401528060208501604085015e5f604082850101526040601f19601f83011684010191505092915050565b5f5f604083850312156104e2575f5ffd5b50508035926020909101359150565b5f5f5f5f60808587031215610504575f5ffd5b5050823594602084013594506040840135936060013592509050565b634e487b7160e01b5f52600160045260245ffd5b5f6001820161055157634e487b7160e01b5f52601160045260245ffd5b506001019056fea2646970667358221220186ec1dfb12699fadec3101b7693355329a264887f51aab9d475950798766cd164736f6c63430008210033","linkReferences":{}},"methodIdentifiers":{"mockFunction()":"3e6fec04","mockFunctionEmptyReturn()":"c292d81c","mockFunctionEmptyReturnWritesStorage(bytes32,bytes32)":"f4c6005f","mockFunctionExtra()":"43c8d218","mockFunctionNonPayable()":"0f63e42c","mockFunctionOutOfGas()":"a793ab47","mockFunctionRevertsNoReason()":"2c81d638","mockFunctionRevertsReason()":"0c034968","mockFunctionThrows()":"3bcfaa14","mockFunctionWithArgs(uint256,uint256)":"fdb27325","mockFunctionWithArgsReturn(uint256,uint256)":"4f1d61d2","mockFunctionWithArgsReturnWritesStorage(bytes32,bytes32,uint256,uint256)":"a09a84bb","mockFunctionWritesStorage(bytes32,bytes32)":"425397a2","mockStaticFunction()":"c8fc7696","mockStaticFunctionWithArgsReturn(uint256,uint256)":"34edaa6d"},"id":152}