{"abi":[{"type":"constructor","inputs":[{"name":"trustedForwarder","type":"address","internalType":"address"}],"stateMutability":"nonpayable"},{"type":"function","name":"isTrustedForwarder","inputs":[{"name":"forwarder","type":"address","internalType":"address"}],"outputs":[{"name":"","type":"bool","internalType":"bool"}],"stateMutability":"view"},{"type":"function","name":"msgData","inputs":[{"name":"integerValue","type":"uint256","internalType":"uint256"},{"name":"stringValue","type":"string","internalType":"string"}],"outputs":[],"stateMutability":"nonpayable"},{"type":"function","name":"msgDataShort","inputs":[],"outputs":[],"stateMutability":"nonpayable"},{"type":"function","name":"msgSender","inputs":[],"outputs":[],"stateMutability":"nonpayable"},{"type":"function","name":"multicall","inputs":[{"name":"data","type":"bytes[]","internalType":"bytes[]"}],"outputs":[{"name":"results","type":"bytes[]","internalType":"bytes[]"}],"stateMutability":"nonpayable"},{"type":"function","name":"trustedForwarder","inputs":[],"outputs":[{"name":"","type":"address","internalType":"address"}],"stateMutability":"view"},{"type":"event","name":"Data","inputs":[{"name":"data","type":"bytes","indexed":false,"internalType":"bytes"},{"name":"integerValue","type":"uint256","indexed":false,"internalType":"uint256"},{"name":"stringValue","type":"string","indexed":false,"internalType":"string"}],"anonymous":false},{"type":"event","name":"DataShort","inputs":[{"name":"data","type":"bytes","indexed":false,"internalType":"bytes"}],"anonymous":false},{"type":"event","name":"Sender","inputs":[{"name":"sender","type":"address","indexed":false,"internalType":"address"}],"anonymous":false},{"type":"error","name":"AddressEmptyCode","inputs":[{"name":"target","type":"address","internalType":"address"}]},{"type":"error","name":"FailedCall","inputs":[]}],"bytecode":{"object":"0x60a060405234801561000f575f5ffd5b50604051610a36380380610a3683398101604081905261002e916100fe565b6001600160a01b0381166080527fd6558c3ed910d959271054471fd1c326679d9fece99c5091b00ed89627cf2bfc610064610085565b6040516001600160a01b03909116815260200160405180910390a15061018a565b5f61008e610093565b905090565b5f3660148082108015906100ab57506100ab336100d9565b156100d1576100be36828403815f61012b565b6100c791610152565b60601c9250505090565b339250505090565b5f6100e360805190565b6001600160a01b0316826001600160a01b0316149050919050565b5f6020828403121561010e575f5ffd5b81516001600160a01b0381168114610124575f5ffd5b9392505050565b5f5f85851115610139575f5ffd5b83861115610145575f5ffd5b5050820193919092039150565b80356001600160601b03198116906014841015610183576001600160601b0319601485900360031b81901b82161691505b5092915050565b60805161088e6101a85f395f818160ae0152610151015261088e5ff3fe608060405234801561000f575f5ffd5b5060043610610060575f3560e01c8063376bf26214610064578063572b6c05146100795780637da0a877146100a1578063ac9650d8146100d8578063d737d0c7146100f8578063ff5f6b5914610100575b5f5ffd5b6100776100723660046104ec565b610108565b005b61008c6100873660046105a9565b61014f565b60405190151581526020015b60405180910390f35b6040516001600160a01b037f0000000000000000000000000000000000000000000000000000000000000000168152602001610098565b6100eb6100e63660046105d6565b610181565b6040516100989190610675565b6100776102dc565b610077610323565b7faf235354a0a47c91ee171961326335cb2d1a8e55b8a89859b0e61eb049e50ea061013161035a565b84846040516101439493929190610700565b60405180910390a15050565b7f00000000000000000000000000000000000000000000000000000000000000006001600160a01b0390811691161490565b60605f61018c61036c565b6001600160a01b0316336001600160a01b0316146101f5575f366101b1601482610736565b6101bc928290610755565b8080601f0160208091040260200160405190810160405280939291908181526020018383808284375f9201919091525061020492505050565b604080515f8152602081019091525b90508267ffffffffffffffff81111561021f5761021f6104d8565b60405190808252806020026020018201604052801561025257816020015b606081526020019060019003908161023d5790505b5091505f5b838110156102d3576102ae308686848181106102755761027561077c565b90506020028101906102879190610790565b8560405160200161029a939291906107da565b60405160208183030381529060405261037a565b8382815181106102c0576102c061077c565b6020908102919091010152600101610257565b50505b92915050565b7fd6558c3ed910d959271054471fd1c326679d9fece99c5091b00ed89627cf2bfc61030561036c565b6040516001600160a01b0390911681526020015b60405180910390a1565b7f6d7cec71eba467294d92341ddc4e8634eb4d742a90e16f408f06e4b70bc4cd6661034c61035a565b6040516103199291906107fd565b365f61036461041e565b915091509091565b5f61037561045b565b905090565b60605f61038784846104a1565b90508080156103a857505f3d11806103a857505f846001600160a01b03163b115b156103bd576103b56104b4565b9150506102d6565b80156103eb57604051639996b31560e01b81526001600160a01b038516600482015260240160405180910390fd5b3d156103fe576103f96104cd565b610417565b60405163d6bda27560e01b815260040160405180910390fd5b5092915050565b365f81601480821080159061043757506104373361014f565b156104545761044a8183035f3681610755565b9350935050509091565b5f3661044a565b5f36601480821080159061047357506104733361014f565b156104995761048636828403815f610755565b61048f91610818565b60601c9250505090565b339250505090565b5f5f5f835160208501865af49392505050565b6040513d81523d5f602083013e3d602001810160405290565b6040513d5f823e3d81fd5b634e487b7160e01b5f52604160045260245ffd5b5f5f604083850312156104fd575f5ffd5b82359150602083013567ffffffffffffffff81111561051a575f5ffd5b8301601f8101851361052a575f5ffd5b803567ffffffffffffffff811115610544576105446104d8565b604051601f8201601f19908116603f0116810167ffffffffffffffff81118282101715610573576105736104d8565b60405281815282820160200187101561058a575f5ffd5b816020840160208301375f602083830101528093505050509250929050565b5f602082840312156105b9575f5ffd5b81356001600160a01b03811681146105cf575f5ffd5b9392505050565b5f5f602083850312156105e7575f5ffd5b823567ffffffffffffffff8111156105fd575f5ffd5b8301601f8101851361060d575f5ffd5b803567ffffffffffffffff811115610623575f5ffd5b8560208260051b8401011115610637575f5ffd5b6020919091019590945092505050565b5f81518084528060208401602086015e5f602082860101526020601f19601f83011685010191505092915050565b5f602082016020835280845180835260408501915060408160051b8601019250602086015f5b828110156106cc57603f198786030184526106b7858351610647565b9450602093840193919091019060010161069b565b50929695505050505050565b81835281816020850137505f828201602090810191909152601f909101601f19169091010190565b606081525f6107136060830186886106d8565b846020840152828103604084015261072b8185610647565b979650505050505050565b818103818111156102d657634e487b7160e01b5f52601160045260245ffd5b5f5f85851115610763575f5ffd5b8386111561076f575f5ffd5b5050820193919092039150565b634e487b7160e01b5f52603260045260245ffd5b5f5f8335601e198436030181126107a5575f5ffd5b83018035915067ffffffffffffffff8211156107bf575f5ffd5b6020019150368190038213156107d3575f5ffd5b9250929050565b828482375f8382015f815283518060208601835e5f910190815295945050505050565b602081525f6108106020830184866106d8565b949350505050565b80356bffffffffffffffffffffffff198116906014841015610417576bffffffffffffffffffffffff1960149490940360031b84901b169092169291505056fea2646970667358221220f4ef388074677bc9eb7ff9c07686d3d7406752c0a082fecf0aa34cec5366b2d064736f6c63430008210033","linkReferences":{}},"methodIdentifiers":{"isTrustedForwarder(address)":"572b6c05","msgData(uint256,string)":"376bf262","msgDataShort()":"ff5f6b59","msgSender()":"d737d0c7","multicall(bytes[])":"ac9650d8","trustedForwarder()":"7da0a877"},"id":159}