{"abi":[{"type":"constructor","inputs":[{"name":"adminMultisig","type":"address","internalType":"address"}],"stateMutability":"nonpayable"},{"type":"function","name":"AGENT_ROLE","inputs":[],"outputs":[{"name":"","type":"bytes32","internalType":"bytes32"}],"stateMutability":"view"},{"type":"function","name":"DEFAULT_ADMIN_ROLE","inputs":[],"outputs":[{"name":"","type":"bytes32","internalType":"bytes32"}],"stateMutability":"view"},{"type":"function","name":"EVOLVE_COOLDOWN","inputs":[],"outputs":[{"name":"","type":"uint256","internalType":"uint256"}],"stateMutability":"view"},{"type":"function","name":"MAX_SUPPLY","inputs":[],"outputs":[{"name":"","type":"uint256","internalType":"uint256"}],"stateMutability":"view"},{"type":"function","name":"MINTER_ROLE","inputs":[],"outputs":[{"name":"","type":"bytes32","internalType":"bytes32"}],"stateMutability":"view"},{"type":"function","name":"approve","inputs":[{"name":"to","type":"address","internalType":"address"},{"name":"tokenId","type":"uint256","internalType":"uint256"}],"outputs":[],"stateMutability":"nonpayable"},{"type":"function","name":"balanceOf","inputs":[{"name":"owner","type":"address","internalType":"address"}],"outputs":[{"name":"","type":"uint256","internalType":"uint256"}],"stateMutability":"view"},{"type":"function","name":"evolutionStage","inputs":[{"name":"","type":"uint256","internalType":"uint256"}],"outputs":[{"name":"","type":"uint8","internalType":"uint8"}],"stateMutability":"view"},{"type":"function","name":"evolve","inputs":[{"name":"tokenId","type":"uint256","internalType":"uint256"},{"name":"newCID","type":"string","internalType":"string"},{"name":"newStage","type":"uint8","internalType":"uint8"}],"outputs":[],"stateMutability":"nonpayable"},{"type":"function","name":"evolveCooldownRemaining","inputs":[{"name":"tokenId","type":"uint256","internalType":"uint256"}],"outputs":[{"name":"","type":"uint256","internalType":"uint256"}],"stateMutability":"view"},{"type":"function","name":"getApproved","inputs":[{"name":"tokenId","type":"uint256","internalType":"uint256"}],"outputs":[{"name":"","type":"address","internalType":"address"}],"stateMutability":"view"},{"type":"function","name":"getRoleAdmin","inputs":[{"name":"role","type":"bytes32","internalType":"bytes32"}],"outputs":[{"name":"","type":"bytes32","internalType":"bytes32"}],"stateMutability":"view"},{"type":"function","name":"grantRole","inputs":[{"name":"role","type":"bytes32","internalType":"bytes32"},{"name":"account","type":"address","internalType":"address"}],"outputs":[],"stateMutability":"nonpayable"},{"type":"function","name":"hasRole","inputs":[{"name":"role","type":"bytes32","internalType":"bytes32"},{"name":"account","type":"address","internalType":"address"}],"outputs":[{"name":"","type":"bool","internalType":"bool"}],"stateMutability":"view"},{"type":"function","name":"isApprovedForAll","inputs":[{"name":"owner","type":"address","internalType":"address"},{"name":"operator","type":"address","internalType":"address"}],"outputs":[{"name":"","type":"bool","internalType":"bool"}],"stateMutability":"view"},{"type":"function","name":"lastEvolved","inputs":[{"name":"","type":"uint256","internalType":"uint256"}],"outputs":[{"name":"","type":"uint256","internalType":"uint256"}],"stateMutability":"view"},{"type":"function","name":"mint","inputs":[{"name":"to","type":"address","internalType":"address"},{"name":"_petId","type":"string","internalType":"string"},{"name":"ipfsCID","type":"string","internalType":"string"}],"outputs":[],"stateMutability":"nonpayable"},{"type":"function","name":"name","inputs":[],"outputs":[{"name":"","type":"string","internalType":"string"}],"stateMutability":"view"},{"type":"function","name":"ownerOf","inputs":[{"name":"tokenId","type":"uint256","internalType":"uint256"}],"outputs":[{"name":"","type":"address","internalType":"address"}],"stateMutability":"view"},{"type":"function","name":"pause","inputs":[],"outputs":[],"stateMutability":"nonpayable"},{"type":"function","name":"paused","inputs":[],"outputs":[{"name":"","type":"bool","internalType":"bool"}],"stateMutability":"view"},{"type":"function","name":"petId","inputs":[{"name":"","type":"uint256","internalType":"uint256"}],"outputs":[{"name":"","type":"string","internalType":"string"}],"stateMutability":"view"},{"type":"function","name":"renounceRole","inputs":[{"name":"role","type":"bytes32","internalType":"bytes32"},{"name":"callerConfirmation","type":"address","internalType":"address"}],"outputs":[],"stateMutability":"nonpayable"},{"type":"function","name":"revokeRole","inputs":[{"name":"role","type":"bytes32","internalType":"bytes32"},{"name":"account","type":"address","internalType":"address"}],"outputs":[],"stateMutability":"nonpayable"},{"type":"function","name":"safeTransferFrom","inputs":[{"name":"from","type":"address","internalType":"address"},{"name":"to","type":"address","internalType":"address"},{"name":"tokenId","type":"uint256","internalType":"uint256"}],"outputs":[],"stateMutability":"nonpayable"},{"type":"function","name":"safeTransferFrom","inputs":[{"name":"from","type":"address","internalType":"address"},{"name":"to","type":"address","internalType":"address"},{"name":"tokenId","type":"uint256","internalType":"uint256"},{"name":"data","type":"bytes","internalType":"bytes"}],"outputs":[],"stateMutability":"nonpayable"},{"type":"function","name":"setApprovalForAll","inputs":[{"name":"operator","type":"address","internalType":"address"},{"name":"approved","type":"bool","internalType":"bool"}],"outputs":[],"stateMutability":"nonpayable"},{"type":"function","name":"supportsInterface","inputs":[{"name":"interfaceId","type":"bytes4","internalType":"bytes4"}],"outputs":[{"name":"","type":"bool","internalType":"bool"}],"stateMutability":"view"},{"type":"function","name":"symbol","inputs":[],"outputs":[{"name":"","type":"string","internalType":"string"}],"stateMutability":"view"},{"type":"function","name":"tokenURI","inputs":[{"name":"tokenId","type":"uint256","internalType":"uint256"}],"outputs":[{"name":"","type":"string","internalType":"string"}],"stateMutability":"view"},{"type":"function","name":"totalMinted","inputs":[],"outputs":[{"name":"","type":"uint256","internalType":"uint256"}],"stateMutability":"view"},{"type":"function","name":"transferFrom","inputs":[{"name":"from","type":"address","internalType":"address"},{"name":"to","type":"address","internalType":"address"},{"name":"tokenId","type":"uint256","internalType":"uint256"}],"outputs":[],"stateMutability":"nonpayable"},{"type":"function","name":"unpause","inputs":[],"outputs":[],"stateMutability":"nonpayable"},{"type":"event","name":"Approval","inputs":[{"name":"owner","type":"address","indexed":true,"internalType":"address"},{"name":"approved","type":"address","indexed":true,"internalType":"address"},{"name":"tokenId","type":"uint256","indexed":true,"internalType":"uint256"}],"anonymous":false},{"type":"event","name":"ApprovalForAll","inputs":[{"name":"owner","type":"address","indexed":true,"internalType":"address"},{"name":"operator","type":"address","indexed":true,"internalType":"address"},{"name":"approved","type":"bool","indexed":false,"internalType":"bool"}],"anonymous":false},{"type":"event","name":"BatchMetadataUpdate","inputs":[{"name":"_fromTokenId","type":"uint256","indexed":false,"internalType":"uint256"},{"name":"_toTokenId","type":"uint256","indexed":false,"internalType":"uint256"}],"anonymous":false},{"type":"event","name":"MetadataUpdate","inputs":[{"name":"_tokenId","type":"uint256","indexed":false,"internalType":"uint256"}],"anonymous":false},{"type":"event","name":"Paused","inputs":[{"name":"account","type":"address","indexed":false,"internalType":"address"}],"anonymous":false},{"type":"event","name":"PetEvolved","inputs":[{"name":"tokenId","type":"uint256","indexed":true,"internalType":"uint256"},{"name":"newStage","type":"uint8","indexed":false,"internalType":"uint8"},{"name":"newCID","type":"string","indexed":false,"internalType":"string"},{"name":"timestamp","type":"uint256","indexed":false,"internalType":"uint256"}],"anonymous":false},{"type":"event","name":"PetMinted","inputs":[{"name":"tokenId","type":"uint256","indexed":true,"internalType":"uint256"},{"name":"owner","type":"address","indexed":true,"internalType":"address"},{"name":"petId","type":"string","indexed":false,"internalType":"string"},{"name":"ipfsCID","type":"string","indexed":false,"internalType":"string"}],"anonymous":false},{"type":"event","name":"RoleAdminChanged","inputs":[{"name":"role","type":"bytes32","indexed":true,"internalType":"bytes32"},{"name":"previousAdminRole","type":"bytes32","indexed":true,"internalType":"bytes32"},{"name":"newAdminRole","type":"bytes32","indexed":true,"internalType":"bytes32"}],"anonymous":false},{"type":"event","name":"RoleGranted","inputs":[{"name":"role","type":"bytes32","indexed":true,"internalType":"bytes32"},{"name":"account","type":"address","indexed":true,"internalType":"address"},{"name":"sender","type":"address","indexed":true,"internalType":"address"}],"anonymous":false},{"type":"event","name":"RoleRevoked","inputs":[{"name":"role","type":"bytes32","indexed":true,"internalType":"bytes32"},{"name":"account","type":"address","indexed":true,"internalType":"address"},{"name":"sender","type":"address","indexed":true,"internalType":"address"}],"anonymous":false},{"type":"event","name":"Transfer","inputs":[{"name":"from","type":"address","indexed":true,"internalType":"address"},{"name":"to","type":"address","indexed":true,"internalType":"address"},{"name":"tokenId","type":"uint256","indexed":true,"internalType":"uint256"}],"anonymous":false},{"type":"event","name":"Unpaused","inputs":[{"name":"account","type":"address","indexed":false,"internalType":"address"}],"anonymous":false},{"type":"error","name":"AccessControlBadConfirmation","inputs":[]},{"type":"error","name":"AccessControlUnauthorizedAccount","inputs":[{"name":"account","type":"address","internalType":"address"},{"name":"neededRole","type":"bytes32","internalType":"bytes32"}]},{"type":"error","name":"ERC721IncorrectOwner","inputs":[{"name":"sender","type":"address","internalType":"address"},{"name":"tokenId","type":"uint256","internalType":"uint256"},{"name":"owner","type":"address","internalType":"address"}]},{"type":"error","name":"ERC721InsufficientApproval","inputs":[{"name":"operator","type":"address","internalType":"address"},{"name":"tokenId","type":"uint256","internalType":"uint256"}]},{"type":"error","name":"ERC721InvalidApprover","inputs":[{"name":"approver","type":"address","internalType":"address"}]},{"type":"error","name":"ERC721InvalidOperator","inputs":[{"name":"operator","type":"address","internalType":"address"}]},{"type":"error","name":"ERC721InvalidOwner","inputs":[{"name":"owner","type":"address","internalType":"address"}]},{"type":"error","name":"ERC721InvalidReceiver","inputs":[{"name":"receiver","type":"address","internalType":"address"}]},{"type":"error","name":"ERC721InvalidSender","inputs":[{"name":"sender","type":"address","internalType":"address"}]},{"type":"error","name":"ERC721NonexistentToken","inputs":[{"name":"tokenId","type":"uint256","internalType":"uint256"}]},{"type":"error","name":"EnforcedPause","inputs":[]},{"type":"error","name":"ExpectedPause","inputs":[]},{"type":"error","name":"ReentrancyGuardReentrantCall","inputs":[]}],"bytecode":{"object":"0x60806040526001600955348015610014575f5ffd5b5060405161233a38038061233a833981016040819052610033916101b4565b6040518060400160405280600a81526020016945455056656e6765727360b01b8152506040518060400160405280600381526020016204545560ec1b815250815f90816100809190610284565b50600161008d8282610284565b50505060016100a66100a36100e360201b60201c565b90565b556100b15f82610107565b506100dc7f9f2df0fed2c77648de5860a4cc508cd0818c85b8b8a1ab4ceeef8d981c8956a682610107565b5050610342565b7f9b779b17422d0df92223018b32b4d1fa46e071723d6817e2486d003becc55f0090565b5f8281526007602090815260408083206001600160a01b038516845290915281205460ff166101ab575f8381526007602090815260408083206001600160a01b03861684529091529020805460ff191660011790556101633390565b6001600160a01b0316826001600160a01b0316847f2f8788117e7eff1d82e926ec794901d17c78024a50270940304540a733656f0d60405160405180910390a45060016101ae565b505f5b92915050565b5f602082840312156101c4575f5ffd5b81516001600160a01b03811681146101da575f5ffd5b9392505050565b634e487b7160e01b5f52604160045260245ffd5b600181811c9082168061020957607f821691505b60208210810361022757634e487b7160e01b5f52602260045260245ffd5b50919050565b601f82111561027f578282111561027f57805f5260205f20601f840160051c602085101561025857505f5b90810190601f840160051c035f5b8181101561027b575f83820155600101610266565b5050505b505050565b81516001600160401b0381111561029d5761029d6101e1565b6102b1816102ab84546101f5565b8461022d565b6020601f8211600181146102e3575f83156102cc5750848201515b5f19600385901b1c1916600184901b17845561033b565b5f84815260208120601f198516915b8281101561031257878501518255602094850194600190920191016102f2565b508482101561032f57868401515f19600387901b60f8161c191681555b505060018360011b0184555b5050505050565b611feb8061034f5f395ff3fe608060405234801561000f575f5ffd5b50600436106101f2575f3560e01c8063728d683611610114578063a22cb465116100a9578063c87b56dd11610079578063c87b56dd14610444578063d539139314610457578063d547741f1461047e578063e985e9c514610491578063ec8e03f0146104a4575f5ffd5b8063a22cb46514610403578063a2309ff814610416578063b701f60a1461041e578063b88d4fde14610431575f5ffd5b806395d89b41116100e457806395d89b41146103ce57806399071190146103d65780639e54d8f4146103e9578063a217fddf146103fc575f5ffd5b8063728d68361461038b578063822cacc3146103aa5780638456cb59146103b357806391d14854146103bb575f5ffd5b806332cb6b0c1161018a5780635c975abb1161015a5780635c975abb146103265780636352211e1461033157806367eec89c1461034457806370a0823114610378575f5ffd5b806332cb6b0c146102f057806336568abe146102f85780633f4ba83a1461030b57806342842e0e14610313575f5ffd5b806322459e18116101c557806322459e181461027357806323b872dd146102a8578063248a9ca3146102bb5780632f2ff15d146102dd575f5ffd5b806301ffc9a7146101f657806306fdde031461021e578063081812fc14610233578063095ea7b31461025e575b5f5ffd5b610209610204366004611875565b6104b7565b60405190151581526020015b60405180910390f35b6102266104c7565b60405161021591906118be565b6102466102413660046118d0565b610556565b6040516001600160a01b039091168152602001610215565b61027161026c366004611902565b61057d565b005b61029a7fcab5a0bfe0b79d2c4b1c2e02599fa044d115b7511f9659307cb427695096770981565b604051908152602001610215565b6102716102b636600461192a565b61058c565b61029a6102c93660046118d0565b5f9081526007602052604090206001015490565b6102716102eb366004611964565b61061a565b61029a604e81565b610271610306366004611964565b61063e565b610271610676565b61027161032136600461192a565b61068b565b60085460ff16610209565b61024661033f3660046118d0565b6106a5565b6103666103523660046118d0565b600a6020525f908152604090205460ff1681565b60405160ff9091168152602001610215565b61029a61038636600461198e565b6106af565b61029a6103993660046118d0565b600c6020525f908152604090205481565b61029a610e1081565b6102716106f4565b6102096103c9366004611964565b610706565b610226610730565b6102716103e43660046119ec565b61073f565b61029a6103f73660046118d0565b6108ac565b61029a5f81565b610271610411366004611a6c565b610904565b61029a61090f565b61027161042c366004611aa5565b610924565b61027161043f366004611b19565b610bab565b6102266104523660046118d0565b610bc3565b61029a7f9f2df0fed2c77648de5860a4cc508cd0818c85b8b8a1ab4ceeef8d981c8956a681565b61027161048c366004611964565b610c44565b61020961049f366004611bf6565b610c68565b6102266104b23660046118d0565b610c95565b5f6104c182610d2c565b92915050565b60605f80546104d590611c1e565b80601f016020809104026020016040519081016040528092919081815260200182805461050190611c1e565b801561054c5780601f106105235761010080835404028352916020019161054c565b820191905f5260205f20905b81548152906001019060200180831161052f57829003601f168201915b5050505050905090565b5f61056082610d50565b505f828152600460205260409020546001600160a01b03166104c1565b610588828233610d88565b5050565b6001600160a01b0382166105ba57604051633250574960e11b81525f60048201526024015b60405180910390fd5b5f6105c6838333610d95565b9050836001600160a01b0316816001600160a01b031614610614576040516364283d7b60e01b81526001600160a01b03808616600483015260248201849052821660448201526064016105b1565b50505050565b5f8281526007602052604090206001015461063481610e87565b6106148383610e91565b6001600160a01b03811633146106675760405163334bd91960e11b815260040160405180910390fd5b6106718282610f22565b505050565b5f61068081610e87565b610688610f8d565b50565b61067183838360405180602001604052805f815250610bab565b5f6104c182610d50565b5f6001600160a01b0382166106d9576040516322718ad960e21b81525f60048201526024016105b1565b506001600160a01b03165f9081526003602052604090205490565b5f6106fe81610e87565b610688610fdf565b5f9182526007602090815260408084206001600160a01b0393909316845291905290205460ff1690565b6060600180546104d590611c1e565b7f9f2df0fed2c77648de5860a4cc508cd0818c85b8b8a1ab4ceeef8d981c8956a661076981610e87565b61077161101c565b610779611042565b604e60095411156107cc5760405162461bcd60e51b815260206004820152601e60248201527f45455056656e676572733a20416c6c2037382045455073206d696e746564000060448201526064016105b1565b600980545f91826107dc83611c6a565b9190505590506107ec878261105d565b610817818585604051602001610803929190611c82565b604051602081830303815290604052611076565b5f818152600a60209081526040808320805460ff19166001179055600b9091529020610844868883611cf2565b50866001600160a01b0316817f8b98fa68c0a4ce27ce6fec559940061e48d4f7c01dc45c77c786535e036ea927888888886040516108859493929190611dd4565b60405180910390a3506108a460015f516020611f965f395f51905f5255565b505050505050565b5f818152600c602052604081205481036108c757505f919050565b5f828152600c60205260408120546108e290610e1090611e05565b90508042106108f357505f92915050565b6108fd4282611e18565b9392505050565b6105883383836110c5565b5f600160095461091f9190611e18565b905090565b7fcab5a0bfe0b79d2c4b1c2e02599fa044d115b7511f9659307cb427695096770961094e81610e87565b61095661101c565b61095e611042565b5f858152600260205260409020546001600160a01b03166109c15760405162461bcd60e51b815260206004820181905260248201527f45455056656e676572733a20546f6b656e20646f6573206e6f7420657869737460448201526064016105b1565b5f858152600a602052604090205460ff9081169083161015610a255760405162461bcd60e51b815260206004820152601c60248201527f45455056656e676572733a2043616e6e6f742064652d65766f6c76650000000060448201526064016105b1565b60068260ff161115610a855760405162461bcd60e51b8152602060048201526024808201527f45455056656e676572733a204d6178207374616765206973203620285175616e60448201526374756d2960e01b60648201526084016105b1565b5f858152600c60205260409020541580610ab957505f858152600c6020526040902054610ab590610e1090611e05565b4210155b610b0f5760405162461bcd60e51b815260206004820152602160248201527f45455056656e676572733a2045766f6c7574696f6e206f6e20636f6f6c646f776044820152603760f91b60648201526084016105b1565b610b26858585604051602001610803929190611c82565b5f858152600a60209081526040808320805460ff191660ff8716179055600c909152908190204290819055905186917f7a23b7d10d9ebf95fff2ae0c336b7b0b653c0b6aadd6203f543dfa49516dd24091610b8691869189918991611e2b565b60405180910390a2610ba460015f516020611f965f395f51905f5255565b5050505050565b610bb684848461058c565b610614338585858561118c565b6060610bce82610d50565b505f610be460408051602081019091525f815290565b90505f610bf0846112ab565b905081515f03610c01579392505050565b805115610c33578181604051602001610c1b929190611e6f565b60405160208183030381529060405292505050919050565b610c3c8461134a565b949350505050565b5f82815260076020526040902060010154610c5e81610e87565b6106148383610f22565b6001600160a01b039182165f90815260056020908152604080832093909416825291909152205460ff1690565b600b6020525f908152604090208054610cad90611c1e565b80601f0160208091040260200160405190810160405280929190818152602001828054610cd990611c1e565b8015610d245780601f10610cfb57610100808354040283529160200191610d24565b820191905f5260205f20905b815481529060010190602001808311610d0757829003601f168201915b505050505081565b5f6001600160e01b03198216637965db0b60e01b14806104c157506104c1826113ba565b5f818152600260205260408120546001600160a01b0316806104c157604051637e27328960e01b8152600481018490526024016105b1565b61067183838360016113de565b5f828152600260205260408120546001600160a01b0390811690831615610dc157610dc18184866114e2565b6001600160a01b03811615610dfb57610ddc5f855f5f6113de565b6001600160a01b0381165f90815260036020526040902080545f190190555b6001600160a01b03851615610e29576001600160a01b0385165f908152600360205260409020805460010190555b5f8481526002602052604080822080546001600160a01b0319166001600160a01b0389811691821790925591518793918516917fddf252ad1be2c89b69c2b068fc378daa952ba7f163c4a11628f55a4df523b3ef91a4949350505050565b6106888133611546565b5f610e9c8383610706565b610f1b575f8381526007602090815260408083206001600160a01b03861684529091529020805460ff19166001179055610ed33390565b6001600160a01b0316826001600160a01b0316847f2f8788117e7eff1d82e926ec794901d17c78024a50270940304540a733656f0d60405160405180910390a45060016104c1565b505f6104c1565b5f610f2d8383610706565b15610f1b575f8381526007602090815260408083206001600160a01b0386168085529252808320805460ff1916905551339286917ff6391f5c32d9c69d2a47ea670b442974b53935d1edc7fd64eb21e047a839171b9190a45060016104c1565b610f9561157f565b6008805460ff191690557f5db9ee0a495bf2e6ff9c91a7834c1ba4fdd244a5e8aa4e537bd38aeae4b073aa335b6040516001600160a01b03909116815260200160405180910390a1565b610fe761101c565b6008805460ff191660011790557f62e78cea01bee320cd4e420270b5ea74000d11b0c9f74754ebdbfc544b05a258610fc23390565b60085460ff16156110405760405163d93c066560e01b815260040160405180910390fd5b565b61104a6115a2565b60025f516020611f965f395f51905f5255565b610588828260405180602001604052805f8152506115d1565b5f82815260066020526040902061108d8282611e83565b506040518281527ff8e1a15aba9398e019f0b49df1a4fde98ee17ae345cb5f6b5e2c27f5033e8ce79060200160405180910390a15050565b6001600160a01b0383166110ee5760405163a9fbf51f60e01b81525f60048201526024016105b1565b6001600160a01b03821661112057604051630b61174360e31b81526001600160a01b03831660048201526024016105b1565b6001600160a01b038381165f81815260056020908152604080832094871680845294825291829020805460ff191686151590811790915591519182527f17307eab39ab6107e8899845ad3d59bd9653f200f220920489ca2b5937696c31910160405180910390a3505050565b6001600160a01b0383163b15610ba457604051630a85bd0160e11b81526001600160a01b0384169063150b7a02906111ce908890889087908790600401611f3e565b6020604051808303815f875af1925050508015611208575060408051601f3d908101601f1916820190925261120591810190611f7a565b60015b61126f573d808015611235576040519150601f19603f3d011682016040523d82523d5f602084013e61123a565b606091505b5080515f0361126757604051633250574960e11b81526001600160a01b03851660048201526024016105b1565b805160208201fd5b6001600160e01b03198116630a85bd0160e11b146108a457604051633250574960e11b81526001600160a01b03851660048201526024016105b1565b5f8181526006602052604090208054606091906112c790611c1e565b80601f01602080910402602001604051908101604052809291908181526020018280546112f390611c1e565b801561133e5780601f106113155761010080835404028352916020019161133e565b820191905f5260205f20905b81548152906001019060200180831161132157829003601f168201915b50505050509050919050565b606061135582610d50565b505f61136b60408051602081019091525f815290565b90505f8151116113895760405180602001604052805f8152506108fd565b80611393846115e8565b6040516020016113a4929190611e6f565b6040516020818303038152906040529392505050565b5f6001600160e01b03198216632483248360e11b14806104c157506104c182611678565b80806113f257506001600160a01b03821615155b156114b3575f61140184610d50565b90506001600160a01b0383161580159061142d5750826001600160a01b0316816001600160a01b031614155b8015611440575061143e8184610c68565b155b156114695760405163a9fbf51f60e01b81526001600160a01b03841660048201526024016105b1565b81156114b15783856001600160a01b0316826001600160a01b03167f8c5be1e5ebec7d5bd14f71427d1e84f3dd0314c0f7b2291e5b200ac8c7c3b92560405160405180910390a45b505b50505f90815260046020526040902080546001600160a01b0319166001600160a01b0392909216919091179055565b6114ed8383836116c7565b610671576001600160a01b03831661151b57604051637e27328960e01b8152600481018290526024016105b1565b60405163177e802f60e01b81526001600160a01b0383166004820152602481018290526044016105b1565b6115508282610706565b6105885760405163e2517d3f60e01b81526001600160a01b0382166004820152602481018390526044016105b1565b60085460ff1661104057604051638dfc202b60e01b815260040160405180910390fd5b5f516020611f965f395f51905f525460020361104057604051633ee5aeb560e01b815260040160405180910390fd5b6115db8383611728565b610671335f85858561118c565b60605f6115f483611789565b60010190505f8167ffffffffffffffff81111561161357611613611b05565b6040519080825280601f01601f19166020018201604052801561163d576020820181803683370190505b5090508181016020015b5f19016f181899199a1a9b1b9c1cb0b131b232b360811b600a86061a8153600a850494508461164757509392505050565b5f6001600160e01b031982166380ac58cd60e01b14806116a857506001600160e01b03198216635b5e139f60e01b145b806104c157506301ffc9a760e01b6001600160e01b03198316146104c1565b5f6001600160a01b03831615801590610c3c5750826001600160a01b0316846001600160a01b0316148061170057506117008484610c68565b80610c3c5750505f908152600460205260409020546001600160a01b03908116911614919050565b6001600160a01b03821661175157604051633250574960e11b81525f60048201526024016105b1565b5f61175d83835f610d95565b90506001600160a01b03811615610671576040516339e3563760e11b81525f60048201526024016105b1565b5f8072184f03e93ff9f4daa797ed6e38ed64bf6a1f0160401b83106117c75772184f03e93ff9f4daa797ed6e38ed64bf6a1f0160401b830492506040015b6d04ee2d6d415b85acef810000000083106117f3576d04ee2d6d415b85acef8100000000830492506020015b662386f26fc10000831061181157662386f26fc10000830492506010015b6305f5e1008310611829576305f5e100830492506008015b612710831061183d57612710830492506004015b6064831061184f576064830492506002015b600a83106104c15760010192915050565b6001600160e01b031981168114610688575f5ffd5b5f60208284031215611885575f5ffd5b81356108fd81611860565b5f81518084528060208401602086015e5f602082860101526020601f19601f83011685010191505092915050565b602081525f6108fd6020830184611890565b5f602082840312156118e0575f5ffd5b5035919050565b80356001600160a01b03811681146118fd575f5ffd5b919050565b5f5f60408385031215611913575f5ffd5b61191c836118e7565b946020939093013593505050565b5f5f5f6060848603121561193c575f5ffd5b611945846118e7565b9250611953602085016118e7565b929592945050506040919091013590565b5f5f60408385031215611975575f5ffd5b82359150611985602084016118e7565b90509250929050565b5f6020828403121561199e575f5ffd5b6108fd826118e7565b5f5f83601f8401126119b7575f5ffd5b50813567ffffffffffffffff8111156119ce575f5ffd5b6020830191508360208285010111156119e5575f5ffd5b9250929050565b5f5f5f5f5f60608688031215611a00575f5ffd5b611a09866118e7565b9450602086013567ffffffffffffffff811115611a24575f5ffd5b611a30888289016119a7565b909550935050604086013567ffffffffffffffff811115611a4f575f5ffd5b611a5b888289016119a7565b969995985093965092949392505050565b5f5f60408385031215611a7d575f5ffd5b611a86836118e7565b915060208301358015158114611a9a575f5ffd5b809150509250929050565b5f5f5f5f60608587031215611ab8575f5ffd5b84359350602085013567ffffffffffffffff811115611ad5575f5ffd5b611ae1878288016119a7565b909450925050604085013560ff81168114611afa575f5ffd5b939692955090935050565b634e487b7160e01b5f52604160045260245ffd5b5f5f5f5f60808587031215611b2c575f5ffd5b611b35856118e7565b9350611b43602086016118e7565b925060408501359150606085013567ffffffffffffffff811115611b65575f5ffd5b8501601f81018713611b75575f5ffd5b803567ffffffffffffffff811115611b8f57611b8f611b05565b604051601f8201601f19908116603f0116810167ffffffffffffffff81118282101715611bbe57611bbe611b05565b604052818152828201602001891015611bd5575f5ffd5b816020840160208301375f6020838301015280935050505092959194509250565b5f5f60408385031215611c07575f5ffd5b611c10836118e7565b9150611985602084016118e7565b600181811c90821680611c3257607f821691505b602082108103611c5057634e487b7160e01b5f52602260045260245ffd5b50919050565b634e487b7160e01b5f52601160045260245ffd5b5f60018201611c7b57611c7b611c56565b5060010190565b66697066733a2f2f60c81b8152818360078301375f9101600701908152919050565b601f821115610671578282111561067157805f5260205f20601f840160051c6020851015611ccf57505f5b90810190601f840160051c035f5b818110156108a4575f83820155600101611cdd565b67ffffffffffffffff831115611d0a57611d0a611b05565b611d1e83611d188354611c1e565b83611ca4565b5f601f841160018114611d4f575f8515611d385750838201355b5f19600387901b1c1916600186901b178355610ba4565b5f83815260208120601f198716915b82811015611d7e5786850135825560209485019460019092019101611d5e565b5086821015611d9a575f1960f88860031b161c19848701351681555b505060018560011b0183555050505050565b81835281816020850137505f828201602090810191909152601f909101601f19169091010190565b604081525f611de7604083018688611dac565b8281036020840152611dfa818587611dac565b979650505050505050565b808201808211156104c1576104c1611c56565b818103818111156104c1576104c1611c56565b60ff85168152606060208201525f611e47606083018587611dac565b905082604083015295945050505050565b5f81518060208401855e5f93019283525090919050565b5f610c3c611e7d8386611e58565b84611e58565b815167ffffffffffffffff811115611e9d57611e9d611b05565b611eb181611eab8454611c1e565b84611ca4565b6020601f821160018114611ee3575f8315611ecc5750848201515b5f19600385901b1c1916600184901b178455610ba4565b5f84815260208120601f198516915b82811015611f125787850151825560209485019460019092019101611ef2565b5084821015611f2f57868401515f19600387901b60f8161c191681555b50505050600190811b01905550565b6001600160a01b03858116825284166020820152604081018390526080606082018190525f90611f7090830184611890565b9695505050505050565b5f60208284031215611f8a575f5ffd5b81516108fd8161186056fe9b779b17422d0df92223018b32b4d1fa46e071723d6817e2486d003becc55f00a2646970667358221220952b89a98f7ffbe30c820a6728773170576ff1e55b5817701ef3c37fe50e869a64736f6c63430008210033","linkReferences":{}},"methodIdentifiers":{"AGENT_ROLE()":"22459e18","DEFAULT_ADMIN_ROLE()":"a217fddf","EVOLVE_COOLDOWN()":"822cacc3","MAX_SUPPLY()":"32cb6b0c","MINTER_ROLE()":"d5391393","approve(address,uint256)":"095ea7b3","balanceOf(address)":"70a08231","evolutionStage(uint256)":"67eec89c","evolve(uint256,string,uint8)":"b701f60a","evolveCooldownRemaining(uint256)":"9e54d8f4","getApproved(uint256)":"081812fc","getRoleAdmin(bytes32)":"248a9ca3","grantRole(bytes32,address)":"2f2ff15d","hasRole(bytes32,address)":"91d14854","isApprovedForAll(address,address)":"e985e9c5","lastEvolved(uint256)":"728d6836","mint(address,string,string)":"99071190","name()":"06fdde03","ownerOf(uint256)":"6352211e","pause()":"8456cb59","paused()":"5c975abb","petId(uint256)":"ec8e03f0","renounceRole(bytes32,address)":"36568abe","revokeRole(bytes32,address)":"d547741f","safeTransferFrom(address,address,uint256)":"42842e0e","safeTransferFrom(address,address,uint256,bytes)":"b88d4fde","setApprovalForAll(address,bool)":"a22cb465","supportsInterface(bytes4)":"01ffc9a7","symbol()":"95d89b41","tokenURI(uint256)":"c87b56dd","totalMinted()":"a2309ff8","transferFrom(address,address,uint256)":"23b872dd","unpause()":"3f4ba83a"},"id":49}