{"abi":[{"type":"constructor","inputs":[{"name":"initialOwner","type":"address","internalType":"address"}],"stateMutability":"nonpayable"},{"type":"function","name":"normalThing","inputs":[],"outputs":[],"stateMutability":"nonpayable"},{"type":"function","name":"owner","inputs":[],"outputs":[{"name":"","type":"address","internalType":"address"}],"stateMutability":"view"},{"type":"function","name":"renounceOwnership","inputs":[],"outputs":[],"stateMutability":"nonpayable"},{"type":"function","name":"specialThing","inputs":[],"outputs":[],"stateMutability":"nonpayable"},{"type":"function","name":"transferOwnership","inputs":[{"name":"newOwner","type":"address","internalType":"address"}],"outputs":[],"stateMutability":"nonpayable"},{"type":"event","name":"OwnershipTransferred","inputs":[{"name":"previousOwner","type":"address","indexed":true,"internalType":"address"},{"name":"newOwner","type":"address","indexed":true,"internalType":"address"}],"anonymous":false},{"type":"error","name":"OwnableInvalidOwner","inputs":[{"name":"owner","type":"address","internalType":"address"}]},{"type":"error","name":"OwnableUnauthorizedAccount","inputs":[{"name":"account","type":"address","internalType":"address"}]}],"bytecode":{"object":"0x6080604052348015600e575f5ffd5b506040516102c33803806102c3833981016040819052602b9160b4565b806001600160a01b038116605857604051631e4fbdf760e01b81525f600482015260240160405180910390fd5b605f816065565b505060df565b5f80546001600160a01b038381166001600160a01b0319831681178455604051919092169283917f8be0079c531659141344cd1fd0a4f28419497f9722a3daafe3b4186f6b6457e09190a35050565b5f6020828403121560c3575f5ffd5b81516001600160a01b038116811460d8575f5ffd5b9392505050565b6101d7806100ec5f395ff3fe608060405234801561000f575f5ffd5b5060043610610055575f3560e01c8063163e1d931461005957806335fea8c91461005b578063715018a6146100635780638da5cb5b1461006b578063f2fde38b14610089575b5f5ffd5b005b61005961009e565b6100596100a6565b5f54604080516001600160a01b039092168252519081900360200190f35b610059610097366004610174565b6100b7565b565b61009c6100f9565b6100ae6100f9565b61009c5f610125565b6100bf6100f9565b6001600160a01b0381166100ed57604051631e4fbdf760e01b81525f60048201526024015b60405180910390fd5b6100f681610125565b50565b5f546001600160a01b0316331461009c5760405163118cdaa760e01b81523360048201526024016100e4565b5f80546001600160a01b038381166001600160a01b0319831681178455604051919092169283917f8be0079c531659141344cd1fd0a4f28419497f9722a3daafe3b4186f6b6457e09190a35050565b5f60208284031215610184575f5ffd5b81356001600160a01b038116811461019a575f5ffd5b939250505056fea2646970667358221220e1e33bdde775b5f5eca1161d4da2c0a323b4bb8696fa4d811990e738fda08eb864736f6c63430008210033","linkReferences":{}},"methodIdentifiers":{"normalThing()":"163e1d93","owner()":"8da5cb5b","renounceOwnership()":"715018a6","specialThing()":"35fea8c9","transferOwnership(address)":"f2fde38b"},"id":195}