{"abi":[{"type":"constructor","inputs":[{"name":"configFilePath","type":"string","internalType":"string"},{"name":"writeToFile","type":"bool","internalType":"bool"}],"stateMutability":"nonpayable"},{"type":"function","name":"exists","inputs":[{"name":"key","type":"string","internalType":"string"}],"outputs":[{"name":"","type":"bool","internalType":"bool"}],"stateMutability":"view"},{"type":"function","name":"exists","inputs":[{"name":"chain_id","type":"uint256","internalType":"uint256"},{"name":"key","type":"string","internalType":"string"}],"outputs":[{"name":"","type":"bool","internalType":"bool"}],"stateMutability":"view"},{"type":"function","name":"get","inputs":[{"name":"key","type":"string","internalType":"string"}],"outputs":[{"name":"","type":"tuple","internalType":"struct Variable","components":[{"name":"ty","type":"tuple","internalType":"struct Type","components":[{"name":"kind","type":"uint8","internalType":"enum TypeKind"},{"name":"isArray","type":"bool","internalType":"bool"}]},{"name":"data","type":"bytes","internalType":"bytes"}]}],"stateMutability":"view"},{"type":"function","name":"get","inputs":[{"name":"chain_id","type":"uint256","internalType":"uint256"},{"name":"key","type":"string","internalType":"string"}],"outputs":[{"name":"","type":"tuple","internalType":"struct Variable","components":[{"name":"ty","type":"tuple","internalType":"struct Type","components":[{"name":"kind","type":"uint8","internalType":"enum TypeKind"},{"name":"isArray","type":"bool","internalType":"bool"}]},{"name":"data","type":"bytes","internalType":"bytes"}]}],"stateMutability":"view"},{"type":"function","name":"getChainIds","inputs":[],"outputs":[{"name":"","type":"uint256[]","internalType":"uint256[]"}],"stateMutability":"view"},{"type":"function","name":"getRpcUrl","inputs":[],"outputs":[{"name":"","type":"string","internalType":"string"}],"stateMutability":"view"},{"type":"function","name":"getRpcUrl","inputs":[{"name":"chainId","type":"uint256","internalType":"uint256"}],"outputs":[{"name":"","type":"string","internalType":"string"}],"stateMutability":"view"},{"type":"function","name":"resolveChainId","inputs":[{"name":"aliasOrId","type":"string","internalType":"string"}],"outputs":[{"name":"","type":"uint256","internalType":"uint256"}],"stateMutability":"view"},{"type":"function","name":"set","inputs":[{"name":"chainId","type":"uint256","internalType":"uint256"},{"name":"key","type":"string","internalType":"string"},{"name":"value","type":"int256","internalType":"int256"}],"outputs":[],"stateMutability":"nonpayable"},{"type":"function","name":"set","inputs":[{"name":"chainId","type":"uint256","internalType":"uint256"},{"name":"key","type":"string","internalType":"string"},{"name":"value","type":"bytes32[]","internalType":"bytes32[]"}],"outputs":[],"stateMutability":"nonpayable"},{"type":"function","name":"set","inputs":[{"name":"chainId","type":"uint256","internalType":"uint256"},{"name":"key","type":"string","internalType":"string"},{"name":"value","type":"uint256","internalType":"uint256"}],"outputs":[],"stateMutability":"nonpayable"},{"type":"function","name":"set","inputs":[{"name":"key","type":"string","internalType":"string"},{"name":"value","type":"bytes","internalType":"bytes"}],"outputs":[],"stateMutability":"nonpayable"},{"type":"function","name":"set","inputs":[{"name":"key","type":"string","internalType":"string"},{"name":"value","type":"bytes32","internalType":"bytes32"}],"outputs":[],"stateMutability":"nonpayable"},{"type":"function","name":"set","inputs":[{"name":"key","type":"string","internalType":"string"},{"name":"value","type":"int256","internalType":"int256"}],"outputs":[],"stateMutability":"nonpayable"},{"type":"function","name":"set","inputs":[{"name":"chainId","type":"uint256","internalType":"uint256"},{"name":"key","type":"string","internalType":"string"},{"name":"value","type":"bytes","internalType":"bytes"}],"outputs":[],"stateMutability":"nonpayable"},{"type":"function","name":"set","inputs":[{"name":"key","type":"string","internalType":"string"},{"name":"value","type":"string[]","internalType":"string[]"}],"outputs":[],"stateMutability":"nonpayable"},{"type":"function","name":"set","inputs":[{"name":"chainId","type":"uint256","internalType":"uint256"},{"name":"key","type":"string","internalType":"string"},{"name":"value","type":"address","internalType":"address"}],"outputs":[],"stateMutability":"nonpayable"},{"type":"function","name":"set","inputs":[{"name":"chainId","type":"uint256","internalType":"uint256"},{"name":"key","type":"string","internalType":"string"},{"name":"value","type":"address[]","internalType":"address[]"}],"outputs":[],"stateMutability":"nonpayable"},{"type":"function","name":"set","inputs":[{"name":"chainId","type":"uint256","internalType":"uint256"},{"name":"key","type":"string","internalType":"string"},{"name":"value","type":"string","internalType":"string"}],"outputs":[],"stateMutability":"nonpayable"},{"type":"function","name":"set","inputs":[{"name":"key","type":"string","internalType":"string"},{"name":"value","type":"uint256[]","internalType":"uint256[]"}],"outputs":[],"stateMutability":"nonpayable"},{"type":"function","name":"set","inputs":[{"name":"key","type":"string","internalType":"string"},{"name":"value","type":"address[]","internalType":"address[]"}],"outputs":[],"stateMutability":"nonpayable"},{"type":"function","name":"set","inputs":[{"name":"key","type":"string","internalType":"string"},{"name":"value","type":"uint256","internalType":"uint256"}],"outputs":[],"stateMutability":"nonpayable"},{"type":"function","name":"set","inputs":[{"name":"chainId","type":"uint256","internalType":"uint256"},{"name":"key","type":"string","internalType":"string"},{"name":"value","type":"int256[]","internalType":"int256[]"}],"outputs":[],"stateMutability":"nonpayable"},{"type":"function","name":"set","inputs":[{"name":"chainId","type":"uint256","internalType":"uint256"},{"name":"key","type":"string","internalType":"string"},{"name":"value","type":"bytes[]","internalType":"bytes[]"}],"outputs":[],"stateMutability":"nonpayable"},{"type":"function","name":"set","inputs":[{"name":"key","type":"string","internalType":"string"},{"name":"value","type":"address","internalType":"address"}],"outputs":[],"stateMutability":"nonpayable"},{"type":"function","name":"set","inputs":[{"name":"chainId","type":"uint256","internalType":"uint256"},{"name":"key","type":"string","internalType":"string"},{"name":"value","type":"bool","internalType":"bool"}],"outputs":[],"stateMutability":"nonpayable"},{"type":"function","name":"set","inputs":[{"name":"key","type":"string","internalType":"string"},{"name":"value","type":"bool","internalType":"bool"}],"outputs":[],"stateMutability":"nonpayable"},{"type":"function","name":"set","inputs":[{"name":"key","type":"string","internalType":"string"},{"name":"value","type":"bytes[]","internalType":"bytes[]"}],"outputs":[],"stateMutability":"nonpayable"},{"type":"function","name":"set","inputs":[{"name":"chainId","type":"uint256","internalType":"uint256"},{"name":"key","type":"string","internalType":"string"},{"name":"value","type":"bytes32","internalType":"bytes32"}],"outputs":[],"stateMutability":"nonpayable"},{"type":"function","name":"set","inputs":[{"name":"chainId","type":"uint256","internalType":"uint256"},{"name":"key","type":"string","internalType":"string"},{"name":"value","type":"string[]","internalType":"string[]"}],"outputs":[],"stateMutability":"nonpayable"},{"type":"function","name":"set","inputs":[{"name":"chainId","type":"uint256","internalType":"uint256"},{"name":"key","type":"string","internalType":"string"},{"name":"value","type":"uint256[]","internalType":"uint256[]"}],"outputs":[],"stateMutability":"nonpayable"},{"type":"function","name":"set","inputs":[{"name":"key","type":"string","internalType":"string"},{"name":"value","type":"int256[]","internalType":"int256[]"}],"outputs":[],"stateMutability":"nonpayable"},{"type":"function","name":"set","inputs":[{"name":"chainId","type":"uint256","internalType":"uint256"},{"name":"key","type":"string","internalType":"string"},{"name":"value","type":"bool[]","internalType":"bool[]"}],"outputs":[],"stateMutability":"nonpayable"},{"type":"function","name":"set","inputs":[{"name":"key","type":"string","internalType":"string"},{"name":"value","type":"bytes32[]","internalType":"bytes32[]"}],"outputs":[],"stateMutability":"nonpayable"},{"type":"function","name":"set","inputs":[{"name":"key","type":"string","internalType":"string"},{"name":"value","type":"string","internalType":"string"}],"outputs":[],"stateMutability":"nonpayable"},{"type":"function","name":"set","inputs":[{"name":"key","type":"string","internalType":"string"},{"name":"value","type":"bool[]","internalType":"bool[]"}],"outputs":[],"stateMutability":"nonpayable"},{"type":"function","name":"writeUpdatesBackToFile","inputs":[{"name":"enabled","type":"bool","internalType":"bool"}],"outputs":[],"stateMutability":"nonpayable"},{"type":"error","name":"AlreadyInitialized","inputs":[{"name":"key","type":"string","internalType":"string"}]},{"type":"error","name":"ChainNotInitialized","inputs":[{"name":"chainId","type":"uint256","internalType":"uint256"}]},{"type":"error","name":"InvalidChainKey","inputs":[{"name":"aliasOrId","type":"string","internalType":"string"}]},{"type":"error","name":"TypeMismatch","inputs":[{"name":"expected","type":"string","internalType":"string"},{"name":"actual","type":"string","internalType":"string"}]},{"type":"error","name":"UnableToParseVariable","inputs":[{"name":"key","type":"string","internalType":"string"}]},{"type":"error","name":"WriteToFileInForbiddenCtxt","inputs":[]}],"bytecode":{"object":"0x608060405234801561000f575f5ffd5b50604051615da2380380615da283398101604081905261002e916118c2565b8080156100a757506040516364af255d60e01b81525f516020615d825f395f51905f52906364af255d90610066906004908101611920565b602060405180830381865afa158015610081573d5f5f3e3d5ffd5b505050506040513d601f19601f820116820180604052508101906100a59190611946565b155b156100c5576040516305d79a4360e31b815260040160405180910390fd5b5f6100d083826119f1565b506005805460ff19168215151790556040516360f9bb1160e01b81525f905f516020615d825f395f51905f529063ddd2128d9082906360f9bb1190610119908890600401611add565b5f60405180830381865afa158015610133573d5f5f3e3d5ffd5b505050506040513d5f823e601f3d908101601f1916820160405261015a9190810190611aef565b6040518263ffffffff1660e01b81526004016101769190611add565b5f604051808303815f875af1158015610191573d5f5f3e3d5ffd5b505050506040513d5f823e601f3d908101601f191682016040526101b89190810190611aef565b604051634095225960e11b81529091505f905f516020615d825f395f51905f529063812a44b2906101ed908590600401611b28565b5f60405180830381865afa158015610207573d5f5f3e3d5ffd5b505050506040513d5f823e601f3d908101601f1916820160405261022e9190810190611b7f565b90505f5b815181101561074d575f82828151811061024e5761024e611c33565b602002602001015190507f885cb69240a935d632d79c317109709ecfa91a80626ff3989d68f67f5b1dd12d5f1c6001600160a01b031663812a44b2858360405160200161029b9190611c5e565b6040516020818303038152906040526040518363ffffffff1660e01b81526004016102c7929190611c74565b5f60405180830381865afa1580156102e1573d5f5f3e3d5ffd5b505050506040513d5f823e601f3d908101601f191682016040526103089190810190611b7f565b515f036103155750610745565b5f61031f82610757565b6001805480820182555f919091529091507fb10e2d527612073b26eecdfd717e6a320cf44b4afac2b0732d9fcbe2b7fa0cf60161035c83826119f1565b506040515f516020615d825f395f51905f5290638bb8dd43908790610385908690602001611ca1565b6040516020818303038152906040526040518363ffffffff1660e01b81526004016103b1929190611c74565b5f60405180830381865afa9250505080156103ed57506040513d5f823e601f3d908101601f191682016040526103ea9190810190611aef565b60015b6104e65760405163975a6ce960e01b81525f516020615d825f395f51905f529063ddd2128d90829063975a6ce990610429908790600401611add565b5f60405180830381865afa158015610443573d5f5f3e3d5ffd5b505050506040513d5f823e601f3d908101601f1916820160405261046a9190810190611aef565b6040518263ffffffff1660e01b81526004016104869190611add565b5f604051808303815f875af11580156104a1573d5f5f3e3d5ffd5b505050506040513d5f823e601f3d908101601f191682016040526104c89190810190611aef565b5f828152600260205260409020906104e090826119f1565b50610573565b60405163ddd2128d60e01b81525f516020615d825f395f51905f529063ddd2128d90610516908490600401611add565b5f604051808303815f875af1158015610531573d5f5f3e3d5ffd5b505050506040513d5f823e601f3d908101601f191682016040526105589190810190611aef565b5f8381526002602052604090209061057090826119f1565b50505b60015b600760ff821611610741575f8160ff1660078111156105975761059761190c565b90505f846105b58360078111156105b0576105b061190c565b610866565b6040516020016105c6929190611cd4565b60408051601f1981840301815290829052634095225960e11b825291505f516020615d825f395f51905f529063812a44b290610608908b908590600401611c74565b5f60405180830381865afa92505050801561064457506040513d5f823e601f3d908101601f191682016040526106419190810190611b7f565b60015b1561072c575f5b8151811015610729575f82828151811061066757610667611c33565b602002602001015190505f60078111156106835761068361190c565b5f8881526004602052604090819020905161069f908490611cfe565b9081526040519081900360200190205460ff1660078111156106c3576106c361190c565b036106fc576106f78b85836040516020016106df929190611d09565b60408051601f19818403018152919052898489610a1f565b610720565b8060405163038a07f760e51b81526004016107179190611add565b60405180910390fd5b5060010161064b565b50505b5050808061073990611d14565b915050610576565b5050505b600101610232565b505050505061220f565b60405163fa91454d60e01b81525f905f516020615d825f395f51905f529063fa91454d90610789908590600401611add565b602060405180830381865afa9250505080156107c2575060408051601f3d908101601f191682019092526107bf91810190611d3e565b60015b61085b57604051634cc1c2bb60e01b81525f516020615d825f395f51905f5290634cc1c2bb906107f6908590600401611add565b5f60405180830381865afa92505050801561083257506040513d5f823e601f3d908101601f1916820160405261082f9190810190611d55565b60015b61085157816040516397aa94df60e01b81526004016107179190611add565b6020015192915050565b92915050565b919050565b6060600182600781111561087c5761087c61190c565b036108a1575050604080518082019091526004815263189bdbdb60e21b602082015290565b60028260078111156108b5576108b561190c565b036108dd5750506040805180820190915260078152666164647265737360c81b602082015290565b60038260078111156108f1576108f161190c565b03610919575050604080518082019091526007815266313cba32b9999960c91b602082015290565b600482600781111561092d5761092d61190c565b036109525750506040805180820190915260048152631d5a5b9d60e21b602082015290565b60058260078111156109665761096661190c565b0361098a5750506040805180820190915260038152621a5b9d60ea1b602082015290565b600682600781111561099e5761099e61190c565b036109c5575050604080518082019091526006815265737472696e6760d01b602082015290565b60078260078111156109d9576109d961190c565b036109ff575050604080518082019091526005815264627974657360d81b602082015290565b50506040805180820190915260048152636e6f6e6560e01b602082015290565b5f6001826007811115610a3457610a3461190c565b03610c8257604051636986e76b60e11b81525f516020615d825f395f51905f529063d30dced690610a6b9089908990600401611c74565b602060405180830381865afa925050508015610aa4575060408051601f3d908101601f19168201909252610aa191810190611946565b60015b610bfc5760405163093e7f4d60e11b81525f516020615d825f395f51905f529063127cfe9a90610ada9089908990600401611c74565b5f60405180830381865afa925050508015610b1657506040513d5f823e601f3d908101601f19168201604052610b139190810190611e1d565b60015b15610bf75780604051602001610b2c9190611eb4565b60408051601f198184030181528282525f8881526003602052919091209091610b56908790611cfe565b90815260200160405180910390209081610b7091906119f1565b50604080518082019091528060015b815260016020918201525f87815260049091526040908190209051610ba5908790611cfe565b90815260405190819003602001902081518154829060ff19166001836007811115610bd257610bd261190c565b02179055506020919091015181549015156101000261ff001990911617905550600190505b6117ae565b6040805182151560208201520160408051601f198184030181528282525f8881526003602052919091209091610c33908790611cfe565b90815260200160405180910390209081610c4d91906119f1565b50604080518082019091528060015b81525f602091820181905287815260049091526040908190209051610ba5908790611cfe565b6002826007811115610c9657610c9661190c565b03610e5057604051631979f21160e21b81525f516020615d825f395f51905f52906365e7c84490610ccd9089908990600401611c74565b602060405180830381865afa925050508015610d06575060408051601f3d908101601f19168201909252610d0391810190611f0e565b60015b610de5576040516365c428e760e01b81525f516020615d825f395f51905f52906365c428e790610d3c9089908990600401611c74565b5f60405180830381865afa925050508015610d7857506040513d5f823e601f3d908101601f19168201604052610d759190810190611f27565b60015b15610bf75780604051602001610d8e9190611fb4565b60408051601f198184030181528282525f8881526003602052919091209091610db8908790611cfe565b90815260200160405180910390209081610dd291906119f1565b5060408051808201909152806002610b7f565b604080516001600160a01b03831660208201520160408051601f198184030181528282525f8881526003602052919091209091610e23908790611cfe565b90815260200160405180910390209081610e3d91906119f1565b5060408051808201909152806002610c5c565b6003826007811115610e6457610e6461190c565b03611016576040516308e2148160e41b81525f516020615d825f395f51905f5290638e21481090610e9b9089908990600401611c74565b602060405180830381865afa925050508015610ed4575060408051601f3d908101601f19168201909252610ed191810190611d3e565b60015b610fb357604051633e716f8160e01b81525f516020615d825f395f51905f5290633e716f8190610f0a9089908990600401611c74565b5f60405180830381865afa925050508015610f4657506040513d5f823e601f3d908101601f19168201604052610f439190810190611ff4565b60015b15610bf75780604051602001610f5c919061207a565b60408051601f198184030181528282525f8881526003602052919091209091610f86908790611cfe565b90815260200160405180910390209081610fa091906119f1565b5060408051808201909152806003610b7f565b60408051602081018390520160408051601f198184030181528282525f8881526003602052919091209091610fe9908790611cfe565b9081526020016040518091039020908161100391906119f1565b5060408051808201909152806003610c5c565b600482600781111561102a5761102a61190c565b036111dc5760405163cc7b048760e01b81525f516020615d825f395f51905f529063cc7b0487906110619089908990600401611c74565b602060405180830381865afa92505050801561109a575060408051601f3d908101601f1916820190925261109791810190611d3e565b60015b611179576040516316bbe4f960e31b81525f516020615d825f395f51905f529063b5df27c8906110d09089908990600401611c74565b5f60405180830381865afa92505050801561110c57506040513d5f823e601f3d908101601f191682016040526111099190810190611ff4565b60015b15610bf75780604051602001611122919061207a565b60408051601f198184030181528282525f888152600360205291909120909161114c908790611cfe565b9081526020016040518091039020908161116691906119f1565b5060408051808201909152806004610b7f565b60408051602081018390520160408051601f198184030181528282525f88815260036020529190912090916111af908790611cfe565b908152602001604051809103902090816111c991906119f1565b5060408051808201909152806004610c5c565b60058260078111156111f0576111f061190c565b036113a25760405163c135073960e01b81525f516020615d825f395f51905f529063c1350739906112279089908990600401611c74565b602060405180830381865afa925050508015611260575060408051601f3d908101601f1916820190925261125d91810190611d3e565b60015b61133f576040516369a9157360e11b81525f516020615d825f395f51905f529063d3522ae6906112969089908990600401611c74565b5f60405180830381865afa9250505080156112d257506040513d5f823e601f3d908101601f191682016040526112cf9190810190611ff4565b60015b15610bf757806040516020016112e8919061207a565b60408051601f198184030181528282525f8881526003602052919091209091611312908790611cfe565b9081526020016040518091039020908161132c91906119f1565b5060408051808201909152806005610b7f565b60408051602081018390520160408051601f198184030181528282525f8881526003602052919091209091611375908790611cfe565b9081526020016040518091039020908161138f91906119f1565b5060408051808201909152806005610c5c565b60078260078111156113b6576113b661190c565b036115705760405163d77bfdb960e01b81525f516020615d825f395f51905f529063d77bfdb9906113ed9089908990600401611c74565b5f60405180830381865afa92505050801561142957506040513d5f823e601f3d908101601f191682016040526114269190810190611aef565b60015b6115085760405163b197c24760e01b81525f516020615d825f395f51905f529063b197c2479061145f9089908990600401611c74565b5f60405180830381865afa92505050801561149b57506040513d5f823e601f3d908101601f1916820160405261149891908101906120b1565b60015b15610bf757806040516020016114b19190612155565b60408051601f198184030181528282525f88815260036020529190912090916114db908790611cfe565b908152602001604051809103902090816114f591906119f1565b5060408051808201909152806007610b7f565b806040516020016115199190611add565b60408051601f198184030181528282525f8881526003602052919091209091611543908790611cfe565b9081526020016040518091039020908161155d91906119f1565b5060408051808201909152806007610c5c565b60068260078111156115845761158461190c565b036117ae57604051638bb8dd4360e01b81525f516020615d825f395f51905f5290638bb8dd43906115bb9089908990600401611c74565b5f60405180830381865afa9250505080156115f757506040513d5f823e601f3d908101601f191682016040526115f49190810190611aef565b60015b6116d657604051639f62928160e01b81525f516020615d825f395f51905f5290639f6292819061162d9089908990600401611c74565b5f60405180830381865afa92505050801561166957506040513d5f823e601f3d908101601f191682016040526116669190810190611b7f565b60015b15610bf7578060405160200161167f91906121b8565b60408051601f198184030181528282525f88815260036020529190912090916116a9908790611cfe565b908152602001604051809103902090816116c391906119f1565b5060408051808201909152806006610b7f565b806040516020016116e79190611add565b60408051601f198184030181528282525f8881526003602052919091209091611711908790611cfe565b9081526020016040518091039020908161172b91906119f1565b50604080518082018252600681525f602080830182905288825260049052829020915190919061175c908790611cfe565b90815260405190819003602001902081518154829060ff191660018360078111156117895761178961190c565b02179055506020919091015181549015156101000261ff001990911617905550600190505b806117ce578260405163ea00fa1360e01b81526004016107179190611add565b505050505050565b634e487b7160e01b5f52604160045260245ffd5b604051608081016001600160401b038111828210171561180c5761180c6117d6565b60405290565b604051601f8201601f191681016001600160401b038111828210171561183a5761183a6117d6565b604052919050565b5f82601f830112611851575f5ffd5b8151602083015f806001600160401b03841115611870576118706117d6565b50601f8301601f191660200161188581611812565b915050828152858383011115611899575f5ffd5b8282602083015e5f92810160200192909252509392505050565b80518015158114610861575f5ffd5b5f5f604083850312156118d3575f5ffd5b82516001600160401b038111156118e8575f5ffd5b6118f485828601611842565b925050611903602084016118b3565b90509250929050565b634e487b7160e01b5f52602160045260245ffd5b602081016009831061194057634e487b7160e01b5f52602160045260245ffd5b91905290565b5f60208284031215611956575f5ffd5b61195f826118b3565b9392505050565b600181811c9082168061197a57607f821691505b60208210810361199857634e487b7160e01b5f52602260045260245ffd5b50919050565b601f8211156119ec57828211156119ec57805f5260205f20601f840160051c60208510156119c957505f5b90810190601f840160051c035f5b818110156117ce575f838201556001016119d7565b505050565b81516001600160401b03811115611a0a57611a0a6117d6565b611a1e81611a188454611966565b8461199e565b6020601f821160018114611a50575f8315611a395750848201515b5f19600385901b1c1916600184901b178455611aa8565b5f84815260208120601f198516915b82811015611a7f5787850151825560209485019460019092019101611a5f565b5084821015611a9c57868401515f19600387901b60f8161c191681555b505060018360011b0184555b5050505050565b5f81518084528060208401602086015e5f602082860101526020601f19601f83011685010191505092915050565b602081525f61195f6020830184611aaf565b5f60208284031215611aff575f5ffd5b81516001600160401b03811115611b14575f5ffd5b611b2084828501611842565b949350505050565b604081525f611b3a6040830184611aaf565b828103602084015260018152600960fa1b60208201526040810191505092915050565b5f6001600160401b03821115611b7557611b756117d6565b5060051b60200190565b5f60208284031215611b8f575f5ffd5b81516001600160401b03811115611ba4575f5ffd5b8201601f81018413611bb4575f5ffd5b8051611bc7611bc282611b5d565b611812565b8082825260208201915060208360051b850101925086831115611be8575f5ffd5b602084015b83811015611c285780516001600160401b03811115611c0a575f5ffd5b611c1989602083890101611842565b84525060209283019201611bed565b509695505050505050565b634e487b7160e01b5f52603260045260245ffd5b5f81518060208401855e5f93019283525090919050565b61121760f11b81525f61195f6002830184611c47565b604081525f611c866040830185611aaf565b8281036020840152611c988185611aaf565b95945050505050565b61121760f11b81525f611cb76002830184611c47565b6c0b995b991c1bda5b9d17dd5c9b609a1b8152600d019392505050565b61121760f11b81525f611cea6002830185611c47565b601760f91b8152611c986001820185611c47565b5f61195f8284611c47565b5f611cea8285611c47565b5f60ff821660ff8103611d3557634e487b7160e01b5f52601160045260245ffd5b60010192915050565b5f60208284031215611d4e575f5ffd5b5051919050565b5f60208284031215611d65575f5ffd5b81516001600160401b03811115611d7a575f5ffd5b820160808185031215611d8b575f5ffd5b611d936117ea565b81516001600160401b03811115611da8575f5ffd5b611db486828501611842565b8252506020828101519082015260408201516001600160401b03811115611dd9575f5ffd5b611de586828501611842565b60408301525060608201516001600160401b03811115611e03575f5ffd5b611e0f86828501611842565b606083015250949350505050565b5f60208284031215611e2d575f5ffd5b81516001600160401b03811115611e42575f5ffd5b8201601f81018413611e52575f5ffd5b8051611e60611bc282611b5d565b8082825260208201915060208360051b850101925086831115611e81575f5ffd5b6020840193505b82841015611eaa57611e99846118b3565b825260209384019390910190611e88565b9695505050505050565b602080825282518282018190525f918401906040840190835b81811015611eed5783511515835260209384019390920191600101611ecd565b509095945050505050565b80516001600160a01b0381168114610861575f5ffd5b5f60208284031215611f1e575f5ffd5b61195f82611ef8565b5f60208284031215611f37575f5ffd5b81516001600160401b03811115611f4c575f5ffd5b8201601f81018413611f5c575f5ffd5b8051611f6a611bc282611b5d565b8082825260208201915060208360051b850101925086831115611f8b575f5ffd5b6020840193505b82841015611eaa57611fa384611ef8565b825260209384019390910190611f92565b602080825282518282018190525f918401906040840190835b81811015611eed5783516001600160a01b0316835260209384019390920191600101611fcd565b5f60208284031215612004575f5ffd5b81516001600160401b03811115612019575f5ffd5b8201601f81018413612029575f5ffd5b8051612037611bc282611b5d565b8082825260208201915060208360051b850101925086831115612058575f5ffd5b6020840193505b82841015611eaa57835182526020938401939091019061205f565b602080825282518282018190525f918401906040840190835b81811015611eed578351835260209384019390920191600101612093565b5f602082840312156120c1575f5ffd5b81516001600160401b038111156120d6575f5ffd5b8201601f810184136120e6575f5ffd5b80516120f4611bc282611b5d565b8082825260208201915060208360051b850101925086831115612115575f5ffd5b602084015b83811015611c285780516001600160401b03811115612137575f5ffd5b61214689602083890101611842565b8452506020928301920161211a565b5f602082016020835280845180835260408501915060408160051b8601019250602086015f5b828110156121ac57603f19878603018452612197858351611aaf565b9450602093840193919091019060010161217b565b50929695505050505050565b5f602082016020835280845180835260408501915060408160051b8601019250602086015f5b828110156121ac57603f198786030184526121fa858351611aaf565b945060209384019391909101906001016121de565b613b668061221c5f395ff3fe608060405234801561000f575f5ffd5b506004361061021e575f3560e01c80637df3ef121161012a578063c91ca7ba116100b4578063de0fc9b311610079578063de0fc9b3146104bc578063e298d00b146104cf578063e6053250146104e2578063e942b516146104f5578063fa3c074a14610508575f5ffd5b8063c91ca7ba1461045d578063cf1cfa9914610470578063cf72a2f314610483578063d6698dc414610496578063db0075df146104a9575f5ffd5b80638be19924116100fa5780638be19924146103fe57806393dbe6e014610411578063a815ff1514610424578063b3a6400114610437578063ba0ff22c1461044a575f5ffd5b80637df3ef12146103b2578063805da4ad146103c557806388c63d45146103d85780638a42ebe9146103eb575f5ffd5b806343d9eb7b116101ab5780635eba0df01161017b5780635eba0df01461034657806361141c9714610359578063655609501461036c578063693ec85e1461037f5780637b8fed811461039f575f5ffd5b806343d9eb7b146102f857806343ec8b6a1461030b5780634d85ce801461032057806359b3952614610333575f5ffd5b8063261a323e116101f1578063261a323e1461027b5780632b29c0fa1461029e5780632e3196a5146102b15780632ef8ba74146102c45780633f3a7588146102d7575f5ffd5b806307d79d9a1461022257806308f7b4b2146102375780631d7763231461024a57806322dc48fd14610268575b5f5ffd5b610235610230366004612bf6565b61051b565b005b610235610245366004612cc9565b610632565b610252610825565b60405161025f9190612d34565b60405180910390f35b610235610276366004612bf6565b610996565b61028e610289366004612d76565b610a60565b604051901515815260200161025f565b6102356102ac366004612daf565b610adf565b6102356102bf366004612e12565b610b5c565b6102356102d2366004612e12565b610bd5565b6102ea6102e5366004612d76565b610c4e565b60405190815260200161025f565b61028e610306366004612e53565b610d60565b610313610da2565b60405161025f9190612eae565b61023561032e366004612ec0565b610eaf565b610235610341366004612f9f565b610f81565b61023561035436600461300e565b610ffa565b6102356103673660046130c2565b6110d8565b61023561037a366004612ec0565b611245565b61039261038d366004612d76565b6112eb565b60405161025f9190613137565b6102356103ad36600461317c565b611387565b6103136103c03660046131d5565b611400565b6103926103d3366004612e53565b61149f565b6102356103e63660046131ec565b611603565b6102356103f9366004612e12565b61167c565b61023561040c366004612cc9565b6116f5565b61023561041f366004613245565b611893565b6102356104323660046132a6565b6119f1565b610235610445366004613300565b611a6a565b610235610458366004613356565b611b36565b61023561046b366004612f9f565b611baf565b61023561047e366004612bf6565b611c28565b610235610491366004613245565b611cf6565b6102356104a43660046133a4565b611e1f565b6102356104b7366004612cc9565b611ec9565b6102356104ca36600461317c565b612067565b6102356104dd366004613423565b6120e0565b6102356104f036600461317c565b61227f565b610235610503366004612daf565b6122f8565b610235610516366004613484565b612371565b60408051808201909152600581525f602082015261053a8484836123ea565b60408051602081018490520160408051601f198184030181528282525f87815260036020529190912090916105709086906134f4565b9081526020016040518091039020908161058a9190613588565b5060055460ff161561062c5761062c846105b7835f015160078111156105b2576105b2613123565b6124ee565b604051635191620760e11b81526004810186905286905f516020613af15f395f51905f529063a322c40e906024015b5f60405180830381865afa158015610600573d5f5f3e3d5ffd5b505050506040513d5f823e601f3d908101601f19168201604052610627919081019061368f565b6126a7565b50505050565b6040805180820190915260038152600160208201526106528484836123ea565b816040516020016106639190612d34565b60408051601f198184030181528282525f878152600360205291909120909161068d9086906134f4565b908152602001604051809103902090816106a79190613588565b5060055460ff161561062c576040805180820190915260018152605b60f81b60208201525f5b83518110156107d857816107765f516020613b115f395f51905f525f1c6001600160a01b031663b11a19e887858151811061070a5761070a6136c0565b60200260200101516040518263ffffffff1660e01b815260040161073091815260200190565b5f60405180830381865afa15801561074a573d5f5f3e3d5ffd5b505050506040513d5f823e601f3d908101601f19168201604052610771919081019061368f565b612742565b6040516020016107879291906136d4565b6040516020818303038152906040529150600184516107a691906136e8565b8110156107d057816040516020016107be9190613707565b60405160208183030381529060405291505b6001016106cd565b50806040516020016107ea9190613723565b604051602081830303815290604052905061081e85610817845f015160078111156105b2576105b2613123565b86846126a7565b5050505050565b60605f6001805480602002602001604051908101604052809291908181526020015f905b828210156108f1578382905f5260205f20018054610866906134ff565b80601f0160208091040260200160405190810160405280929190818152602001828054610892906134ff565b80156108dd5780601f106108b4576101008083540402835291602001916108dd565b820191905f5260205f20905b8154815290600101906020018083116108c057829003601f168201915b505050505081526020019060010190610849565b5050505090505f81516001600160401b0381111561091157610911612b10565b60405190808252806020026020018201604052801561093a578160200160208202803683370190505b5090505f5b825181101561098f5761096a83828151811061095d5761095d6136c0565b6020026020010151610c4e565b82828151811061097c5761097c6136c0565b602090810291909101015260010161093f565b5092915050565b60408051808201909152600481525f60208201526109b58484836123ea565b60408051602081018490520160408051601f198184030181528282525f87815260036020529190912090916109eb9086906134f4565b90815260200160405180910390209081610a059190613588565b5060055460ff161561062c5761062c84610a2d835f015160078111156105b2576105b2613123565b60405163348051d760e11b81526004810186905286905f516020613af15f395f51905f5290636900a3ae906024016105e6565b5f610ad95f516020613b115f395f51905f525f1c6001600160a01b0316633408e4706040518163ffffffff1660e01b8152600401602060405180830381865afa158015610aaf573d5f5f3e3d5ffd5b505050506040513d601f19601f82011682018060405250810190610ad3919061373f565b83610d60565b92915050565b610b585f516020613b115f395f51905f525f1c6001600160a01b0316633408e4706040518163ffffffff1660e01b8152600401602060405180830381865afa158015610b2d573d5f5f3e3d5ffd5b505050506040513d601f19601f82011682018060405250810190610b51919061373f565b8383610eaf565b5050565b610b585f516020613b115f395f51905f525f1c6001600160a01b0316633408e4706040518163ffffffff1660e01b8152600401602060405180830381865afa158015610baa573d5f5f3e3d5ffd5b505050506040513d601f19601f82011682018060405250810190610bce919061373f565b8383611c28565b610b585f516020613b115f395f51905f525f1c6001600160a01b0316633408e4706040518163ffffffff1660e01b8152600401602060405180830381865afa158015610c23573d5f5f3e3d5ffd5b505050506040513d601f19601f82011682018060405250810190610c47919061373f565b838361051b565b60405163fa91454d60e01b81525f905f516020613af15f395f51905f529063fa91454d90610c80908590600401612eae565b602060405180830381865afa925050508015610cb9575060408051601f3d908101601f19168201909252610cb69181019061373f565b60015b610ad957604051634cc1c2bb60e01b81525f516020613af15f395f51905f5290634cc1c2bb90610ced908590600401612eae565b5f60405180830381865afa925050508015610d2957506040513d5f823e601f3d908101601f19168201604052610d269190810190613756565b60015b610d5157816040516397aa94df60e01b8152600401610d489190612eae565b60405180910390fd5b6020015192915050565b919050565b5f828152600360205260408082209051829190610d7e9085906134f4565b90815260200160405180910390208054610d97906134ff565b905011905092915050565b606060025f5f516020613b115f395f51905f525f1c6001600160a01b0316633408e4706040518163ffffffff1660e01b8152600401602060405180830381865afa158015610df2573d5f5f3e3d5ffd5b505050506040513d601f19601f82011682018060405250810190610e16919061373f565b81526020019081526020015f208054610e2e906134ff565b80601f0160208091040260200160405190810160405280929190818152602001828054610e5a906134ff565b8015610ea55780601f10610e7c57610100808354040283529160200191610ea5565b820191905f5260205f20905b815481529060010190602001808311610e8857829003601f168201915b5050505050905090565b60408051808201909152600781525f6020820152610ece8484836123ea565b81604051602001610edf9190612eae565b60408051601f198184030181528282525f8781526003602052919091209091610f099086906134f4565b90815260200160405180910390209081610f239190613588565b5060055460ff161561062c5761062c84610f4b835f015160078111156105b2576105b2613123565b6040516371aad10d60e01b81528690610627905f516020613af15f395f51905f52906371aad10d90610730908a90600401612eae565b610b585f516020613b115f395f51905f525f1c6001600160a01b0316633408e4706040518163ffffffff1660e01b8152600401602060405180830381865afa158015610fcf573d5f5f3e3d5ffd5b505050506040513d601f19601f82011682018060405250810190610ff3919061373f565b8383611cf6565b60408051808201909152600281525f60208201526110198484836123ea565b604080516001600160a01b03841660208201520160408051601f198184030181528282525f87815260036020529190912090916110579086906134f4565b908152602001604051809103902090816110719190613588565b5060055460ff161561062c5761062c84611099835f015160078111156105b2576105b2613123565b604051632b65311f60e11b81526001600160a01b03861660048201528690610627905f516020613af15f395f51905f52906356ca623e90602401610730565b6040805180820190915260028152600160208201526110f88484836123ea565b81604051602001611109919061381e565b60408051601f198184030181528282525f87815260036020529190912090916111339086906134f4565b9081526020016040518091039020908161114d9190613588565b5060055460ff161561062c576040805180820190915260018152605b60f81b60208201525f5b83518110156107d857816111e35f516020613b115f395f51905f525f1c6001600160a01b03166356ca623e8785815181106111b0576111b06136c0565b60200260200101516040518263ffffffff1660e01b815260040161073091906001600160a01b0391909116815260200190565b6040516020016111f49291906136d4565b60405160208183030381529060405291506001845161121391906136e8565b81101561123d578160405160200161122b9190613707565b60405160208183030381529060405291505b600101611173565b60408051808201909152600681525f60208201526112648484836123ea565b816040516020016112759190612eae565b60408051601f198184030181528282525f878152600360205291909120909161129f9086906134f4565b908152602001604051809103902090816112b99190613588565b5060055460ff161561062c5761062c846112e1835f015160078111156105b2576105b2613123565b8561062786612742565b604080516080810182525f91810182815260608083019390935281526020810191909152610ad95f516020613b115f395f51905f525f1c6001600160a01b0316633408e4706040518163ffffffff1660e01b8152600401602060405180830381865afa15801561135d573d5f5f3e3d5ffd5b505050506040513d601f19601f82011682018060405250810190611381919061373f565b8361149f565b610b585f516020613b115f395f51905f525f1c6001600160a01b0316633408e4706040518163ffffffff1660e01b8152600401602060405180830381865afa1580156113d5573d5f5f3e3d5ffd5b505050506040513d601f19601f820116820180604052508101906113f9919061373f565b8383611ec9565b5f81815260026020526040902080546060919061141c906134ff565b80601f0160208091040260200160405190810160405280929190818152602001828054611448906134ff565b80156114935780601f1061146a57610100808354040283529160200191611493565b820191905f5260205f20905b81548152906001019060200180831161147657829003601f168201915b50505050509050919050565b604080516080810182525f91810182815260608083019390935281526020810191909152604051806040016040528060045f8681526020019081526020015f20846040516114ed91906134f4565b908152604080519182900360200182208282019091528054829060ff16600781111561151b5761151b613123565b600781111561152c5761152c613123565b81529054610100900460ff1615156020918201529082525f86815260038252604090819020905192909101916115639086906134f4565b9081526020016040518091039020805461157c906134ff565b80601f01602080910402602001604051908101604052809291908181526020018280546115a8906134ff565b80156115f35780601f106115ca576101008083540402835291602001916115f3565b820191905f5260205f20905b8154815290600101906020018083116115d657829003601f168201915b5050505050815250905092915050565b610b585f516020613b115f395f51905f525f1c6001600160a01b0316633408e4706040518163ffffffff1660e01b8152600401602060405180830381865afa158015611651573d5f5f3e3d5ffd5b505050506040513d601f19601f82011682018060405250810190611675919061373f565b83836110d8565b610b585f516020613b115f395f51905f525f1c6001600160a01b0316633408e4706040518163ffffffff1660e01b8152600401602060405180830381865afa1580156116ca573d5f5f3e3d5ffd5b505050506040513d601f19601f820116820180604052508101906116ee919061373f565b8383610996565b6040805180820190915260058152600160208201526117158484836123ea565b816040516020016117269190612d34565b60408051601f198184030181528282525f87815260036020529190912090916117509086906134f4565b9081526020016040518091039020908161176a9190613588565b5060055460ff161561062c576040805180820190915260018152605b60f81b60208201525f5b83518110156107d857815f516020613b115f395f51905f525f1c6001600160a01b031663a322c40e8684815181106117ca576117ca6136c0565b60200260200101516040518263ffffffff1660e01b81526004016117f091815260200190565b5f60405180830381865afa15801561180a573d5f5f3e3d5ffd5b505050506040513d5f823e601f3d908101601f19168201604052611831919081019061368f565b6040516020016118429291906136d4565b60405160208183030381529060405291506001845161186191906136e8565b81101561188b57816040516020016118799190613707565b60405160208183030381529060405291505b600101611790565b6040805180820190915260078152600160208201526118b38484836123ea565b816040516020016118c4919061385e565b60408051601f198184030181528282525f87815260036020529190912090916118ee9086906134f4565b908152602001604051809103902090816119089190613588565b5060055460ff161561062c576040805180820190915260018152605b60f81b60208201525f5b83518110156107d8578161198f5f516020613b115f395f51905f525f1c6001600160a01b03166371aad10d87858151811061196b5761196b6136c0565b60200260200101516040518263ffffffff1660e01b81526004016107309190612eae565b6040516020016119a09291906136d4565b6040516020818303038152906040529150600184516119bf91906136e8565b8110156119e957816040516020016119d79190613707565b60405160208183030381529060405291505b60010161192e565b610b585f516020613b115f395f51905f525f1c6001600160a01b0316633408e4706040518163ffffffff1660e01b8152600401602060405180830381865afa158015611a3f573d5f5f3e3d5ffd5b505050506040513d601f19601f82011682018060405250810190611a63919061373f565b8383610ffa565b60408051808201909152600181525f6020820152611a898484836123ea565b6040805183151560208201520160408051601f198184030181528282525f8781526003602052919091209091611ac09086906134f4565b90815260200160405180910390209081611ada9190613588565b5060055460ff161561062c5761062c84611b02835f015160078111156105b2576105b2613123565b6040516338ee73ed60e11b8152851515600482015286905f516020613af15f395f51905f52906371dce7da906024016105e6565b610b585f516020613b115f395f51905f525f1c6001600160a01b0316633408e4706040518163ffffffff1660e01b8152600401602060405180830381865afa158015611b84573d5f5f3e3d5ffd5b505050506040513d601f19601f82011682018060405250810190611ba8919061373f565b8383611a6a565b610b585f516020613b115f395f51905f525f1c6001600160a01b0316633408e4706040518163ffffffff1660e01b8152600401602060405180830381865afa158015611bfd573d5f5f3e3d5ffd5b505050506040513d601f19601f82011682018060405250810190611c21919061373f565b8383611893565b60408051808201909152600381525f6020820152611c478484836123ea565b60408051602081018490520160408051601f198184030181528282525f8781526003602052919091209091611c7d9086906134f4565b90815260200160405180910390209081611c979190613588565b5060055460ff161561062c5761062c84611cbf835f015160078111156105b2576105b2613123565b604051631623433d60e31b8152600481018690528690610627905f516020613af15f395f51905f529063b11a19e890602401610730565b604080518082019091526006815260016020820152611d168484836123ea565b81604051602001611d2791906138c1565b60408051601f198184030181528282525f8781526003602052919091209091611d519086906134f4565b90815260200160405180910390209081611d6b9190613588565b5060055460ff161561062c576040805180820190915260018152605b60f81b60208201525f5b83518110156107d85781611dbd858381518110611db057611db06136c0565b6020026020010151612742565b604051602001611dce9291906136d4565b604051602081830303815290604052915060018451611ded91906136e8565b811015611e175781604051602001611e059190613707565b60405160208183030381529060405291505b600101611d91565b808015611e9857506040516364af255d60e01b81525f516020613af15f395f51905f52906364af255d90611e57906004908101613918565b602060405180830381865afa158015611e72573d5f5f3e3d5ffd5b505050506040513d601f19601f82011682018060405250810190611e969190613932565b155b15611eb6576040516305d79a4360e31b815260040160405180910390fd5b6005805460ff1916911515919091179055565b604080518082019091526004815260016020820152611ee98484836123ea565b81604051602001611efa9190612d34565b60408051601f198184030181528282525f8781526003602052919091209091611f249086906134f4565b90815260200160405180910390209081611f3e9190613588565b5060055460ff161561062c576040805180820190915260018152605b60f81b60208201525f5b83518110156107d857815f516020613b115f395f51905f525f1c6001600160a01b0316636900a3ae868481518110611f9e57611f9e6136c0565b60200260200101516040518263ffffffff1660e01b8152600401611fc491815260200190565b5f60405180830381865afa158015611fde573d5f5f3e3d5ffd5b505050506040513d5f823e601f3d908101601f19168201604052612005919081019061368f565b6040516020016120169291906136d4565b60405160208183030381529060405291506001845161203591906136e8565b81101561205f578160405160200161204d9190613707565b60405160208183030381529060405291505b600101611f64565b610b585f516020613b115f395f51905f525f1c6001600160a01b0316633408e4706040518163ffffffff1660e01b8152600401602060405180830381865afa1580156120b5573d5f5f3e3d5ffd5b505050506040513d601f19601f820116820180604052508101906120d9919061373f565b83836116f5565b60408051808201909152600180825260208201526120ff8484836123ea565b81604051602001612110919061394d565b60408051601f198184030181528282525f878152600360205291909120909161213a9086906134f4565b908152602001604051809103902090816121549190613588565b5060055460ff161561062c576040805180820190915260018152605b60f81b60208201525f5b83518110156107d857815f516020613b115f395f51905f525f1c6001600160a01b03166371dce7da8684815181106121b4576121b46136c0565b60200260200101516040518263ffffffff1660e01b81526004016121dc911515815260200190565b5f60405180830381865afa1580156121f6573d5f5f3e3d5ffd5b505050506040513d5f823e601f3d908101601f1916820160405261221d919081019061368f565b60405160200161222e9291906136d4565b60405160208183030381529060405291506001845161224d91906136e8565b81101561227757816040516020016122659190613707565b60405160208183030381529060405291505b60010161217a565b610b585f516020613b115f395f51905f525f1c6001600160a01b0316633408e4706040518163ffffffff1660e01b8152600401602060405180830381865afa1580156122cd573d5f5f3e3d5ffd5b505050506040513d601f19601f820116820180604052508101906122f1919061373f565b8383610632565b610b585f516020613b115f395f51905f525f1c6001600160a01b0316633408e4706040518163ffffffff1660e01b8152600401602060405180830381865afa158015612346573d5f5f3e3d5ffd5b505050506040513d601f19601f8201168201806040525081019061236a919061373f565b8383611245565b610b585f516020613b115f395f51905f525f1c6001600160a01b0316633408e4706040518163ffffffff1660e01b8152600401602060405180830381865afa1580156123bf573d5f5f3e3d5ffd5b505050506040513d601f19601f820116820180604052508101906123e3919061373f565b83836120e0565b5f8381526004602052604080822090516124059085906134f4565b908152604080519182900360200182208282019091528054829060ff16600781111561243357612433613123565b600781111561244457612444613123565b81529054610100900460ff16151560209091015290505f8151600781111561246e5761246e613123565b036124e4578160045f8681526020019081526020015f208460405161249391906134f4565b90815260405190819003602001902081518154829060ff191660018360078111156124c0576124c0613123565b02179055506020919091015181549015156101000261ff001990911617905561062c565b61062c818361276b565b6060600182600781111561250457612504613123565b03612529575050604080518082019091526004815263189bdbdb60e21b602082015290565b600282600781111561253d5761253d613123565b036125655750506040805180820190915260078152666164647265737360c81b602082015290565b600382600781111561257957612579613123565b036125a1575050604080518082019091526007815266313cba32b9999960c91b602082015290565b60048260078111156125b5576125b5613123565b036125da5750506040805180820190915260048152631d5a5b9d60e21b602082015290565b60058260078111156125ee576125ee613123565b036126125750506040805180820190915260038152621a5b9d60ea1b602082015290565b600682600781111561262657612626613123565b0361264d575050604080518082019091526006815265737472696e6760d01b602082015290565b600782600781111561266157612661613123565b03612687575050604080518082019091526005815264627974657360d81b602082015290565b50506040805180820190915260048152636e6f6e6560e01b602082015290565b5f6126b1856127a6565b90505f8185856040516020016126c993929190613986565b60408051601f19818403018152908290526351ac6a3360e01b825291505f516020613af15f395f51905f52906351ac6a339061270d9086905f9086906004016139d0565b5f604051808303815f87803b158015612724575f5ffd5b505af1158015612736573d5f5f3e3d5ffd5b50505050505050505050565b6060816040516020016127559190613a80565b6040516020818303038152906040529050919050565b6127758282612933565b610b58576127828161297a565b61278b8361297a565b60405163b02cf71d60e01b8152600401610d48929190613aa6565b60605f5b600154811015612916578261285f600183815481106127cb576127cb6136c0565b905f5260205f200180546127de906134ff565b80601f016020809104026020016040519081016040528092919081815260200182805461280a906134ff565b80156128555780601f1061282c57610100808354040283529160200191612855565b820191905f5260205f20905b81548152906001019060200180831161283857829003601f168201915b5050505050610c4e565b0361290e5760018181548110612877576128776136c0565b905f5260205f2001805461288a906134ff565b80601f01602080910402602001604051908101604052809291908181526020018280546128b6906134ff565b80156129015780601f106128d857610100808354040283529160200191612901565b820191905f5260205f20905b8154815290600101906020018083116128e457829003601f168201915b5050505050915050919050565b6001016127aa565b50604051631ff94f8360e11b815260048101839052602401610d48565b80515f90600781111561294857612948613123565b8351600781111561295b5761295b613123565b14801561297357508160200151151583602001511515145b9392505050565b60605f612989835f01516129e6565b9050826020015115806129ad57505f835160078111156129ab576129ab613123565b145b156129b85792915050565b806040516020016129c99190613ad3565b604051602081830303815290604052915050919050565b50919050565b606060018260078111156129fc576129fc613123565b03612a21575050604080518082019091526004815263189bdbdb60e21b602082015290565b6002826007811115612a3557612a35613123565b03612a5d5750506040805180820190915260078152666164647265737360c81b602082015290565b6003826007811115612a7157612a71613123565b03612a99575050604080518082019091526007815266313cba32b9999960c91b602082015290565b6004826007811115612aad57612aad613123565b03612ad55750506040805180820190915260078152663ab4b73a191a9b60c91b602082015290565b6005826007811115612ae957612ae9613123565b0361261257505060408051808201909152600681526534b73a191a9b60d11b602082015290565b634e487b7160e01b5f52604160045260245ffd5b604051608081016001600160401b0381118282101715612b4657612b46612b10565b60405290565b604051601f8201601f191681016001600160401b0381118282101715612b7457612b74612b10565b604052919050565b5f6001600160401b03821115612b9457612b94612b10565b50601f01601f191660200190565b5f82601f830112612bb1575f5ffd5b8135602083015f612bc9612bc484612b7c565b612b4c565b9050828152858383011115612bdc575f5ffd5b828260208301375f92810160200192909252509392505050565b5f5f5f60608486031215612c08575f5ffd5b8335925060208401356001600160401b03811115612c24575f5ffd5b612c3086828701612ba2565b93969395505050506040919091013590565b5f6001600160401b03821115612c5a57612c5a612b10565b5060051b60200190565b5f82601f830112612c73575f5ffd5b8135612c81612bc482612c42565b8082825260208201915060208360051b860101925085831115612ca2575f5ffd5b602085015b83811015612cbf578035835260209283019201612ca7565b5095945050505050565b5f5f5f60608486031215612cdb575f5ffd5b8335925060208401356001600160401b03811115612cf7575f5ffd5b612d0386828701612ba2565b92505060408401356001600160401b03811115612d1e575f5ffd5b612d2a86828701612c64565b9150509250925092565b602080825282518282018190525f918401906040840190835b81811015612d6b578351835260209384019390920191600101612d4d565b509095945050505050565b5f60208284031215612d86575f5ffd5b81356001600160401b03811115612d9b575f5ffd5b612da784828501612ba2565b949350505050565b5f5f60408385031215612dc0575f5ffd5b82356001600160401b03811115612dd5575f5ffd5b612de185828601612ba2565b92505060208301356001600160401b03811115612dfc575f5ffd5b612e0885828601612ba2565b9150509250929050565b5f5f60408385031215612e23575f5ffd5b82356001600160401b03811115612e38575f5ffd5b612e4485828601612ba2565b95602094909401359450505050565b5f5f60408385031215612e64575f5ffd5b8235915060208301356001600160401b03811115612dfc575f5ffd5b5f81518084528060208401602086015e5f602082860101526020601f19601f83011685010191505092915050565b602081525f6129736020830184612e80565b5f5f5f60608486031215612ed2575f5ffd5b8335925060208401356001600160401b03811115612eee575f5ffd5b612efa86828701612ba2565b92505060408401356001600160401b03811115612f15575f5ffd5b612d2a86828701612ba2565b5f82601f830112612f30575f5ffd5b8135612f3e612bc482612c42565b8082825260208201915060208360051b860101925085831115612f5f575f5ffd5b602085015b83811015612cbf5780356001600160401b03811115612f81575f5ffd5b612f90886020838a0101612ba2565b84525060209283019201612f64565b5f5f60408385031215612fb0575f5ffd5b82356001600160401b03811115612fc5575f5ffd5b612fd185828601612ba2565b92505060208301356001600160401b03811115612fec575f5ffd5b612e0885828601612f21565b80356001600160a01b0381168114610d5b575f5ffd5b5f5f5f60608486031215613020575f5ffd5b8335925060208401356001600160401b0381111561303c575f5ffd5b61304886828701612ba2565b92505061305760408501612ff8565b90509250925092565b5f82601f83011261306f575f5ffd5b813561307d612bc482612c42565b8082825260208201915060208360051b86010192508583111561309e575f5ffd5b602085015b83811015612cbf576130b481612ff8565b8352602092830192016130a3565b5f5f5f606084860312156130d4575f5ffd5b8335925060208401356001600160401b038111156130f0575f5ffd5b6130fc86828701612ba2565b92505060408401356001600160401b03811115613117575f5ffd5b612d2a86828701613060565b634e487b7160e01b5f52602160045260245ffd5b602081525f825180516008811061315057613150613123565b80602085015250602081015115156040840152506020830151606080840152612da76080840182612e80565b5f5f6040838503121561318d575f5ffd5b82356001600160401b038111156131a2575f5ffd5b6131ae85828601612ba2565b92505060208301356001600160401b038111156131c9575f5ffd5b612e0885828601612c64565b5f602082840312156131e5575f5ffd5b5035919050565b5f5f604083850312156131fd575f5ffd5b82356001600160401b03811115613212575f5ffd5b61321e85828601612ba2565b92505060208301356001600160401b03811115613239575f5ffd5b612e0885828601613060565b5f5f5f60608486031215613257575f5ffd5b8335925060208401356001600160401b03811115613273575f5ffd5b61327f86828701612ba2565b92505060408401356001600160401b0381111561329a575f5ffd5b612d2a86828701612f21565b5f5f604083850312156132b7575f5ffd5b82356001600160401b038111156132cc575f5ffd5b6132d885828601612ba2565b9250506132e760208401612ff8565b90509250929050565b80151581146132fd575f5ffd5b50565b5f5f5f60608486031215613312575f5ffd5b8335925060208401356001600160401b0381111561332e575f5ffd5b61333a86828701612ba2565b925050604084013561334b816132f0565b809150509250925092565b5f5f60408385031215613367575f5ffd5b82356001600160401b0381111561337c575f5ffd5b61338885828601612ba2565b9250506020830135613399816132f0565b809150509250929050565b5f602082840312156133b4575f5ffd5b8135612973816132f0565b5f82601f8301126133ce575f5ffd5b81356133dc612bc482612c42565b8082825260208201915060208360051b8601019250858311156133fd575f5ffd5b602085015b83811015612cbf578035613415816132f0565b835260209283019201613402565b5f5f5f60608486031215613435575f5ffd5b8335925060208401356001600160401b03811115613451575f5ffd5b61345d86828701612ba2565b92505060408401356001600160401b03811115613478575f5ffd5b612d2a868287016133bf565b5f5f60408385031215613495575f5ffd5b82356001600160401b038111156134aa575f5ffd5b6134b685828601612ba2565b92505060208301356001600160401b038111156134d1575f5ffd5b612e08858286016133bf565b5f81518060208401855e5f93019283525090919050565b5f61297382846134dd565b600181811c9082168061351357607f821691505b6020821081036129e057634e487b7160e01b5f52602260045260245ffd5b601f821115613583578282111561358357805f5260205f20601f840160051c602085101561355c57505f5b90810190601f840160051c035f5b8181101561357f575f8382015560010161356a565b5050505b505050565b81516001600160401b038111156135a1576135a1612b10565b6135b5816135af84546134ff565b84613531565b6020601f8211600181146135e7575f83156135d05750848201515b5f19600385901b1c1916600184901b17845561081e565b5f84815260208120601f198516915b8281101561361657878501518255602094850194600190920191016135f6565b508482101561363357868401515f19600387901b60f8161c191681555b50505050600190811b01905550565b5f82601f830112613651575f5ffd5b815161365f612bc482612b7c565b818152846020838601011115613673575f5ffd5b8160208501602083015e5f918101602001919091529392505050565b5f6020828403121561369f575f5ffd5b81516001600160401b038111156136b4575f5ffd5b612da784828501613642565b634e487b7160e01b5f52603260045260245ffd5b5f612da76136e283866134dd565b846134dd565b81810381811115610ad957634e487b7160e01b5f52601160045260245ffd5b5f61371282846134dd565b600b60fa1b81526001019392505050565b5f61372e82846134dd565b605d60f81b81526001019392505050565b5f6020828403121561374f575f5ffd5b5051919050565b5f60208284031215613766575f5ffd5b81516001600160401b0381111561377b575f5ffd5b82016080818503121561378c575f5ffd5b613794612b24565b81516001600160401b038111156137a9575f5ffd5b6137b586828501613642565b8252506020828101519082015260408201516001600160401b038111156137da575f5ffd5b6137e686828501613642565b60408301525060608201516001600160401b03811115613804575f5ffd5b61381086828501613642565b606083015250949350505050565b602080825282518282018190525f918401906040840190835b81811015612d6b5783516001600160a01b0316835260209384019390920191600101613837565b5f602082016020835280845180835260408501915060408160051b8601019250602086015f5b828110156138b557603f198786030184526138a0858351612e80565b94506020938401939190910190600101613884565b50929695505050505050565b5f602082016020835280845180835260408501915060408160051b8601019250602086015f5b828110156138b557603f19878603018452613903858351612e80565b945060209384019391909101906001016138e7565b602081016009831061392c5761392c613123565b91905290565b5f60208284031215613942575f5ffd5b8151612973816132f0565b602080825282518282018190525f918401906040840190835b81811015612d6b5783511515835260209384019390920191600101613966565b61121760f11b81525f61399c60028301866134dd565b601760f91b81526139b060018201866134dd565b9050601760f91b81526139c660018201856134dd565b9695505050505050565b606081525f6139e26060830186612e80565b82810360208401525f85546139f6816134ff565b808452600182168015613a105760018114613a2c57613a60565b60ff1983166020860152602082151560051b8601019350613a60565b885f5260205f205f5b83811015613a5757815460208289010152600182019150602081019050613a35565b86016020019450505b5050508381036040850152613a758186612e80565b979650505050505050565b601160f91b81525f613a9560018301846134dd565b601160f91b81526001019392505050565b604081525f613ab86040830185612e80565b8281036020840152613aca8185612e80565b95945050505050565b5f613ade82846134dd565b615b5d60f01b8152600201939250505056fe0000000000000000000000007109709ecfa91a80626ff3989d68f67f5b1dd12d885cb69240a935d632d79c317109709ecfa91a80626ff3989d68f67f5b1dd12da26469706673582212203a0135040d79a20e624f9c5eb4cdfb9f51b459fa46f23f43579e50b2d5c0793a64736f6c634300082100330000000000000000000000007109709ecfa91a80626ff3989d68f67f5b1dd12d","linkReferences":{}},"methodIdentifiers":{"exists(string)":"261a323e","exists(uint256,string)":"43d9eb7b","get(string)":"693ec85e","get(uint256,string)":"805da4ad","getChainIds()":"1d776323","getRpcUrl()":"43ec8b6a","getRpcUrl(uint256)":"7df3ef12","resolveChainId(string)":"3f3a7588","set(string,address)":"a815ff15","set(string,address[])":"88c63d45","set(string,bool)":"ba0ff22c","set(string,bool[])":"fa3c074a","set(string,bytes)":"2b29c0fa","set(string,bytes32)":"2e3196a5","set(string,bytes32[])":"e6053250","set(string,bytes[])":"c91ca7ba","set(string,int256)":"2ef8ba74","set(string,int256[])":"de0fc9b3","set(string,string)":"e942b516","set(string,string[])":"59b39526","set(string,uint256)":"8a42ebe9","set(string,uint256[])":"7b8fed81","set(uint256,string,address)":"5eba0df0","set(uint256,string,address[])":"61141c97","set(uint256,string,bool)":"b3a64001","set(uint256,string,bool[])":"e298d00b","set(uint256,string,bytes)":"4d85ce80","set(uint256,string,bytes32)":"cf1cfa99","set(uint256,string,bytes32[])":"08f7b4b2","set(uint256,string,bytes[])":"93dbe6e0","set(uint256,string,int256)":"07d79d9a","set(uint256,string,int256[])":"8be19924","set(uint256,string,string)":"65560950","set(uint256,string,string[])":"cf72a2f3","set(uint256,string,uint256)":"22dc48fd","set(uint256,string,uint256[])":"db0075df","writeUpdatesBackToFile(bool)":"d6698dc4"},"id":8}