{"abi":[{"type":"function","name":"bytesMap","inputs":[{"name":"key","type":"uint256","internalType":"uint256"}],"outputs":[{"name":"","type":"bytes","internalType":"bytes"}],"stateMutability":"view"},{"type":"function","name":"getAddressSlot","inputs":[{"name":"slot","type":"bytes32","internalType":"bytes32"}],"outputs":[{"name":"","type":"address","internalType":"address"}],"stateMutability":"view"},{"type":"function","name":"getBooleanSlot","inputs":[{"name":"slot","type":"bytes32","internalType":"bytes32"}],"outputs":[{"name":"","type":"bool","internalType":"bool"}],"stateMutability":"view"},{"type":"function","name":"getBytes32Slot","inputs":[{"name":"slot","type":"bytes32","internalType":"bytes32"}],"outputs":[{"name":"","type":"bytes32","internalType":"bytes32"}],"stateMutability":"view"},{"type":"function","name":"getBytesSlot","inputs":[{"name":"slot","type":"bytes32","internalType":"bytes32"}],"outputs":[{"name":"","type":"bytes","internalType":"bytes"}],"stateMutability":"view"},{"type":"function","name":"getBytesStorage","inputs":[{"name":"key","type":"uint256","internalType":"uint256"}],"outputs":[{"name":"","type":"bytes","internalType":"bytes"}],"stateMutability":"view"},{"type":"function","name":"getInt256Slot","inputs":[{"name":"slot","type":"bytes32","internalType":"bytes32"}],"outputs":[{"name":"","type":"int256","internalType":"int256"}],"stateMutability":"view"},{"type":"function","name":"getStringSlot","inputs":[{"name":"slot","type":"bytes32","internalType":"bytes32"}],"outputs":[{"name":"","type":"string","internalType":"string"}],"stateMutability":"view"},{"type":"function","name":"getStringStorage","inputs":[{"name":"key","type":"uint256","internalType":"uint256"}],"outputs":[{"name":"","type":"string","internalType":"string"}],"stateMutability":"view"},{"type":"function","name":"getUint256Slot","inputs":[{"name":"slot","type":"bytes32","internalType":"bytes32"}],"outputs":[{"name":"","type":"uint256","internalType":"uint256"}],"stateMutability":"view"},{"type":"function","name":"multicall","inputs":[{"name":"data","type":"bytes[]","internalType":"bytes[]"}],"outputs":[{"name":"results","type":"bytes[]","internalType":"bytes[]"}],"stateMutability":"nonpayable"},{"type":"function","name":"setAddressSlot","inputs":[{"name":"slot","type":"bytes32","internalType":"bytes32"},{"name":"value","type":"address","internalType":"address"}],"outputs":[],"stateMutability":"nonpayable"},{"type":"function","name":"setBooleanSlot","inputs":[{"name":"slot","type":"bytes32","internalType":"bytes32"},{"name":"value","type":"bool","internalType":"bool"}],"outputs":[],"stateMutability":"nonpayable"},{"type":"function","name":"setBytes32Slot","inputs":[{"name":"slot","type":"bytes32","internalType":"bytes32"},{"name":"value","type":"bytes32","internalType":"bytes32"}],"outputs":[],"stateMutability":"nonpayable"},{"type":"function","name":"setBytesSlot","inputs":[{"name":"slot","type":"bytes32","internalType":"bytes32"},{"name":"value","type":"bytes","internalType":"bytes"}],"outputs":[],"stateMutability":"nonpayable"},{"type":"function","name":"setBytesStorage","inputs":[{"name":"key","type":"uint256","internalType":"uint256"},{"name":"value","type":"bytes","internalType":"bytes"}],"outputs":[],"stateMutability":"nonpayable"},{"type":"function","name":"setInt256Slot","inputs":[{"name":"slot","type":"bytes32","internalType":"bytes32"},{"name":"value","type":"int256","internalType":"int256"}],"outputs":[],"stateMutability":"nonpayable"},{"type":"function","name":"setStringSlot","inputs":[{"name":"slot","type":"bytes32","internalType":"bytes32"},{"name":"value","type":"string","internalType":"string"}],"outputs":[],"stateMutability":"nonpayable"},{"type":"function","name":"setStringStorage","inputs":[{"name":"key","type":"uint256","internalType":"uint256"},{"name":"value","type":"string","internalType":"string"}],"outputs":[],"stateMutability":"nonpayable"},{"type":"function","name":"setUint256Slot","inputs":[{"name":"slot","type":"bytes32","internalType":"bytes32"},{"name":"value","type":"uint256","internalType":"uint256"}],"outputs":[],"stateMutability":"nonpayable"},{"type":"function","name":"stringMap","inputs":[{"name":"key","type":"uint256","internalType":"uint256"}],"outputs":[{"name":"","type":"string","internalType":"string"}],"stateMutability":"view"},{"type":"error","name":"AddressEmptyCode","inputs":[{"name":"target","type":"address","internalType":"address"}]},{"type":"error","name":"FailedCall","inputs":[]}],"bytecode":{"object":"0x6080604052348015600e575f5ffd5b50610a938061001c5f395ff3fe608060405234801561000f575f5ffd5b5060043610610132575f3560e01c806383681c5b116100b4578063ac9650d811610079578063ac9650d814610246578063b62b81ef146101cc578063b86c5dd514610266578063dd4e276214610174578063df6e58d614610291578063e8ff0b1d146102a4575f5ffd5b806383681c5b146101df578063913a2e3214610204578063949a352c146101745780639b22f34314610217578063a55a27f61461022a575f5ffd5b806347e57533116100fa57806347e57533146101cc5780634c650c86146101df5780635a46e25d146101f15780636e0e0483146101df578063767e35e014610204575f5ffd5b80630afb30ba146101365780631e133d0f1461014b57806329c027e01461017457806337f4a46d146101945780633e60bd78146101b9575b5f5ffd5b61014961014436600461068b565b6102d7565b005b61015e6101593660046106d3565b6102fb565b60405161016b9190610718565b60405180910390f35b6101866101823660046106d3565b5490565b60405190815260200161016b565b6101a96101a23660046106d3565b5460ff1690565b604051901515815260200161016b565b6101496101c736600461068b565b610392565b61015e6101da3660046106d3565b6103a8565b6101496101ed366004610731565b9055565b61015e6101ff3660046106d3565b61043a565b61014961021236600461068b565b610452565b61015e6102253660046106d3565b61045a565b610149610238366004610751565b815460ff1916901515179055565b610259610254366004610783565b61046f565b60405161016b91906107f4565b610149610274366004610857565b81546001600160a01b0319166001600160a01b0391909116179055565b61015e61029f3660046106d3565b610556565b6102bf6102b23660046106d3565b546001600160a01b031690565b6040516001600160a01b03909116815260200161016b565b5f838152600160205260409020829082905b916102f5919083610928565b50505050565b5f602081905290815260409020805461031390610899565b80601f016020809104026020016040519081016040528092919081815260200182805461033f90610899565b801561038a5780601f106103615761010080835404028352916020019161038a565b820191905f5260205f20905b81548152906001019060200180831161036d57829003601f168201915b505050505081565b5f838152602081905260409020829082906102e9565b6060815b80546103b790610899565b80601f01602080910402602001604051908101604052809291908181526020018280546103e390610899565b801561042e5780601f106104055761010080835404028352916020019161042e565b820191905f5260205f20905b81548152906001019060200180831161041157829003601f168201915b50505050509050919050565b60016020525f90815260409020805461031390610899565b8181846102e9565b5f8181526001602052604090206060906103ac565b604080515f8152602081019091526060908267ffffffffffffffff81111561049957610499610885565b6040519080825280602002602001820160405280156104cc57816020015b60608152602001906001900390816104b75790505b5091505f5b8381101561054d57610528308686848181106104ef576104ef6109e3565b905060200281019061050191906109f7565b8560405160200161051493929190610a3a565b60405160208183030381529060405261056b565b83828151811061053a5761053a6109e3565b60209081029190910101526001016104d1565b50505b92915050565b5f8181526020819052604090206060906103ac565b60605f610578848461060f565b905080801561059957505f3d118061059957505f846001600160a01b03163b115b156105ae576105a6610622565b915050610550565b80156105dc57604051639996b31560e01b81526001600160a01b038516600482015260240160405180910390fd5b3d156105ef576105ea61063b565b610608565b60405163d6bda27560e01b815260040160405180910390fd5b5092915050565b5f5f5f835160208501865af49392505050565b6040513d81523d5f602083013e3d602001810160405290565b6040513d5f823e3d81fd5b5f5f83601f840112610656575f5ffd5b50813567ffffffffffffffff81111561066d575f5ffd5b602083019150836020828501011115610684575f5ffd5b9250929050565b5f5f5f6040848603121561069d575f5ffd5b83359250602084013567ffffffffffffffff8111156106ba575f5ffd5b6106c686828701610646565b9497909650939450505050565b5f602082840312156106e3575f5ffd5b5035919050565b5f81518084528060208401602086015e5f602082860101526020601f19601f83011685010191505092915050565b602081525f61072a60208301846106ea565b9392505050565b5f5f60408385031215610742575f5ffd5b50508035926020909101359150565b5f5f60408385031215610762575f5ffd5b8235915060208301358015158114610778575f5ffd5b809150509250929050565b5f5f60208385031215610794575f5ffd5b823567ffffffffffffffff8111156107aa575f5ffd5b8301601f810185136107ba575f5ffd5b803567ffffffffffffffff8111156107d0575f5ffd5b8560208260051b84010111156107e4575f5ffd5b6020919091019590945092505050565b5f602082016020835280845180835260408501915060408160051b8601019250602086015f5b8281101561084b57603f198786030184526108368583516106ea565b9450602093840193919091019060010161081a565b50929695505050505050565b5f5f60408385031215610868575f5ffd5b8235915060208301356001600160a01b0381168114610778575f5ffd5b634e487b7160e01b5f52604160045260245ffd5b600181811c908216806108ad57607f821691505b6020821081036108cb57634e487b7160e01b5f52602260045260245ffd5b50919050565b601f821115610923578282111561092357805f5260205f20601f840160051c60208510156108fc57505f5b90810190601f840160051c035f5b8181101561091f575f8382015560010161090a565b5050505b505050565b67ffffffffffffffff83111561094057610940610885565b6109548361094e8354610899565b836108d1565b5f601f841160018114610985575f851561096e5750838201355b5f19600387901b1c1916600186901b1783556109dc565b5f83815260208120601f198716915b828110156109b45786850135825560209485019460019092019101610994565b50868210156109d0575f1960f88860031b161c19848701351681555b505060018560011b0183555b5050505050565b634e487b7160e01b5f52603260045260245ffd5b5f5f8335601e19843603018112610a0c575f5ffd5b83018035915067ffffffffffffffff821115610a26575f5ffd5b602001915036819003821315610684575f5ffd5b828482375f8382015f815283518060208601835e5f91019081529594505050505056fea2646970667358221220849c62bdc36618f535d13f08473a8d090e429d0328e2c8344449764ee13a7bf264736f6c63430008210033","linkReferences":{}},"methodIdentifiers":{"bytesMap(uint256)":"5a46e25d","getAddressSlot(bytes32)":"e8ff0b1d","getBooleanSlot(bytes32)":"37f4a46d","getBytes32Slot(bytes32)":"dd4e2762","getBytesSlot(bytes32)":"47e57533","getBytesStorage(uint256)":"9b22f343","getInt256Slot(bytes32)":"29c027e0","getStringSlot(bytes32)":"b62b81ef","getStringStorage(uint256)":"df6e58d6","getUint256Slot(bytes32)":"949a352c","multicall(bytes[])":"ac9650d8","setAddressSlot(bytes32,address)":"b86c5dd5","setBooleanSlot(bytes32,bool)":"a55a27f6","setBytes32Slot(bytes32,bytes32)":"6e0e0483","setBytesSlot(bytes32,bytes)":"767e35e0","setBytesStorage(uint256,bytes)":"0afb30ba","setInt256Slot(bytes32,int256)":"83681c5b","setStringSlot(bytes32,string)":"913a2e32","setStringStorage(uint256,string)":"3e60bd78","setUint256Slot(bytes32,uint256)":"4c650c86","stringMap(uint256)":"1e133d0f"},"id":174}