{"abi":[{"type":"constructor","inputs":[{"name":"gateway_","type":"address","internalType":"address"}],"stateMutability":"nonpayable"},{"type":"function","name":"receiveMessage","inputs":[{"name":"receiveId","type":"bytes32","internalType":"bytes32"},{"name":"sender","type":"bytes","internalType":"bytes"},{"name":"payload","type":"bytes","internalType":"bytes"}],"outputs":[{"name":"","type":"bytes4","internalType":"bytes4"}],"stateMutability":"payable"},{"type":"event","name":"MessageReceived","inputs":[{"name":"gateway","type":"address","indexed":false,"internalType":"address"},{"name":"receiveId","type":"bytes32","indexed":false,"internalType":"bytes32"},{"name":"sender","type":"bytes","indexed":false,"internalType":"bytes"},{"name":"payload","type":"bytes","indexed":false,"internalType":"bytes"},{"name":"value","type":"uint256","indexed":false,"internalType":"uint256"}],"anonymous":false},{"type":"error","name":"ERC7786RecipientUnauthorizedGateway","inputs":[{"name":"gateway","type":"address","internalType":"address"},{"name":"sender","type":"bytes","internalType":"bytes"}]}],"bytecode":{"object":"0x60a0604052348015600e575f5ffd5b5060405161032a38038061032a833981016040819052602b91603b565b6001600160a01b03166080526066565b5f60208284031215604a575f5ffd5b81516001600160a01b0381168114605f575f5ffd5b9392505050565b6080516102ad61007d5f395f605401526102ad5ff3fe60806040526004361061001d575f3560e01c80632432ef2614610021575b5f5ffd5b61003461002f36600461015a565b610051565b6040516001600160e01b0319909116815260200160405180910390f35b5f7f00000000000000000000000000000000000000000000000000000000000000006001600160a01b031633146100aa5733858560405163cddea73760e01b81526004016100a1939291906101fb565b60405180910390fd5b6100b83387878787876100ca565b50631219779360e11b95945050505050565b7f6481284e17cb5e280cd79edd7b43c0bea1c693984dee5b1d9199579884fa0d4e868686868686346040516101059796959493929190610228565b60405180910390a1505050505050565b5f5f83601f840112610125575f5ffd5b50813567ffffffffffffffff81111561013c575f5ffd5b602083019150836020828501011115610153575f5ffd5b9250929050565b5f5f5f5f5f6060868803121561016e575f5ffd5b85359450602086013567ffffffffffffffff81111561018b575f5ffd5b61019788828901610115565b909550935050604086013567ffffffffffffffff8111156101b6575f5ffd5b6101c288828901610115565b969995985093965092949392505050565b81835281816020850137505f828201602090810191909152601f909101601f19169091010190565b6001600160a01b03841681526040602082018190525f9061021f90830184866101d3565b95945050505050565b60018060a01b038816815286602082015260a060408201525f61024f60a0830187896101d3565b82810360608401526102628186886101d3565b9150508260808301529897505050505050505056fea26469706673582212207cb0e210fd1864bc8d5eb6df67abdd4ba39d2719b9243386b619d1659da631ee64736f6c63430008210033","linkReferences":{}},"methodIdentifiers":{"receiveMessage(bytes32,bytes,bytes)":"2432ef26"},"id":185}