{"abi":[{"type":"constructor","inputs":[],"stateMutability":"nonpayable"},{"type":"function","name":"CLOCK_MODE","inputs":[],"outputs":[{"name":"","type":"string","internalType":"string"}],"stateMutability":"view"},{"type":"function","name":"DOMAIN_SEPARATOR","inputs":[],"outputs":[{"name":"","type":"bytes32","internalType":"bytes32"}],"stateMutability":"view"},{"type":"function","name":"allowance","inputs":[{"name":"owner","type":"address","internalType":"address"},{"name":"spender","type":"address","internalType":"address"}],"outputs":[{"name":"","type":"uint256","internalType":"uint256"}],"stateMutability":"view"},{"type":"function","name":"approve","inputs":[{"name":"spender","type":"address","internalType":"address"},{"name":"value","type":"uint256","internalType":"uint256"}],"outputs":[{"name":"","type":"bool","internalType":"bool"}],"stateMutability":"nonpayable"},{"type":"function","name":"balanceOf","inputs":[{"name":"account","type":"address","internalType":"address"}],"outputs":[{"name":"","type":"uint256","internalType":"uint256"}],"stateMutability":"view"},{"type":"function","name":"checkpoints","inputs":[{"name":"account","type":"address","internalType":"address"},{"name":"pos","type":"uint32","internalType":"uint32"}],"outputs":[{"name":"","type":"tuple","internalType":"struct Checkpoints.Checkpoint208","components":[{"name":"_key","type":"uint48","internalType":"uint48"},{"name":"_value","type":"uint208","internalType":"uint208"}]}],"stateMutability":"view"},{"type":"function","name":"clock","inputs":[],"outputs":[{"name":"","type":"uint48","internalType":"uint48"}],"stateMutability":"view"},{"type":"function","name":"decimals","inputs":[],"outputs":[{"name":"","type":"uint8","internalType":"uint8"}],"stateMutability":"view"},{"type":"function","name":"delegate","inputs":[{"name":"delegatee","type":"address","internalType":"address"}],"outputs":[],"stateMutability":"nonpayable"},{"type":"function","name":"delegateBySig","inputs":[{"name":"delegatee","type":"address","internalType":"address"},{"name":"nonce","type":"uint256","internalType":"uint256"},{"name":"expiry","type":"uint256","internalType":"uint256"},{"name":"v","type":"uint8","internalType":"uint8"},{"name":"r","type":"bytes32","internalType":"bytes32"},{"name":"s","type":"bytes32","internalType":"bytes32"}],"outputs":[],"stateMutability":"nonpayable"},{"type":"function","name":"delegates","inputs":[{"name":"account","type":"address","internalType":"address"}],"outputs":[{"name":"","type":"address","internalType":"address"}],"stateMutability":"view"},{"type":"function","name":"eip712Domain","inputs":[],"outputs":[{"name":"fields","type":"bytes1","internalType":"bytes1"},{"name":"name","type":"string","internalType":"string"},{"name":"version","type":"string","internalType":"string"},{"name":"chainId","type":"uint256","internalType":"uint256"},{"name":"verifyingContract","type":"address","internalType":"address"},{"name":"salt","type":"bytes32","internalType":"bytes32"},{"name":"extensions","type":"uint256[]","internalType":"uint256[]"}],"stateMutability":"view"},{"type":"function","name":"getPastTotalSupply","inputs":[{"name":"timepoint","type":"uint256","internalType":"uint256"}],"outputs":[{"name":"","type":"uint256","internalType":"uint256"}],"stateMutability":"view"},{"type":"function","name":"getPastVotes","inputs":[{"name":"account","type":"address","internalType":"address"},{"name":"timepoint","type":"uint256","internalType":"uint256"}],"outputs":[{"name":"","type":"uint256","internalType":"uint256"}],"stateMutability":"view"},{"type":"function","name":"getVotes","inputs":[{"name":"account","type":"address","internalType":"address"}],"outputs":[{"name":"","type":"uint256","internalType":"uint256"}],"stateMutability":"view"},{"type":"function","name":"name","inputs":[],"outputs":[{"name":"","type":"string","internalType":"string"}],"stateMutability":"view"},{"type":"function","name":"nonces","inputs":[{"name":"owner","type":"address","internalType":"address"}],"outputs":[{"name":"","type":"uint256","internalType":"uint256"}],"stateMutability":"view"},{"type":"function","name":"numCheckpoints","inputs":[{"name":"account","type":"address","internalType":"address"}],"outputs":[{"name":"","type":"uint32","internalType":"uint32"}],"stateMutability":"view"},{"type":"function","name":"permit","inputs":[{"name":"owner","type":"address","internalType":"address"},{"name":"spender","type":"address","internalType":"address"},{"name":"value","type":"uint256","internalType":"uint256"},{"name":"deadline","type":"uint256","internalType":"uint256"},{"name":"v","type":"uint8","internalType":"uint8"},{"name":"r","type":"bytes32","internalType":"bytes32"},{"name":"s","type":"bytes32","internalType":"bytes32"}],"outputs":[],"stateMutability":"nonpayable"},{"type":"function","name":"symbol","inputs":[],"outputs":[{"name":"","type":"string","internalType":"string"}],"stateMutability":"view"},{"type":"function","name":"totalSupply","inputs":[],"outputs":[{"name":"","type":"uint256","internalType":"uint256"}],"stateMutability":"view"},{"type":"function","name":"transfer","inputs":[{"name":"to","type":"address","internalType":"address"},{"name":"value","type":"uint256","internalType":"uint256"}],"outputs":[{"name":"","type":"bool","internalType":"bool"}],"stateMutability":"nonpayable"},{"type":"function","name":"transferFrom","inputs":[{"name":"from","type":"address","internalType":"address"},{"name":"to","type":"address","internalType":"address"},{"name":"value","type":"uint256","internalType":"uint256"}],"outputs":[{"name":"","type":"bool","internalType":"bool"}],"stateMutability":"nonpayable"},{"type":"event","name":"Approval","inputs":[{"name":"owner","type":"address","indexed":true,"internalType":"address"},{"name":"spender","type":"address","indexed":true,"internalType":"address"},{"name":"value","type":"uint256","indexed":false,"internalType":"uint256"}],"anonymous":false},{"type":"event","name":"DelegateChanged","inputs":[{"name":"delegator","type":"address","indexed":true,"internalType":"address"},{"name":"fromDelegate","type":"address","indexed":true,"internalType":"address"},{"name":"toDelegate","type":"address","indexed":true,"internalType":"address"}],"anonymous":false},{"type":"event","name":"DelegateVotesChanged","inputs":[{"name":"delegate","type":"address","indexed":true,"internalType":"address"},{"name":"previousVotes","type":"uint256","indexed":false,"internalType":"uint256"},{"name":"newVotes","type":"uint256","indexed":false,"internalType":"uint256"}],"anonymous":false},{"type":"event","name":"EIP712DomainChanged","inputs":[],"anonymous":false},{"type":"event","name":"Transfer","inputs":[{"name":"from","type":"address","indexed":true,"internalType":"address"},{"name":"to","type":"address","indexed":true,"internalType":"address"},{"name":"value","type":"uint256","indexed":false,"internalType":"uint256"}],"anonymous":false},{"type":"error","name":"CheckpointUnorderedInsertion","inputs":[]},{"type":"error","name":"ECDSAInvalidSignature","inputs":[]},{"type":"error","name":"ECDSAInvalidSignatureLength","inputs":[{"name":"length","type":"uint256","internalType":"uint256"}]},{"type":"error","name":"ECDSAInvalidSignatureS","inputs":[{"name":"s","type":"bytes32","internalType":"bytes32"}]},{"type":"error","name":"ERC20ExceededSafeSupply","inputs":[{"name":"increasedSupply","type":"uint256","internalType":"uint256"},{"name":"cap","type":"uint256","internalType":"uint256"}]},{"type":"error","name":"ERC20InsufficientAllowance","inputs":[{"name":"spender","type":"address","internalType":"address"},{"name":"allowance","type":"uint256","internalType":"uint256"},{"name":"needed","type":"uint256","internalType":"uint256"}]},{"type":"error","name":"ERC20InsufficientBalance","inputs":[{"name":"sender","type":"address","internalType":"address"},{"name":"balance","type":"uint256","internalType":"uint256"},{"name":"needed","type":"uint256","internalType":"uint256"}]},{"type":"error","name":"ERC20InvalidApprover","inputs":[{"name":"approver","type":"address","internalType":"address"}]},{"type":"error","name":"ERC20InvalidReceiver","inputs":[{"name":"receiver","type":"address","internalType":"address"}]},{"type":"error","name":"ERC20InvalidSender","inputs":[{"name":"sender","type":"address","internalType":"address"}]},{"type":"error","name":"ERC20InvalidSpender","inputs":[{"name":"spender","type":"address","internalType":"address"}]},{"type":"error","name":"ERC2612ExpiredSignature","inputs":[{"name":"deadline","type":"uint256","internalType":"uint256"}]},{"type":"error","name":"ERC2612InvalidSigner","inputs":[{"name":"signer","type":"address","internalType":"address"},{"name":"owner","type":"address","internalType":"address"}]},{"type":"error","name":"ERC5805FutureLookup","inputs":[{"name":"timepoint","type":"uint256","internalType":"uint256"},{"name":"clock","type":"uint48","internalType":"uint48"}]},{"type":"error","name":"ERC6372InconsistentClock","inputs":[]},{"type":"error","name":"InvalidAccountNonce","inputs":[{"name":"account","type":"address","internalType":"address"},{"name":"currentNonce","type":"uint256","internalType":"uint256"}]},{"type":"error","name":"InvalidShortString","inputs":[]},{"type":"error","name":"SafeCastOverflowedUintDowncast","inputs":[{"name":"bits","type":"uint8","internalType":"uint8"},{"name":"value","type":"uint256","internalType":"uint256"}]},{"type":"error","name":"StringTooLong","inputs":[{"name":"str","type":"string","internalType":"string"}]},{"type":"error","name":"VotesExpiredSignature","inputs":[{"name":"expiry","type":"uint256","internalType":"uint256"}]}],"bytecode":{"object":"0x610160604052348015610010575f5ffd5b506040518060400160405280600781526020016626bcaa37b5b2b760c91b81525080604051806040016040528060018152602001603160f81b8152506040518060400160405280600781526020016626bcaa37b5b2b760c91b815250604051806040016040528060038152602001624d544b60e81b81525081600390816100979190610279565b5060046100a48282610279565b506100b49150839050600561015e565b610120526100c381600661015e565b61014052815160208084019190912060e052815190820120610100524660a05261014f60e05161010051604080517f8b73c3c69bb8fe3d512ecc4cf759cc79239f7b179b0ffacaa9a75d522b39400f60208201529081019290925260608201524660808201523060a08201525f9060c00160405160208183030381529060405280519060200120905090565b60805250503060c0525061038f565b5f6020835110156101795761017283610190565b905061018a565b816101848482610279565b5060ff90505b92915050565b5f5f829050601f815111156101c3578260405163305a27a960e01b81526004016101ba9190610337565b60405180910390fd5b80516101ce8261036c565b179392505050565b634e487b7160e01b5f52604160045260245ffd5b600181811c908216806101fe57607f821691505b60208210810361021c57634e487b7160e01b5f52602260045260245ffd5b50919050565b601f821115610274578282111561027457805f5260205f20601f840160051c602085101561024d57505f5b90810190601f840160051c035f5b81811015610270575f8382015560010161025b565b5050505b505050565b81516001600160401b03811115610292576102926101d6565b6102a6816102a084546101ea565b84610222565b6020601f8211600181146102d8575f83156102c15750848201515b5f19600385901b1c1916600184901b178455610330565b5f84815260208120601f198516915b8281101561030757878501518255602094850194600190920191016102e7565b508482101561032457868401515f19600387901b60f8161c191681555b505060018360011b0184555b5050505050565b602081525f82518060208401528060208501604085015e5f604082850101526040601f19601f83011684010191505092915050565b8051602080830151919081101561021c575f1960209190910360031b1b16919050565b60805160a05160c05160e051610100516101205161014051611c936103e05f395f610c2b01525f610bfe01525f6109f001525f6109c801525f61092301525f61094d01525f6109770152611c935ff3fe608060405234801561000f575f5ffd5b5060043610610148575f3560e01c806370a08231116100bf5780639ab24eb0116100795780639ab24eb0146102f4578063a9059cbb14610307578063c3cda5201461031a578063d505accf1461032d578063dd62ed3e14610340578063f1127ed814610378575f5ffd5b806370a08231146102645780637ecebe001461028c57806384b0196e1461029f5780638e539e8c146102ba57806391ddadf4146102cd57806395d89b41146102ec575f5ffd5b80633644e515116101105780633644e515146101c15780633a46b1a8146101c95780634bf5d7e9146101dc578063587cde1e146101e45780635c19a95c146102275780636fcfff451461023c575f5ffd5b806306fdde031461014c578063095ea7b31461016a57806318160ddd1461018d57806323b872dd1461019f578063313ce567146101b2575b5f5ffd5b6101546103b7565b60405161016191906118e4565b60405180910390f35b61017d610178366004611911565b610447565b6040519015158152602001610161565b6002545b604051908152602001610161565b61017d6101ad366004611939565b610460565b60405160128152602001610161565b610191610483565b6101916101d7366004611911565b610491565b6101546104cb565b61020f6101f2366004611973565b6001600160a01b039081165f908152600860205260409020541690565b6040516001600160a01b039091168152602001610161565b61023a610235366004611973565b610543565b005b61024f61024a366004611973565b610552565b60405163ffffffff9091168152602001610161565b610191610272366004611973565b6001600160a01b03165f9081526020819052604090205490565b61019161029a366004611973565b61055c565b6102a7610566565b604051610161979695949392919061198c565b6101916102c8366004611a22565b6105a8565b6102d56105cc565b60405165ffffffffffff9091168152602001610161565b6101546105d5565b610191610302366004611973565b6105e4565b61017d610315366004611911565b610604565b61023a610328366004611a49565b610611565b61023a61033b366004611a9d565b6106d2565b61019161034e366004611b03565b6001600160a01b039182165f90815260016020908152604080832093909416825291909152205490565b61038b610386366004611b34565b610808565b60408051825165ffffffffffff1681526020928301516001600160d01b03169281019290925201610161565b6060600380546103c690611b71565b80601f01602080910402602001604051908101604052809291908181526020018280546103f290611b71565b801561043d5780601f106104145761010080835404028352916020019161043d565b820191905f5260205f20905b81548152906001019060200180831161042057829003601f168201915b5050505050905090565b5f3361045481858561082c565b60019150505b92915050565b5f3361046d85828561083e565b6104788585856108ba565b506001949350505050565b5f61048c610917565b905090565b5f6104bb61049e83610a40565b6001600160a01b0385165f90815260096020526040902090610a8e565b6001600160d01b03169392505050565b60606104d5610b3e565b65ffffffffffff166104e56105cc565b65ffffffffffff161461050b576040516301bfc1c560e61b815260040160405180910390fd5b5060408051808201909152601d81527f6d6f64653d626c6f636b6e756d6265722666726f6d3d64656661756c74000000602082015290565b3361054e8183610b48565b5050565b5f61045a82610bb9565b5f61045a82610bda565b5f6060805f5f5f6060610577610bf7565b61057f610c24565b604080515f80825260208201909252600f60f81b9b939a50919850469750309650945092509050565b5f6105bd6105b583610a40565b600a90610a8e565b6001600160d01b031692915050565b5f61048c610b3e565b6060600480546103c690611b71565b6001600160a01b0381165f9081526009602052604081206105bd90610c51565b5f336104548185856108ba565b8342111561063a57604051632341d78760e11b8152600481018590526024015b60405180910390fd5b604080517fe48329057bfd03d55e49b547132e39cffd9c1820ad7b9d4c5307691425d15adf60208201526001600160a01b0388169181019190915260608101869052608081018590525f906106b3906106ab9060a00160405160208183030381529060405280519060200120610c88565b858585610cb4565b90506106bf8187610ce0565b6106c98188610b48565b50505050505050565b834211156106f65760405163313c898160e11b815260048101859052602401610631565b5f7f6e71edae12b1b97f4d1f60370fef10105fa2faae0126114a169c64845d6126c98888886107418c6001600160a01b03165f90815260076020526040902080546001810190915590565b6040805160208101969096526001600160a01b0394851690860152929091166060840152608083015260a082015260c0810186905260e0016040516020818303038152906040528051906020012090505f61079b82610c88565b90505f6107aa82878787610cb4565b9050896001600160a01b0316816001600160a01b0316146107f1576040516325c0072360e11b81526001600160a01b0380831660048301528b166024820152604401610631565b6107fc8a8a8a61082c565b50505050505050505050565b604080518082019091525f80825260208201526108258383610d32565b9392505050565b6108398383836001610d66565b505050565b6001600160a01b038381165f908152600160209081526040808320938616835292905220545f198110156108b457818110156108a657604051637dc7a0d960e11b81526001600160a01b03841660048201526024810182905260448101839052606401610631565b6108b484848484035f610d66565b50505050565b6001600160a01b0383166108e357604051634b637e8f60e11b81525f6004820152602401610631565b6001600160a01b03821661090c5760405163ec442f0560e01b81525f6004820152602401610631565b610839838383610e38565b5f306001600160a01b037f00000000000000000000000000000000000000000000000000000000000000001614801561096f57507f000000000000000000000000000000000000000000000000000000000000000046145b1561099957507f000000000000000000000000000000000000000000000000000000000000000090565b61048c604080517f8b73c3c69bb8fe3d512ecc4cf759cc79239f7b179b0ffacaa9a75d522b39400f60208201527f0000000000000000000000000000000000000000000000000000000000000000918101919091527f000000000000000000000000000000000000000000000000000000000000000060608201524660808201523060a08201525f9060c00160405160208183030381529060405280519060200120905090565b5f5f610a4a6105cc565b90508065ffffffffffff168310610a8557604051637669fc0f60e11b81526004810184905265ffffffffffff82166024820152604401610631565b61082583610e43565b81545f9081816005811115610aea575f610aa784610e79565b610ab19085611bbd565b5f8881526020902090915081015465ffffffffffff9081169087161015610ada57809150610ae8565b610ae5816001611bd0565b92505b505b5f610af787878585610fd1565b90508015610b3157610b1b87610b0e600184611bbd565b5f91825260209091200190565b54600160301b90046001600160d01b0316610b33565b5f5b979650505050505050565b5f61048c43610e43565b6001600160a01b038281165f8181526008602052604080822080548686166001600160a01b0319821681179092559151919094169392849290917f3134e8a2e6d97e929a7e54011ea5485d7d196dd5f0ba4d4ef95803e8e3fc257f9190a46108398183610bb486611027565b611044565b6001600160a01b0381165f9081526009602052604081205461045a906111ad565b6001600160a01b0381165f9081526007602052604081205461045a565b606061048c7f000000000000000000000000000000000000000000000000000000000000000060056111dd565b606061048c7f000000000000000000000000000000000000000000000000000000000000000060066111dd565b80545f908015610c8057610c6a83610b0e600184611bbd565b54600160301b90046001600160d01b0316610825565b5f9392505050565b5f61045a610c94610917565b8360405161190160f01b8152600281019290925260228201526042902090565b5f5f5f5f610cc488888888611286565b925092509250610cd4828261134e565b50909695505050505050565b6001600160a01b0382165f908152600760205260409020805460018101909155818114610839576040516301d4b62360e61b81526001600160a01b038416600482015260248101829052604401610631565b604080518082019091525f80825260208201526001600160a01b0383165f9081526009602052604090206108259083611406565b6001600160a01b038416610d8f5760405163e602df0560e01b81525f6004820152602401610631565b6001600160a01b038316610db857604051634a1406b160e11b81525f6004820152602401610631565b6001600160a01b038085165f90815260016020908152604080832093871683529290522082905580156108b457826001600160a01b0316846001600160a01b03167f8c5be1e5ebec7d5bd14f71427d1e84f3dd0314c0f7b2291e5b200ac8c7c3b92584604051610e2a91815260200190565b60405180910390a350505050565b610839838383611473565b5f65ffffffffffff821115610e75576040516306dfcc6560e41b81526030600482015260248101839052604401610631565b5090565b5f60018211610e86575090565b816001600160801b8210610e9f5760809190911c9060401b5b680100000000000000008210610eba5760409190911c9060201b5b6401000000008210610ed15760209190911c9060101b5b620100008210610ee65760109190911c9060081b5b6101008210610efa5760089190911c9060041b5b60108210610f0d5760049190911c9060021b5b60048210610f195760011b5b600302600190811c90818581610f3157610f31611be3565b048201901c90506001818581610f4957610f49611be3565b048201901c90506001818581610f6157610f61611be3565b048201901c90506001818581610f7957610f79611be3565b048201901c90506001818581610f9157610f91611be3565b048201901c90506001818581610fa957610fa9611be3565b048201901c9050610fc8818581610fc257610fc2611be3565b04821190565b90039392505050565b5f5b8183101561101f575f85815260209020838316600285851804019081015465ffffffffffff8681169116111561100b57809250611019565b611016816001611bd0565b93505b50610fd3565b509392505050565b6001600160a01b0381165f9081526020819052604081205461045a565b816001600160a01b0316836001600160a01b03161415801561106557505f81115b15610839576001600160a01b0383161561110c576001600160a01b0383165f90815260096020526040812081906110a7906114d96110a2866114e4565b611517565b6001600160d01b031691506001600160d01b03169150846001600160a01b03167fdec2bacdd2f05b59de34da9b523dff8be42e5e38e818c82fdb0bae774387a7248383604051611101929190918252602082015260400190565b60405180910390a250505b6001600160a01b03821615610839576001600160a01b0382165f90815260096020526040812081906111449061154f6110a2866114e4565b6001600160d01b031691506001600160d01b03169150836001600160a01b03167fdec2bacdd2f05b59de34da9b523dff8be42e5e38e818c82fdb0bae774387a724838360405161119e929190918252602082015260400190565b60405180910390a25050505050565b5f63ffffffff821115610e75576040516306dfcc6560e41b81526020600482015260248101839052604401610631565b606060ff83146111f7576111f08361155a565b905061045a565b81805461120390611b71565b80601f016020809104026020016040519081016040528092919081815260200182805461122f90611b71565b801561127a5780601f106112515761010080835404028352916020019161127a565b820191905f5260205f20905b81548152906001019060200180831161125d57829003601f168201915b5050505050905061045a565b5f80807f7fffffffffffffffffffffffffffffff5d576e7357a4501ddfe92f46681b20a08411156112bf57505f91506003905082611344565b604080515f808252602082018084528a905260ff891692820192909252606081018790526080810186905260019060a0016020604051602081039080840390855afa158015611310573d5f5f3e3d5ffd5b5050604051601f1901519150506001600160a01b03811661133b57505f925060019150829050611344565b92505f91508190505b9450945094915050565b5f82600381111561136157611361611bf7565b0361136a575050565b600182600381111561137e5761137e611bf7565b0361139c5760405163f645eedf60e01b815260040160405180910390fd5b60028260038111156113b0576113b0611bf7565b036113d15760405163fce698f760e01b815260048101829052602401610631565b60038260038111156113e5576113e5611bf7565b0361054e576040516335e2f38360e21b815260048101829052602401610631565b604080518082019091525f8082526020820152825f018263ffffffff168154811061143357611433611c0b565b5f9182526020918290206040805180820190915291015465ffffffffffff81168252600160301b90046001600160d01b0316918101919091529392505050565b61147e838383611597565b6001600160a01b0383166114ce575f61149660025490565b90506001600160d01b03808211156114cb57604051630e58ae9360e11b81526004810183905260248101829052604401610631565b50505b6108398383836116bd565b5f6108258284611c1f565b5f6001600160d01b03821115610e75576040516306dfcc6560e41b815260d0600482015260248101839052604401610631565b5f5f6115426115246105cc565b61153a61153088610c51565b868863ffffffff16565b879190611732565b915091505b935093915050565b5f6108258284611c3e565b60605f6115668361173f565b6040805160208082528183019092529192505f91906020820181803683375050509182525060208101929092525090565b6001600160a01b0383166115c1578060025f8282546115b69190611bd0565b909155506116319050565b6001600160a01b0383165f90815260208190526040902054818110156116135760405163391434e360e21b81526001600160a01b03851660048201526024810182905260448101839052606401610631565b6001600160a01b0384165f9081526020819052604090209082900390555b6001600160a01b03821661164d5760028054829003905561166b565b6001600160a01b0382165f9081526020819052604090208054820190555b816001600160a01b0316836001600160a01b03167fddf252ad1be2c89b69c2b068fc378daa952ba7f163c4a11628f55a4df523b3ef836040516116b091815260200190565b60405180910390a3505050565b6001600160a01b0383166116df576116dc600a61154f6110a2846114e4565b50505b6001600160a01b038216611701576116fe600a6114d96110a2846114e4565b50505b6001600160a01b038381165f9081526008602052604080822054858416835291205461083992918216911683611044565b5f80611542858585611766565b5f60ff8216601f81111561045a57604051632cd44ac360e21b815260040160405180910390fd5b82545f908190801561185c575f61178287610b0e600185611bbd565b805490915065ffffffffffff80821691600160301b90046001600160d01b03169088168211156117c557604051632520601d60e01b815260040160405180910390fd5b8765ffffffffffff168265ffffffffffff16036117fe57825465ffffffffffff16600160301b6001600160d01b0389160217835561184e565b6040805180820190915265ffffffffffff808a1682526001600160d01b03808a1660208085019182528d54600181018f555f8f81529190912094519151909216600160301b029216919091179101555b945085935061154792505050565b50506040805180820190915265ffffffffffff80851682526001600160d01b0380851660208085019182528854600181018a555f8a815291822095519251909316600160301b029190931617920191909155905081611547565b5f81518084528060208401602086015e5f602082860101526020601f19601f83011685010191505092915050565b602081525f61082560208301846118b6565b80356001600160a01b038116811461190c575f5ffd5b919050565b5f5f60408385031215611922575f5ffd5b61192b836118f6565b946020939093013593505050565b5f5f5f6060848603121561194b575f5ffd5b611954846118f6565b9250611962602085016118f6565b929592945050506040919091013590565b5f60208284031215611983575f5ffd5b610825826118f6565b60ff60f81b8816815260e060208201525f6119aa60e08301896118b6565b82810360408401526119bc81896118b6565b606084018890526001600160a01b038716608085015260a0840186905283810360c0850152845180825260208087019350909101905f5b81811015611a115783518352602093840193909201916001016119f3565b50909b9a5050505050505050505050565b5f60208284031215611a32575f5ffd5b5035919050565b803560ff8116811461190c575f5ffd5b5f5f5f5f5f5f60c08789031215611a5e575f5ffd5b611a67876118f6565b95506020870135945060408701359350611a8360608801611a39565b9598949750929560808101359460a0909101359350915050565b5f5f5f5f5f5f5f60e0888a031215611ab3575f5ffd5b611abc886118f6565b9650611aca602089016118f6565b95506040880135945060608801359350611ae660808901611a39565b9699959850939692959460a0840135945060c09093013592915050565b5f5f60408385031215611b14575f5ffd5b611b1d836118f6565b9150611b2b602084016118f6565b90509250929050565b5f5f60408385031215611b45575f5ffd5b611b4e836118f6565b9150602083013563ffffffff81168114611b66575f5ffd5b809150509250929050565b600181811c90821680611b8557607f821691505b602082108103611ba357634e487b7160e01b5f52602260045260245ffd5b50919050565b634e487b7160e01b5f52601160045260245ffd5b8181038181111561045a5761045a611ba9565b8082018082111561045a5761045a611ba9565b634e487b7160e01b5f52601260045260245ffd5b634e487b7160e01b5f52602160045260245ffd5b634e487b7160e01b5f52603260045260245ffd5b6001600160d01b03828116828216039081111561045a5761045a611ba9565b6001600160d01b03818116838216019081111561045a5761045a611ba956fea2646970667358221220bbcace2724c9899b4e1fba6ee87b0fc4aa24598b7eb4f906a72ec853d343d53664736f6c63430008210033","linkReferences":{}},"methodIdentifiers":{"CLOCK_MODE()":"4bf5d7e9","DOMAIN_SEPARATOR()":"3644e515","allowance(address,address)":"dd62ed3e","approve(address,uint256)":"095ea7b3","balanceOf(address)":"70a08231","checkpoints(address,uint32)":"f1127ed8","clock()":"91ddadf4","decimals()":"313ce567","delegate(address)":"5c19a95c","delegateBySig(address,uint256,uint256,uint8,bytes32,bytes32)":"c3cda520","delegates(address)":"587cde1e","eip712Domain()":"84b0196e","getPastTotalSupply(uint256)":"8e539e8c","getPastVotes(address,uint256)":"3a46b1a8","getVotes(address)":"9ab24eb0","name()":"06fdde03","nonces(address)":"7ecebe00","numCheckpoints(address)":"6fcfff45","permit(address,address,uint256,uint256,uint8,bytes32,bytes32)":"d505accf","symbol()":"95d89b41","totalSupply()":"18160ddd","transfer(address,uint256)":"a9059cbb","transferFrom(address,address,uint256)":"23b872dd"},"id":199}