{"abi":[{"type":"function","name":"father","inputs":[],"outputs":[{"name":"","type":"uint256","internalType":"uint256"}],"stateMutability":"view"},{"type":"function","name":"gramps","inputs":[],"outputs":[{"name":"","type":"string","internalType":"string"}],"stateMutability":"view"},{"type":"function","name":"initialize","inputs":[],"outputs":[],"stateMutability":"nonpayable"},{"type":"function","name":"initialize","inputs":[{"name":"_gramps","type":"string","internalType":"string"},{"name":"_father","type":"uint256","internalType":"uint256"}],"outputs":[],"stateMutability":"nonpayable"},{"type":"function","name":"initialize","inputs":[{"name":"value","type":"string","internalType":"string"}],"outputs":[],"stateMutability":"nonpayable"},{"type":"function","name":"isHuman","inputs":[],"outputs":[{"name":"","type":"bool","internalType":"bool"}],"stateMutability":"view"},{"type":"event","name":"Initialized","inputs":[{"name":"version","type":"uint64","indexed":false,"internalType":"uint64"}],"anonymous":false},{"type":"error","name":"InvalidInitialization","inputs":[]},{"type":"error","name":"NotInitializing","inputs":[]}],"bytecode":{"object":"0x6080604052348015600e575f5ffd5b506108038061001c5f395ff3fe608060405234801561000f575f5ffd5b5060043610610060575f3560e01c80631c8aca3b146100645780634a6c9db6146100805780638129fc1c1461009c5780638beaf7d7146100a6578063f62d1888146100b9578063fa39851f146100cc575b5f5ffd5b61006d60025481565b6040519081526020015b60405180910390f35b5f5461008c9060ff1681565b6040519015158152602001610077565b6100a46100e1565b005b6100a46100b43660046105b6565b6101da565b6100a46100c73660046105f8565b6102d7565b6100d46103d2565b6040516100779190610632565b5f5160206107ae5f395f51905f528054600160401b810460ff16159067ffffffffffffffff165f811580156101135750825b90505f8267ffffffffffffffff16600114801561012f5750303b155b90508115801561013d575080155b1561015b5760405163f92ee8a960e01b815260040160405180910390fd5b845467ffffffffffffffff19166001178555831561018557845460ff60401b1916600160401b1785555b61018d61045e565b83156101d357845460ff60401b19168555604051600181527fc7f505b2f371ae2175ee4913f4499e1f2633a7b5936321eed1cdaeb6115181d29060200160405180910390a15b5050505050565b5f5160206107ae5f395f51905f528054600160401b810460ff16159067ffffffffffffffff165f8115801561020c5750825b90505f8267ffffffffffffffff1660011480156102285750303b155b905081158015610236575080155b156102545760405163f92ee8a960e01b815260040160405180910390fd5b845467ffffffffffffffff19166001178555831561027e57845460ff60401b1916600160401b1785555b6102888787610470565b83156102ce57845460ff60401b19168555604051600181527fc7f505b2f371ae2175ee4913f4499e1f2633a7b5936321eed1cdaeb6115181d29060200160405180910390a15b50505050505050565b5f5160206107ae5f395f51905f528054600160401b810460ff16159067ffffffffffffffff165f811580156103095750825b90505f8267ffffffffffffffff1660011480156103255750303b155b905081158015610333575080155b156103515760405163f92ee8a960e01b815260040160405180910390fd5b845467ffffffffffffffff19166001178555831561037b57845460ff60401b1916600160401b1785555b6103848661048e565b83156103ca57845460ff60401b19168555604051600181527fc7f505b2f371ae2175ee4913f4499e1f2633a7b5936321eed1cdaeb6115181d29060200160405180910390a15b505050505050565b600180546103df90610667565b80601f016020809104026020016040519081016040528092919081815260200182805461040b90610667565b80156104565780601f1061042d57610100808354040283529160200191610456565b820191905f5260205f20905b81548152906001019060200180831161043957829003601f168201915b505050505081565b6104666104aa565b61046e6104e0565b565b6104786104aa565b6104818261048e565b61048a816104f6565b5050565b6104966104aa565b61049e61045e565b6104a781610503565b50565b5f5160206107ae5f395f51905f5254600160401b900460ff1661046e57604051631afcd79f60e31b815260040160405180910390fd5b6104e86104aa565b5f805460ff19166001179055565b6104fe6104aa565b600255565b61050b6104aa565b600161048a82826106f2565b634e487b7160e01b5f52604160045260245ffd5b5f82601f83011261053a575f5ffd5b813567ffffffffffffffff81111561055457610554610517565b604051601f8201601f19908116603f0116810167ffffffffffffffff8111828210171561058357610583610517565b60405281815283820160200185101561059a575f5ffd5b816020850160208301375f918101602001919091529392505050565b5f5f604083850312156105c7575f5ffd5b823567ffffffffffffffff8111156105dd575f5ffd5b6105e98582860161052b565b95602094909401359450505050565b5f60208284031215610608575f5ffd5b813567ffffffffffffffff81111561061e575f5ffd5b61062a8482850161052b565b949350505050565b602081525f82518060208401528060208501604085015e5f604082850101526040601f19601f83011684010191505092915050565b600181811c9082168061067b57607f821691505b60208210810361069957634e487b7160e01b5f52602260045260245ffd5b50919050565b601f8211156106ed57828211156106ed57805f5260205f20601f840160051c60208510156106ca57505f5b90810190601f840160051c035f5b818110156103ca575f838201556001016106d8565b505050565b815167ffffffffffffffff81111561070c5761070c610517565b6107208161071a8454610667565b8461069f565b6020601f821160018114610752575f831561073b5750848201515b5f19600385901b1c1916600184901b1784556101d3565b5f84815260208120601f198516915b828110156107815787850151825560209485019460019092019101610761565b508482101561079e57868401515f19600387901b60f8161c191681555b50505050600190811b0190555056fef0c57e16840df040f15088dc2f81fe391c3923bec73e23a9662efc9c229c6a00a2646970667358221220092e88b3530bc90c26dc0fbaa7df74195ffd21e865019522c6c2ecc91c211aed64736f6c63430008210033","linkReferences":{}},"methodIdentifiers":{"father()":"1c8aca3b","gramps()":"fa39851f","initialize()":"8129fc1c","initialize(string)":"f62d1888","initialize(string,uint256)":"8beaf7d7","isHuman()":"4a6c9db6"},"id":166}