{"abi":[{"type":"function","name":"child","inputs":[],"outputs":[{"name":"","type":"uint256","internalType":"uint256"}],"stateMutability":"view"},{"type":"function","name":"father","inputs":[],"outputs":[{"name":"","type":"uint256","internalType":"uint256"}],"stateMutability":"view"},{"type":"function","name":"gramps","inputs":[],"outputs":[{"name":"","type":"string","internalType":"string"}],"stateMutability":"view"},{"type":"function","name":"initialize","inputs":[{"name":"_mother","type":"uint256","internalType":"uint256"},{"name":"_gramps","type":"string","internalType":"string"},{"name":"_father","type":"uint256","internalType":"uint256"},{"name":"_child","type":"uint256","internalType":"uint256"}],"outputs":[],"stateMutability":"nonpayable"},{"type":"function","name":"initialize","inputs":[],"outputs":[],"stateMutability":"nonpayable"},{"type":"function","name":"initialize","inputs":[{"name":"_gramps","type":"string","internalType":"string"},{"name":"_father","type":"uint256","internalType":"uint256"}],"outputs":[],"stateMutability":"nonpayable"},{"type":"function","name":"initialize","inputs":[{"name":"value","type":"string","internalType":"string"}],"outputs":[],"stateMutability":"nonpayable"},{"type":"function","name":"initialize","inputs":[{"name":"value","type":"uint256","internalType":"uint256"}],"outputs":[],"stateMutability":"nonpayable"},{"type":"function","name":"isHuman","inputs":[],"outputs":[{"name":"","type":"bool","internalType":"bool"}],"stateMutability":"view"},{"type":"function","name":"mother","inputs":[],"outputs":[{"name":"","type":"uint256","internalType":"uint256"}],"stateMutability":"view"},{"type":"event","name":"Initialized","inputs":[{"name":"version","type":"uint64","indexed":false,"internalType":"uint64"}],"anonymous":false},{"type":"error","name":"InvalidInitialization","inputs":[]},{"type":"error","name":"NotInitializing","inputs":[]}],"bytecode":{"object":"0x6080604052348015600e575f5ffd5b50610aaf8061001c5f395ff3fe608060405234801561000f575f5ffd5b506004361061009b575f3560e01c80638beaf7d7116100635780638beaf7d7146100fd578063ed7dfee314610110578063f62d188814610119578063fa39851f1461012c578063fe4b84df14610141575f5ffd5b80631c8aca3b1461009f578063237b5e96146100bb5780634a6c9db6146100c45780636f2edbd2146100e05780638129fc1c146100f5575b5f5ffd5b6100a860035481565b6040519081526020015b60405180910390f35b6100a860045481565b5f546100d09060ff1681565b60405190151581526020016100b2565b6100f36100ee3660046107dc565b610154565b005b6100f3610240565b6100f361010b36600461082e565b610324565b6100a860015481565b6100f361012736600461086f565b61040c565b6101346104f2565b6040516100b291906108a8565b6100f361014f3660046108dd565b61057e565b5f516020610a5a5f395f51905f528054600160401b810460ff1615906001600160401b03165f811580156101855750825b90505f826001600160401b031660011480156101a05750303b155b9050811580156101ae575080155b156101cc5760405163f92ee8a960e01b815260040160405180910390fd5b845467ffffffffffffffff1916600117855583156101f657845460ff60401b1916600160401b1785555b61020289898989610629565b831561023557845460ff60401b19168555604051600181525f516020610a3a5f395f51905f529060200160405180910390a15b505050505050505050565b5f516020610a5a5f395f51905f528054600160401b810460ff1615906001600160401b03165f811580156102715750825b90505f826001600160401b0316600114801561028c5750303b155b90508115801561029a575080155b156102b85760405163f92ee8a960e01b815260040160405180910390fd5b845467ffffffffffffffff1916600117855583156102e257845460ff60401b1916600160401b1785555b6102ea610653565b831561031d57845460ff60401b19168555604051600181525f516020610a3a5f395f51905f529060200160405180910390a15b5050505050565b5f516020610a5a5f395f51905f528054600160401b810460ff1615906001600160401b03165f811580156103555750825b90505f826001600160401b031660011480156103705750303b155b90508115801561037e575080155b1561039c5760405163f92ee8a960e01b815260040160405180910390fd5b845467ffffffffffffffff1916600117855583156103c657845460ff60401b1916600160401b1785555b6103d08787610665565b831561040357845460ff60401b19168555604051600181525f516020610a3a5f395f51905f529060200160405180910390a15b50505050505050565b5f516020610a5a5f395f51905f528054600160401b810460ff1615906001600160401b03165f8115801561043d5750825b90505f826001600160401b031660011480156104585750303b155b905081158015610466575080155b156104845760405163f92ee8a960e01b815260040160405180910390fd5b845467ffffffffffffffff1916600117855583156104ae57845460ff60401b1916600160401b1785555b6104b786610683565b83156104ea57845460ff60401b19168555604051600181525f516020610a3a5f395f51905f529060200160405180910390a15b505050505050565b600280546104ff906108f4565b80601f016020809104026020016040519081016040528092919081815260200182805461052b906108f4565b80156105765780601f1061054d57610100808354040283529160200191610576565b820191905f5260205f20905b81548152906001019060200180831161055957829003601f168201915b505050505081565b5f516020610a5a5f395f51905f528054600160401b810460ff1615906001600160401b03165f811580156105af5750825b90505f826001600160401b031660011480156105ca5750303b155b9050811580156105d8575080155b156105f65760405163f92ee8a960e01b815260040160405180910390fd5b845467ffffffffffffffff19166001178555831561062057845460ff60401b1916600160401b1785555b6104b78661069f565b6106316106b8565b61063a8461069f565b6106448383610665565b61064d816106ee565b50505050565b61065b6106b8565b6106636106fb565b565b61066d6106b8565b61067682610683565b61067f81610711565b5050565b61068b6106b8565b610693610653565b61069c8161071e565b50565b6106a76106b8565b6106af610653565b61069c81610732565b5f516020610a5a5f395f51905f5254600160401b900460ff1661066357604051631afcd79f60e31b815260040160405180910390fd5b6106f66106b8565b600455565b6107036106b8565b5f805460ff19166001179055565b6107196106b8565b600355565b6107266106b8565b600261067f828261097f565b61073a6106b8565b600155565b634e487b7160e01b5f52604160045260245ffd5b5f82601f830112610762575f5ffd5b81356001600160401b0381111561077b5761077b61073f565b604051601f8201601f19908116603f011681016001600160401b03811182821017156107a9576107a961073f565b6040528181528382016020018510156107c0575f5ffd5b816020850160208301375f918101602001919091529392505050565b5f5f5f5f608085870312156107ef575f5ffd5b8435935060208501356001600160401b0381111561080b575f5ffd5b61081787828801610753565b949794965050505060408301359260600135919050565b5f5f6040838503121561083f575f5ffd5b82356001600160401b03811115610854575f5ffd5b61086085828601610753565b95602094909401359450505050565b5f6020828403121561087f575f5ffd5b81356001600160401b03811115610894575f5ffd5b6108a084828501610753565b949350505050565b602081525f82518060208401528060208501604085015e5f604082850101526040601f19601f83011684010191505092915050565b5f602082840312156108ed575f5ffd5b5035919050565b600181811c9082168061090857607f821691505b60208210810361092657634e487b7160e01b5f52602260045260245ffd5b50919050565b601f82111561097a578282111561097a57805f5260205f20601f840160051c602085101561095757505f5b90810190601f840160051c035f5b818110156104ea575f83820155600101610965565b505050565b81516001600160401b038111156109985761099861073f565b6109ac816109a684546108f4565b8461092c565b6020601f8211600181146109de575f83156109c75750848201515b5f19600385901b1c1916600184901b17845561031d565b5f84815260208120601f198516915b82811015610a0d57878501518255602094850194600190920191016109ed565b5084821015610a2a57868401515f19600387901b60f8161c191681555b50505050600190811b0190555056fec7f505b2f371ae2175ee4913f4499e1f2633a7b5936321eed1cdaeb6115181d2f0c57e16840df040f15088dc2f81fe391c3923bec73e23a9662efc9c229c6a00a2646970667358221220af8f521c2d7f5ded7fc7969f2c64fbd97c8dad1570109f9d44a5d893c1cd09b064736f6c63430008210033","linkReferences":{}},"methodIdentifiers":{"child()":"237b5e96","father()":"1c8aca3b","gramps()":"fa39851f","initialize()":"8129fc1c","initialize(string)":"f62d1888","initialize(string,uint256)":"8beaf7d7","initialize(uint256)":"fe4b84df","initialize(uint256,string,uint256,uint256)":"6f2edbd2","isHuman()":"4a6c9db6","mother()":"ed7dfee3"},"id":166}