{"abi":[{"type":"constructor","inputs":[{"name":"enableReturn","type":"bool","internalType":"bool"},{"name":"enableApprove","type":"bool","internalType":"bool"}],"stateMutability":"nonpayable"},{"type":"function","name":"onFlashLoan","inputs":[{"name":"","type":"address","internalType":"address"},{"name":"token","type":"address","internalType":"address"},{"name":"amount","type":"uint256","internalType":"uint256"},{"name":"fee","type":"uint256","internalType":"uint256"},{"name":"data","type":"bytes","internalType":"bytes"}],"outputs":[{"name":"","type":"bytes32","internalType":"bytes32"}],"stateMutability":"nonpayable"},{"type":"event","name":"BalanceOf","inputs":[{"name":"token","type":"address","indexed":false,"internalType":"address"},{"name":"account","type":"address","indexed":false,"internalType":"address"},{"name":"value","type":"uint256","indexed":false,"internalType":"uint256"}],"anonymous":false},{"type":"event","name":"TotalSupply","inputs":[{"name":"token","type":"address","indexed":false,"internalType":"address"},{"name":"value","type":"uint256","indexed":false,"internalType":"uint256"}],"anonymous":false},{"type":"error","name":"AddressEmptyCode","inputs":[{"name":"target","type":"address","internalType":"address"}]},{"type":"error","name":"FailedCall","inputs":[]},{"type":"error","name":"InsufficientBalance","inputs":[{"name":"balance","type":"uint256","internalType":"uint256"},{"name":"needed","type":"uint256","internalType":"uint256"}]}],"bytecode":{"object":"0x60c0604052348015600e575f5ffd5b5060405161060f38038061060f833981016040819052602b91604c565b1515608052151560a0526078565b805180151581146047575f5ffd5b919050565b5f5f60408385031215605c575f5ffd5b6063836039565b9150606f602084016039565b90509250929050565b60805160a0516105766100995f395f6102b801525f61020a01526105765ff3fe608060405234801561000f575f5ffd5b5060043610610029575f3560e01c806323e30c8b1461002d575b5f5ffd5b61004061003b36600461044a565b610052565b60405190815260200160405180910390f35b5f336001600160a01b03871614610067575f5ffd5b6040516370a0823160e01b815230600482018190527f6ff2acfcb07917b1e80e53f0fe390b467b1151d15b38730a6e08397799c05a8b918891906001600160a01b038316906370a0823190602401602060405180830381865afa1580156100d0573d5f5f3e3d5ffd5b505050506040513d601f19601f820116820180604052508101906100f491906104eb565b604080516001600160a01b0394851681529390921660208401529082015260600160405180910390a17f7249fd4c03cce09b30a13d77804b198e2647c0ccd59eadf4de4e7c16099badc586876001600160a01b03166318160ddd6040518163ffffffff1660e01b8152600401602060405180830381865afa15801561017b573d5f5f3e3d5ffd5b505050506040513d601f19601f8201168201806040525081019061019f91906104eb565b604080516001600160a01b03909316835260208301919091520160405180910390a18115610208576102068684848080601f0160208091040260200160405190810160405280939291908181526020018383808284375f9201919091525061030e92505050565b505b7f0000000000000000000000000000000000000000000000000000000000000000156102b6576001600160a01b03861663095ea7b3876102488789610502565b6040516001600160e01b031960e085901b1681526001600160a01b03909216600483015260248201526044016020604051808303815f875af1158015610290573d5f5f3e3d5ffd5b505050506040513d601f19601f820116820180604052508101906102b49190610521565b505b7f00000000000000000000000000000000000000000000000000000000000000006102e1575f610303565b7f439148f0bbc682ca079e46d6e2c2f0c1e3b820f1a291b069d8882abf8cf18dd95b979650505050505050565b606061031b83835f610324565b90505b92915050565b6060814710156103555760405163cf47918160e01b8152476004820152602481018390526044015b60405180910390fd5b5f6103618584866103f6565b905080801561038257505f3d118061038257505f856001600160a01b03163b115b156103975761038f61040b565b9150506103ef565b80156103c157604051639996b31560e01b81526001600160a01b038616600482015260240161034c565b3d156103d4576103cf610424565b6103ed565b60405163d6bda27560e01b815260040160405180910390fd5b505b9392505050565b5f5f5f83516020850186885af1949350505050565b6040513d81523d5f602083013e3d602001810160405290565b6040513d5f823e3d81fd5b80356001600160a01b0381168114610445575f5ffd5b919050565b5f5f5f5f5f5f60a0878903121561045f575f5ffd5b6104688761042f565b95506104766020880161042f565b94506040870135935060608701359250608087013567ffffffffffffffff81111561049f575f5ffd5b8701601f810189136104af575f5ffd5b803567ffffffffffffffff8111156104c5575f5ffd5b8960208284010111156104d6575f5ffd5b60208201935080925050509295509295509295565b5f602082840312156104fb575f5ffd5b5051919050565b8082018082111561031e57634e487b7160e01b5f52601160045260245ffd5b5f60208284031215610531575f5ffd5b815180151581146103ef575f5ffdfea2646970667358221220eb872e7ef22fe46034c767bbfd3bb9767abda799d4e2db122ca301250f8323fa64736f6c63430008210033","linkReferences":{}},"methodIdentifiers":{"onFlashLoan(address,address,uint256,uint256,bytes)":"23e30c8b"},"id":160}