{"abi":[{"type":"function","name":"initialize","inputs":[{"name":"value","type":"uint256","internalType":"uint256"}],"outputs":[],"stateMutability":"payable"},{"type":"function","name":"migrate","inputs":[{"name":"value","type":"uint256","internalType":"uint256"},{"name":"anotherValue","type":"uint256","internalType":"uint256"}],"outputs":[],"stateMutability":"payable"},{"type":"function","name":"x","inputs":[],"outputs":[{"name":"","type":"uint256","internalType":"uint256"}],"stateMutability":"view"},{"type":"function","name":"y","inputs":[],"outputs":[{"name":"","type":"uint256","internalType":"uint256"}],"stateMutability":"view"},{"type":"event","name":"Initialized","inputs":[{"name":"version","type":"uint64","indexed":false,"internalType":"uint64"}],"anonymous":false},{"type":"error","name":"InvalidInitialization","inputs":[]},{"type":"error","name":"NotInitializing","inputs":[]}],"bytecode":{"object":"0x6080604052348015600e575f5ffd5b506102408061001c5f395ff3fe60806040526004361061003e575f3560e01c80630c55699c146100425780633e54bacb14610068578063a56dfe4a1461007d578063fe4b84df14610092575b5f5ffd5b34801561004d575f5ffd5b506100565f5481565b60405190815260200160405180910390f35b61007b6100763660046101d3565b6100a5565b005b348015610088575f5ffd5b5061005660025481565b61007b6100a03660046101f3565b6100ca565b60015460ff16156100b4575f5ffd5b5f919091556002556001805460ff191681179055565b7ff0c57e16840df040f15088dc2f81fe391c3923bec73e23a9662efc9c229c6a008054600160401b810460ff16159067ffffffffffffffff165f8115801561010f5750825b90505f8267ffffffffffffffff16600114801561012b5750303b155b905081158015610139575080155b156101575760405163f92ee8a960e01b815260040160405180910390fd5b845467ffffffffffffffff19166001178555831561018157845460ff60401b1916600160401b1785555b5f86905583156101cb57845460ff60401b19168555604051600181527fc7f505b2f371ae2175ee4913f4499e1f2633a7b5936321eed1cdaeb6115181d29060200160405180910390a15b505050505050565b5f5f604083850312156101e4575f5ffd5b50508035926020909101359150565b5f60208284031215610203575f5ffd5b503591905056fea2646970667358221220c3a1a8618ae7fe646b882b2aeb0d207bc8e7d9a9c0bbe4369881ee58e438969864736f6c63430008210033","linkReferences":{}},"methodIdentifiers":{"initialize(uint256)":"fe4b84df","migrate(uint256,uint256)":"3e54bacb","x()":"0c55699c","y()":"a56dfe4a"},"id":172}