{"abi":[{"type":"function","name":"decimals","inputs":[],"outputs":[{"name":"","type":"uint256","internalType":"uint256"}],"stateMutability":"pure"}],"bytecode":{"object":"0x6080604052348015600e575f5ffd5b50607480601a5f395ff3fe6080604052348015600e575f5ffd5b50600436106026575f3560e01c8063313ce56714602a575b5f5ffd5b5f1960405190815260200160405180910390f3fea2646970667358221220a9cf47171d22ba1a3f9d2382c00a7c63aa641d19bc1ab5c1e381d3c1dd96a0bd64736f6c63430008210033","linkReferences":{}},"methodIdentifiers":{"decimals()":"313ce567"},"id":237}