{"abi":[{"type":"constructor","inputs":[{"name":"minter","type":"address","internalType":"address"}],"stateMutability":"nonpayable"},{"type":"function","name":"DEFAULT_ADMIN_ROLE","inputs":[],"outputs":[{"name":"","type":"bytes32","internalType":"bytes32"}],"stateMutability":"view"},{"type":"function","name":"MINTER_ROLE","inputs":[],"outputs":[{"name":"","type":"bytes32","internalType":"bytes32"}],"stateMutability":"view"},{"type":"function","name":"allowance","inputs":[{"name":"owner","type":"address","internalType":"address"},{"name":"spender","type":"address","internalType":"address"}],"outputs":[{"name":"","type":"uint256","internalType":"uint256"}],"stateMutability":"view"},{"type":"function","name":"approve","inputs":[{"name":"spender","type":"address","internalType":"address"},{"name":"value","type":"uint256","internalType":"uint256"}],"outputs":[{"name":"","type":"bool","internalType":"bool"}],"stateMutability":"nonpayable"},{"type":"function","name":"balanceOf","inputs":[{"name":"account","type":"address","internalType":"address"}],"outputs":[{"name":"","type":"uint256","internalType":"uint256"}],"stateMutability":"view"},{"type":"function","name":"decimals","inputs":[],"outputs":[{"name":"","type":"uint8","internalType":"uint8"}],"stateMutability":"view"},{"type":"function","name":"getRoleAdmin","inputs":[{"name":"role","type":"bytes32","internalType":"bytes32"}],"outputs":[{"name":"","type":"bytes32","internalType":"bytes32"}],"stateMutability":"view"},{"type":"function","name":"grantRole","inputs":[{"name":"role","type":"bytes32","internalType":"bytes32"},{"name":"account","type":"address","internalType":"address"}],"outputs":[],"stateMutability":"nonpayable"},{"type":"function","name":"hasRole","inputs":[{"name":"role","type":"bytes32","internalType":"bytes32"},{"name":"account","type":"address","internalType":"address"}],"outputs":[{"name":"","type":"bool","internalType":"bool"}],"stateMutability":"view"},{"type":"function","name":"mint","inputs":[{"name":"to","type":"address","internalType":"address"},{"name":"amount","type":"uint256","internalType":"uint256"}],"outputs":[],"stateMutability":"nonpayable"},{"type":"function","name":"name","inputs":[],"outputs":[{"name":"","type":"string","internalType":"string"}],"stateMutability":"view"},{"type":"function","name":"renounceRole","inputs":[{"name":"role","type":"bytes32","internalType":"bytes32"},{"name":"callerConfirmation","type":"address","internalType":"address"}],"outputs":[],"stateMutability":"nonpayable"},{"type":"function","name":"revokeRole","inputs":[{"name":"role","type":"bytes32","internalType":"bytes32"},{"name":"account","type":"address","internalType":"address"}],"outputs":[],"stateMutability":"nonpayable"},{"type":"function","name":"supportsInterface","inputs":[{"name":"interfaceId","type":"bytes4","internalType":"bytes4"}],"outputs":[{"name":"","type":"bool","internalType":"bool"}],"stateMutability":"view"},{"type":"function","name":"symbol","inputs":[],"outputs":[{"name":"","type":"string","internalType":"string"}],"stateMutability":"view"},{"type":"function","name":"totalSupply","inputs":[],"outputs":[{"name":"","type":"uint256","internalType":"uint256"}],"stateMutability":"view"},{"type":"function","name":"transfer","inputs":[{"name":"to","type":"address","internalType":"address"},{"name":"value","type":"uint256","internalType":"uint256"}],"outputs":[{"name":"","type":"bool","internalType":"bool"}],"stateMutability":"nonpayable"},{"type":"function","name":"transferFrom","inputs":[{"name":"from","type":"address","internalType":"address"},{"name":"to","type":"address","internalType":"address"},{"name":"value","type":"uint256","internalType":"uint256"}],"outputs":[{"name":"","type":"bool","internalType":"bool"}],"stateMutability":"nonpayable"},{"type":"event","name":"Approval","inputs":[{"name":"owner","type":"address","indexed":true,"internalType":"address"},{"name":"spender","type":"address","indexed":true,"internalType":"address"},{"name":"value","type":"uint256","indexed":false,"internalType":"uint256"}],"anonymous":false},{"type":"event","name":"RoleAdminChanged","inputs":[{"name":"role","type":"bytes32","indexed":true,"internalType":"bytes32"},{"name":"previousAdminRole","type":"bytes32","indexed":true,"internalType":"bytes32"},{"name":"newAdminRole","type":"bytes32","indexed":true,"internalType":"bytes32"}],"anonymous":false},{"type":"event","name":"RoleGranted","inputs":[{"name":"role","type":"bytes32","indexed":true,"internalType":"bytes32"},{"name":"account","type":"address","indexed":true,"internalType":"address"},{"name":"sender","type":"address","indexed":true,"internalType":"address"}],"anonymous":false},{"type":"event","name":"RoleRevoked","inputs":[{"name":"role","type":"bytes32","indexed":true,"internalType":"bytes32"},{"name":"account","type":"address","indexed":true,"internalType":"address"},{"name":"sender","type":"address","indexed":true,"internalType":"address"}],"anonymous":false},{"type":"event","name":"Transfer","inputs":[{"name":"from","type":"address","indexed":true,"internalType":"address"},{"name":"to","type":"address","indexed":true,"internalType":"address"},{"name":"value","type":"uint256","indexed":false,"internalType":"uint256"}],"anonymous":false},{"type":"error","name":"AccessControlBadConfirmation","inputs":[]},{"type":"error","name":"AccessControlUnauthorizedAccount","inputs":[{"name":"account","type":"address","internalType":"address"},{"name":"neededRole","type":"bytes32","internalType":"bytes32"}]},{"type":"error","name":"CallerNotMinter","inputs":[{"name":"caller","type":"address","internalType":"address"}]},{"type":"error","name":"ERC20InsufficientAllowance","inputs":[{"name":"spender","type":"address","internalType":"address"},{"name":"allowance","type":"uint256","internalType":"uint256"},{"name":"needed","type":"uint256","internalType":"uint256"}]},{"type":"error","name":"ERC20InsufficientBalance","inputs":[{"name":"sender","type":"address","internalType":"address"},{"name":"balance","type":"uint256","internalType":"uint256"},{"name":"needed","type":"uint256","internalType":"uint256"}]},{"type":"error","name":"ERC20InvalidApprover","inputs":[{"name":"approver","type":"address","internalType":"address"}]},{"type":"error","name":"ERC20InvalidReceiver","inputs":[{"name":"receiver","type":"address","internalType":"address"}]},{"type":"error","name":"ERC20InvalidSender","inputs":[{"name":"sender","type":"address","internalType":"address"}]},{"type":"error","name":"ERC20InvalidSpender","inputs":[{"name":"spender","type":"address","internalType":"address"}]}],"bytecode":{"object":"0x608060405234801561000f575f5ffd5b50604051610e32380380610e3283398101604081905261002e9161016d565b6040518060400160405280600781526020016626bcaa37b5b2b760c91b815250604051806040016040528060038152602001622a25a760e91b8152508160039081610079919061023d565b506004610086828261023d565b5050506100b97f9f2df0fed2c77648de5860a4cc508cd0818c85b8b8a1ab4ceeef8d981c8956a6826100c060201b60201c565b50506102fb565b5f8281526005602090815260408083206001600160a01b038516845290915281205460ff16610164575f8381526005602090815260408083206001600160a01b03861684529091529020805460ff1916600117905561011c3390565b6001600160a01b0316826001600160a01b0316847f2f8788117e7eff1d82e926ec794901d17c78024a50270940304540a733656f0d60405160405180910390a4506001610167565b505f5b92915050565b5f6020828403121561017d575f5ffd5b81516001600160a01b0381168114610193575f5ffd5b9392505050565b634e487b7160e01b5f52604160045260245ffd5b600181811c908216806101c257607f821691505b6020821081036101e057634e487b7160e01b5f52602260045260245ffd5b50919050565b601f821115610238578282111561023857805f5260205f20601f840160051c602085101561021157505f5b90810190601f840160051c035f5b81811015610234575f8382015560010161021f565b5050505b505050565b81516001600160401b038111156102565761025661019a565b61026a8161026484546101ae565b846101e6565b6020601f82116001811461029c575f83156102855750848201515b5f19600385901b1c1916600184901b1784556102f4565b5f84815260208120601f198516915b828110156102cb57878501518255602094850194600190920191016102ab565b50848210156102e857868401515f19600387901b60f8161c191681555b505060018360011b0184555b5050505050565b610b2a806103085f395ff3fe608060405234801561000f575f5ffd5b5060043610610111575f3560e01c806340c10f191161009e578063a217fddf1161006e578063a217fddf14610239578063a9059cbb14610240578063d539139314610253578063d547741f1461027a578063dd62ed3e1461028d575f5ffd5b806340c10f19146101e357806370a08231146101f657806391d148541461021e57806395d89b4114610231575f5ffd5b806323b872dd116100e457806323b872dd14610177578063248a9ca31461018a5780632f2ff15d146101ac578063313ce567146101c157806336568abe146101d0575f5ffd5b806301ffc9a71461011557806306fdde031461013d578063095ea7b31461015257806318160ddd14610165575b5f5ffd5b61012861012336600461093b565b6102c5565b60405190151581526020015b60405180910390f35b6101456102fb565b6040516101349190610969565b6101286101603660046109b9565b61038b565b6002545b604051908152602001610134565b6101286101853660046109e1565b6103a2565b610169610198366004610a1b565b5f9081526005602052604090206001015490565b6101bf6101ba366004610a32565b6103c5565b005b60405160128152602001610134565b6101bf6101de366004610a32565b6103ef565b6101bf6101f13660046109b9565b610427565b610169610204366004610a5c565b6001600160a01b03165f9081526020819052604090205490565b61012861022c366004610a32565b610483565b6101456104ad565b6101695f81565b61012861024e3660046109b9565b6104bc565b6101697f9f2df0fed2c77648de5860a4cc508cd0818c85b8b8a1ab4ceeef8d981c8956a681565b6101bf610288366004610a32565b6104c9565b61016961029b366004610a75565b6001600160a01b039182165f90815260016020908152604080832093909416825291909152205490565b5f6001600160e01b03198216637965db0b60e01b14806102f557506301ffc9a760e01b6001600160e01b03198316145b92915050565b60606003805461030a90610a9d565b80601f016020809104026020016040519081016040528092919081815260200182805461033690610a9d565b80156103815780601f1061035857610100808354040283529160200191610381565b820191905f5260205f20905b81548152906001019060200180831161036457829003601f168201915b5050505050905090565b5f336103988185856104ed565b5060019392505050565b5f336103af8582856104fa565b6103ba858585610570565b506001949350505050565b5f828152600560205260409020600101546103df816105cd565b6103e983836105da565b50505050565b6001600160a01b03811633146104185760405163334bd91960e11b815260040160405180910390fd5b610422828261066b565b505050565b6104517f9f2df0fed2c77648de5860a4cc508cd0818c85b8b8a1ab4ceeef8d981c8956a633610483565b61047557604051632fdab94f60e11b81523360048201526024015b60405180910390fd5b61047f82826106d6565b5050565b5f9182526005602090815260408084206001600160a01b0393909316845291905290205460ff1690565b60606004805461030a90610a9d565b5f33610398818585610570565b5f828152600560205260409020600101546104e3816105cd565b6103e9838361066b565b610422838383600161070a565b6001600160a01b038381165f908152600160209081526040808320938616835292905220545f198110156103e9578181101561056257604051637dc7a0d960e11b81526001600160a01b0384166004820152602481018290526044810183905260640161046c565b6103e984848484035f61070a565b6001600160a01b03831661059957604051634b637e8f60e11b81525f600482015260240161046c565b6001600160a01b0382166105c25760405163ec442f0560e01b81525f600482015260240161046c565b6104228383836107dc565b6105d78133610902565b50565b5f6105e58383610483565b610664575f8381526005602090815260408083206001600160a01b03861684529091529020805460ff1916600117905561061c3390565b6001600160a01b0316826001600160a01b0316847f2f8788117e7eff1d82e926ec794901d17c78024a50270940304540a733656f0d60405160405180910390a45060016102f5565b505f6102f5565b5f6106768383610483565b15610664575f8381526005602090815260408083206001600160a01b0386168085529252808320805460ff1916905551339286917ff6391f5c32d9c69d2a47ea670b442974b53935d1edc7fd64eb21e047a839171b9190a45060016102f5565b6001600160a01b0382166106ff5760405163ec442f0560e01b81525f600482015260240161046c565b61047f5f83836107dc565b6001600160a01b0384166107335760405163e602df0560e01b81525f600482015260240161046c565b6001600160a01b03831661075c57604051634a1406b160e11b81525f600482015260240161046c565b6001600160a01b038085165f90815260016020908152604080832093871683529290522082905580156103e957826001600160a01b0316846001600160a01b03167f8c5be1e5ebec7d5bd14f71427d1e84f3dd0314c0f7b2291e5b200ac8c7c3b925846040516107ce91815260200190565b60405180910390a350505050565b6001600160a01b038316610806578060025f8282546107fb9190610ad5565b909155506108769050565b6001600160a01b0383165f90815260208190526040902054818110156108585760405163391434e360e21b81526001600160a01b0385166004820152602481018290526044810183905260640161046c565b6001600160a01b0384165f9081526020819052604090209082900390555b6001600160a01b038216610892576002805482900390556108b0565b6001600160a01b0382165f9081526020819052604090208054820190555b816001600160a01b0316836001600160a01b03167fddf252ad1be2c89b69c2b068fc378daa952ba7f163c4a11628f55a4df523b3ef836040516108f591815260200190565b60405180910390a3505050565b61090c8282610483565b61047f5760405163e2517d3f60e01b81526001600160a01b03821660048201526024810183905260440161046c565b5f6020828403121561094b575f5ffd5b81356001600160e01b031981168114610962575f5ffd5b9392505050565b602081525f82518060208401528060208501604085015e5f604082850101526040601f19601f83011684010191505092915050565b80356001600160a01b03811681146109b4575f5ffd5b919050565b5f5f604083850312156109ca575f5ffd5b6109d38361099e565b946020939093013593505050565b5f5f5f606084860312156109f3575f5ffd5b6109fc8461099e565b9250610a0a6020850161099e565b929592945050506040919091013590565b5f60208284031215610a2b575f5ffd5b5035919050565b5f5f60408385031215610a43575f5ffd5b82359150610a536020840161099e565b90509250929050565b5f60208284031215610a6c575f5ffd5b6109628261099e565b5f5f60408385031215610a86575f5ffd5b610a8f8361099e565b9150610a536020840161099e565b600181811c90821680610ab157607f821691505b602082108103610acf57634e487b7160e01b5f52602260045260245ffd5b50919050565b808201808211156102f557634e487b7160e01b5f52601160045260245ffdfea26469706673582212202c209cad8ca0a3faaa091ac066d366074304562e7030177bff3dadb3cacc83ab64736f6c63430008210033","linkReferences":{}},"methodIdentifiers":{"DEFAULT_ADMIN_ROLE()":"a217fddf","MINTER_ROLE()":"d5391393","allowance(address,address)":"dd62ed3e","approve(address,uint256)":"095ea7b3","balanceOf(address)":"70a08231","decimals()":"313ce567","getRoleAdmin(bytes32)":"248a9ca3","grantRole(bytes32,address)":"2f2ff15d","hasRole(bytes32,address)":"91d14854","mint(address,uint256)":"40c10f19","name()":"06fdde03","renounceRole(bytes32,address)":"36568abe","revokeRole(bytes32,address)":"d547741f","supportsInterface(bytes4)":"01ffc9a7","symbol()":"95d89b41","totalSupply()":"18160ddd","transfer(address,uint256)":"a9059cbb","transferFrom(address,address,uint256)":"23b872dd"},"id":190}