{"abi":[{"type":"constructor","inputs":[{"name":"name","type":"string","internalType":"string"}],"stateMutability":"nonpayable"},{"type":"function","name":"eip712Domain","inputs":[],"outputs":[{"name":"fields","type":"bytes1","internalType":"bytes1"},{"name":"name","type":"string","internalType":"string"},{"name":"version","type":"string","internalType":"string"},{"name":"chainId","type":"uint256","internalType":"uint256"},{"name":"verifyingContract","type":"address","internalType":"address"},{"name":"salt","type":"bytes32","internalType":"bytes32"},{"name":"extensions","type":"uint256[]","internalType":"uint256[]"}],"stateMutability":"view"},{"type":"function","name":"execute","inputs":[{"name":"request","type":"tuple","internalType":"struct ERC2771Forwarder.ForwardRequestData","components":[{"name":"from","type":"address","internalType":"address"},{"name":"to","type":"address","internalType":"address"},{"name":"value","type":"uint256","internalType":"uint256"},{"name":"gas","type":"uint256","internalType":"uint256"},{"name":"deadline","type":"uint48","internalType":"uint48"},{"name":"data","type":"bytes","internalType":"bytes"},{"name":"signature","type":"bytes","internalType":"bytes"}]}],"outputs":[],"stateMutability":"payable"},{"type":"function","name":"executeBatch","inputs":[{"name":"requests","type":"tuple[]","internalType":"struct ERC2771Forwarder.ForwardRequestData[]","components":[{"name":"from","type":"address","internalType":"address"},{"name":"to","type":"address","internalType":"address"},{"name":"value","type":"uint256","internalType":"uint256"},{"name":"gas","type":"uint256","internalType":"uint256"},{"name":"deadline","type":"uint48","internalType":"uint48"},{"name":"data","type":"bytes","internalType":"bytes"},{"name":"signature","type":"bytes","internalType":"bytes"}]},{"name":"refundReceiver","type":"address","internalType":"address payable"}],"outputs":[],"stateMutability":"payable"},{"type":"function","name":"nonces","inputs":[{"name":"owner","type":"address","internalType":"address"}],"outputs":[{"name":"","type":"uint256","internalType":"uint256"}],"stateMutability":"view"},{"type":"function","name":"verify","inputs":[{"name":"request","type":"tuple","internalType":"struct ERC2771Forwarder.ForwardRequestData","components":[{"name":"from","type":"address","internalType":"address"},{"name":"to","type":"address","internalType":"address"},{"name":"value","type":"uint256","internalType":"uint256"},{"name":"gas","type":"uint256","internalType":"uint256"},{"name":"deadline","type":"uint48","internalType":"uint48"},{"name":"data","type":"bytes","internalType":"bytes"},{"name":"signature","type":"bytes","internalType":"bytes"}]}],"outputs":[{"name":"","type":"bool","internalType":"bool"}],"stateMutability":"view"},{"type":"event","name":"EIP712DomainChanged","inputs":[],"anonymous":false},{"type":"event","name":"ExecutedForwardRequest","inputs":[{"name":"signer","type":"address","indexed":true,"internalType":"address"},{"name":"nonce","type":"uint256","indexed":false,"internalType":"uint256"},{"name":"success","type":"bool","indexed":false,"internalType":"bool"}],"anonymous":false},{"type":"error","name":"ERC2771ForwarderExpiredRequest","inputs":[{"name":"deadline","type":"uint48","internalType":"uint48"}]},{"type":"error","name":"ERC2771ForwarderInvalidSigner","inputs":[{"name":"signer","type":"address","internalType":"address"},{"name":"from","type":"address","internalType":"address"}]},{"type":"error","name":"ERC2771ForwarderMismatchedValue","inputs":[{"name":"requestedValue","type":"uint256","internalType":"uint256"},{"name":"msgValue","type":"uint256","internalType":"uint256"}]},{"type":"error","name":"ERC2771UntrustfulTarget","inputs":[{"name":"target","type":"address","internalType":"address"},{"name":"forwarder","type":"address","internalType":"address"}]},{"type":"error","name":"FailedCall","inputs":[]},{"type":"error","name":"InsufficientBalance","inputs":[{"name":"balance","type":"uint256","internalType":"uint256"},{"name":"needed","type":"uint256","internalType":"uint256"}]},{"type":"error","name":"InvalidAccountNonce","inputs":[{"name":"account","type":"address","internalType":"address"},{"name":"currentNonce","type":"uint256","internalType":"uint256"}]},{"type":"error","name":"InvalidShortString","inputs":[]},{"type":"error","name":"StringTooLong","inputs":[{"name":"str","type":"string","internalType":"string"}]}],"bytecode":{"object":"0x610160604052348015610010575f5ffd5b506040516112f43803806112f483398101604081905261002f91610189565b6040805180820190915260018152603160f81b60208201528190610053825f6100fd565b610120526100628160016100fd565b61014052815160208084019190912060e052815190820120610100524660a0526100ee60e05161010051604080517f8b73c3c69bb8fe3d512ecc4cf759cc79239f7b179b0ffacaa9a75d522b39400f60208201529081019290925260608201524660808201523060a08201525f9060c00160405160208183030381529060405280519060200120905090565b60805250503060c052506103de565b5f602083511015610118576101118361012f565b9050610129565b8161012384826102c8565b5060ff90505b92915050565b5f5f829050601f81511115610162578260405163305a27a960e01b81526004016101599190610386565b60405180910390fd5b805161016d826103bb565b179392505050565b634e487b7160e01b5f52604160045260245ffd5b5f60208284031215610199575f5ffd5b81516001600160401b038111156101ae575f5ffd5b8201601f810184136101be575f5ffd5b80516001600160401b038111156101d7576101d7610175565b604051601f8201601f19908116603f011681016001600160401b038111828210171561020557610205610175565b60405281815282820160200186101561021c575f5ffd5b8160208401602083015e5f91810160200191909152949350505050565b600181811c9082168061024d57607f821691505b60208210810361026b57634e487b7160e01b5f52602260045260245ffd5b50919050565b601f8211156102c357828211156102c357805f5260205f20601f840160051c602085101561029c57505f5b90810190601f840160051c035f5b818110156102bf575f838201556001016102aa565b5050505b505050565b81516001600160401b038111156102e1576102e1610175565b6102f5816102ef8454610239565b84610271565b6020601f821160018114610327575f83156103105750848201515b5f19600385901b1c1916600184901b17845561037f565b5f84815260208120601f198516915b828110156103565787850151825560209485019460019092019101610336565b508482101561037357868401515f19600387901b60f8161c191681555b505060018360011b0184555b5050505050565b602081525f82518060208401528060208501604085015e5f604082850101526040601f19601f83011684010191505092915050565b8051602080830151919081101561026b575f1960209190910360031b1b16919050565b60805160a05160c05160e051610100516101205161014051610ec561042f5f395f61039e01525f61036d01525f610a3d01525f610a1501525f61097001525f61099a01525f6109c40152610ec55ff3fe608060405260043610610049575f3560e01c806319d8d38c1461004d5780637ecebe001461008157806384b0196e146100c3578063ccf96b4a146100ea578063df905caf146100ff575b5f5ffd5b348015610058575f5ffd5b5061006c610067366004610b7c565b610112565b60405190151581526020015b60405180910390f35b34801561008c575f5ffd5b506100b561009b366004610bce565b6001600160a01b03165f9081526002602052604090205490565b604051908152602001610078565b3480156100ce575f5ffd5b506100d7610142565b6040516100789796959493929190610c17565b6100fd6100f8366004610cad565b610184565b005b6100fd61010d366004610b7c565b610289565b5f5f5f5f61011f856102e4565b509250925092508280156101305750815b80156101395750805b95945050505050565b5f6060805f5f5f6060610153610366565b61015b610397565b604080515f80825260208201909252600f60f81b9b939a50919850469750309650945092509050565b6001600160a01b038116155f80805b85811015610242578686828181106101ad576101ad610d2f565b90506020028101906101bf9190610d43565b6101cd906040013584610d61565b92505f6101fd8888848181106101e5576101e5610d2f565b90506020028101906101f79190610d43565b866103c4565b9050806102395787878381811061021657610216610d2f565b90506020028101906102289190610d43565b610236906040013584610d61565b92505b50600101610193565b50348214610271576040516370647f7960e01b8152600481018390523460248201526044015b60405180910390fd5b801561028157610281848261059f565b505050505050565b806040013534146102b957604080516370647f7960e01b8152908201356004820152346024820152604401610268565b6102c48160016103c4565b6102e15760405163d6bda27560e01b815260040160405180910390fd5b50565b5f5f5f5f5f5f6102f387610616565b909250905061031061030b6040890160208a01610bce565b610758565b4261032160a08a0160808b01610d80565b65ffffffffffff161015838015610355575061034060208a018a610bce565b6001600160a01b0316836001600160a01b0316145b919750955093509150509193509193565b60606103927f00000000000000000000000000000000000000000000000000000000000000005f6107d1565b905090565b60606103927f000000000000000000000000000000000000000000000000000000000000000060016107d1565b5f5f5f5f5f6103d2876102e4565b935093509350935085156104985783610420576103f56040880160208901610bce565b60405163d2650cd160e01b81526001600160a01b039091166004820152306024820152604401610268565b826104595761043560a0880160808901610d80565b604051634a777ac560e11b815265ffffffffffff9091166004820152602401610268565b81610498578061046c6020890189610bce565b604051636422d02b60e11b81526001600160a01b03928316600482015291166024820152604401610268565b8380156104a25750815b80156104ab5750825b15610595576001600160a01b0381165f908152600260205260408120805460018101909155905060608801355f6104e860408b0160208c01610bce565b905060408a01355f6104fd60a08d018d610da5565b61050a60208f018f610bce565b60405160200161051c93929190610def565b60405160208183030381529060405290505f5f5f83516020850186888af19a505a9050610549818e61087c565b604080518781528c151560208201526001600160a01b038916917f842fb24a83793558587a3dab2be7674da4a51d09c5542d6dd354e5d0ea70813c910160405180910390a25050505050505b5050505092915050565b804710156105c95760405163cf47918160e01b815247600482015260248101829052604401610268565b6105e2828260405180602001604052805f815250610894565b156105eb575050565b3d156105fd576105f96108a9565b5050565b60405163d6bda27560e01b815260040160405180910390fd5b5f80808061073361062a60c0870187610da5565b61072c7f7f96328b83274ebc7c1cf4f7a3abda602b51a78b7fa1d86a2ce353d75e587cac61065b60208b018b610bce565b61066b60408c0160208d01610bce565b8b604001358c6060013561068a8e5f01602081019061009b9190610bce565b8e608001602081019061069d9190610d80565b8f8060a001906106ad9190610da5565b6040516106bb929190610e15565b6040805191829003822060208301999099526001600160a01b0397881690820152959094166060860152608085019290925260a084015260c083015265ffffffffffff1660e082015261010081019190915261012001604051602081830303815290604052805190602001206108b4565b91906108e0565b5090925090505f81600381111561074c5761074c610e24565b14959194509092505050565b6040513060248201525f90819060440160408051601f19818403018152919052602080820180516001600160e01b031663572b6c0560e01b17815282519293505f928392839290918391895afa92503d91505f5190508280156107bc575060208210155b80156107c757505f81115b9695505050505050565b606060ff83146107eb576107e483610927565b9050610876565b8180546107f790610e38565b80601f016020809104026020016040519081016040528092919081815260200182805461082390610e38565b801561086e5780601f106108455761010080835404028352916020019161086e565b820191905f5260205f20905b81548152906001019060200180831161085157829003601f168201915b505050505090505b92915050565b61088b603f6060830135610e70565b8210156105f957fe5b5f5f5f83516020850186885af1949350505050565b6040513d5f823e3d81fd5b5f6108766108c0610964565b8360405161190160f01b8152600281019290925260228201526042902090565b5f80806041849003610914578435602086013560408701355f1a61090689828585610a8d565b95509550955050505061091e565b505f915060029050825b93509350939050565b60605f61093383610b55565b6040805160208082528183019092529192505f91906020820181803683375050509182525060208101929092525090565b5f306001600160a01b037f0000000000000000000000000000000000000000000000000000000000000000161480156109bc57507f000000000000000000000000000000000000000000000000000000000000000046145b156109e657507f000000000000000000000000000000000000000000000000000000000000000090565b610392604080517f8b73c3c69bb8fe3d512ecc4cf759cc79239f7b179b0ffacaa9a75d522b39400f60208201527f0000000000000000000000000000000000000000000000000000000000000000918101919091527f000000000000000000000000000000000000000000000000000000000000000060608201524660808201523060a08201525f9060c00160405160208183030381529060405280519060200120905090565b5f80807f7fffffffffffffffffffffffffffffff5d576e7357a4501ddfe92f46681b20a0841115610ac657505f91506003905082610b4b565b604080515f808252602082018084528a905260ff891692820192909252606081018790526080810186905260019060a0016020604051602081039080840390855afa158015610b17573d5f5f3e3d5ffd5b5050604051601f1901519150506001600160a01b038116610b4257505f925060019150829050610b4b565b92505f91508190505b9450945094915050565b5f60ff8216601f81111561087657604051632cd44ac360e21b815260040160405180910390fd5b5f60208284031215610b8c575f5ffd5b813567ffffffffffffffff811115610ba2575f5ffd5b820160e08185031215610bb3575f5ffd5b9392505050565b6001600160a01b03811681146102e1575f5ffd5b5f60208284031215610bde575f5ffd5b8135610bb381610bba565b5f81518084528060208401602086015e5f602082860101526020601f19601f83011685010191505092915050565b60ff60f81b8816815260e060208201525f610c3560e0830189610be9565b8281036040840152610c478189610be9565b606084018890526001600160a01b038716608085015260a0840186905283810360c0850152845180825260208087019350909101905f5b81811015610c9c578351835260209384019390920191600101610c7e565b50909b9a5050505050505050505050565b5f5f5f60408486031215610cbf575f5ffd5b833567ffffffffffffffff811115610cd5575f5ffd5b8401601f81018613610ce5575f5ffd5b803567ffffffffffffffff811115610cfb575f5ffd5b8660208260051b8401011115610d0f575f5ffd5b602091820194509250840135610d2481610bba565b809150509250925092565b634e487b7160e01b5f52603260045260245ffd5b5f823560de19833603018112610d57575f5ffd5b9190910192915050565b8082018082111561087657634e487b7160e01b5f52601160045260245ffd5b5f60208284031215610d90575f5ffd5b813565ffffffffffff81168114610bb3575f5ffd5b5f5f8335601e19843603018112610dba575f5ffd5b83018035915067ffffffffffffffff821115610dd4575f5ffd5b602001915036819003821315610de8575f5ffd5b9250929050565b8284823760609190911b6bffffffffffffffffffffffff19169101908152601401919050565b818382375f9101908152919050565b634e487b7160e01b5f52602160045260245ffd5b600181811c90821680610e4c57607f821691505b602082108103610e6a57634e487b7160e01b5f52602260045260245ffd5b50919050565b5f82610e8a57634e487b7160e01b5f52601260045260245ffd5b50049056fea264697066735822122097c43729d8a707cd15b29b0e795a1b125d40fd12747637b24e97d3a7bd8965c364736f6c63430008210033","linkReferences":{}},"methodIdentifiers":{"eip712Domain()":"84b0196e","execute((address,address,uint256,uint256,uint48,bytes,bytes))":"df905caf","executeBatch((address,address,uint256,uint256,uint48,bytes,bytes)[],address)":"ccf96b4a","nonces(address)":"7ecebe00","verify((address,address,uint256,uint256,uint48,bytes,bytes))":"19d8d38c"},"id":145}