{"abi":[{"type":"constructor","inputs":[],"stateMutability":"nonpayable"},{"type":"function","name":"CLOCK_MODE","inputs":[],"outputs":[{"name":"","type":"string","internalType":"string"}],"stateMutability":"pure"},{"type":"function","name":"DOMAIN_SEPARATOR","inputs":[],"outputs":[{"name":"","type":"bytes32","internalType":"bytes32"}],"stateMutability":"view"},{"type":"function","name":"allowance","inputs":[{"name":"owner","type":"address","internalType":"address"},{"name":"spender","type":"address","internalType":"address"}],"outputs":[{"name":"","type":"uint256","internalType":"uint256"}],"stateMutability":"view"},{"type":"function","name":"approve","inputs":[{"name":"spender","type":"address","internalType":"address"},{"name":"value","type":"uint256","internalType":"uint256"}],"outputs":[{"name":"","type":"bool","internalType":"bool"}],"stateMutability":"nonpayable"},{"type":"function","name":"balanceOf","inputs":[{"name":"account","type":"address","internalType":"address"}],"outputs":[{"name":"","type":"uint256","internalType":"uint256"}],"stateMutability":"view"},{"type":"function","name":"checkpoints","inputs":[{"name":"account","type":"address","internalType":"address"},{"name":"pos","type":"uint32","internalType":"uint32"}],"outputs":[{"name":"","type":"tuple","internalType":"struct Checkpoints.Checkpoint208","components":[{"name":"_key","type":"uint48","internalType":"uint48"},{"name":"_value","type":"uint208","internalType":"uint208"}]}],"stateMutability":"view"},{"type":"function","name":"clock","inputs":[],"outputs":[{"name":"","type":"uint48","internalType":"uint48"}],"stateMutability":"view"},{"type":"function","name":"decimals","inputs":[],"outputs":[{"name":"","type":"uint8","internalType":"uint8"}],"stateMutability":"view"},{"type":"function","name":"delegate","inputs":[{"name":"delegatee","type":"address","internalType":"address"}],"outputs":[],"stateMutability":"nonpayable"},{"type":"function","name":"delegateBySig","inputs":[{"name":"delegatee","type":"address","internalType":"address"},{"name":"nonce","type":"uint256","internalType":"uint256"},{"name":"expiry","type":"uint256","internalType":"uint256"},{"name":"v","type":"uint8","internalType":"uint8"},{"name":"r","type":"bytes32","internalType":"bytes32"},{"name":"s","type":"bytes32","internalType":"bytes32"}],"outputs":[],"stateMutability":"nonpayable"},{"type":"function","name":"delegates","inputs":[{"name":"account","type":"address","internalType":"address"}],"outputs":[{"name":"","type":"address","internalType":"address"}],"stateMutability":"view"},{"type":"function","name":"eip712Domain","inputs":[],"outputs":[{"name":"fields","type":"bytes1","internalType":"bytes1"},{"name":"name","type":"string","internalType":"string"},{"name":"version","type":"string","internalType":"string"},{"name":"chainId","type":"uint256","internalType":"uint256"},{"name":"verifyingContract","type":"address","internalType":"address"},{"name":"salt","type":"bytes32","internalType":"bytes32"},{"name":"extensions","type":"uint256[]","internalType":"uint256[]"}],"stateMutability":"view"},{"type":"function","name":"getPastTotalSupply","inputs":[{"name":"timepoint","type":"uint256","internalType":"uint256"}],"outputs":[{"name":"","type":"uint256","internalType":"uint256"}],"stateMutability":"view"},{"type":"function","name":"getPastVotes","inputs":[{"name":"account","type":"address","internalType":"address"},{"name":"timepoint","type":"uint256","internalType":"uint256"}],"outputs":[{"name":"","type":"uint256","internalType":"uint256"}],"stateMutability":"view"},{"type":"function","name":"getVotes","inputs":[{"name":"account","type":"address","internalType":"address"}],"outputs":[{"name":"","type":"uint256","internalType":"uint256"}],"stateMutability":"view"},{"type":"function","name":"name","inputs":[],"outputs":[{"name":"","type":"string","internalType":"string"}],"stateMutability":"view"},{"type":"function","name":"nonces","inputs":[{"name":"owner","type":"address","internalType":"address"}],"outputs":[{"name":"","type":"uint256","internalType":"uint256"}],"stateMutability":"view"},{"type":"function","name":"numCheckpoints","inputs":[{"name":"account","type":"address","internalType":"address"}],"outputs":[{"name":"","type":"uint32","internalType":"uint32"}],"stateMutability":"view"},{"type":"function","name":"permit","inputs":[{"name":"owner","type":"address","internalType":"address"},{"name":"spender","type":"address","internalType":"address"},{"name":"value","type":"uint256","internalType":"uint256"},{"name":"deadline","type":"uint256","internalType":"uint256"},{"name":"v","type":"uint8","internalType":"uint8"},{"name":"r","type":"bytes32","internalType":"bytes32"},{"name":"s","type":"bytes32","internalType":"bytes32"}],"outputs":[],"stateMutability":"nonpayable"},{"type":"function","name":"symbol","inputs":[],"outputs":[{"name":"","type":"string","internalType":"string"}],"stateMutability":"view"},{"type":"function","name":"totalSupply","inputs":[],"outputs":[{"name":"","type":"uint256","internalType":"uint256"}],"stateMutability":"view"},{"type":"function","name":"transfer","inputs":[{"name":"to","type":"address","internalType":"address"},{"name":"value","type":"uint256","internalType":"uint256"}],"outputs":[{"name":"","type":"bool","internalType":"bool"}],"stateMutability":"nonpayable"},{"type":"function","name":"transferFrom","inputs":[{"name":"from","type":"address","internalType":"address"},{"name":"to","type":"address","internalType":"address"},{"name":"value","type":"uint256","internalType":"uint256"}],"outputs":[{"name":"","type":"bool","internalType":"bool"}],"stateMutability":"nonpayable"},{"type":"event","name":"Approval","inputs":[{"name":"owner","type":"address","indexed":true,"internalType":"address"},{"name":"spender","type":"address","indexed":true,"internalType":"address"},{"name":"value","type":"uint256","indexed":false,"internalType":"uint256"}],"anonymous":false},{"type":"event","name":"DelegateChanged","inputs":[{"name":"delegator","type":"address","indexed":true,"internalType":"address"},{"name":"fromDelegate","type":"address","indexed":true,"internalType":"address"},{"name":"toDelegate","type":"address","indexed":true,"internalType":"address"}],"anonymous":false},{"type":"event","name":"DelegateVotesChanged","inputs":[{"name":"delegate","type":"address","indexed":true,"internalType":"address"},{"name":"previousVotes","type":"uint256","indexed":false,"internalType":"uint256"},{"name":"newVotes","type":"uint256","indexed":false,"internalType":"uint256"}],"anonymous":false},{"type":"event","name":"EIP712DomainChanged","inputs":[],"anonymous":false},{"type":"event","name":"Transfer","inputs":[{"name":"from","type":"address","indexed":true,"internalType":"address"},{"name":"to","type":"address","indexed":true,"internalType":"address"},{"name":"value","type":"uint256","indexed":false,"internalType":"uint256"}],"anonymous":false},{"type":"error","name":"CheckpointUnorderedInsertion","inputs":[]},{"type":"error","name":"ECDSAInvalidSignature","inputs":[]},{"type":"error","name":"ECDSAInvalidSignatureLength","inputs":[{"name":"length","type":"uint256","internalType":"uint256"}]},{"type":"error","name":"ECDSAInvalidSignatureS","inputs":[{"name":"s","type":"bytes32","internalType":"bytes32"}]},{"type":"error","name":"ERC20ExceededSafeSupply","inputs":[{"name":"increasedSupply","type":"uint256","internalType":"uint256"},{"name":"cap","type":"uint256","internalType":"uint256"}]},{"type":"error","name":"ERC20InsufficientAllowance","inputs":[{"name":"spender","type":"address","internalType":"address"},{"name":"allowance","type":"uint256","internalType":"uint256"},{"name":"needed","type":"uint256","internalType":"uint256"}]},{"type":"error","name":"ERC20InsufficientBalance","inputs":[{"name":"sender","type":"address","internalType":"address"},{"name":"balance","type":"uint256","internalType":"uint256"},{"name":"needed","type":"uint256","internalType":"uint256"}]},{"type":"error","name":"ERC20InvalidApprover","inputs":[{"name":"approver","type":"address","internalType":"address"}]},{"type":"error","name":"ERC20InvalidReceiver","inputs":[{"name":"receiver","type":"address","internalType":"address"}]},{"type":"error","name":"ERC20InvalidSender","inputs":[{"name":"sender","type":"address","internalType":"address"}]},{"type":"error","name":"ERC20InvalidSpender","inputs":[{"name":"spender","type":"address","internalType":"address"}]},{"type":"error","name":"ERC2612ExpiredSignature","inputs":[{"name":"deadline","type":"uint256","internalType":"uint256"}]},{"type":"error","name":"ERC2612InvalidSigner","inputs":[{"name":"signer","type":"address","internalType":"address"},{"name":"owner","type":"address","internalType":"address"}]},{"type":"error","name":"ERC5805FutureLookup","inputs":[{"name":"timepoint","type":"uint256","internalType":"uint256"},{"name":"clock","type":"uint48","internalType":"uint48"}]},{"type":"error","name":"ERC6372InconsistentClock","inputs":[]},{"type":"error","name":"InvalidAccountNonce","inputs":[{"name":"account","type":"address","internalType":"address"},{"name":"currentNonce","type":"uint256","internalType":"uint256"}]},{"type":"error","name":"InvalidShortString","inputs":[]},{"type":"error","name":"SafeCastOverflowedUintDowncast","inputs":[{"name":"bits","type":"uint8","internalType":"uint8"},{"name":"value","type":"uint256","internalType":"uint256"}]},{"type":"error","name":"StringTooLong","inputs":[{"name":"str","type":"string","internalType":"string"}]},{"type":"error","name":"VotesExpiredSignature","inputs":[{"name":"expiry","type":"uint256","internalType":"uint256"}]}],"bytecode":{"object":"0x610160604052348015610010575f5ffd5b506040518060400160405280601581526020017f4d79546f6b656e54696d657374616d704261736564000000000000000000000081525080604051806040016040528060018152602001603160f81b8152506040518060400160405280601581526020017f4d79546f6b656e54696d657374616d7042617365640000000000000000000000815250604051806040016040528060038152602001624d544b60e81b81525081600390816100c391906102a5565b5060046100d082826102a5565b506100e09150839050600561018a565b610120526100ef81600661018a565b61014052815160208084019190912060e052815190820120610100524660a05261017b60e05161010051604080517f8b73c3c69bb8fe3d512ecc4cf759cc79239f7b179b0ffacaa9a75d522b39400f60208201529081019290925260608201524660808201523060a08201525f9060c00160405160208183030381529060405280519060200120905090565b60805250503060c052506103bb565b5f6020835110156101a55761019e836101bc565b90506101b6565b816101b084826102a5565b5060ff90505b92915050565b5f5f829050601f815111156101ef578260405163305a27a960e01b81526004016101e69190610363565b60405180910390fd5b80516101fa82610398565b179392505050565b634e487b7160e01b5f52604160045260245ffd5b600181811c9082168061022a57607f821691505b60208210810361024857634e487b7160e01b5f52602260045260245ffd5b50919050565b601f8211156102a057828211156102a057805f5260205f20601f840160051c602085101561027957505f5b90810190601f840160051c035f5b8181101561029c575f83820155600101610287565b5050505b505050565b81516001600160401b038111156102be576102be610202565b6102d2816102cc8454610216565b8461024e565b6020601f821160018114610304575f83156102ed5750848201515b5f19600385901b1c1916600184901b17845561035c565b5f84815260208120601f198516915b828110156103335787850151825560209485019460019092019101610313565b508482101561035057868401515f19600387901b60f8161c191681555b505060018360011b0184555b5050505050565b602081525f82518060208401528060208501604085015e5f604082850101526040601f19601f83011684010191505092915050565b80516020808301519190811015610248575f1960209190910360031b1b16919050565b60805160a05160c05160e051610100516101205161014051611c1061040c5f395f610baf01525f610b8201525f61098801525f61096001525f6108bb01525f6108e501525f61090f0152611c105ff3fe608060405234801561000f575f5ffd5b5060043610610148575f3560e01c806370a08231116100bf5780639ab24eb0116100795780639ab24eb01461030d578063a9059cbb14610320578063c3cda52014610333578063d505accf14610346578063dd62ed3e14610359578063f1127ed814610391575f5ffd5b806370a08231146102865780637ecebe00146102ae57806384b0196e146102c15780638e539e8c146102dc57806391ddadf4146102ef57806395d89b4114610305575f5ffd5b80633644e515116101105780633644e515146101c15780633a46b1a8146101c95780634bf5d7e9146101dc578063587cde1e146102065780635c19a95c146102495780636fcfff451461025e575f5ffd5b806306fdde031461014c578063095ea7b31461016a57806318160ddd1461018d57806323b872dd1461019f578063313ce567146101b2575b5f5ffd5b6101546103d0565b6040516101619190611861565b60405180910390f35b61017d61017836600461188e565b610460565b6040519015158152602001610161565b6002545b604051908152602001610161565b61017d6101ad3660046118b6565b610479565b60405160128152602001610161565b61019161049c565b6101916101d736600461188e565b6104aa565b60408051808201909152600e81526d06d6f64653d74696d657374616d760941b6020820152610154565b6102316102143660046118f0565b6001600160a01b039081165f908152600860205260409020541690565b6040516001600160a01b039091168152602001610161565b61025c6102573660046118f0565b6104e4565b005b61027161026c3660046118f0565b6104f3565b60405163ffffffff9091168152602001610161565b6101916102943660046118f0565b6001600160a01b03165f9081526020819052604090205490565b6101916102bc3660046118f0565b6104fd565b6102c9610507565b6040516101619796959493929190611909565b6101916102ea36600461199f565b610549565b60405165ffffffffffff42168152602001610161565b61015461056d565b61019161031b3660046118f0565b61057c565b61017d61032e36600461188e565b61059c565b61025c6103413660046119c6565b6105a9565b61025c610354366004611a1a565b61066a565b610191610367366004611a80565b6001600160a01b039182165f90815260016020908152604080832093909416825291909152205490565b6103a461039f366004611ab1565b6107a0565b60408051825165ffffffffffff1681526020928301516001600160d01b03169281019290925201610161565b6060600380546103df90611aee565b80601f016020809104026020016040519081016040528092919081815260200182805461040b90611aee565b80156104565780601f1061042d57610100808354040283529160200191610456565b820191905f5260205f20905b81548152906001019060200180831161043957829003601f168201915b5050505050905090565b5f3361046d8185856107c4565b60019150505b92915050565b5f336104868582856107d6565b610491858585610852565b506001949350505050565b5f6104a56108af565b905090565b5f6104d46104b7836109d8565b6001600160a01b0385165f90815260096020526040902090610a1c565b6001600160d01b03169392505050565b336104ef8183610acc565b5050565b5f61047382610b3d565b5f61047382610b5e565b5f6060805f5f5f6060610518610b7b565b610520610ba8565b604080515f80825260208201909252600f60f81b9b939a50919850469750309650945092509050565b5f61055e610556836109d8565b600a90610a1c565b6001600160d01b031692915050565b6060600480546103df90611aee565b6001600160a01b0381165f90815260096020526040812061055e90610bd5565b5f3361046d818585610852565b834211156105d257604051632341d78760e11b8152600481018590526024015b60405180910390fd5b604080517fe48329057bfd03d55e49b547132e39cffd9c1820ad7b9d4c5307691425d15adf60208201526001600160a01b0388169181019190915260608101869052608081018590525f9061064b906106439060a00160405160208183030381529060405280519060200120610c0c565b858585610c38565b90506106578187610c64565b6106618188610acc565b50505050505050565b8342111561068e5760405163313c898160e11b8152600481018590526024016105c9565b5f7f6e71edae12b1b97f4d1f60370fef10105fa2faae0126114a169c64845d6126c98888886106d98c6001600160a01b03165f90815260076020526040902080546001810190915590565b6040805160208101969096526001600160a01b0394851690860152929091166060840152608083015260a082015260c0810186905260e0016040516020818303038152906040528051906020012090505f61073382610c0c565b90505f61074282878787610c38565b9050896001600160a01b0316816001600160a01b031614610789576040516325c0072360e11b81526001600160a01b0380831660048301528b1660248201526044016105c9565b6107948a8a8a6107c4565b50505050505050505050565b604080518082019091525f80825260208201526107bd8383610cb6565b9392505050565b6107d18383836001610cea565b505050565b6001600160a01b038381165f908152600160209081526040808320938616835292905220545f1981101561084c578181101561083e57604051637dc7a0d960e11b81526001600160a01b038416600482015260248101829052604481018390526064016105c9565b61084c84848484035f610cea565b50505050565b6001600160a01b03831661087b57604051634b637e8f60e11b81525f60048201526024016105c9565b6001600160a01b0382166108a45760405163ec442f0560e01b81525f60048201526024016105c9565b6107d1838383610dbc565b5f306001600160a01b037f00000000000000000000000000000000000000000000000000000000000000001614801561090757507f000000000000000000000000000000000000000000000000000000000000000046145b1561093157507f000000000000000000000000000000000000000000000000000000000000000090565b6104a5604080517f8b73c3c69bb8fe3d512ecc4cf759cc79239f7b179b0ffacaa9a75d522b39400f60208201527f0000000000000000000000000000000000000000000000000000000000000000918101919091527f000000000000000000000000000000000000000000000000000000000000000060608201524660808201523060a08201525f9060c00160405160208183030381529060405280519060200120905090565b5f4265ffffffffffff81168310610a1357604051637669fc0f60e11b81526004810184905265ffffffffffff821660248201526044016105c9565b6107bd83610dc7565b81545f9081816005811115610a78575f610a3584610dfd565b610a3f9085611b3a565b5f8881526020902090915081015465ffffffffffff9081169087161015610a6857809150610a76565b610a73816001611b4d565b92505b505b5f610a8587878585610f55565b90508015610abf57610aa987610a9c600184611b3a565b5f91825260209091200190565b54600160301b90046001600160d01b0316610ac1565b5f5b979650505050505050565b6001600160a01b038281165f8181526008602052604080822080548686166001600160a01b0319821681179092559151919094169392849290917f3134e8a2e6d97e929a7e54011ea5485d7d196dd5f0ba4d4ef95803e8e3fc257f9190a46107d18183610b3886610fab565b610fc8565b6001600160a01b0381165f9081526009602052604081205461047390611131565b6001600160a01b0381165f90815260076020526040812054610473565b60606104a57f00000000000000000000000000000000000000000000000000000000000000006005611161565b60606104a57f00000000000000000000000000000000000000000000000000000000000000006006611161565b80545f908015610c0457610bee83610a9c600184611b3a565b54600160301b90046001600160d01b03166107bd565b5f9392505050565b5f610473610c186108af565b8360405161190160f01b8152600281019290925260228201526042902090565b5f5f5f5f610c488888888861120a565b925092509250610c5882826112d2565b50909695505050505050565b6001600160a01b0382165f9081526007602052604090208054600181019091558181146107d1576040516301d4b62360e61b81526001600160a01b0384166004820152602481018290526044016105c9565b604080518082019091525f80825260208201526001600160a01b0383165f9081526009602052604090206107bd908361138a565b6001600160a01b038416610d135760405163e602df0560e01b81525f60048201526024016105c9565b6001600160a01b038316610d3c57604051634a1406b160e11b81525f60048201526024016105c9565b6001600160a01b038085165f908152600160209081526040808320938716835292905220829055801561084c57826001600160a01b0316846001600160a01b03167f8c5be1e5ebec7d5bd14f71427d1e84f3dd0314c0f7b2291e5b200ac8c7c3b92584604051610dae91815260200190565b60405180910390a350505050565b6107d18383836113f7565b5f65ffffffffffff821115610df9576040516306dfcc6560e41b815260306004820152602481018390526044016105c9565b5090565b5f60018211610e0a575090565b816001600160801b8210610e235760809190911c9060401b5b680100000000000000008210610e3e5760409190911c9060201b5b6401000000008210610e555760209190911c9060101b5b620100008210610e6a5760109190911c9060081b5b6101008210610e7e5760089190911c9060041b5b60108210610e915760049190911c9060021b5b60048210610e9d5760011b5b600302600190811c90818581610eb557610eb5611b60565b048201901c90506001818581610ecd57610ecd611b60565b048201901c90506001818581610ee557610ee5611b60565b048201901c90506001818581610efd57610efd611b60565b048201901c90506001818581610f1557610f15611b60565b048201901c90506001818581610f2d57610f2d611b60565b048201901c9050610f4c818581610f4657610f46611b60565b04821190565b90039392505050565b5f5b81831015610fa3575f85815260209020838316600285851804019081015465ffffffffffff86811691161115610f8f57809250610f9d565b610f9a816001611b4d565b93505b50610f57565b509392505050565b6001600160a01b0381165f90815260208190526040812054610473565b816001600160a01b0316836001600160a01b031614158015610fe957505f81115b156107d1576001600160a01b03831615611090576001600160a01b0383165f908152600960205260408120819061102b9061145d61102686611468565b61149b565b6001600160d01b031691506001600160d01b03169150846001600160a01b03167fdec2bacdd2f05b59de34da9b523dff8be42e5e38e818c82fdb0bae774387a7248383604051611085929190918252602082015260400190565b60405180910390a250505b6001600160a01b038216156107d1576001600160a01b0382165f90815260096020526040812081906110c8906114cc61102686611468565b6001600160d01b031691506001600160d01b03169150836001600160a01b03167fdec2bacdd2f05b59de34da9b523dff8be42e5e38e818c82fdb0bae774387a7248383604051611122929190918252602082015260400190565b60405180910390a25050505050565b5f63ffffffff821115610df9576040516306dfcc6560e41b815260206004820152602481018390526044016105c9565b606060ff831461117b57611174836114d7565b9050610473565b81805461118790611aee565b80601f01602080910402602001604051908101604052809291908181526020018280546111b390611aee565b80156111fe5780601f106111d5576101008083540402835291602001916111fe565b820191905f5260205f20905b8154815290600101906020018083116111e157829003601f168201915b50505050509050610473565b5f80807f7fffffffffffffffffffffffffffffff5d576e7357a4501ddfe92f46681b20a084111561124357505f915060039050826112c8565b604080515f808252602082018084528a905260ff891692820192909252606081018790526080810186905260019060a0016020604051602081039080840390855afa158015611294573d5f5f3e3d5ffd5b5050604051601f1901519150506001600160a01b0381166112bf57505f9250600191508290506112c8565b92505f91508190505b9450945094915050565b5f8260038111156112e5576112e5611b74565b036112ee575050565b600182600381111561130257611302611b74565b036113205760405163f645eedf60e01b815260040160405180910390fd5b600282600381111561133457611334611b74565b036113555760405163fce698f760e01b8152600481018290526024016105c9565b600382600381111561136957611369611b74565b036104ef576040516335e2f38360e21b8152600481018290526024016105c9565b604080518082019091525f8082526020820152825f018263ffffffff16815481106113b7576113b7611b88565b5f9182526020918290206040805180820190915291015465ffffffffffff81168252600160301b90046001600160d01b0316918101919091529392505050565b611402838383611514565b6001600160a01b038316611452575f61141a60025490565b90506001600160d01b038082111561144f57604051630e58ae9360e11b815260048101839052602481018290526044016105c9565b50505b6107d183838361163a565b5f6107bd8284611b9c565b5f6001600160d01b03821115610df9576040516306dfcc6560e41b815260d06004820152602481018390526044016105c9565b5f806114bf426114b76114ad88610bd5565b868863ffffffff16565b8791906116af565b915091505b935093915050565b5f6107bd8284611bbb565b60605f6114e3836116bc565b6040805160208082528183019092529192505f91906020820181803683375050509182525060208101929092525090565b6001600160a01b03831661153e578060025f8282546115339190611b4d565b909155506115ae9050565b6001600160a01b0383165f90815260208190526040902054818110156115905760405163391434e360e21b81526001600160a01b038516600482015260248101829052604481018390526064016105c9565b6001600160a01b0384165f9081526020819052604090209082900390555b6001600160a01b0382166115ca576002805482900390556115e8565b6001600160a01b0382165f9081526020819052604090208054820190555b816001600160a01b0316836001600160a01b03167fddf252ad1be2c89b69c2b068fc378daa952ba7f163c4a11628f55a4df523b3ef8360405161162d91815260200190565b60405180910390a3505050565b6001600160a01b03831661165c57611659600a6114cc61102684611468565b50505b6001600160a01b03821661167e5761167b600a61145d61102684611468565b50505b6001600160a01b038381165f908152600860205260408082205485841683529120546107d192918216911683610fc8565b5f806114bf8585856116e3565b5f60ff8216601f81111561047357604051632cd44ac360e21b815260040160405180910390fd5b82545f90819080156117d9575f6116ff87610a9c600185611b3a565b805490915065ffffffffffff80821691600160301b90046001600160d01b031690881682111561174257604051632520601d60e01b815260040160405180910390fd5b8765ffffffffffff168265ffffffffffff160361177b57825465ffffffffffff16600160301b6001600160d01b038916021783556117cb565b6040805180820190915265ffffffffffff808a1682526001600160d01b03808a1660208085019182528d54600181018f555f8f81529190912094519151909216600160301b029216919091179101555b94508593506114c492505050565b50506040805180820190915265ffffffffffff80851682526001600160d01b0380851660208085019182528854600181018a555f8a815291822095519251909316600160301b0291909316179201919091559050816114c4565b5f81518084528060208401602086015e5f602082860101526020601f19601f83011685010191505092915050565b602081525f6107bd6020830184611833565b80356001600160a01b0381168114611889575f5ffd5b919050565b5f5f6040838503121561189f575f5ffd5b6118a883611873565b946020939093013593505050565b5f5f5f606084860312156118c8575f5ffd5b6118d184611873565b92506118df60208501611873565b929592945050506040919091013590565b5f60208284031215611900575f5ffd5b6107bd82611873565b60ff60f81b8816815260e060208201525f61192760e0830189611833565b82810360408401526119398189611833565b606084018890526001600160a01b038716608085015260a0840186905283810360c0850152845180825260208087019350909101905f5b8181101561198e578351835260209384019390920191600101611970565b50909b9a5050505050505050505050565b5f602082840312156119af575f5ffd5b5035919050565b803560ff81168114611889575f5ffd5b5f5f5f5f5f5f60c087890312156119db575f5ffd5b6119e487611873565b95506020870135945060408701359350611a00606088016119b6565b9598949750929560808101359460a0909101359350915050565b5f5f5f5f5f5f5f60e0888a031215611a30575f5ffd5b611a3988611873565b9650611a4760208901611873565b95506040880135945060608801359350611a63608089016119b6565b9699959850939692959460a0840135945060c09093013592915050565b5f5f60408385031215611a91575f5ffd5b611a9a83611873565b9150611aa860208401611873565b90509250929050565b5f5f60408385031215611ac2575f5ffd5b611acb83611873565b9150602083013563ffffffff81168114611ae3575f5ffd5b809150509250929050565b600181811c90821680611b0257607f821691505b602082108103611b2057634e487b7160e01b5f52602260045260245ffd5b50919050565b634e487b7160e01b5f52601160045260245ffd5b8181038181111561047357610473611b26565b8082018082111561047357610473611b26565b634e487b7160e01b5f52601260045260245ffd5b634e487b7160e01b5f52602160045260245ffd5b634e487b7160e01b5f52603260045260245ffd5b6001600160d01b03828116828216039081111561047357610473611b26565b6001600160d01b03818116838216019081111561047357610473611b2656fea2646970667358221220a1bc684453df0312ae6c88fc947bef2d3fd3f14b02cc7437650903f14e60a6a364736f6c63430008210033","linkReferences":{}},"methodIdentifiers":{"CLOCK_MODE()":"4bf5d7e9","DOMAIN_SEPARATOR()":"3644e515","allowance(address,address)":"dd62ed3e","approve(address,uint256)":"095ea7b3","balanceOf(address)":"70a08231","checkpoints(address,uint32)":"f1127ed8","clock()":"91ddadf4","decimals()":"313ce567","delegate(address)":"5c19a95c","delegateBySig(address,uint256,uint256,uint8,bytes32,bytes32)":"c3cda520","delegates(address)":"587cde1e","eip712Domain()":"84b0196e","getPastTotalSupply(uint256)":"8e539e8c","getPastVotes(address,uint256)":"3a46b1a8","getVotes(address)":"9ab24eb0","name()":"06fdde03","nonces(address)":"7ecebe00","numCheckpoints(address)":"6fcfff45","permit(address,address,uint256,uint256,uint8,bytes32,bytes32)":"d505accf","symbol()":"95d89b41","totalSupply()":"18160ddd","transfer(address,uint256)":"a9059cbb","transferFrom(address,address,uint256)":"23b872dd"},"id":200}